:020000040800F2
:1000000000000220954000082D1300082F1300085F
:1000100031130008331300083513000800000000F6
:1000200000000000000000000000000011080008AF
:100030003713000800000000B10800083913000859
:10004000E5400008E5400008E5400008E5400008FC
:10005000E5400008E5400008E5400008E5400008EC
:10006000E5400008E5400008E5400008E5400008DC
:10007000E5400008E5400008E5400008E5400008CC
:10008000E5400008E5400008E5400008E5400008BC
:10009000E5400008E5400008E5400008E5400008AC
:1000A000E540000841130008E5400008E54000086D
:1000B000E5400008E5400008E5400008E54000088C
:1000C000E5400008E5400008E5400008E54000087C
:1000D000E5400008E5400008E5400008E54000086C
:1000E000E5400008E5400008E5400008E54000085C
:1000F000E5400008E5400008E5400008E54000084C
:10010000E5400008E5400008E5400008E54000083B
:10011000E5400008E5400008E5400008E54000082B
:10012000E5400008E5400008E5400008E54000081B
:10013000E54000080000000000000000E540000865
:10014000E5400008E5400008E5400008E5400008FB
:10015000E5400008E5400008E5400008E5400008EB
:10016000E5400008E5400008E5400008E5400008DB
:10017000E5400008511300080000000000000000E6
:08018000E5400008E54000081D
:1001900010B5054C237833B9044B13B10448AFF3C1
:1001A00000800123237010BDC0010020000000006A
:1001B000E84200080C4B43B10C480D4910B5AFF3B1
:1001C00000800C48036823B910BD0A48036833B99E
:1001D0007047094B002BF7D0BDE810401847064B7D
:1001E000002BF5D0184700BF00000000E8420008CF
:1001F000C4010020C001002000000000842801D0BC
:10020000033070470020704708B500F043FD002020
:1002100008BDF0B585B00F46446805680669B0F9B9
:100220000800FFF7EBFF03AB019300903B46B2B22F
:100230002946204600F0FCFC012802D1039805B0B5
:10024000F0BD0020FBE708B500F008FF012801D051
:1002500000F060FB08BD70470268D36843F00103FB
:10026000D3600268136843F00103136000207047F5
:10027000704770477047704710B5044603681A69A5
:1002800012F0020F11D0DA6812F0020F0DD06FF0E9
:1002900002021A610123037603689B6913F0030FBE
:1002A00070D0FFF7E6FF0023237623681A6912F067
:1002B000040F12D0DA6812F0040F0ED06FF00402AF
:1002C0001A610223237623689B6913F4407F5FD071
:1002D0002046FFF7CEFF0023237623681A6912F029
:1002E000080F12D0DA6812F0080F0ED06FF0080273
:1002F0001A61042323762368DB6913F0030F4ED0C1
:100300002046FFF7B6FF0023237623681A6912F010
:10031000100F12D0DA6812F0100F0ED06FF010022A
:100320001A61082323762368DB6913F4407F3DD0EC
:100330002046FFF79EFF0023237623681A6912F0F8
:10034000010F03D0DA6812F0010F36D123681A6961
:1003500012F0800F03D0DA6812F0800F34D12368D6
:100360001A6912F0400F03D0DA6812F0400F32D150
:1003700023681A6912F0200F03D0DA6812F0200FF8
:1003800030D110BDFFF774FF2046FFF773FF8AE7F7
:100390002046FFF76DFF2046FFF76CFF9BE72046E6
:1003A000FFF766FF2046FFF765FFACE72046FFF743
:1003B0005FFF2046FFF75EFFBDE76FF001021A61A5
:1003C000204600F0EDFEC1E76FF080021A61204682
:1003D00000F0C7FFC3E76FF040021A612046FFF745
:1003E0004AFFC5E76FF020021A61204600F0B8FF0F
:1003F000C7E700000368454A90424AD0B0F1804FF9
:1004000049D0A2F57C42904247D002F580629042EA
:1004100045D002F58062904243D002F57842904286
:1004200035D000221AB123F070034A681343374ACB
:1004300090423AD0B0F1804F50D0A2F57C42904229
:100440004ED002F5806290424CD002F5806290421C
:100450004AD002F57842904248D002F5705290425C
:1004600046D002F58062904244D002F5806290420C
:1004700042D0A2F59832904240D002F5806290427C
:100480003ED002F5806290420DD000220EE00122A3
:10049000C8E70122C6E70122C4E70122C2E7012220
:1004A000C0E70122BEE7012200E001221AB123F4D5
:1004B0004073CA68134303608B68C3620B6883622E
:1004C000124B984220D003F5806398421AD0002343
:1004D0000BB10B6903630123436170470122E5E718
:1004E0000122E3E70122E1E70122DFE70122DDE764
:1004F0000122DBE70122D9E70122D7E70122D5E774
:100500000122D3E70123E3E70123E1E700000140F3
:10051000A8B110B5044690F839305BB1022384F8D5
:100520003930211D2068FFF765FF012384F8393039
:10053000002010BD80F83830FFF78DFEEEE7012077
:1005400070470000124A12F0070F1ED0D11D21F093
:100550000701C1F5705313440A460E48026000219A
:1005600041601344083B23F007030B4803605960C4
:100570001960991A51601360084B1960084B196093
:100580004FF00042074B1A6070474FF47053E4E796
:10059000E0010020EC3D0020DC010020E83D0020CF
:1005A000E43D0020E03D002010B4134B1A68824265
:1005B0001BD359685C18A04203D1406801445960BC
:1005C000184641684418A24213D10C4C2468A24238
:1005D0000DD05268114441601A6812680260984256
:1005E00000D018605DF8044B70471346DEE70460E6
:1005F000F5E70260F3E700BFEC3D0020DC010020DE
:1006000070B5044600F084FB3A4B1B68BBB13A4B13
:100610001B681C4263D1ACB1083414F0070F11D031
:1006200024F00704083404F007035BB14FF05003D3
:1006300083F31188BFF36F8FBFF34F8FFEE7FFF790
:1006400081FFE4E7002C4CD02C4B1B689C424AD81D
:100650002B4B1D6801E02B4615466A68944202D96F
:100660002A68002AF7D1234A126895423DD01E68B5
:1006700008362A681A606B681B1B102B10D92819C2
:1006800010F0070F08D04FF0500383F31188BFF329
:100690006F8FBFF34F8FFEE743606C60FFF784FFFF
:1006A0006A6816490B689B1A0B60164909688B42E9
:1006B00001D214490B60104B1B6813436B6000237D
:1006C0002B6000F0BDFB16F0070F10D04FF0500369
:1006D00083F31188BFF36F8FBFF34F8FFEE70026C0
:1006E000EFE70026EDE70026EBE70026E9E73046D6
:1006F00070BD00BFDC010020E03D0020E43D002093
:10070000EC3D0020E83D002080B338B50446A0F160
:10071000080550F8042C164909680A4208D14FF020
:10072000500383F31188BFF36F8FBFF34F8FFEE742
:1007300050F8080C40B14FF0500383F31188BFF319
:100740006F8FBFF34F8FFEE722EA010244F8042CBB
:1007500000F0DEFA54F8041C064A13680B441360D8
:100760002846FFF721FF00F06BFB38BD704700BF44
:10077000E03D0020E43D00200B4B1B68B3F1FF3F40
:1007800008D04FF0500383F31188BFF36F8FBFF38E
:100790004F8FFEE74FF0500383F31188BFF36F8F45
:1007A000BFF34F8FFEE700BF00000020064800683F
:1007B000006880F3088862B661B6BFF34F8FBFF35D
:1007C0006F8F00DF00BF000008ED00E0DFF80C00D5
:1007D000016841F4700101607047000088ED00E09D
:1007E0004FF0807340F8043C21F0010140F8081CF0
:1007F000054B40F80C3C40F8202C6FF0020340F809
:10080000243C4438704700BF79070008000000000E
:10081000074B19680868B0E8F04F80F30988BFF308
:100820006F8F4FF0000080F311887047AFF30080A6
:10083000FC3D00204FF0500383F31188BFF36F8F0E
:10084000BFF34F8F0A4A136801331360012B0DD198
:10085000084B1B6813F0FF0F08D04FF0500383F3D1
:100860001188BFF36F8FBFF34F8FFEE7704700BF54
:100870000000002004ED00E0094B1B6843B94FF075
:10088000500383F31188BFF36F8FBFF34F8FFEE7E1
:10089000013B034A13600BB983F31188704700BF13
:1008A0000000002000000000000000000000000028
:1008B000EFF30980BFF36F8F154B1A681EF0100F0E
:1008C00008BF20ED108A20E9F04F10604DF8043D7C
:1008D0004FF0500080F31188BFF34F8FBFF36F8F3D
:1008E00000F06EFB4FF0000080F3118808BC19681F
:1008F0000868B0E8F04F1EF0100F08BFB0EC108A87
:1009000080F30988BFF36F8F704700BFAFF300809B
:10091000FC3D002008B54FF0500383F31188BFF36E
:100920006F8FBFF34F8F00F0FBF918B14FF080527B
:10093000024B1A60002383F3118808BD04ED00E028
:10094000064B1B68064AA2FB03239B09013B054A91
:1009500013600722044B1A60704700BF0400002098
:10096000D34D621014E000E010E000E0314B1A6853
:10097000314B9A421AD02F4B1A68304B9A421ED0F4
:1009800000B583B02E4B1A78D2B20192FF221A70B2
:100990001B78DBB28DF803309DF8033003F0500371
:1009A000284A13700722284B1A601BE04FF05003AF
:1009B00083F31188BFF36F8FBFF34F8FFEE74FF0C4
:1009C000500383F31188BFF36F8FBFF34F8FFEE7A0
:1009D0001D4A1368013B13609DF803305B00DBB2D6
:1009E0008DF803309DF8033013F0800FF0D1164AD4
:1009F00013681B0203F4E0631360019BDBB2104A2F
:100A00001370124B1A6842F470021A601A6842F0AE
:100A100070421A60FFF794FF00220D4B1A60FFF737
:100A2000D5FE0C4A136843F040431360FFF7BEFE47
:100A3000FFF7A2FE00ED00E071C20F4170C20F414E
:100A400000E400E0F43D0020F83D002020ED00E04F
:100A50000000002034EF00E00A4B1B681B684BB914
:100A600001234BB9074B1B68DB68DB685A68064BF0
:100A70001A6070470023F4E74FF0FF32024B1A6010
:100A8000704700BF003E0020D83E002010B504464D
:100A9000006BFFF739FE2046FFF736FE10BD2DE94B
:100AA000F04780469946089D099F0A9C266B02F1F3
:100AB0008042013A06EB820626F0070600230F2B40
:100AC00007D8C85CE21882F83400CA5C0AB1013366
:100AD000F5E7002384F84330062D00D90625E562AA
:100AE00065644FF0000AC4F848A0201D00F069FFBB
:100AF00004F1180000F065FF2461C5F10705A56148
:100B00006462C4F84CA084F850A04A46414630467E
:100B1000FFF766FE206007B13C60BDE8F08700008B
:100B200038B5002407E004EB840293000E48184413
:100B300000F03CFF0134062CF5D90C4D284600F09E
:100B400035FF0B4C204600F031FF0A4800F02EFF25
:100B5000094800F02BFF094800F028FF084B1D60F2
:100B6000084B1C6038BD00BF083E0020AC3E002092
:100B7000C03E0020E03E00200C3F0020F83E002058
:100B8000003E0020043E002010B50446FFF752FE50
:100B9000204A1368013313601F4B1B68002B31D0B0
:100BA0001E4B1B683BB91C4B1B68DA6AE36A9A420E
:100BB00001D8194B1C601A4A136801331360E36AA9
:100BC00001229A401749086802430A6003EB830335
:100BD0009A00211D1448104400F0F6FEFFF74CFE69
:100BE0000E4B1B686BB10C4B1B68DA6AE36A9A42C6
:100BF00007D24FF080520D4B1A60BFF34F8FBFF3F7
:100C00006F8F10BD044B1C601368012BD3D1FFF70D
:100C100087FFD0E7943E0020FC3D0020F43E0020FA
:100C2000A43E0020A83E0020083E002004ED00E085
:100C30002DE9F04385B006460F46154698469000CC
:100C4000FFF7DEFC00B381465420FFF7D9FC0446D1
:100C5000B0B1C0F83090CCB10023039302940D9B47
:100C600001930C9B009343462A4639463046FFF7D2
:100C700016FF2046FFF788FF012005B0BDE8F0838E
:100C80004846FFF741FDE6E70024E4E74FF0FF3078
:100C9000F3E7000000B583B0174B019300230093E6
:100CA000802216491648FFF7C3FF012805D0B0F18E
:100CB000FF3F17D003B05DF804FB4FF0500383F300
:100CC0001188BFF36F8FBFF34F8F4FF0FF320D4B83
:100CD0001A6001220C4B1A6000220C4B1A60FFF7BD
:100CE00045FEE7E74FF0500383F31188BFF36F8FA2
:100CF000BFF34F8FFEE700BFD43E0020144300082F
:100D0000990F0008D83E0020F43E0020203F00202C
:100D1000024A136801331360704700BFA03E0020F1
:100D2000F8B53C4B1B68002B68D13B4B1D68013567
:100D30001D60C5B9394B1B681B6843B14FF05003A8
:100D400083F31188BFF36F8FBFF34F8FFEE7334AF2
:100D50001168334B186810601960324A1368013308
:100D60001360FFF779FE304B1B689D423AD2002496
:100D70002E4B1B68DB6A03EB83039A002C4B9B58BA
:100D8000012B40D901243EE00124244B1B681B6841
:100D900053B3002353BB214B1B68DB68DE687368C9
:100DA0009D4228D3371D384600F01AFEB36A1BB1A6
:100DB00006F1180000F014FEF36A01229A401D4962
:100DC000086802430A6003EB83039A003946184817
:100DD000104400F0F9FDF26A144B1B68DB6A9A427A
:100DE000D2D2D2E70024D0E70123D3E74FF0FF327D
:100DF0000D4B1A60BCE70C4A1360B9E70E4A136842
:100E00000133136000240D4B1B6803B101242046FD
:100E1000F8BD00BFA03E0020203F0020003E002083
:100E2000043E0020DC3E0020D83E0020FC3D002097
:100E3000083E0020A83E00209C3E0020243F0020C9
:100E400038B5354B1B6843B94FF0500383F3118815
:100E5000BFF36F8FBFF34F8FFEE7FFF7EBFC2E4B17
:100E60001A68013A1A601B68002B50D12B4B1B6883
:100E700023B90024FFF700FD204638BD0024284B8D
:100E80001B681BB3264BDB68DC6804F1180000F01C
:100E9000A7FD251D284600F0A3FDE36A01229A4024
:100EA0002049086802430A6003EB83039A0029463D
:100EB0001D48104400F088FDE26A1C4B1B68DB6A89
:100EC0009A42DCD301221A4B1A60D8E70CB1FFF723
:100ED000C3FD184B1C6874B9154B1B68CBB14FF0A0
:100EE0008052154B1A60BFF34F8FBFF36F8F0124F1
:100EF000C0E7013C07D0FFF713FF0028F9D001221B
:100F00000B4B1A60F5E700220A4B1A60E4E7002455
:100F1000B0E70024AEE700BFA03E0020943E0020D2
:100F2000E03E0020A83E0020083E0020FC3D0020BE
:100F3000243F00209C3E002004ED00E0134B1B6882
:100F400013B310B5FFF7E4FE114B1C68FFF778FFF1
:100F500024B90E4B1B68002BF4D110BDFFF76AFCBF
:100F60000B4BDB68DC68201D00F03AFD094A136872
:100F7000013B1360054A1368013B1360FFF77CFCDB
:100F80002046FFF783FDE4E7704700BF983E00204E
:100F90000C3F0020943E002008B5FFF7CFFF064B22
:100FA0001B68012BF9D94FF08052044B1A60BFF334
:100FB0004F8FBFF36F8FF0E7083E002004ED00E095
:100FC000214B1B68C3B90022204B1A60204B1B68C1
:100FD000B3FA83F3DBB2C3F11F0303EB83018A008F
:100FE0001C498A5862B94FF0500383F31188BFF34C
:100FF0006F8FBFF34F8FFEE70122144B1A607047CB
:1010000010B414489A00D418A10001444C686468D4
:101010004C601A4491000831084484420BD003EB21
:1010200083039A000B4B13445B68DA680A4B1A601F
:101030005DF8044B7047606803EB83029100054A3A
:101040000A445060EBE700BFA03E0020243F002090
:10105000A83E0020083E0020FC3D0020054B1B68F8
:1010600023B1054B1B681BB9022070470120704754
:1010700000207047F43E0020A03E002008B5032069
:1010800000F0E8FC002211466FF00B0000F0F4FCC9
:10109000002211466FF00A0000F0EEFC002211461B
:1010A0006FF0090000F0E8FC002211466FF0040028
:1010B00000F0E2FC002211466FF0030000F0DCFCBF
:1010C00000220F216FF0010000F0D6FC00220F215A
:1010D0004FF0FF3000F0D0FC08BD000030B58BB001
:1010E000002401941C4B1A6B42F080021A631A6BA5
:1010F00002F080020192019A02941A6B42F00402FB
:101100001A631A6B02F004020292029A03941A6B99
:1011100042F002021A631A6B02F002020392039A6F
:1011200004941A6B42F001021A631B6B03F0010373
:101130000493049B094D2246F021284600F0E6FD69
:10114000F0230593012306930794089405A92846E4
:1011500000F0F6FC0BB030BD003802400008024041
:1011600008B501F003FB0D4C4021204600F0D4FDF2
:101170004FF47A7000F0FCFD2021204600F0CCFDF9
:101180004FF47A7000F0F4FD1021204600F0C4FD09
:101190004FF47A7000F0ECFDE5E700BF0008024074
:1011A00008B50268034B9A4200D008BD00F0D2FD9A
:1011B000FBE700BF00000140FEE7000000B595B06E
:1011C00000210191294B1A6C42F080521A641B6C69
:1011D00003F080530193019B0291254B1A6842F45E
:1011E00080421A601B6803F480430293029B012330
:1011F00008934FF48033099302230E934FF4800237
:101200000F920822109248221192129303231393F3
:1012100008A800F0A7F808BB0F230393022104914C
:10122000002305934FF480520692079303A800F021
:10123000B5FAB8B900F080FB0E4BA3FB0030800973
:1012400000F058FC042000F06BFC00220F214FF04E
:10125000FF3000F011FC15B05DF804FBB421064826
:10126000FFF7AAFFC2210448FFF7A6FF003802409B
:1012700000700040D34D62101C43000800B587B0D9
:1012800000F04EFDFFF79AFFFFF728FF01AC074D76
:101290000FCD0FC42B682360002101A8FEF7B9FF12
:1012A000034B1860FEF7B0FFFEE700BF00430008E5
:1012B000383F002010B588B000220146192000F008
:1012C000DBFB192000F00AFC00240194134B5A6C3C
:1012D00042F001025A645B6C03F001030193019B2D
:1012E00002A903A800F044FB00F02CFB0C4BA3FB6D
:1012F00000239B0C013B0B480B4A026040F2E73293
:10130000C260436004618460FFF702F910B10120FC
:1013100008B010BD0348FEF79FFFF9E70038024010
:1013200083DE1B433C3F0020000001407047FEE786
:10133000FEE7FEE7FEE7704708B5FEF784FF08BD4D
:1013400008B50248FEF798FF08BD00BF3C3F0020EB
:1013500008B5024800F0FAFD08BD00BFA05100200A
:101360007047704730B583B00446036813F0010F2F
:101370003BD0A94B9B6803F00C03042B2CD0A64B4D
:101380009B6803F00C03082B21D06368B3F5803F02
:101390004FD0B3F5A02F52D09F4B1A6822F4803261
:1013A0001A601A6822F480221A606368002B50D0F9
:1013B00000F0D8FC0546984B1B6813F4003F14D18D
:1013C00000F0D0FC401B6428F5D9032099E1924B32
:1013D0005B6813F4800FD8D08F4B1B6813F4003F69
:1013E00003D06368002B00F08981236813F0020F9B
:1013F0005BD0894B9B6813F00C0F3ED0864B9B68EB
:1014000003F00C03082B33D0E368002B74D00122C7
:10141000824B1A6000F0A6FC05467F4B1B6813F058
:10142000020F5AD100F09EFC401B0228F5D9032080
:1014300067E1794A136843F480331360B5E7764B6C
:101440001A6842F480221A601A6842F480321A60E4
:10145000ABE700F087FC05466F4B1B6813F4003FB9
:10146000C3D000F07FFC401B6428F5D9032048E17D
:10147000694B5B6813F4800FC6D1674B1B6813F090
:10148000020F04D0E368012B01D0012039E162484A
:10149000036823F0F8032169F82292FAA2F2B2FA63
:1014A00082F201FA02F213430360236813F0080F7B
:1014B00046D0636993B30122594B1A6000F052FC85
:1014C0000546554B5B6F13F0020F39D100F04AFC13
:1014D000401B0228F5D9032013E14F48036823F08D
:1014E000F8032169F82292FAA2F2B2FA82F201FA22
:1014F00002F213430360D8E70022484B1A6000F061
:1015000031FC0546444B1B6813F0020FCDD000F0B0
:1015100029FC401B0228F5D90320F2E00022404BB1
:101520001A6000F01FFC05463B4B5B6F13F0020F87
:1015300006D000F017FC401B0228F5D90320E0E09C
:10154000236813F0040F20D1A369002B00F0D8808A
:10155000314A926802F00C02082A00F0D480022B73
:1015600000F0808000222F4B1A6000F0FBFB044645
:10157000294B1B6813F0007F00F0BE8000F0F2FBE7
:10158000001B0228F4D90320BBE000230193224B67
:101590001A6C42F080521A641B6C03F08053019362
:1015A000019B214A136843F48073136000F0DAFB57
:1015B00005461D4B1B6813F4807F06D100F0D2FB5B
:1015C000401B0228F5D903209BE0A368012B1DD006
:1015D000052B2BD0104B1A6F22F001021A671A6FDD
:1015E00022F004021A67A36853B300F0BBFB054660
:1015F000094B1B6F13F0020FA6D100F0B3FB401B89
:1016000041F288339842F3D903207AE0024A136FFB
:1016100043F001031367E6E7003802400000474249
:10162000800E47426000474200700040374B1A6FFF
:1016300042F004021A671A6F42F001021A67D2E7F9
:1016400000F090FB0546314B1B6F13F0020F3FF487
:101650007BAF00F087FB401B41F288339842F2D900
:1016600003204EE000222A4B1A6000F07BFB054667
:10167000264B1B6813F0007F06D000F073FB401B65
:101680000228F5D903203CE0E369226A1343616A2A
:1016900047F6C07292FAA2F2B2FA82F201FA02F2AC
:1016A0001343A26A5208013A4FF4403191FAA1F172
:1016B000B1FA81F18A401343E16A4FF0706292FA05
:1016C000A2F2B2FA82F201FA02F213430F4A536015
:1016D00001220F4B1A6000F045FB04460B4B1B68C0
:1016E00013F0007F06D100F03DFB001B0228F5D966
:1016F000032006E0002004E0002002E0012000E0DA
:10170000002003B030BD0120FBE700BF00380240DD
:10171000600047421F4B9B6803F00C03082B36D137
:101720001C4A536803F03F03526812F4800F1ED026
:101730001948B0FBF3F3174A506847F6C0721040DF
:1017400092FAA2F2B2FA82F2D04000FB03F0114BFF
:101750005B6803F440334FF4403292FAA2F2B2FADB
:1017600082F2D34001335B00B0FBF3F070470A48CC
:10177000B0FBF3F3074A506847F6C072104092FA84
:10178000A2F2B2FA82F2D04000FB03F0DFE7024897
:10179000704700BF003802400024F400624B1B6811
:1017A00003F00F038B4209D2CBB25F4A1370136868
:1017B00003F00F03994201D00120704770B5036810
:1017C00013F0020F06D0594A936823F0F00384689F
:1017D000234393600D460446036813F0010F64D061
:1017E0004368012B26D09A1E012A2AD94F4A126833
:1017F00012F0020F00F096804C498A6822F0030232
:1018000013438B6000F0AEFA06466368012B1FD0CD
:10181000022B2CD0032B39D0444B9B6813F00C0FB8
:1018200043D000F09FFA801B41F288339842F3D9ED
:10183000032070BD3D4A126812F4003FDCD1012044
:1018400070BD3A4A126812F0007FD5D1012070BDF8
:10185000364B9B6803F00C03042B26D000F082FA71
:10186000801B41F288339842F2D9032070BD2F4B80
:101870009B6803F00C03082B17D000F073FA801B51
:1018800041F288339842F2D9032070BD274B9B6800
:1018900003F00C030C2B08D000F064FA801B41F21B
:1018A00088339842F2D9032070BD1F4B1B6803F0A8
:1018B0000F039D4209D2EAB21B4B1A701B6803F05A
:1018C0000F039D4201D0012070BD236813F0040F67
:1018D00006D0164A936823F4E053E1680B43936003
:1018E000236813F0080F07D0104A936823F460436D
:1018F000216943EAC1039360FFF70CFF0B4B9B6820
:1019000003F0F003F02292FAA2F2B2FA82F2D3408C
:10191000074AD35CD840074B18600020FFF7CAFC89
:10192000002070BD012070BD003C02400038024024
:101930003443000804000020014B1868704700BFC2
:101940000400002008B5FFF7F7FF074B9B6803F47E
:1019500060434FF4604292FAA2F2B2FA82F2D340AC
:10196000024AD35CD84008BD003802404443000816
:101970000F2303600B4B9A6802F0030242609A68DF
:1019800002F0F00282609A6802F4E052C2609B6842
:10199000DB0803F4E0530361034B1B6803F00F0300
:1019A0000B60704700380240003C024000F1080321
:1019B00043604FF0FF328260C36003610023036025
:1019C000704700230361704743684B609A688A60E0
:1019D0009A68516099600861036801330360704739
:1019E00003694268816891608268416851605A6801
:1019F000904205D0002202611868013818607047D3
:101A000082685A60F6E700000F49D1F8883043F445
:101A10007003C1F888300D4B1A6842F001021A6059
:101A2000002098601A6822F0847222F480321A60D2
:101A3000074A5A601A6822F480221A60D8604FF070
:101A400000638B60704700BF00ED00E0003802408B
:101A500010300024074AD36823F4E0631B041B0CF6
:101A6000000200F4E060184340F0BF6040F4003032
:101A7000D060704700ED00E030B4164BDB68C3F374
:101A80000223C3F10704042C28BF04241D1D062DC6
:101A900017D9033B012505FA04F4013C2140994084
:101AA00005FA03F3013B1340194300280BDB09013E
:101AB000C9B200F1604000F5614080F8001330BC0D
:101AC00070470023E6E700F00F000901C9B2024B9E
:101AD0001954F4E700ED00E014ED00E0420900F0D5
:101AE0001F00012303FA00F0014B43F82200704766
:101AF00000E100E00138B0F1807F0AD2064B586067
:101B0000F021064A82F823100020986007221A600C
:101B100070470120704700BF10E000E000ED00E0DA
:101B2000042805D0054A136823F0040313607047A6
:101B3000024A136843F004031360704710E000E0AA
:101B4000F0B583B000244BE04FEAD40E0EF1080E3E
:101B500050F82E2004F00706B6000F27B74022EAFF
:101B600007020F6907FA06F6324340F82E2046E0D6
:101B7000072600E0002606FA0EF6324302335E4ED8
:101B800046F823205D4B1A68EB4302EA03064F68D0
:101B900017F4803F01D045EA0206584A16605268A1
:101BA00003EA02064F6817F4003F01D045EA020637
:101BB000524A5660926803EA02064F6817F4801F83
:101BC00001D045EA02064D4A9660D26813404E683D
:101BD00016F4001F01D045EA0203484AD3600134DD
:101BE0000F2C00F286800123A3400A6803EA020555
:101BF000AB42F4D14A68022AA6D0122AA4D00668C1
:101C00004FEA440E032202FA0EF2D24316404F6806
:101C100007F0030707FA0EF73E4306604E68771E8B
:101C2000012F03D9112E01D0122E0FD18668164034
:101C3000CF6807FA0EF73E438660466826EA03033C
:101C40004E68C6F30016A64033434360C3681A408B
:101C50008B6803FA0EF31A43C2604B6813F0805F7F
:101C6000BDD000230193264B5A6C42F480425A6443
:101C70005B6C03F480430193019BA3089E1C1E4AE6
:101C800052F8262004F003064FEA860E0F2606FAC5
:101C90000EF622EA06021B4FB8423FF46BAF1A4E13
:101CA000B0421AD006F58066B04218D006F58066BC
:101CB000B04216D006F58066B04214D006F58066B4
:101CC000B04212D006F58066B04210D006F58066AC
:101CD000B0423FF44DAF08264DE701264BE7022600
:101CE00049E7032647E7042645E7052643E7062696
:101CF00041E703B0F0BD00BF00380140003C0140A7
:101D000000380240000002400004024012B90904F9
:101D100081617047816170474369594041617047F3
:101D200008B50B4B1A6842F400721A601A6842F444
:101D300080621A601A6842F480721A600320FFF70A
:101D400089FE0020FFF7B6FAFFF798F9002008BDDA
:101D5000003C0240024A136801331360704700BF21
:101D6000783F0020014B1868704700BF783F002083
:101D700030B583B00190FFF7F5FF0546019CB4F143
:101D8000FF3F00D00134FFF7EDFF401BA042FAD324
:101D900003B030BD2DE9F04383B007460D46D0F8BF
:101DA0000080CA00521A93000344DE6C1A6DB61A02
:101DB0001B6C9E4200D91E4606F103094FEA9909A1
:101DC00015E006F103094FEA9909EB005B1B9C0043
:101DD0003C44616C3B7C0093B3B2EAB2404601F0F4
:101DE0005FFA636C33446364236D33442365414677
:101DF00008EB451303F510639B699BB2994512D21A
:101E0000EA00521B93003B441A6DDB6C9A420AD2E3
:101E10004BB19E1AC5EBC50293003B441B6C9E421E
:101E2000CFD91E46CDE73EB90123AB40D1F8345897
:101E300025EA0305C1F83458002003B0BDE8F0835B
:101E400000286BD0F0B58BB00446032380F8B9337B
:101E500001F06AFB206800F06FFE254655F8107B04
:101E60006E460FCD0FC60FCD0FC695E8030086E86E
:101E70000300231D0ECB384600F01AFE0021206817
:101E800000F060FE002210E0D100891A8B0023448C
:101E9000012183F8391083F83820DA87002183F88C
:101EA0003B1019645964D96401320E2AECD900221E
:101EB00018E0D100891A8B002344002183F8F9111E
:101EC00083F8F821DA8783F8FB11C3F80012C3F80E
:101ED0000412C3F80C12236802F1400003EB8003E4
:101EE000596001320E2AE4D9254655F8107B6E461A
:101EF0000FCD0FC60FCD0FC695E8030086E803008F
:101F0000231D0ECB384600F033FE012384F8B9338D
:101F1000206801F070FA00200BB0F0BD012070477E
:101F200090F8B833012B01D10220704710B5044658
:101F3000012380F8B833006801F051FA206800F0FE
:101F4000F5FD002084F8B80310BD00002DE9F0472E
:101F500004460768384601F085FA08B1BDE8F08705
:101F60000646206801F053FA0028F7D0206801F0F7
:101F70004EFA10F0020F04D02268536903F00203F6
:101F80005361206801F043FA10F4002F75D13546F3
:101F9000206801F03CFA10F4802F40F0D2802068D5
:101FA00001F035FA0028C0F23E81206801F02FFAD6
:101FB00010F4006F0AD0D7F8083813F0010F40F082
:101FC00041812268536903F400635361206801F082
:101FD0001EFA10F4805F40F03981206801F017FA92
:101FE00010F4005F40F08281206801F010FA10F0D8
:101FF000100F14D02268936923F0100393613E6A96
:1020000006F00F08C6F34343022B00F00382062BB1
:1020100000F021822268936943F0100393612068E5
:1020200001F0F5F910F0080F40F02982206801F066
:10203000EEF910F4801F40F02B82206801F0E7F9E0
:1020400010F4001F40F02E82206801F0E0F910F03B
:10205000804F40F03182206801F0D9F910F0040F70
:102060003FF47CAF23685D6815F0040F40F02D82CB
:1020700023685A6815435D6070E7206801F0CBF96A
:102080008046354621E0E900491B8A002244D2F807
:1020900000121B69C3F31203C91AC2F81012D2F856
:1020A0000012D2F804320B44C2F8043228E019F0CE
:1020B000080F3DD119F0100F04D007EB4513102283
:1020C000C3F8082B01354FEA5808B8F1000F3FF468
:1020D0005FAF18F0010FF5D05FFA85FA514620681E
:1020E00001F0A9F9814610F0010FE0D007EB45138C
:1020F0000122C3F8082B03F530632269012AC2D0FC
:102100005146204601F04AFA2369012BCFD1002D18
:10211000CDD1C5EBC50293002344D3F80C32002B7C
:10212000C5D104F56F720121206801F0BBF9BEE74B
:10213000204601F02BFA07EB45130822C3F8082BC1
:10214000B8E7206801F06FF9804635462EE0EA00D6
:10215000521B93002344196C5A6C0A445A6446E09B
:1021600019F0080F04D007EB45130822C3F808291B
:1021700019F0100F04D007EB45131022C3F80829FB
:1021800019F0400F04D007EB45134022C3F808298B
:1021900019F0020F04D007EB45130222C3F80829F7
:1021A00019F0800F3AD101354FEA5808B8F1000F05
:1021B0003FF4F5AE18F0010FF5D05FFA85FA5146FD
:1021C000206801F041F9814610F0010FC8D00122CA
:1021D00002FA05F0D7F8343823EA0003C7F8343898
:1021E00007EB4513C3F8082923699342AFD0514642
:1021F000204601F0DFF92369012BB1D1002DAFD1C9
:10220000C5EBC50293002344DB6C002BA8D104F579
:102210006F720121206801F045F9A1E729462046A7
:10222000FFF7B8FDBFE7D7F8043823F00103C7F87C
:102230000438204601F0F8F92268536903F000439E
:102240005361B2E6204601F0D7F9BAE6B84607F581
:102250000069D9F8043023F00103C9F804301021D3
:10226000206800F02DFD07E008EB4613FF22C3F8BD
:102270000829C3F8082B013663689E42F4D34FF057
:10228000FF33C9F81830D9F81C3043F00113C9F8EE
:102290001C30236BEBB1D9F8843043F00B03C9F841
:1022A0008430D9F8443043F00B03C9F84430D7F8F0
:1022B000003823F4FE63C7F8003804F56F72217C00
:1022C000206801F0EFF82268536903F480535361EA
:1022D00083E6D9F8143043F00B03C9F81430D9F869
:1022E000103043F00B03C9F81030E0E7206801F02C
:1022F000BDF82268D36823F47053D360206800F0DF
:102300000CFD90B90023E3604FF400736361226811
:10231000D36843F41053D360204601F05CF922687F
:10232000536903F4005353615EE60323E3604023E3
:102330006361FFF701FB674B0344674A934205D88B
:102340002268D36843F47053D360E5E7634B0344DA
:10235000634A934205D82268D36843F46053D3603C
:10236000DAE7A0F57403A3F510535E4A934205D84B
:102370002268D36843F45053D360CDE7A0F1837350
:10238000A3F5E743584A934205D82268D36843F43B
:102390004053D360C0E7554B0344554A934205D898
:1023A0002268D36843F43053D360B5E7514B0344FC
:1023B000514A934205D82268D36843F42053D3602E
:1023C000AAE74E4B03444E4A934205D82268D3688D
:1023D00043F41053D3609FE7A0F1B773A3F55853AC
:1023E000484A934205D82268D36843F40053D36027
:1023F00092E7454B0344454A934205D82268D36887
:1024000043F4E053D36087E72268D36843F4C053B2
:10241000D36081E747F6F0731E423FF4FBAD360907
:102420004FEAC80AAAEB08034FEA8309A144C6F39E
:102430000A02D9F80412384600F046FFC6F30A062D
:10244000D9F804323344C9F80432D9F810321E44A2
:10245000C9F81062DEE5082204F56F71384600F015
:1024600033FFC6F30A164FEAC803A3EB08018A003C
:102470002244D2F810321E44C2F81062CAE5204647
:1024800001F0A3F82268536903F008035361CDE516
:10249000E9B2204601F0D4F82268536903F48013AE
:1024A0005361CAE5E9B2204601F0C4F822685369D5
:1024B00003F400135361C7E5204601F0C7F8226812
:1024C000536903F080435361C5E5204601F0C4F829
:1024D000CEE500BF405327FFFF340C00401E1BFF1A
:1024E0003F420F007F4F12001FD6130060B6E5FE7B
:1024F0005FE3160000D3CEFE3F771B00C05BB3FE48
:10250000BF9121001F753800E05459FEDF9C410047
:1025100090F8B833012B01D10220704710B5044662
:10252000012380F8B833006800F049FF002084F8E8
:10253000B80310BD70B54DB2002D18DB01F07F0659
:10254000C6EBC606B40004F5FC74044401F07F0138
:102550002170ED0F6570A260E37005B1E180022B80
:102560000DD090F8B833012B0CD1022070BD01F0D2
:102570007F06C6EBC606B40038340444E6E7002301
:102580002371EEE70546012380F8B8332146006841
:1025900000F0E3FB002085F8B80370BD10B54AB227
:1025A000002A12DB01F07F04C4EBC404A30003F58E
:1025B000FC73034401F07F011970D20F5A7090F838
:1025C000B823012A09D1022010BD01F07F04C4EB19
:1025D000C404A30038330344ECE70446012280F826
:1025E000B8231946006800F001FC002084F8B80305
:1025F00010BD70B501F07F06F500A91B8C0004F535
:10260000FC740119AD1BAC000444C4F80422C4F8E6
:102610000C320023C4F8103284F8F93184F8F861E0
:102620000369012B06D066B1DAB2006800F056FCEF
:10263000002070BDC6EBC605AC000444C4F80822F7
:10264000F1E7DAB2006800F07BFDF1E701F00F017D
:10265000C1EBC1018B001844B0F81002704770B58F
:1026600001F07F06F500A91B8C0038340119AD1B61
:10267000AC0004446264E36400232365012384F80E
:10268000393084F838600369012B06D05EB1DAB2C4
:10269000006800F023FC002070BDC6EBC605AC004E
:1026A0000444A264F2E7DAB2006800F049FDF2E700
:1026B00038B54AB2002A12DBC1EBC104A30003F50E
:1026C000FC73034401249C7001F07F041C70D20F42
:1026D0005A7090F8B823012A09D1022038BD01F0C0
:1026E0007F04C4EBC404A30038330344EAE705467F
:1026F000012280F8B8231946006800F0F9FD1CB1EA
:10270000002085F8B80338BD05F56F72297C28686C
:1027100000F0C8FEF4E710B54AB2002A12DBC1EBA4
:10272000C104A30003F5FC73034400249C7001F072
:102730007F011970D20F5A7090F8B823012A09D17D
:10274000022010BD01F07F04C4EBC404A3003833A1
:102750000344EAE70446012280F8B82319460068DA
:1027600000F0F8FD002084F8B80310BD10B5094C46
:1027700001220949204601F0A5F80849204601F048
:10278000B8F80749204600F0FDF8204601F0B8F8F7
:1027900010BD00BF7C3F0020280100200800002061
:1027A00018010020D0F818321BB10020C3F8140221
:1027B00070470220704710B5D0F81842D0F81C328C
:1027C0005BB194F80002FF2807D09B6894F80122BF
:1027D00021469847FF2384F80032002010BD0000F6
:1027E00043230380004870474000002043230380B8
:1027F000004870478400002043230380004870474E
:10280000D40000200A23038000487047C80000203D
:1028100038B50446D0F8185200F0ECFFC5F80C02A9
:10282000D4F818324BB1D4F81C32DB6805F50371CB
:10283000D5F804029847002038BD022038BD0000BA
:1028400070B505460C46D0F818620B7813F060029C
:1028500024D0202A25D1CA88CAB113F0800F0AD10A
:102860004B7886F80032CB8886F80132CA88314628
:1028700000F0F1F815E0D0F81C329B683146607822
:102880009847E2883146284600F0D0F809E0D0F8B1
:102890001C329B6800224878984702E04B780A2B4C
:1028A00001D0002070BD0122014900F0BFF8F8E717
:1028B000283F002010B50446812100F030FF01219F
:1028C000204600F02CFF8221204600F028FFD4F89B
:1028D000183253B1D4F81C325B689847D4F8180208
:1028E00001F02EFC0023C4F81832002010BD38B5CA
:1028F0000446037C73BB4FF400730222812100F075
:10290000FDFE4FF4007302220121204600F0F6FE86
:10291000082303228221204600F0F0FE4FF40770C6
:1029200001F006FC0546C4F8180248B3D4F81C327E
:102930001B6898470023C5F81432C5F81832237C69
:10294000A3B14023D5F804220121204600F044FF22
:10295000002038BD40230222812100F0CFFE402319
:1029600002220121204600F0C9FED1E74FF4007396
:10297000D5F804220121204600F02EFF002038BDAA
:10298000012038BD19B1C0F81C1200207047022088
:102990007047D0F81832C3F80812C3F8102200208C
:1029A0007047D0F81832C3F8041200207047D0F8EE
:1029B00018229AB108B5037C3BB14023D2F8042217
:1029C000012100F009FF002008BD4FF40073D2F888
:1029D0000422012100F000FF002008BD0220704702
:1029E000002070470020704710B5054C0146204676
:1029F000FFF7D7FF2046FFF7DAFF002010BD00BF2A
:102A00007C3F002010B5064C002206492046FFF707
:102A1000C0FF05492046FFF7C4FF002010BD00BFDE
:102A20007C3F0020A0490020A041002010B51346A3
:102A30000222C0F8F4218361C3610A46002100F03C
:102A4000BDFE002010BD08B513460A46002100F067
:102A5000B5FE002008BD10B513460322C0F8F421CE
:102A6000C0F80831C0F80C310A46002100F0B4FE6D
:102A7000002010BD08B513460A46002100F0ACFE48
:102A8000002008BD08B50423C0F8F43100231A461D
:102A9000194600F093FE002008BD08B50523C0F8D4
:102AA000F43100231A46194600F096FE002008BDB6
:102AB00084B010B5044603A880E80E00089B012BE3
:102AC00011D0E36843F04003E360204600F00EFDC0
:102AD0004FF48033A363069B012B1ED00020BDE87A
:102AE000104004B07047A36B23F48033A363E36802
:102AF00023F4840323F04003E360E36823F44013EA
:102B0000E3600F9B012B03D0204600F0EFFCE2E7CF
:102B1000E36843F48013E360F6E7A36843F0060339
:102B2000A360A36843F02003A360D7E7836843F062
:102B30000103836000207047836823F001038360F2
:102B40000020704708B5C36823F0C043C360012963
:102B500009D019B9C36843F08043C3603220FFF73E
:102B600007F9002008BDC36843F00053C360F5E7D0
:102B700084B0F8B5054607A880E80E00119F1FBB7A
:102B8000AB6B43F40013AB632C460023C5F8003E47
:102B900005F50066D5F80038C5F800380C9B012B08
:102BA00017D00321284600F0B1F81021284600F084
:102BB00087F8284600F098F80023336173614FF0DE
:102BC000FF32B261F36119E0AB6B43F40023AB63F6
:102BD000DAE7099B23B90021284600F097F8E4E7DB
:102BE0000121284600F092F8DFE74FF09040C2F84C
:102BF000000900220A61FF228A60013307998B4293
:102C00000BD204EB431202F51061D2F80009002840
:102C1000EBDB0020C2F80009EBE7002308E04FF0EF
:102C2000904EC2F800EB00220261FF228260013365
:102C30008B420DD204EB431202F53060D2F800EB68
:102C4000BEF1000FEBDB4FF0000EC2F800EBEAE73D
:102C5000336923F4807333610A9B012B1AD000225D
:102C6000AA616FF080426A611BB9AB6943F010033F
:102C7000AB61AA69104B1343AB610D9B1BB1AB69F0
:102C800043F00803AB61012F0ED00020BDE8F840EF
:102C900004B07047094A3263326B42F4803242F02A
:102CA00003023263326BDAE7AB6943F0804343F0EF
:102CB0000403AB61E9E700BF00383C8000018000FD
:102CC000890141F02001016100230133054A93424B
:102CD00005D8026912F0200FF7D1002070470320B9
:102CE000704700BF400D0300102303610023013330
:102CF000054A934205D8026912F0100FF7D100205F
:102D000070470320704700BF400D0300D0F8003823
:102D10001943C0F8001800207047D0F8083800F5B3
:102D2000006013F0060F10D0836803F00603022B37
:102D30000DD0836803F00603062B0AD0836803F0E6
:102D40000603042B07D000207047002070470320A3
:102D50007047032070470220704730B44B78012B36
:102D600022D0D0F81C380D780122AA4043EA024351
:102D7000C0F81C380B7800EB4310D0F8003B13F47C
:102D8000004F0ED1D0F8003B8A68C2F30A02C9781E
:102D900042EA8142134343F0805343F40043C0F8B6
:102DA000003B002030BC7047D0F81C280D78AB40A9
:102DB0009BB21343C0F81C380C7800EB4410D0F8D9
:102DC000003913F4004FECD1D0F800398A68C2F30F
:102DD0000A02C97842EA814242EA8452134343F02C
:102DE000805343F40043C0F80039DAE738B54B7834
:102DF000012B36D00B78044600EB4313D3F8002B9D
:102E000022F40042C3F8002B0B7800EB43134FF081
:102E10000062C3F8002B0B7800EB43134FF08042A5
:102E2000C3F8002B002201322B4B9A4252D80B7868
:102E300004EB431303F530639B6813F0100FF2D1DA
:102E4000D0F8043843F48063C0F80438D0F81C3854
:102E5000097801228A4023EA0243C0F81C38002086
:102E600038BD0B78044600EB4313D3F8002922F455
:102E70000042C3F800290B7800EB43134FF00062C7
:102E8000C3F800290B7800EB43134FF08042C3F8DE
:102E9000002900220132104B9A4219D80B7804EB1A
:102EA000431303F510639B6813F0804FF2D10D4676
:102EB00004461021FFF704FFD4F81C2829780123C9
:102EC0008B409BB222EA0303C4F81C38002038BDB3
:102ED000032038BD032038BD400D030070B582B01B
:102EE0004B78012B3ED00B7800EB4313D3F8104BFB
:102EF000E40CE404C3F8104B0B7800EB4313D3F855
:102F0000104B24F0FF5424F4C014C3F8104B4B6949
:102F1000002B40F0D4800B7800EB4313D3F8104B18
:102F20008D68C5F312052C43C3F8104B0B7800EBEA
:102F30004313D3F8104B44F40024C3F8104B012A78
:102F400000F0DC80CB78012B00F0DF800B7800EB09
:102F50004310D0F8003B43F00443C0F8003B00208E
:102F600002B070BD4B696BBB0B7800EB4313D3F819
:102F7000104924F0FF5424F4C014C3F810490B780E
:102F800000EB4313D3F8104944F40024C3F810496C
:102F90000B7800EB4313D3F81049E40CE404C3F8B6
:102FA0001049012A54D0CB78012B57D04B69002B04
:102FB00054D0D0F834380E780124B4402343C0F8FC
:102FC00034384BE00B7800EB4313D3F81049E40C92
:102FD000E404C3F810490B7800EB4313D3F810490D
:102FE00024F0FF5424F4C014C3F810490C7800EB0B
:102FF0004414D4F810594B698E683344013BB3FB39
:10300000F6F34E4E06EAC3432B43C4F810390B784F
:1030100000EB4313D3F810494D69C5F312052C4357
:10302000C3F81049CB78012BBBD10B7800EB4313CD
:10303000D3F8104924F0C044C3F810490B7800EBD2
:103040004313D3F8104944F00054C3F81049A8E7DB
:103050000B7800EB43130C69C3F81449CB78012BB0
:1030600014D00B7800EB4313D3F8004944F0044428
:10307000C3F80049CB78012B7FF471AF14468B8ADB
:103080000A78C968009400F00BF968E7D0F80838AE
:1030900013F4807F09D10B7800EB4313D3F8004978
:1030A00044F00054C3F80049DBE70B7800EB43130E
:1030B000D3F8004944F08054C3F80049D1E78C6844
:1030C0002344013BB3FBF4F30C7800EB4414D4F835
:1030D000105B1A4E06EAC3463543C4F8105B0C7801
:1030E00000EB4414D4F8106B8D689BB205FB03F51C
:1030F000C5F312053543C4F8105B20E70B7800EBED
:103100004313CA68C3F8142B1CE7D0F8083813F42B
:10311000807F09D10B7800EB4313D3F8002B42F0EA
:103120000052C3F8002B11E70B7800EB4313D3F8E0
:10313000002B42F08052C3F8002B07E70000F81F75
:1031400030B44B78012B39D00B7800EB4313D3F814
:10315000104BE40CE404C3F8104B0B7800EB431362
:10316000D3F8104B24F0FF5424F4C014C3F8104BD0
:103170004B690BB18B684B610B7800EB4313D3F8B1
:10318000104B44F40024C3F8104B0B7800EB4313AE
:10319000D3F8104B8D68C5F312052C43C3F8104BC0
:1031A000012A76D00B7800EB4310D0F8003B43F0B7
:1031B0000443C0F8003B002030BC70474B699BBB08
:1031C0000B7800EB4313D3F8104924F0FF5424F498
:1031D000C014C3F810490B7800EB4313D3F810491F
:1031E00044F40024C3F810490B7800EB4313D3F8E0
:1031F0001049E40CE404C3F810490B7800EB4313C6
:10320000D3F8004944F00444C3F80049012A39D0F6
:103210004B69002BCFD0D0F83438097801228A408E
:103220001343C0F83438C6E70B7800EB4313D3F8E8
:103230001049E40CE404C3F810490B7800EB431385
:10324000D3F8104924F0FF5424F4C014C3F81049F3
:103250004C698B689C4200D94B610B7800EB43139F
:10326000D3F8104944F40024C3F810490B7800EB5C
:103270004313D3F810494D69C5F312052C43C3F825
:103280001049BAE70B7800EB43100B69C0F814390A
:1032900091E70B7800EB4313CA68C3F8142B81E75E
:1032A00070B49DF80C4064B903339E0807E000EB4E
:1032B000023303F5805351F8045B1D600134B442BE
:1032C000F5D3002070BC704703329208002393426C
:1032D0000CD210B400F58054246841F8044B01333B
:1032E0009342F7D308465DF8044B70470846704791
:1032F0004B78012B17D00B7800EB4313D3F8002B3E
:10330000002A05DBD3F8002B22F08042C3F8002B03
:103310000B7800EB4310D0F8003B43F40013C0F8E7
:10332000003B002070470B7800EB4313D3F80029D3
:10333000002A05DBD3F8002922F08042C3F80029D7
:103340000B7800EB4310D0F8003943F40013C0F8B9
:103350000039E6E74B78012B0FD00B7800EB4313D5
:10336000D3F8002B22F40012C3F8002BCB78023BD9
:10337000DBB2012B19D9002070470B7800EB431307
:10338000D3F8002922F40012C3F80029CB78023BBD
:10339000DBB2012BEFD80B7800EB4310D0F80039EB
:1033A00043F08053C0F80039E5E70B7800EB431099
:1033B000D0F8003B43F08053C0F8003BDBE7D0F887
:1033C000003823F4FE63C0F80038D0F80038090153
:1033D00001F4FE610B43C0F800380020704708B5C7
:1033E000D0F8043823F00203C0F804380320FEF7B5
:1033F000BFFC002008BD08B5D0F8043843F0020334
:10340000C0F804380320FEF7B3FC002008BD426971
:10341000806910407047D0F8183800F50060C06926
:103420001840000C7047D0F8183800F50060C069EB
:10343000184080B2704700EB4111D1F8082B00F51D
:103440000060406910407047D0F81028D0F8343838
:10345000CB40DB01DBB2134300EB4111D1F808098B
:1034600018407047406900F001007047D0F80039FB
:1034700023F4FF6323F00703C0F8003900F500636D
:103480009A6802F00602042A05D05A6842F4807253
:103490005A6000207047D0F8002942F00302C0F8BB
:1034A0000029F2E710B40024C0F8104BD0F8104BFC
:1034B00044F40024C0F8104BD0F8104B44F018042A
:1034C000C0F8104BD0F8104B44F0C044C0F8104B7B
:1034D000012903D000205DF8044B7047C0F8142B7D
:1034E0004FF08023C0F8003BF4E7000000230133D5
:1034F0000C4A934211D80269002AF8DA036943F0B2
:103500000103036100230133064A934207D802698D
:1035100012F0010FF7D100207047032070470320FD
:10352000704700BF400D03000268154B9A4200D05F
:10353000704710B586B04FF44043019302230293C5
:1035400000240394032304930C23059301A90D483D
:10355000FEF7F6FA00940C4B1A6B42F000521A6315
:103560001B6B03F000530093009B224605214D2066
:10357000FEF782FA4D20FEF7B1FA06B010BD00BF8B
:1035800000000440000402400038024008B500F585
:103590006F71D0F8EC0300F0CCF908BD08B5C1EBB1
:1035A000C10293000344D3F80422D0F8EC0300F0E6
:1035B000EDF908BD08B5C1EBC102930003445A6C94
:1035C000D0F8EC0300F017FA08BD08B5D0F8EC030A
:1035D00000F09BFA08BD10B50446C3684BB1012149
:1035E000D4F8EC0300F07FFAD4F8EC0300F05CFAB6
:1035F00010BD0021F4E7000010B50446D0F8EC033C
:1036000000F074FA2268D2F8003E43F00103C2F8D9
:10361000003E236A23B1034A136943F00603136192
:1036200010BD00BF00ED00E008B5D0F8EC0300F0DD
:1036300066FA08BD08B5D0F8EC0300F076FA08BDCC
:1036400008B5D0F8EC0300F06EFA08BD08B5D0F864
:10365000EC0300F06CFA08BD08B5D0F8EC0300F0FC
:1036600068FA08BD0378012B01D00020704710B51F
:1036700003461848C0F8EC33C3F82002164B036029
:10368000062343600222C26000230361436182611A
:10369000C36103624362C36203634363FEF7D0FB0B
:1036A00090B90C4C4FF40071204600F0EEFC8022E3
:1036B0000021204600F0C5FC4FF4BA7201212046DB
:1036C00000F0BFFC002010BD40F235110348FDF7AB
:1036D00073FDE6E7A0510020000004404C430008C1
:1036E00008B5D0F82002FEF71BFC18B1022803D061
:1036F000022008BD002008BD012008BD10B51C46F1
:1037000013462246D0F82002FEF714FF18B1022813
:1037100003D0022010BD002010BD012010BD08B54F
:10372000D0F82002FEF73AFF18B1022803D0022099
:1037300008BD002008BD012008BD08B5D0F8200252
:10374000FEF7B6FF18B1022803D0022008BD002002
:1037500008BD012008BD08B5D0F82002FEF7DBFF48
:1037600018B1022803D0022008BD002008BD0120A6
:1037700008BDD0F8203211F0800F08D101F07F0190
:10378000C1EBC1018A00134493F8FA01704701F0BC
:103790007F01C1EBC1018A00134493F83A007047DE
:1037A00008B5D0F82002FEF7B3FE18B1022803D006
:1037B000022008BD002008BD012008BD08B5D0F8D2
:1037C0002002FEF74CFF18B1022803D0022008BDEA
:1037D000002008BD012008BD08B5D0F82002FEF782
:1037E00008FF18B1022803D0022008BD002008BD40
:1037F000012008BD08B5D0F82002FEF727FF08BD5C
:1038000012230B80004870474401002004230B80E2
:10381000004870475801002008B50A4628B10549FC
:10382000054800F0F1FB034808BD0249024800F0DA
:10383000EBFBF8E7905500208C43000810B5044CD2
:103840000A462146034800F0DFFB204610BD00BFBA
:10385000905500207843000808B50A4628B105496C
:10386000054800F0D1FB034808BD0249024800F0BA
:10387000CBFBF8E790550020A443000808B50A46A2
:1038800028B10549054800F0BFFB034808BD0249BF
:10389000024800F0B9FBF8E7905500205C430008AF
:1038A00008B50A4628B10549054800F0ADFB0348B4
:1038B00008BD0249024800F0A7FBF8E79055002038
:1038C0006843000898B108B50346D0F8140210B157
:1038D0000020C3F8140209B1C3F8101218460123DE
:1038E00080F8FC310270FFF7BDFE002008BD022009
:1038F000704719B1C0F814120020704702207047B9
:1039000008B5FFF7EDFE002008BD08B5D0F8143269
:1039100023B11B68984718B1022008BD022008BDDA
:10392000002008BD08B5D0F814325B689847002025
:1039300008BD38B5044600F50275284600F01EF9AA
:103940000123C4F8F431B4F80E32C4F8F83194F815
:10395000081201F01F03012B0ED03BB1022B10D037
:1039600001F080012046FFF7E8FE03E029462046EB
:1039700000F07EFA002038BD2946204600F09CFA6F
:10398000F8E72946204600F0B3FAF3E710B50446FD
:1039900019BB1346D0F8F421032A27D1D0F80C1113
:1039A000D0F8102191420BD8D0F814321B691BB10A
:1039B00090F8FC21032A0ED02046FFF763F815E0AB
:1039C000891AC0F80C118A4228BF0A4692B21946D9
:1039D000FFF750F80AE09847EEE70A46D0F81432AD
:1039E0009B691BB190F8FC11032901D0002010BD88
:1039F00011469847FAE710B50446002947D1134607
:103A0000D0F8F421022A05D094F80032012B3AD0E4
:103A1000002010BDC169026A914217D88169B1FBCB
:103A2000F2F302FB13132BB98A4203D8D0F8F83112
:103A3000994218D3D4F81432DB681BB194F8FC21F6
:103A4000032A1DD02046FFF728F8DDE78A1AC26155
:103A500092B21946FEF7F7FF00231A461946204690
:103A6000FFF7BAFED0E700221146FEF7ECFF002177
:103A7000C4F8F8110B460A462046FFF7ADFEC3E72F
:103A800020469847DEE7002384F80032C0E70A4664
:103A9000D0F814325B69002BBAD090F8FC110329DE
:103AA000B6D111469847B3E738B504464023002203
:103AB0001146FFF723FE4025C4F810512B46002283
:103AC00080212046FFF71AFE2562012384F8FC318D
:103AD000D4F818322BB1D4F814325B68217920461F
:103AE0009847002038BD01740020704790F8FC31E1
:103AF00080F8FD31042380F8FC310020704790F8F5
:103B0000FD3180F8FC310020704708B590F8FC3199
:103B1000032B01D0002008BDD0F81432DB69002B44
:103B2000F8D09847F6E70020704700207047002043
:103B3000704708B5012280F8FC21D0F814225268A1
:103B400001799047002008BD002302E00133DBB279
:103B500001300278002AF9D1184670474B88012BB2
:103B600000D0704710B50446C0F80432D0F81432C3
:103B70009B6898472046FEF785FF10BD0B780370C1
:103B80004B7843708B78CA7803EB022343800B7920
:103B90004A7903EB022383808B79CA7903EB0223F2
:103BA000C380704710B504468021FFF7C6FD002191
:103BB0002046FFF7C2FD10BD30B583B004460D4668
:103BC0004A88130A013B062B00F28180DFE803F0EC
:103BD0000413277F7F637000D0F810321B680DF14B
:103BE0000601007C9847BDF8062012B1EB88002B37
:103BF00071D103B030BD037C43B9D0F814329B6A55
:103C00000DF10600984702234370ECE7D0F8143218
:103C1000DB6A0DF10600984702234370E3E7D2B256
:103C2000052A34D8DFE802F0030B131B232BD0F84E
:103C300010325B680DF10601007C9847D3E7D0F89D
:103C400010329B680DF10601007C9847CBE7D0F855
:103C50001032DB680DF10601007C9847C3E7D0F80D
:103C600010321B690DF10601007C9847BBE7D0F8C4
:103C700010325B690DF10601007C9847B3E7D0F87C
:103C800010329B690DF10601007C9847ABE729468D
:103C9000FFF788FFADE7037C33B9D0F814325B6BD4
:103CA0000DF1060098479EE72946FFF77BFFA0E746
:103CB000037C43B9D0F814321B6B0DF10600984712
:103CC000072343708FE72946FFF76CFF91E72946EA
:103CD000FFF768FF8DE79A4228BF1A46ADF8062025
:103CE00001462046FEF7A2FE83E738B504468B88DE
:103CF000E3B9CB88D3B98D7805F07F0590F8FC3116
:103D0000032B0CD080F8FE512946FFF749FD2046D1
:103D1000FEF7B8FE35B1022384F8FC3138BDFFF759
:103D200041FF38BD012384F8FC3138BD2046FFF740
:103D300039FF38BD38B504460D468978254B1970D2
:103D4000012909D890F8FC31022B09D0032B1CD093
:103D50002946FFF727FF38BD2946FFF723FF38BD67
:103D600081B14160032380F8FC31FFF7CEFD0228CA
:103D700003D02046FEF786FE38BD29462046FFF7D1
:103D800011FF38BDFEF77EFE38BD89B14368994208
:103D90001DD0D9B2FFF7C6FD0E4B197861602046E1
:103DA000FFF7B3FD02280DD02046FEF76BFE38BDAD
:103DB000022380F8FC314160FFF7B4FD2046FEF796
:103DC00061FE38BD29462046FFF7ECFE38BDFEF700
:103DD00059FE38BD293F002008B5CB88012B08D1FA
:103DE00090F8FC31022B07D0032B0DD0FFF7DAFE41
:103DF00008BDFFF7D7FE08BD0146002341F8083F84
:103E00000122FEF713FE08BD0122011DFEF70EFE82
:103E100008BD08B590F8FC31023B012B0CD80123FA
:103E2000C360D0F804320BB10323C360022200F157
:103E30000C01FEF7FBFD08BDFFF7B4FE08BD10B591
:103E4000044690F8FC31023B012B0ED84B88012B25
:103E500000D010BD0023C0F80432D0F814329B68A3
:103E600098472046FEF70EFE10BDFFF79BFEF0E7D9
:103E700008B54B78092B1CD8DFE803F012181B1586
:103E80001B09051B0F0CFFF797FE002008BDFFF76D
:103E90002CFFFAE7FFF74EFFF7E7FFF79DFFF4E788
:103EA000FFF7B7FFF1E7FFF759FEEEE7FFF7C7FFB0
:103EB000EBE7FFF777FEE8E738B504460D4690F8E4
:103EC000FC31032B11D10B79012B03D9FFF76AFECB
:103ED000002038BDD0F814329B689847EB88002B3F
:103EE000F6D12046FEF7CEFDF2E7FFF75BFEEFE7E7
:103EF00038B505460C468A880B7803F06003202B02
:103F000011D0D1B26378012B2BD0002B4DD0032BD5
:103F10000DD190F8FC31022B0BD0032B10D0214691
:103F2000FFF740FE03E0D0F814329B68984700206A
:103F300038BD0029FBD08029F9D0FFF7FEFBF6E75A
:103F4000638823B919B1802901D0FFF7F6FBD5F8B2
:103F500014329B682146284698472846FEF792FD72
:103F6000E5E790F8FC31022B05D0032B0AD021465F
:103F7000FFF718FEDBE70029D9D08029D7D0FFF75B
:103F8000DCFBD4E76388002BD1D111F07F0F03D184
:103F90002846FEF777FDCAE7FFF7DDFBD5F81432B8
:103FA0009B68214628469847F2E790F8FC31022B9F
:103FB00005D0032B09D02146FFF7F4FDB7E711F038
:103FC0007F0FB4D0FFF7B9FBB1E712F0800F11D12A
:103FD00001F07F04103400EB041404342846FFF78A
:103FE000C8FB70B101232360022221462846FEF758
:103FF0001DFD9CE701F07F04013400EB0414043440
:10400000ECE700232360EFE7D0B170B50D4616460C
:104010000446FFF799FD0130400080B230802870DF
:1040200003236B70022307E05A1CD2B20134E95417
:104030000233DBB20021A95421780029F4D170BDEC
:10404000704730B40468606A29B10D46A36A00EB7A
:10405000134000230CE040EA0240A06212E003F1AA
:10406000400104EB8101496800EB11400133DBB2F0
:10407000691E8B42F3DB40EA024005F13F0104EB8D
:1040800081014860002030BC7047036859620020FD
:1040900070470000DFF834D0002103E00C4B5B5880
:1040A000435004310B480C4B42189A42F6D30B4A4A
:1040B00002E0002342F8043B094B9A42F9D3FDF792
:1040C000A3FC00F011F8FDF7D9F8704700000220BA
:1040D000BC43000800000020C0010020C0010020F7
:1040E00094570020FEE7000070B50D4E0D4CA41B48
:1040F000A4100025A54209D10B4E0C4C00F0F4F899
:10410000A41BA4100025A54205D170BD56F825308A
:1041100098470135EEE756F8253098470135F2E724
:10412000B4430008B4430008B4430008B84300088F
:10413000024B0146186800F059B800BF5C0100202E
:10414000024B0146186800F003B800BF5C01002074
:1041500038B50546002945D051F8043C0C1F002B0A
:10416000B8BFE41800F0B0F81F4A1368104633B91E
:10417000636014602846BDE8384000F0A6B8A3424A
:104180000CD921686218934204BF1A685B686360A7
:1041900004BF521822600460ECE713465A680AB163
:1041A000A242FAD919685818A0420BD120680144DC
:1041B000581882421960DDD1106852685A60014473
:1041C0001960D7E702D90C232B60D3E720682118A8
:1041D0008A4204BF11685268626004BF09182160F6
:1041E0005C60C7E738BD00BF2C3F002070B5CD1C18
:1041F00025F0030508350C2D38BF0C25002D06468B
:1042000001DBA94203D90C233360002070BD00F00C
:104210005BF8234A1468214691B9224C23681BB9E4
:10422000304600F041F820602946304600F03CF866
:10423000431C26D10C233360304600F046F8E4E7F7
:104240000B685B1B1AD40B2B0FD90B60CD50CC180D
:10425000304600F03AF804F10B00231D20F007006F
:10426000C31A1BD05A42E25070BD8C420DBF636826
:104270004B686360136018BF0C46E9E70C46496859
:10428000CAE7C41C24F00304A04205D0211A30461A
:1042900000F00AF80130CDD02560D9E770BD00BF2D
:1042A0002C3F0020303F002038B5064C0023054647
:1042B0000846236000F00AF8431C02D1236803B1CA
:1042C0002B6038BD9057002070477047044A05495D
:1042D0001368002B08BF0B4618441060184670473F
:1042E000343F002098570020F8B500BFF8BC08BC48
:1042F0009E467047F8B500BFF8BC08BC9E467047A4
:1043000028430008611100080000000000000000C0
:104310008000000049444C45000000005372632FA8
:104320006D61696E2E63000064656661756C74541E
:1043300061736B0000000000000000000102030434
:104340000607080900000000010203045372632FEE
:10435000757362645F636F6E662E6300434443202F
:10436000436F6E666967000043444320496E74657D
:10437000726661636500000053544D6963726F6536
:104380006C656374726F6E696373000053544D33D0
:1043900032205669727475616C20436F6D506F7274
:1043A0007400000030303030303030303030314147
:0443B0000000000009
:0443B400B501000847
:0443B8009101000867
:1043BC00AAAAAAAA0024F400EF280008B52800082D
:1043CC004128000800000000B7270008A5270008B6
:1043DC001128000800000000000000000000000090
:1043EC00ED270008E1270008F92700080528000838
:1043FC0009024300020100C032090400000102025C
:10440C00010005240010010524010001042402020E
:10441C0005240600010705820308001009040100A9
:10442C00020A000000070501024000000705810296
:10443C004000000009024300020100C032090400E0
:10444C0000010202010005240010010524010001F5
:10445C00042402020524060001070582030800104B
:10446C0009040100020A0000000705010200020015
:10447C0007058102000200000A060002000000404D
:10448C000100000009074300020104C032090400C6
:10449C0000010202010005240010010524010001A5
:1044AC00042402020524060001070582030800FF0C
:1044BC0009040100020A0000000705010240000087
:1044CC000705810240000000052A0008E1290008C8
:1044DC00E5290008E9290008013800080D38000812
:1044EC003D38000819380008593800087D38000894
:1044FC00A138000812010002020200408304405758
:10450C000002010203010000040309046001002001
:10451C00000000000000000000000000000000008F
:10452C00000000000000000000000000000000007F
:10453C00000000000000000000000000000000006F
:10454C00000000000000000000000000000000005F
:10455C00000000000000000000000000000000004F
:10456C00000000000000000000000000000000003F
:04000005080040951A
:00000001FF
