:020000040800F2
:1000000000000220DD420008990D00089B0D000849
:100010009D0D00089F0D0008A10D000800000000C4
:10002000000000000000000000000000610E000859
:10003000A30D000800000000010F0008A50D000836
:100040002D4300082D4300082D4300082D430008D0
:100050002D4300082D4300082D4300082D430008C0
:100060002D4300082D4300082D4300082D430008B0
:100070002D4300082D4300082D4300082D430008A0
:100080002D4300082D4300082D4300082D43000890
:100090002D4300082D4300082D4300082D43000880
:1000A0002D430008AD0D00082D4300082D43000826
:1000B0002D4300082D4300082D4300082D43000860
:1000C0002D4300082D4300082D4300082D43000850
:1000D0002D4300082D4300082D4300082D43000840
:1000E0002D4300082D4300082D4300082D43000830
:1000F0002D4300082D4300082D4300082D43000820
:100100002D4300082D4300082D4300082D4300080F
:100110002D4300082D4300082D4300082D430008FF
:100120002D4300082D4300082D4300082D430008EF
:100130002D43000800000000000000002D430008CF
:100140002D4300082D4300082D4300082D430008CF
:100150002D4300082D4300082D4300082D430008BF
:100160002D4300082D4300082D4300082D430008AF
:100170002D430008BD0D0008000000000000000035
:080180002D4300082D43000887
:1001900010B5054C237833B9044B13B10448AFF3C1
:1001A00000800123237010BDC0010020000000006A
:1001B000304500080C4B43B10C480D4910B5AFF366
:1001C00000800C48036823B910BD0A48036833B99E
:1001D0007047094B002BF7D0BDE810401847064B7D
:1001E000002BF5D0184700BF000000003045000884
:1001F000C4010020C00100200000000008B5032059
:1002000000F054FD002211466FF00B0000F060FD7D
:10021000002211466FF00A0000F05AFD002211463C
:100220006FF0090000F054FD002211466FF0040049
:1002300000F04EFD002211466FF0030000F048FD73
:1002400000220F216FF0010000F042FD00220F217B
:100250004FF0FF3000F03CFD08BD000010B588B045
:1002600000220146192000F033FD192000F062FD44
:1002700000240194134B5A6C42F001025A645B6CE7
:1002800003F001030193019B02A903A802F0FAFF06
:1002900002F0E2FF0C4BA3FB00239B0C013B0B483D
:1002A0000B4A026040F2E732C2604360046184603E
:1002B00001F01CFF10B1012008B010BD034801F08F
:1002C000BAFDF9E70038024083DE1B43383F0020C7
:1002D000000001402DE9F04383B007460D46D0F8F9
:1002E0000080CA00521A93000344DE6C1A6DB61ADD
:1002F0001B6C9E4200D91E4606F103094FEA99097C
:1003000015E006F103094FEA9909EB005B1B9C001D
:100310003C44616C3B7C0093B3B2EAB2404602F0CD
:1003200065FB636C33446364236D3344236541464A
:1003300008EB451303F510639B699BB2994512D2F4
:10034000EA00521B93003B441A6DDB6C9A420AD2BE
:100350004BB19E1AC5EBC50293003B441B6C9E42F9
:10036000CFD91E46CDE73EB90123AB40D1F8345872
:1003700025EA0305C1F83458002003B0BDE8F08336
:1003800000286BD0F0B58BB00446032380F8B93356
:1003900003F09EF8206801F075FF254655F8107BA4
:1003A0006E460FCD0FC60FCD0FC695E8030086E849
:1003B0000300231D0ECB384601F020FF00212068EA
:1003C00001F066FF002210E0D100891A8B0023445F
:1003D000012183F8391083F83820DA87002183F867
:1003E0003B1019645964D96401320E2AECD90022F9
:1003F00018E0D100891A8B002344002183F8F911F9
:1004000083F8F821DA8783F8FB11C3F80012C3F8E8
:100410000412C3F80C12236802F1400003EB8003BE
:10042000596001320E2AE4D9254655F8107B6E46F4
:100430000FCD0FC60FCD0FC695E8030086E8030069
:10044000231D0ECB384601F039FF012384F8B93360
:10045000206802F076FB00200BB0F0BD0120704751
:1004600090F8B833012B01D10220704710B5044633
:10047000012380F8B833006802F057FB206801F0D0
:10048000FBFE002084F8B80310BD00002DE9F04702
:1004900004460768384602F08BFB08B1BDE8F087D8
:1004A0000646206802F059FB0028F7D0206802F0C9
:1004B00054FB10F0020F04D02268536903F00203CA
:1004C0005361206802F049FB10F4002F75D13546C6
:1004D000206802F042FB10F4802F40F0D2802068A8
:1004E00002F03BFB0028C0F23E81206802F035FBA1
:1004F00010F4006F0AD0D7F8083813F0010F40F05D
:1005000041812268536903F400635361206802F05B
:1005100024FB10F4805F40F03981206802F01DFB5D
:1005200010F4005F40F08281206802F016FB10F0AA
:10053000100F14D02268936923F0100393613E6A70
:1005400006F00F08C6F34343022B00F00382062B8C
:1005500000F021822268936943F0100393612068C0
:1005600002F0FBFA10F0080F40F02982206802F038
:10057000F4FA10F4801F40F02B82206802F0EDFAAC
:1005800010F4001F40F02E82206802F0E6FA10F00E
:10059000804F40F03182206802F0DFFA10F0040F43
:1005A0003FF47CAF23685D6815F0040F40F02D82A6
:1005B00023685A6815435D6070E7206802F0D1FA3D
:1005C0008046354621E0E900491B8A002244D2F8E2
:1005D00000121B69C3F31203C91AC2F81012D2F831
:1005E0000012D2F804320B44C2F8043228E019F0A9
:1005F000080F3DD119F0100F04D007EB451310225E
:10060000C3F8082B01354FEA5808B8F1000F3FF442
:100610005FAF18F0010FF5D05FFA85FA51462068F8
:1006200002F0AFFA814610F0010FE0D007EB45135E
:100630000122C3F8082B03F530632269012AC2D0D6
:100640005146204602F07EFF2369012BCFD1002DB9
:10065000CDD1C5EBC50293002344D3F80C32002B57
:10066000C5D104F56F720121206802F0C1FABEE71E
:10067000204602F05FFF07EB45130822C3F8082B62
:10068000B8E7206802F075FA804635462EE0EA00A9
:10069000521B93002344196C5A6C0A445A6446E076
:1006A00019F0080F04D007EB45130822C3F80829F6
:1006B00019F0100F04D007EB45131022C3F80829D6
:1006C00019F0400F04D007EB45134022C3F8082966
:1006D00019F0020F04D007EB45130222C3F80829D2
:1006E00019F0800F3AD101354FEA5808B8F1000FE0
:1006F0003FF4F5AE18F0010FF5D05FFA85FA5146D8
:10070000206802F047FA814610F0010FC8D001229C
:1007100002FA05F0D7F8343823EA0003C7F8343872
:1007200007EB4513C3F8082923699342AFD051461C
:10073000204602F013FF2369012BB1D1002DAFD168
:10074000C5EBC50293002344DB6C002BA8D104F554
:100750006F720121206802F04BFAA1E7294620467A
:10076000FFF7B8FDBFE7D7F8043823F00103C7F857
:100770000438204602F02CFF2268536903F000433E
:100780005361B2E6204602F00BFFBAE6B84607F521
:100790000069D9F8043023F00103C9F804301021AE
:1007A000206801F033FE07E008EB4613FF22C3F890
:1007B0000829C3F8082B013663689E42F4D34FF032
:1007C000FF33C9F81830D9F81C3043F00113C9F8C9
:1007D0001C30236BEBB1D9F8843043F00B03C9F81C
:1007E0008430D9F8443043F00B03C9F84430D7F8CB
:1007F000003823F4FE63C7F8003804F56F72217CDB
:10080000206802F0F5F92268536903F480535361BC
:1008100083E6D9F8143043F00B03C9F81430D9F843
:10082000103043F00B03C9F81030E0E7206802F005
:10083000C3F92268D36823F47053D360206801F0B1
:1008400012FE90B90023E3604FF4007363612268E5
:10085000D36843F41053D360204602F090FE226820
:10086000536903F4005353615EE60323E3604023BE
:10087000636102F0EBFC674B0344674A934205D87F
:100880002268D36843F47053D360E5E7634B0344B5
:10089000634A934205D82268D36843F46053D36017
:1008A000DAE7A0F57403A3F510535E4A934205D826
:1008B0002268D36843F45053D360CDE7A0F183732B
:1008C000A3F5E743584A934205D82268D36843F416
:1008D0004053D360C0E7554B0344554A934205D873
:1008E0002268D36843F43053D360B5E7514B0344D7
:1008F000514A934205D82268D36843F42053D36009
:10090000AAE74E4B03444E4A934205D82268D36867
:1009100043F41053D3609FE7A0F1B773A3F5585386
:10092000484A934205D82268D36843F40053D36001
:1009300092E7454B0344454A934205D82268D36861
:1009400043F4E053D36087E72268D36843F4C0538D
:10095000D36081E747F6F0731E423FF4FBAD3609E2
:100960004FEAC80AAAEB08034FEA8309A144C6F379
:100970000A02D9F80412384602F04CF8C6F30A0607
:10098000D9F804323344C9F80432D9F810321E447D
:10099000C9F81062DEE5082204F56F71384602F0EE
:1009A00039F8C6F30A164FEAC803A3EB08018A0018
:1009B0002244D2F810321E44C2F81062CAE5204622
:1009C00002F0D7FD2268536903F008035361CDE5B7
:1009D000E9B2204602F008FE2268536903F480134E
:1009E0005361CAE5E9B2204602F0F8FD2268536976
:1009F00003F400135361C7E5204602F0FBFD2268B3
:100A0000536903F080435361C5E5204602F0F8FDC9
:100A1000CEE500BF405327FFFF340C00401E1BFFF4
:100A20003F420F007F4F12001FD6130060B6E5FE55
:100A30005FE3160000D3CEFE3F771B00C05BB3FE22
:100A4000BF9121001F753800E05459FEDF9C410022
:100A500090F8B833012B01D10220704710B504463D
:100A6000012380F8B833006802F04FF8002084F8C2
:100A7000B80310BD70B54DB2002D18DB01F07F0634
:100A8000C6EBC606B40004F5FC74044401F07F0113
:100A90002170ED0F6570A260E37005B1E180022B5B
:100AA0000DD090F8B833012B0CD1022070BD01F0AD
:100AB0007F06C6EBC606B40038340444E6E70023DC
:100AC0002371EEE70546012380F8B833214600681C
:100AD00001F0E9FC002085F8B80370BD10B54AB2FA
:100AE000002A12DB01F07F04C4EBC404A30003F569
:100AF000FC73034401F07F011970D20F5A7090F813
:100B0000B823012A09D1022010BD01F07F04C4EBF3
:100B1000C404A30038330344ECE70446012280F800
:100B2000B8231946006801F007FD002084F8B803D7
:100B300010BD70B501F07F06F500A91B8C0004F50F
:100B4000FC740119AD1BAC000444C4F80422C4F8C1
:100B50000C320023C4F8103284F8F93184F8F861BB
:100B60000369012B06D066B1DAB2006801F05CFDC2
:100B7000002070BDC6EBC605AC000444C4F80822D2
:100B8000F1E7DAB2006801F081FEF1E701F00F0150
:100B9000C1EBC1018B001844B0F81002704770B56A
:100BA00001F07F06F500A91B8C0038340119AD1B3C
:100BB000AC0004446264E36400232365012384F8E9
:100BC000393084F838600369012B06D05EB1DAB29F
:100BD000006801F029FD002070BDC6EBC605AC0021
:100BE0000444A264F2E7DAB2006801F04FFEF2E7D3
:100BF00038B54AB2002A12DBC1EBC104A30003F5E9
:100C0000FC73034401249C7001F07F041C70D20F1C
:100C10005A7090F8B823012A09D1022038BD01F09A
:100C20007F04C4EBC404A30038330344EAE7054659
:100C3000012280F8B8231946006801F0FFFE1CB1BC
:100C4000002085F8B80338BD05F56F72297C286847
:100C500001F0CEFFF4E710B54AB2002A12DBC1EB77
:100C6000C104A30003F5FC73034400249C7001F04D
:100C70007F011970D20F5A7090F8B823012A09D158
:100C8000022010BD01F07F04C4EBC404A30038337C
:100C90000344EAE70446012280F8B82319460068B5
:100CA00001F0FEFE002084F8B80310BD074AD368A7
:100CB00023F4E0631B041B0C000200F4E060184303
:100CC00040F0BF6040F40030D060704700ED00E0BD
:100CD00030B4164BDB68C3F30223C3F10704042CC2
:100CE00028BF04241D1D062D17D9033B012505FA35
:100CF00004F4013C2140994005FA03F3013B134001
:100D0000194300280BDB0901C9B200F1604000F56E
:100D1000614080F8001330BC70470023E6E700F024
:100D20000F000901C9B2024B1954F4E700ED00E0CD
:100D300014ED00E0420900F01F00012303FA00F067
:100D4000014B43F82200704700E100E00138B0F1A8
:100D5000807F0AD2064B5860F021064A82F82310A1
:100D60000020986007221A6070470120704700BF7A
:100D700010E000E000ED00E0042805D0054A13680B
:100D800023F0040313607047024A136843F004031E
:100D90001360704710E000E07047FEE7FEE7FEE7F3
:100DA000FEE7704708B502F0B9FA08BD08B5024879
:100DB00001F051F808BD00BF383F002008B50248D7
:100DC000FFF764FB08BD00BF7C5100200B4B1B6884
:100DD000B3F1FF3F08D04FF0500383F31188BFF306
:100DE0006F8FBFF34F8FFEE74FF0500383F31188EF
:100DF000BFF36F8FBFF34F8FFEE700BF00000020EF
:100E000006480068006880F3088862B661B6BFF3E0
:100E10004F8FBFF36F8F00DF00BF000008ED00E0D1
:100E2000DFF80C00016841F47001016070470000B8
:100E300088ED00E04FF0807340F8043C21F00101A0
:100E400040F8081C054B40F80C3C40F8202C6FF093
:100E5000020340F8243C4438704700BFCD0D000821
:100E6000074B19680868B0E8F04F80F30988BFF3B2
:100E70006F8F4FF0000080F311887047AFF3008050
:100E8000E40100204FF0500383F31188BFF36F8F0C
:100E9000BFF34F8F0A4A136801331360012B0DD142
:100EA000084B1B6813F0FF0F08D04FF0500383F37B
:100EB0001188BFF36F8FBFF34F8FFEE7704700BFFE
:100EC0000000002004ED00E0094B1B6843B94FF01F
:100ED000500383F31188BFF36F8FBFF34F8FFEE78B
:100EE000013B034A13600BB983F31188704700BFBD
:100EF00000000020000000000000000000000000D2
:100F0000EFF30980BFF36F8F154B1A681EF0100FB7
:100F100008BF20ED108A20E9F04F10604DF8043D25
:100F20004FF0500080F31188BFF34F8FBFF36F8FE6
:100F300000F01CFC4FF0000080F3118808BC196819
:100F40000868B0E8F04F1EF0100F08BFB0EC108A30
:100F500080F30988BFF36F8F704700BFAFF3008045
:100F6000E401002008B54FF0500383F31188BFF36C
:100F70006F8FBFF34F8F00F081FA18B14FF080529E
:100F8000024B1A60002383F3118808BD04ED00E0D2
:100F9000064B1B68064AA2FB03239B09013B054A3B
:100FA00013600722044B1A60704700BF0400002042
:100FB000D34D621014E000E010E000E0314B1A68FD
:100FC000314B9A421AD02F4B1A68304B9A421ED09E
:100FD00000B583B02E4B1A78D2B20192FF221A705C
:100FE0001B78DBB28DF803309DF8033003F050031B
:100FF000284A13700722284B1A601BE04FF0500359
:1010000083F31188BFF36F8FBFF34F8FFEE74FF06D
:10101000500383F31188BFF36F8FBFF34F8FFEE749
:101020001D4A1368013B13609DF803305B00DBB27F
:101030008DF803309DF8033013F0800FF0D1164A7D
:1010400013681B0203F4E0631360019BDBB2104AD8
:101050001370124B1A6842F470021A601A6842F058
:1010600070421A60FFF794FF00220D4B1A60FFF7E1
:10107000D7FE0C4A136843F040431360FFF7C0FEED
:10108000FFF7A4FE00ED00E071C20F4170C20F41F6
:1010900000E400E0DC010020E001002020ED00E0A1
:1010A0000000002034EF00E008B50B4B1A6842F452
:1010B00000721A601A6842F480621A601A6842F478
:1010C00080721A600320FFF7F1FD0020FFF7C6F8D9
:1010D000FFF794F8002008BD003C0240024A136864
:1010E00001331360704700BF743F0020014B186844
:1010F000704700BF743F002030B583B00190FFF708
:10110000F5FF0546019CB4F1FF3F00D00134FFF725
:10111000EDFF401BA042FAD303B030BD0A4B1B6861
:101120001B684BB901234BB9074B1B68DB68DB68B5
:101130005A68064B1A6070470023F4E74FF0FF32FD
:10114000024B1A60704700BFE8010020C002002077
:1011500010B50446006B00F035FE204600F032FE6C
:1011600010BD2DE9F04780469946089D099F0A9CCD
:10117000266B02F18042013A06EB820626F0070652
:1011800000230F2B07D8C85CE21882F83400CA5C31
:101190000AB10133F5E7002384F84330062D00D966
:1011A0000625E56265644FF0000AC4F848A0201DDA
:1011B00000F0E8FF04F1180000F0E4FF2461C5F13D
:1011C0000705A5616462C4F84CA084F850A04A46A3
:1011D00041463046FFF72EFE206007B13C60BDE877
:1011E000F087000038B5002407E004EB8402930088
:1011F0000E48184400F0BBFF0134062CF5D90C4D05
:10120000284600F0B4FF0B4C204600F0B0FF0A481F
:1012100000F0ADFF094800F0AAFF094800F0A7FF61
:10122000084B1D60084B1C6038BD00BFF00100205A
:1012300094020020A8020020C8020020F40200202E
:10124000E0020020E8010020EC01002010B5044677
:10125000FFF718FE204A1368013313601F4B1B6809
:10126000002B31D01E4B1B683BB91C4B1B68DA6A44
:10127000E36A9A4201D8194B1C601A4A1368013379
:101280001360E36A01229A401749086802430A6022
:1012900003EB83039A00211D1448104400F075FFEE
:1012A000FFF712FE0E4B1B686BB10C4B1B68DA6A22
:1012B000E36A9A4207D24FF080520D4B1A60BFF397
:1012C0004F8FBFF36F8F10BD044B1C601368012B51
:1012D000D3D1FFF787FFD0E77C020020E401002094
:1012E000DC0200208C02002090020020F00100208F
:1012F00004ED00E070B504460E461D4B1D681D4B05
:101300001868043000F067FF50B91A4B1B68DA6A9E
:10131000012303FA02F218490B6823EA02030B6067
:10132000B4F1FF3F13D02C44124B1B685C60A54204
:1013300016D8124B18680F4B1968043100F031FFB2
:101340000F4B1B689C4201D20D4B1C6070BD002EE0
:10135000E9D0084B196804310A4800F016FF70BD47
:10136000094B1868034B1968043100F01AFF70BD6F
:1013700008030020E401002090020020E801002082
:10138000C0020020E0020020EC0100202DE9F04323
:1013900085B006460F4615469846900000F08EFC34
:1013A00000B38146542000F089FC0446B0B1C0F877
:1013B0003090CCB10023039302940D9B01930C9BBE
:1013C000009343462A4639463046FFF7CAFE204678
:1013D000FFF73CFF012005B0BDE8F083484600F070
:1013E000F1FCE6E70024E4E74FF0FF30F3E700000C
:1013F00000B583B0174B0193002300938022164958
:101400001648FFF7C3FF012805D0B0F1FF3F17D002
:1014100003B05DF804FB4FF0500383F31188BFF372
:101420006F8FBFF34F8F4FF0FF320D4B1A600122C9
:101430000C4B1A6000220C4B1A60FFF7BFFDE7E768
:101440004FF0500383F31188BFF36F8FBFF34F8FBB
:10145000FEE700BFBC0200205C45000845170008FD
:10146000C0020020DC02002008030020024A1368AA
:1014700001331360704700BF88020020F8B53C4B71
:101480001B68002B68D13B4B1D6801351D60C5B939
:10149000394B1B681B6843B14FF0500383F311882D
:1014A000BFF36F8FBFF34F8FFEE7334A1168334BA3
:1014B000186810601960324A136801331360FFF72F
:1014C0002DFE304B1B689D423AD200242E4B1B68E8
:1014D000DB6A03EB83039A002C4B9B58012B40D90A
:1014E00001243EE00124244B1B681B6853B30023F6
:1014F00053BB214B1B68DB68DE6873689D4228D3B1
:10150000371D384600F067FEB36A1BB106F11800BC
:1015100000F061FEF36A01229A401D490868024307
:101520000A6003EB83039A0039461848104400F020
:101530002CFEF26A144B1B68DB6A9A42D2D2D2E7C5
:101540000024D0E70123D3E74FF0FF320D4B1A60A0
:10155000BCE70C4A1360B9E70E4A13680133136005
:1015600000240D4B1B6803B101242046F8BD00BFC9
:101570008802002008030020E8010020EC01002080
:10158000C4020020C0020020E4010020F00100207D
:1015900090020020840200200C03002038B5354B57
:1015A0001B6843B94FF0500383F31188BFF36F8F6B
:1015B000BFF34F8FFEE7FFF765FC2E4B1A68013A29
:1015C0001A601B68002B50D12B4B1B6823B90024D9
:1015D000FFF77AFC204638BD0024284B1B681BB35C
:1015E000264BDB68DC6804F1180000F0F4FD251DD3
:1015F000284600F0F0FDE36A01229A40204908687D
:1016000002430A6003EB83039A0029461D481044F5
:1016100000F0BBFDE26A1C4B1B68DB6A9A42DCD31C
:1016200001221A4B1A60D8E70CB1FFF777FD184B6F
:101630001C6874B9154B1B68CBB14FF08052154B29
:101640001A60BFF34F8FBFF36F8F0124C0E7013CD7
:1016500007D0FFF713FF0028F9D001220B4B1A60C7
:10166000F5E700220A4B1A60E4E70024B0E7002403
:10167000AEE700BF880200207C020020C8020020E4
:1016800090020020F0010020E40100200C03002063
:101690008402002004ED00E010B5A8B10446104B10
:1016A0001B6843B14FF0500383F31188BFF36F8F72
:1016B000BFF34F8FFEE7FFF7D9FE00212046FFF76B
:1016C00019FEFFF76BFF00E0002038B94FF08052A1
:1016D000044B1A60BFF34F8FBFF36F8F10BD00BF75
:1016E0008802002004ED00E0134B1B6813B310B513
:1016F000FFF7BCFE114B1C68FFF750FF24B90E4BDF
:101700001B68002BF4D110BDFFF7BCFB0B4BDB6853
:10171000DC68201D00F05FFD094A1368013B13607F
:10172000054A1368013B1360FFF7CEFB2046FFF725
:101730000FFDE4E7704700BF80020020F4020020A4
:101740007C02002008B5FFF7CFFF064B1B68012B7A
:10175000F9D94FF08052044B1A60BFF34F8FBFF39B
:101760006F8FF0E7F001002004ED00E0214B1B68D3
:10177000C3B90022204B1A60204B1B68B3FA83F3D5
:10178000DBB2C3F11F0303EB83018A001C498A58B3
:1017900062B94FF0500383F31188BFF36F8FBFF32B
:1017A0004F8FFEE70122144B1A60704710B41448A3
:1017B0009A00D418A10001444C6864684C601A4433
:1017C00091000831084484420BD003EB83039A0054
:1017D0000B4B13445B68DA680A4B1A605DF8044BE4
:1017E0007047606803EB83029100054A0A44506029
:1017F000EBE700BF880200200C03002090020020CD
:10180000F0010020E4010020054B1B6823B1054BCB
:101810001B681BB9022070470120704700207047E9
:10182000DC020020880200200F49D1F8883043F400
:101830007003C1F888300D4B1A6842F001021A603B
:10184000002098601A6822F0847222F480321A60B4
:10185000074A5A601A6822F480221A60D8604FF052
:1018600000638B60704700BF00ED00E0003802406D
:101870001030002430B58BB0002401941C4B1A6B3F
:1018800042F080021A631A6B02F080020192019A00
:1018900002941A6B42F002021A631A6B02F00202FF
:1018A0000292029A03941A6B42F004021A631A6BB2
:1018B00002F004020392039A04941A6B42F00102AC
:1018C0001A631B6B03F001030493049B094D22462A
:1018D000C021284600F08AF9C0230593012306930E
:1018E0000794089405A9284600F09AF80BB030BD7B
:1018F000003802400008024008B502F08BFC0120CD
:1019000001F003FDFBE7000008B50268034B9A42B3
:1019100000D008BDFFF7E2FBFBE700BF000001407D
:10192000FEE7000000B595B000210191294B1A6C2B
:1019300042F080521A641B6C03F080530193019BA8
:101940000291254B1A6842F480421A601B6803F426
:1019500080430293029B012308934FF48033099341
:1019600002230E934FF480020F9208221092482215
:10197000119212930323139308A801F07DF908BB79
:101980000F23039302210491002305934FF4805207
:101990000692079303A801F08BFBB8B901F056FC3F
:1019A0000E4BA3FB00308009FFF7D0F90420FFF7AE
:1019B000E3F900220F214FF0FF30FFF789F915B04E
:1019C0005DF804FBB6210648FFF7AAFFC4210448CE
:1019D000FFF7A6FF0038024000700040D34D6210B0
:1019E0007C45000800B587B0FFF75EFBFFF79AFF64
:1019F000FFF740FF02F044FC01AC074D0FCD0FC4D0
:101A00002B682360002101A801F065FC034B1860DE
:101A100001F05CFCFEE700BF48450008783F00206D
:101A2000F0B583B000244BE04FEAD40E0EF1080E5F
:101A300050F82E2004F00706B6000F27B74022EA20
:101A400007020F6907FA06F6324340F82E2046E0F7
:101A5000072600E0002606FA0EF6324302335E4EF9
:101A600046F823205D4B1A68EB4302EA03064F68F1
:101A700017F4803F01D045EA0206584A16605268C2
:101A800003EA02064F6817F4003F01D045EA020658
:101A9000524A5660926803EA02064F6817F4801FA4
:101AA00001D045EA02064D4A9660D26813404E685E
:101AB00016F4001F01D045EA0203484AD3600134FE
:101AC0000F2C00F286800123A3400A6803EA020576
:101AD000AB42F4D14A68022AA6D0122AA4D00668E2
:101AE0004FEA440E032202FA0EF2D24316404F6828
:101AF00007F0030707FA0EF73E4306604E68771EAD
:101B0000012F03D9112E01D0122E0FD18668164055
:101B1000CF6807FA0EF73E438660466826EA03035D
:101B20004E68C6F30016A64033434360C3681A40AC
:101B30008B6803FA0EF31A43C2604B6813F0805FA0
:101B4000BDD000230193264B5A6C42F480425A6464
:101B50005B6C03F480430193019BA3089E1C1E4A07
:101B600052F8262004F003064FEA860E0F2606FAE6
:101B70000EF622EA06021B4FB8423FF46BAF1A4E34
:101B8000B0421AD006F58066B04218D006F58066DD
:101B9000B04216D006F58066B04214D006F58066D5
:101BA000B04212D006F58066B04210D006F58066CD
:101BB000B0423FF44DAF08264DE701264BE7022621
:101BC00049E7032647E7042645E7052643E70626B7
:101BD00041E703B0F0BD00BF00380140003C0140C8
:101BE00000380240000002400004024012B909041B
:101BF0008161704781617047436959404161704715
:101C0000124A12F0070F1ED0D11D21F00701C1F5B5
:101C1000705313440A460E48026000214160134489
:101C2000083B23F007030B48036059601960991AB9
:101C300051601360084B1960084B19604FF0004267
:101C4000074B1A6070474FF47053E4E71403002009
:101C5000203F0020100300201C3F0020183F0020E0
:101C6000143F002010B4134B1A6882421BD35968EA
:101C70005C18A04203D1406801445960184641688D
:101C80004418A24213D10C4C2468A2420DD05268D1
:101C9000114441601A6812680260984200D01860CE
:101CA0005DF8044B70471346DEE70460F5E7026019
:101CB000F3E700BF203F00201003002070B504466A
:101CC000FFF7D4FB3A4B1B68BBB13A4B1B681C4275
:101CD00063D1ACB1083414F0070F11D024F007041D
:101CE000083404F007035BB14FF0500383F311880D
:101CF000BFF36F8FBFF34F8FFEE7FFF781FFE4E77E
:101D0000002C4CD02C4B1B689C424AD82B4B1D6896
:101D100001E02B4615466A68944202D92A68002AD7
:101D2000F7D1234A126895423DD01E6808362A68CA
:101D30001A606B681B1B102B10D9281910F0070FA5
:101D400008D04FF0500383F31188BFF36F8FBFF3B8
:101D50004F8FFEE743606C60FFF784FF6A681649A7
:101D60000B689B1A0B60164909688B4201D2144913
:101D70000B60104B1B6813436B6000232B60FFF755
:101D80000DFC16F0070F10D04FF0500383F31188AD
:101D9000BFF36F8FBFF34F8FFEE70026EFE70026FC
:101DA000EDE70026EBE70026E9E7304670BD00BF0F
:101DB00010030020143F0020183F0020203F002087
:101DC0001C3F002080B338B50446A0F1080550F848
:101DD000042C164909680A4208D14FF0500383F3D6
:101DE0001188BFF36F8FBFF34F8FFEE750F8080CD9
:101DF00040B14FF0500383F31188BFF36F8FBFF3EF
:101E00004F8FFEE722EA010244F8042CFFF72EFB75
:101E100054F8041C064A13680B4413602846FFF765
:101E200021FFFFF7BBFB38BD704700BF143F002008
:101E3000183F002070470268D36843F00103D36065
:101E40000268136843F00103136000207047704775
:101E500070477047704710B5044603681A6912F05E
:101E6000020F11D0DA6812F0020F0DD06FF00202EB
:101E70001A610123037603689B6913F0030F70D086
:101E8000FFF7E6FF0023237623681A6912F0040F98
:101E900012D0DA6812F0040F0ED06FF004021A614B
:101EA0000223237623689B6913F4407F5FD020468A
:101EB000FFF7CEFF0023237623681A6912F0080F7C
:101EC00012D0DA6812F0080F0ED06FF008021A6113
:101ED000042323762368DB6913F0030F4ED02046DA
:101EE000FFF7B6FF0023237623681A6912F0100F5C
:101EF00012D0DA6812F0100F0ED06FF010021A61D3
:101F0000082323762368DB6913F4407F3DD0204605
:101F1000FFF79EFF0023237623681A6912F0010F52
:101F200003D0DA6812F0010F36D123681A6912F073
:101F3000800F03D0DA6812F0800F34D123681A6959
:101F400012F0400F03D0DA6812F0400F32D123684C
:101F50001A6912F0200F03D0DA6812F0200F30D186
:101F600010BDFFF774FF2046FFF773FF8AE7204696
:101F7000FFF76DFF2046FFF76CFF9BE72046FFF75A
:101F800066FF2046FFF765FFACE72046FFF75FFFDF
:101F90002046FFF75EFFBDE76FF001021A612046A1
:101FA000FFF7B2FCC1E76FF080021A61204600F033
:101FB00062FEC3E76FF040021A612046FFF74AFF56
:101FC000C5E76FF020021A61204600F053FEC7E714
:101FD0000368454A90424AD0B0F1804F49D0A2F5FB
:101FE0007C42904247D002F58062904245D002F593
:101FF0008062904243D002F57842904235D0002270
:102000001AB123F070034A681343374A90423AD01A
:10201000B0F1804F50D0A2F57C4290424ED002F5F4
:10202000806290424CD002F5806290424AD002F524
:102030007842904248D002F57052904246D002F564
:102040008062904244D002F58062904242D0A2F574
:102050009832904240D002F5806290423ED002F524
:10206000806290420DD000220EE00122C8E70122DA
:10207000C6E70122C4E70122C2E70122C0E701222C
:10208000BEE7012200E001221AB123F44073CA68BE
:10209000134303608B68C3620B688362124B9842E0
:1020A00020D003F5806398421AD000230BB10B694E
:1020B00003630123436170470122E5E70122E3E75F
:1020C0000122E1E70122DFE70122DDE70122DBE770
:1020D0000122D9E70122D7E70122D5E70122D3E780
:1020E0000123E3E70123E1E700000140A8B110B5B7
:1020F000044690F839305BB1022384F83930211D51
:102100002068FFF765FF012384F83930002010BDF7
:1021100080F83830FFF78EFEEEE70120704730B4CC
:102120000468606A29B10D46A36A00EB13400023DE
:102130000CE040EA0240A06212E003F1400104EB2F
:102140008101496800EB11400133DBB2691E8B420B
:10215000F3DB40EA024005F13F0104EB81014860F6
:10216000002030BC7047036859620020704700F1BE
:10217000080343604FF0FF328260C36003610023B5
:102180000360704700230361704743684B609A689F
:102190008A609A685160996008610368013303603E
:1021A000704730B40D68B5F1FF3F02D000F108026E
:1021B00002E0026904E01A4653681C68A542FAD29C
:1021C00053684B6099608A6051600861036801330D
:1021D000036030BC7047036942688168916082681F
:1021E000416851605A68904205D000220261186827
:1021F00001381860704782685A60F6E784B010B5FD
:10220000044603A880E80E00089B012B11D0E36868
:1022100043F04003E360204600F00EFD4FF48033AE
:10222000A363069B012B1ED00020BDE8104004B024
:102230007047A36B23F48033A363E36823F4840320
:1022400023F04003E360E36823F44013E3600F9B53
:10225000012B03D0204600F0EFFCE2E7E36843F4F3
:102260008013E360F6E7A36843F00603A360A36866
:1022700043F02003A360D7E7836843F00103836042
:1022800000207047836823F00103836000207047BB
:1022900008B5C36823F0C043C360012909D019B948
:1022A000C36843F08043C3603220FEF725FF00205F
:1022B00008BDC36843F00053C360F5E784B0F8B5C8
:1022C000054607A880E80E00119F1FBBAB6B43F4C7
:1022D0000013AB632C460023C5F8003E05F50066ED
:1022E000D5F80038C5F800380C9B012B17D0032116
:1022F000284600F0B1F81021284600F087F828465B
:1023000000F098F80023336173614FF0FF32B2613F
:10231000F36119E0AB6B43F40023AB63DAE7099B8D
:1023200023B90021284600F097F8E4E70121284668
:1023300000F092F8DFE74FF09040C2F80009002269
:102340000A61FF228A60013307998B420BD204EBAA
:10235000431202F51061D2F800090028EBDB0020DF
:10236000C2F80009EBE7002308E04FF0904EC2F8F6
:1023700000EB00220261FF22826001338B420DD20A
:1023800004EB431202F53060D2F800EBBEF1000F0F
:10239000EBDB4FF0000EC2F800EBEAE7336923F401
:1023A000807333610A9B012B1AD00022AA616FF05F
:1023B00080426A611BB9AB6943F01003AB61AA6943
:1023C000104B1343AB610D9B1BB1AB6943F008038A
:1023D000AB61012F0ED00020BDE8F84004B070477B
:1023E000094A3263326B42F4803242F003023263B4
:1023F000326BDAE7AB6943F0804343F00403AB612F
:10240000E9E700BF00383C8000018000890141F00D
:102410002001016100230133054A934205D8026976
:1024200012F0200FF7D1002070470320704700BF43
:10243000400D03001023036100230133054A93423A
:1024400005D8026912F0100FF7D100207047032061
:10245000704700BF400D0300D0F800381943C0F8A2
:10246000001800207047D0F8083800F5006013F01D
:10247000060F10D0836803F00603022B0DD083688B
:1024800003F00603062B0AD0836803F00603042B2F
:1024900007D00020704700207047032070470320BA
:1024A00070470220704730B44B78012B22D0D0F80F
:1024B0001C380D780122AA4043EA0243C0F81C38B8
:1024C0000B7800EB4310D0F8003B13F4004F0ED113
:1024D000D0F8003B8A68C2F30A02C97842EA814216
:1024E000134343F0805343F40043C0F8003B002003
:1024F00030BC7047D0F81C280D78AB409BB213431A
:10250000C0F81C380C7800EB4410D0F8003913F4F4
:10251000004FECD1D0F800398A68C2F30A02C978BA
:1025200042EA814242EA8452134343F0805343F427
:102530000043C0F80039DAE738B54B78012B36D0C4
:102540000B78044600EB4313D3F8002B22F400422F
:10255000C3F8002B0B7800EB43134FF00062C3F875
:10256000002B0B7800EB43134FF08042C3F8002B95
:10257000002201322B4B9A4252D80B7804EB4313C2
:1025800003F530639B6813F0100FF2D1D0F80438D4
:1025900043F48063C0F80438D0F81C38097801226D
:1025A0008A4023EA0243C0F81C38002038BD0B786B
:1025B000044600EB4313D3F8002922F40042C3F889
:1025C00000290B7800EB43134FF00062C3F8002999
:1025D0000B7800EB43134FF08042C3F80029002230
:1025E0000132104B9A4219D80B7804EB431303F5D0
:1025F00010639B6813F0804FF2D10D460446102102
:10260000FFF704FFD4F81C28297801238B409BB2E4
:1026100022EA0303C4F81C38002038BD032038BD6B
:10262000032038BD400D030070B582B04B78012BFC
:102630003ED00B7800EB4313D3F8104BE40CE404CA
:10264000C3F8104B0B7800EB4313D3F8104B24F076
:10265000FF5424F4C014C3F8104B4B69002B40F016
:10266000D4800B7800EB4313D3F8104B8D68C5F37F
:1026700012052C43C3F8104B0B7800EB4313D3F82F
:10268000104B44F40024C3F8104B012A00F0DC8006
:10269000CB78012B00F0DF800B7800EB4310D0F8F3
:1026A000003B43F00443C0F8003B002002B070BD83
:1026B0004B696BBB0B7800EB4313D3F8104924F044
:1026C000FF5424F4C014C3F810490B7800EB4313F3
:1026D000D3F8104944F40024C3F810490B7800EBF8
:1026E0004313D3F81049E40CE404C3F81049012A59
:1026F00054D0CB78012B57D04B69002B54D0D0F855
:1027000034380E780124B4402343C0F834384BE009
:102710000B7800EB4313D3F81049E40CE404C3F83E
:1027200010490B7800EB4313D3F8104924F0FF5401
:1027300024F4C014C3F810490C7800EB4414D4F806
:1027400010594B698E683344013BB3FBF6F34E4E90
:1027500006EAC3432B43C4F810390B7800EB43134C
:10276000D3F810494D69C5F312052C43C3F810493D
:10277000CB78012BBBD10B7800EB4313D3F8104976
:1027800024F0C044C3F810490B7800EB4313D3F88E
:10279000104944F00054C3F81049A8E70B7800EB47
:1027A00043130C69C3F81449CB78012B14D00B7870
:1027B00000EB4313D3F8004944F00444C3F8004944
:1027C000CB78012B7FF471AF14468B8A0A78C968E5
:1027D000009400F00BF968E7D0F8083813F4807F14
:1027E00009D10B7800EB4313D3F8004944F00054AF
:1027F000C3F80049DBE70B7800EB4313D3F800493B
:1028000044F08054C3F80049D1E78C682344013B6D
:10281000B3FBF4F30C7800EB4414D4F8105B1A4EBD
:1028200006EAC3463543C4F8105B0C7800EB441449
:10283000D4F8106B8D689BB205FB03F5C5F3120548
:102840003543C4F8105B20E70B7800EB4313CA68EC
:10285000C3F8142B1CE7D0F8083813F4807F09D193
:102860000B7800EB4313D3F8002B42F00052C3F86F
:10287000002B11E70B7800EB4313D3F8002B42F049
:102880008052C3F8002B07E70000F81F30B44B78E4
:10289000012B39D00B7800EB4313D3F8104BE40C29
:1028A000E404C3F8104B0B7800EB4313D3F8104B40
:1028B00024F0FF5424F4C014C3F8104B4B690BB13F
:1028C0008B684B610B7800EB4313D3F8104B44F447
:1028D0000024C3F8104B0B7800EB4313D3F8104BD4
:1028E0008D68C5F312052C43C3F8104B012A76D02E
:1028F0000B7800EB4310D0F8003B43F00443C0F8E2
:10290000003B002030BC70474B699BBB0B7800EB51
:102910004313D3F8104924F0FF5424F4C014C3F82F
:1029200010490B7800EB4313D3F8104944F400240A
:10293000C3F810490B7800EB4313D3F81049E40CAB
:10294000E404C3F810490B7800EB4313D3F80049B3
:1029500044F00444C3F80049012A39D04B69002BE4
:10296000CFD0D0F83438097801228A401343C0F818
:102970003438C6E70B7800EB4313D3F81049E40C66
:10298000E404C3F810490B7800EB4313D3F8104963
:1029900024F0FF5424F4C014C3F810494C698B6828
:1029A0009C4200D94B610B7800EB4313D3F81049DC
:1029B00044F40024C3F810490B7800EB4313D3F818
:1029C00010494D69C5F312052C43C3F81049BAE705
:1029D0000B7800EB43100B69C0F8143991E70B78C2
:1029E00000EB4313CA68C3F8142B81E770B49DF859
:1029F0000C4064B903339E0807E000EB023303F593
:102A0000805351F8045B1D600134B442F5D30020BB
:102A100070BC704703329208002393420CD210B46A
:102A200000F58054246841F8044B01339342F7D3F6
:102A300008465DF8044B7047084670474B78012BF9
:102A400017D00B7800EB4313D3F8002B002A05DBDB
:102A5000D3F8002B22F08042C3F8002B0B7800EB58
:102A60004310D0F8003B43F40013C0F8003B0020B3
:102A700070470B7800EB4313D3F80029002A05DBDD
:102A8000D3F8002922F08042C3F800290B7800EB2C
:102A90004310D0F8003943F40013C0F80039E6E7DA
:102AA0004B78012B0FD00B7800EB4313D3F8002B9E
:102AB00022F40012C3F8002BCB78023BDBB2012BCF
:102AC00019D9002070470B7800EB4313D3F8002985
:102AD00022F40012C3F80029CB78023BDBB2012BB1
:102AE000EFD80B7800EB4310D0F8003943F0805357
:102AF000C0F80039E5E70B7800EB4310D0F8003B55
:102B000043F08053C0F8003BDBE7D0F8003823F4F3
:102B1000FE63C0F80038D0F80038090101F4FE6106
:102B20000B43C0F800380020704708B5D0F80438CF
:102B300023F00203C0F804380320FEF7DDFA00207A
:102B400008BD08B5D0F8043843F00203C0F80438D3
:102B50000320FEF7D1FA002008BD426980691040C9
:102B60007047D0F8183800F50060C0691840000CB4
:102B70007047D0F8183800F50060C069184080B27E
:102B8000704700EB4111D1F8082B00F50060406957
:102B900010407047D0F81028D0F83438CB40DB0113
:102BA000DBB2134300EB4111D1F80809184070471C
:102BB000406900F001007047D0F8003923F4FF634A
:102BC00023F00703C0F8003900F500639A6802F0AB
:102BD0000602042A05D05A6842F480725A60002026
:102BE0007047D0F8002942F00302C0F80029F2E74C
:102BF00010B40024C0F8104BD0F8104B44F400245B
:102C0000C0F8104BD0F8104B44F01804C0F8104B2B
:102C1000D0F8104B44F0C044C0F8104B012903D049
:102C200000205DF8044B7047C0F8142B4FF0802350
:102C3000C0F8003BF4E70000002301330C4A934244
:102C400011D80269002AF8DA036943F0010303612D
:102C500000230133064A934207D8026912F0010F9C
:102C6000F7D100207047032070470320704700BF52
:102C7000400D03007047704730B583B004460368C9
:102C800013F0010F3BD0A94B9B6803F00C03042BFE
:102C90002CD0A64B9B6803F00C03082B21D0636853
:102CA000B3F5803F4FD0B3F5A02F52D09F4B1A6899
:102CB00022F480321A601A6822F480221A60636853
:102CC000002B50D0FEF712FA0546984B1B6813F400
:102CD000003F14D1FEF70AFA401B6428F5D90320FF
:102CE00099E1924B5B6813F4800FD8D08F4B1B682F
:102CF00013F4003F03D06368002B00F08981236840
:102D000013F0020F5BD0894B9B6813F00C0F3ED081
:102D1000864B9B6803F00C03082B33D0E368002B31
:102D200074D00122824B1A60FEF7E0F905467F4B12
:102D30001B6813F0020F5AD1FEF7D8F9401B022886
:102D4000F5D9032067E1794A136843F480331360AF
:102D5000B5E7764B1A6842F480221A601A6842F48A
:102D600080321A60ABE7FEF7C1F905466F4B1B686E
:102D700013F4003FC3D0FEF7B9F9401B6428F5D91E
:102D8000032048E1694B5B6813F4800FC6D1674BA1
:102D90001B6813F0020F04D0E368012B01D001205F
:102DA00039E16248036823F0F8032169F82292FAB6
:102DB000A2F2B2FA82F201FA02F21343036023682C
:102DC00013F0080F46D0636993B30122594B1A6080
:102DD000FEF78CF90546554B5B6F13F0020F39D1A6
:102DE000FEF784F9401B0228F5D9032013E14F4870
:102DF000036823F0F8032169F82292FAA2F2B2FAEA
:102E000082F201FA02F213430360D8E70022484B32
:102E10001A60FEF76BF90546444B1B6813F0020F6E
:102E2000CDD0FEF763F9401B0228F5D90320F2E06C
:102E30000022404B1A60FEF759F905463B4B5B6F89
:102E400013F0020F06D0FEF751F9401B0228F5D906
:102E50000320E0E0236813F0040F20D1A369002BC6
:102E600000F0D880314A926802F00C02082A00F083
:102E7000D480022B00F0808000222F4B1A60FEF7D6
:102E800035F90446294B1B6813F0007F00F0BE8023
:102E9000FEF72CF9001B0228F4D90320BBE0002325
:102EA0000193224B1A6C42F080521A641B6C03F09F
:102EB00080530193019B214A136843F4807313608C
:102EC000FEF714F905461D4B1B6813F4807F06D1ED
:102ED000FEF70CF9401B0228F5D903209BE0A368FC
:102EE000012B1DD0052B2BD0104B1A6F22F00102A5
:102EF0001A671A6F22F004021A67A36853B3FEF729
:102F0000F5F80546094B1B6F13F0020FA6D1FEF72B
:102F1000EDF8401B41F288339842F3D903207AE060
:102F2000024A136F43F001031367E6E700380240DB
:102F300000004742800E4742600047420070004058
:102F4000374B1A6F42F004021A671A6F42F00102FF
:102F50001A67D2E7FEF7CAF80546314B1B6F13F02C
:102F6000020F3FF47BAFFEF7C1F8401B41F28833FC
:102F70009842F2D903204EE000222A4B1A60FEF755
:102F8000B5F80546264B1B6813F0007F06D0FEF708
:102F9000ADF8401B0228F5D903203CE0E369226A22
:102FA0001343616A47F6C07292FAA2F2B2FA82F251
:102FB00001FA02F21343A26A5208013A4FF4403177
:102FC00091FAA1F1B1FA81F18A401343E16A4FF01D
:102FD000706292FAA2F2B2FA82F201FA02F213439A
:102FE0000F4A536001220F4B1A60FEF77FF8044628
:102FF0000B4B1B6813F0007F06D1FEF777F8001B20
:103000000228F5D9032006E0002004E0002002E0B9
:10301000012000E0002003B030BD0120FBE700BF2D
:1030200000380240600047421F4B9B6803F00C03CE
:10303000082B36D11C4A536803F03F03526812F440
:10304000800F1ED01948B0FBF3F3174A506847F6BB
:10305000C072104092FAA2F2B2FA82F2D04000FBA3
:1030600003F0114B5B6803F440334FF4403292FAA3
:10307000A2F2B2FA82F2D34001335B00B0FBF3F06C
:1030800070470A48B0FBF3F3074A506847F6C0722E
:10309000104092FAA2F2B2FA82F2D04000FB03F0A2
:1030A000DFE70248704700BF003802400024F40008
:1030B000624B1B6803F00F038B4209D2CBB25F4A0D
:1030C0001370136803F00F03994201D00120704779
:1030D00070B5036813F0020F06D0594A936823F0C5
:1030E000F0038468234393600D460446036813F09D
:1030F000010F64D04368012B26D09A1E012A2AD9D9
:103100004F4A126812F0020F00F096804C498A680C
:1031100022F0030213438B60FDF7E8FF0646636865
:10312000012B1FD0022B2CD0032B39D0444B9B6892
:1031300013F00C0F43D0FDF7D9FF801B41F2883309
:103140009842F3D9032070BD3D4A126812F4003F43
:10315000DCD1012070BD3A4A126812F0007FD5D14F
:10316000012070BD364B9B6803F00C03042B26D066
:10317000FDF7BCFF801B41F288339842F2D903204F
:1031800070BD2F4B9B6803F00C03082B17D0FDF785
:10319000ADFF801B41F288339842F2D9032070BD05
:1031A000274B9B6803F00C030C2B08D0FDF79EFF08
:1031B000801B41F288339842F2D9032070BD1F4B27
:1031C0001B6803F00F039D4209D2EAB21B4B1A7031
:1031D0001B6803F00F039D4201D0012070BD2368DE
:1031E00013F0040F06D0164A936823F4E053E16805
:1031F0000B439360236813F0080F07D0104A9368BD
:1032000023F46043216943EAC1039360FFF70CFF95
:103210000B4B9B6803F0F003F02292FAA2F2B2FA91
:1032200082F2D340074AD35CD840074B1860002095
:10323000FDF714F8002070BD012070BD003C024075
:10324000003802406445000804000020014B186863
:10325000704700BF0400002008B5FFF7F7FF074BD9
:103260009B6803F460434FF4604292FAA2F2B2FA10
:1032700082F2D340024AD35CD84008BD00380240F5
:10328000744500080F2303600B4B9A6802F0030299
:1032900042609A6802F0F00282609A6802F4E0529A
:1032A000C2609B68DB0803F4E0530361034B1B68B7
:1032B00003F00F030B60704700380240003C0240EF
:1032C000842801D0033070470020704708B5FEF70E
:1032D0008FF8002008BDF0B585B00F46446805683A
:1032E0000669B0F90800FFF7EBFF03AB019300900C
:1032F0003B46B2B229462046FEF748F8012802D1E3
:10330000039805B0F0BD0020FBE708B5034600B9FF
:1033100001231846FEF7C0F9002008BD08B5FEF7E6
:1033200073FA012801D0FDF71DFE08BD002070478B
:103330000020704710B5064C00220649204600F0D8
:103340002AFF0549204600F02EFF002010BD00BFD7
:103350006C5500207C4700207C3F0020094BD3F8AF
:103360001832D3F814320BB10120704710B50A4659
:103370000146044C204600F00EFF204600F019FFE5
:1033800010BD00BF6C550020F0B58FB006460F464B
:10339000184C0146204600F006FF204600F020FFB2
:1033A00009AC154D0FCD0FC42B68236003AC134D32
:1033B0000FCD0FC495E8030044F8040B218000975B
:1033C000334604220E490F4800F040FF044618B966
:1033D0005CB100200FB0F0BD80210B48FEF70CFC63
:1033E000142109A8FFF7BAFFF2E7162103A8FFF797
:1033F000B5FFEEE76C5500209C450008B04500087D
:1034000094450008984500080008024012230B80EC
:10341000004870473400002004230B8000487047A8
:103420004800002008B50A4628B10549054800F0C3
:103430005DFD034808BD0249024800F057FDF8E76A
:103440007C4F0020F845000810B5044C0A46214680
:10345000034800F04BFD204610BD00BF7C4F00200C
:10346000E445000808B50A4628B10549054800F0BA
:103470003DFD034808BD0249024800F037FDF8E76A
:103480007C4F00201046000808B50A4628B10549BF
:10349000054800F02BFD034808BD0249024800F032
:1034A00025FDF8E77C4F0020C845000808B50A460E
:1034B00028B10549054800F019FD034808BD024937
:1034C000024800F013FDF8E77C4F0020D4450008C7
:1034D0000268154B9A4200D0704710B586B04FF481
:1034E0004043019302230293002403940323049393
:1034F0000C23059301A90D48FEF792FA00940C4B9A
:103500001A6B42F000521A631B6B03F000530093D6
:10351000009B224605214D20FDF7DAFB4D20FDF7EB
:1035200009FC06B010BD00BF0000044000040240CA
:103530000038024008B500F56F71D0F8EC0300F0D8
:103540006AF908BD08B5C1EBC10293000344D3F882
:103550000422D0F8EC0300F08BF908BD08B5C1EBEC
:10356000C102930003445A6CD0F8EC0300F0B5F9A3
:1035700008BD08B5D0F8EC0300F039FA08BD10B565
:103580000446C3684BB10121D4F8EC0300F01DFAE6
:10359000D4F8EC0300F0FAF910BD0021F4E70000C4
:1035A00010B50446D0F8EC0300F012FA2268D2F805
:1035B000003E43F00103C2F8003E236A23B1034AF0
:1035C000136943F00603136110BD00BF00ED00E076
:1035D00008B5D0F8EC0300F004FA08BD08B5D0F83F
:1035E000EC0300F014FA08BD08B5D0F8EC0300F0C5
:1035F0000CFA08BD08B5D0F8EC0300F00AFA08BDD3
:1036000008B5D0F8EC0300F006FA08BD0378012BEA
:1036100001D00020704710B503461848C0F8EC33BD
:10362000C3F82002164B0360062343600222C260E7
:103630000023036143618261C36103624362C36229
:1036400003634363FCF79CFE90B90C4C4FF400718C
:103650002046FEF788FD802200212046FEF75FFD10
:103660004FF4BA7201212046FEF759FD002010BD2B
:1036700040F235110348FEF753F9E6E77C5100208C
:10368000000004402046000808B5D0F82002FCF7EE
:10369000E7FE18B1022803D0022008BD002008BDB3
:1036A000012008BD10B51C4613462246D0F8200262
:1036B000FDF7E0F918B1022803D0022010BD002068
:1036C00010BD012010BD08B5D0F82002FDF706FAA4
:1036D00018B1022803D0022008BD002008BD012037
:1036E00008BD08B5D0F82002FDF782FA18B102280B
:1036F00003D0022008BD002008BD012008BD08B588
:10370000D0F82002FDF7A7FA18B1022803D0022052
:1037100008BD002008BD012008BDD0F8203211F0FE
:10372000800F08D101F07F01C1EBC1018A00134471
:1037300093F8FA01704701F07F01C1EBC1018A00E3
:10374000134493F83A00704708B5D0F82002FDF70B
:103750007FF918B1022803D0022008BD002008BD5F
:10376000012008BD08B5D0F82002FDF718FA18B1FD
:10377000022803D0022008BD002008BD012008BD9A
:1037800008B5D0F82002FDF7D4F918B1022803D00B
:10379000022008BD002008BD012008BD08B5D0F8F2
:1037A0002002FDF7F3F908BD98B108B50346D0F83B
:1037B000140210B10020C3F8140209B1C3F81012AA
:1037C0001846012380F8FC310270FFF71FFF00202C
:1037D00008BD0220704719B1C0F8141200207047CC
:1037E0000220704708B5FFF74FFF002008BD08B55D
:1037F000D0F8143223B11B68984718B1022008BDD5
:10380000022008BD002008BD08B5D0F814325B685E
:103810009847002008BD38B5044600F502752846D3
:1038200000F01EF90123C4F8F431B4F80E32C4F8E4
:10383000F83194F8081201F01F03012B0ED03BB1B0
:10384000022B10D001F080012046FFF74AFF03E071
:103850002946204600F07EFA002038BD2946204641
:1038600000F09CFAF8E72946204600F0B3FAF3E7A7
:1038700010B5044619BB1346D0F8F421032A27D10A
:10388000D0F80C11D0F8102191420BD8D0F8143296
:103890001B691BB190F8FC21032A0ED0204600F0D2
:1038A0006EFB15E0891AC0F80C118A4228BF0A463F
:1038B00092B2194600F05BFB0AE09847EEE70A4631
:1038C000D0F814329B691BB190F8FC11032901D088
:1038D000002010BD11469847FAE710B504460029AC
:1038E00047D11346D0F8F421022A05D094F80032CB
:1038F000012B3AD0002010BDC169026A914217D84D
:103900008169B1FBF2F302FB13132BB98A4203D88E
:10391000D0F8F831994218D3D4F81432DB681BB1CF
:1039200094F8FC21032A1DD0204600F033FBDDE78C
:103930008A1AC26192B2194600F002FB00231A46AD
:1039400019462046FFF71CFFD0E70022114600F081
:10395000F7FA0021C4F8F8110B460A462046FFF793
:103960000FFFC3E720469847DEE7002384F80032C4
:10397000C0E70A46D0F814325B69002BBAD090F841
:10398000FC110329B6D111469847B3E738B5044670
:10399000402300221146FFF785FE4025C4F8105150
:1039A0002B46002280212046FFF77CFE2562012362
:1039B00084F8FC31D4F818322BB1D4F814325B6897
:1039C000217920469847002038BD017400207047B7
:1039D00090F8FC3180F8FD31042380F8FC310020A0
:1039E000704790F8FD3180F8FC310020704708B531
:1039F00090F8FC31032B01D0002008BDD0F8143220
:103A0000DB69002BF8D09847F6E7002070470020CC
:103A100070470020704708B5012280F8FC21D0F8DB
:103A20001422526801799047002008BD002302E06B
:103A30000133DBB201300278002AF9D11846704711
:103A40004B88012B00D0704710B50446C0F80432F3
:103A5000D0F814329B689847204600F090FA10BDC9
:103A60000B7803704B7843708B78CA7803EB022392
:103A700043800B794A7903EB022383808B79CA79DF
:103A800003EB0223C380704710B504468021FFF783
:103A900028FE00212046FFF724FE10BD30B583B07C
:103AA00004460D464A88130A013B062B00F281802A
:103AB000DFE803F00413277F7F637000D0F8103233
:103AC0001B680DF10601007C9847BDF8062012B175
:103AD000EB88002B71D103B030BD037C43B9D0F823
:103AE00014329B6A0DF10600984702234370ECE7FD
:103AF000D0F81432DB6A0DF10600984702234370B8
:103B0000E3E7D2B2052A34D8DFE802F0030B131B37
:103B1000232BD0F810325B680DF10601007C98472A
:103B2000D3E7D0F810329B680DF10601007C98476E
:103B3000CBE7D0F81032DB680DF10601007C984726
:103B4000C3E7D0F810321B690DF10601007C9847DD
:103B5000BBE7D0F810325B690DF10601007C984795
:103B6000B3E7D0F810329B690DF10601007C98474D
:103B7000ABE72946FFF788FFADE7037C33B9D0F800
:103B800014325B6B0DF1060098479EE72946FFF75C
:103B90007BFFA0E7037C43B9D0F814321B6B0DF117
:103BA00006009847072343708FE72946FFF76CFF0D
:103BB00091E72946FFF768FF8DE79A4228BF1A462A
:103BC000ADF806200146204600F0ADF983E738B590
:103BD00004468B88E3B9CB88D3B98D7805F07F058F
:103BE00090F8FC31032B0CD080F8FE512946FFF7EA
:103BF000ABFD204600F0C3F935B1022384F8FC3157
:103C000038BDFFF741FF38BD012384F8FC3138BDD2
:103C10002046FFF739FF38BD38B504460D46897890
:103C2000254B1970012909D890F8FC31022B09D0D5
:103C3000032B1CD02946FFF727FF38BD2946FFF785
:103C400023FF38BD81B14160032380F8FC31FFF7C9
:103C5000CEFD022803D0204600F091F938BD294658
:103C60002046FFF711FF38BD00F089F938BD89B152
:103C7000436899421DD0D9B2FFF7C6FD0E4B1978A3
:103C800061602046FFF7B3FD02280DD0204600F00A
:103C900076F938BD022380F8FC314160FFF7B4FDAE
:103CA000204600F06CF938BD29462046FFF7ECFEAF
:103CB00038BD00F064F938BD283F002008B5CB8836
:103CC000012B08D190F8FC31022B07D0032B0DD02B
:103CD000FFF7DAFE08BDFFF7D7FE08BD0146002357
:103CE00041F8083F012200F01EF908BD0122011D24
:103CF00000F019F908BD08B590F8FC31023B012B22
:103D00000CD80123C360D0F804320BB10323C36085
:103D1000022200F10C0100F006F908BDFFF7B4FE25
:103D200008BD10B5044690F8FC31023B012B0ED8BB
:103D30004B88012B00D010BD0023C0F80432D0F80E
:103D400014329B689847204600F019F910BDFFF720
:103D50009BFEF0E708B54B78092B1CD8DFE803F091
:103D600012181B151B09051B0F0CFFF797FE0020EF
:103D700008BDFFF72CFFFAE7FFF74EFFF7E7FFF765
:103D80009DFFF4E7FFF7B7FFF1E7FFF759FEEEE716
:103D9000FFF7C7FFEBE7FFF777FEE8E738B5044624
:103DA0000D4690F8FC31032B11D10B79012B03D96F
:103DB000FFF76AFE002038BDD0F814329B689847A0
:103DC000EB88002BF6D1204600F0D9F8F2E7FFF798
:103DD0005BFEEFE738B505460C468A880B7803F0A2
:103DE0006003202B11D0D1B26378012B2BD0002B94
:103DF0004DD0032B0DD190F8FC31022B0BD0032BAF
:103E000010D02146FFF740FE03E0D0F814329B6843
:103E10009847002038BD0029FBD08029F9D0FFF752
:103E200060FCF6E7638823B919B1802901D0FFF758
:103E300058FCD5F814329B682146284698472846F6
:103E400000F09DF8E5E790F8FC31022B05D0032B3C
:103E50000AD02146FFF718FEDBE70029D9D08029D8
:103E6000D7D0FFF73EFCD4E76388002BD1D111F007
:103E70007F0F03D1284600F082F8CAE7FFF73FFC26
:103E8000D5F814329B68214628469847F2E790F807
:103E9000FC31022B05D0032B09D02146FFF7F4FD9E
:103EA000B7E711F07F0FB4D0FFF71BFCB1E712F0BA
:103EB000800F11D101F07F04103400EB041404349E
:103EC0002846FFF72AFC70B1012323600222214615
:103ED000284600F028F89CE701F07F04013400EB4D
:103EE00004140434ECE700232360EFE7D0B170B58D
:103EF0000D4616460446FFF799FD0130400080B29A
:103F00003080287003236B70022307E05A1CD2B262
:103F10000134E9540233DBB20021A954217800298D
:103F2000F4D170BD704710B513460222C0F8F421D9
:103F30008361C3610A460021FFF714FC002010BD15
:103F400008B513460A460021FFF70CFC002008BD07
:103F500010B513460322C0F8F421C0F80831C0F8A8
:103F60000C310A460021FFF70BFC002010BD08B5FC
:103F700013460A460021FFF703FC002008BD08B5E0
:103F80000423C0F8F43100231A461946FFF7EAFB70
:103F9000002008BD08B50523C0F8F43100231A46F7
:103FA0001946FFF7EDFB002008BDD0F818321BB111
:103FB0000020C3F8140270470220704710B5D0F8F3
:103FC0001842D0F81C325BB194F80002FF2807D0E9
:103FD0009B6894F8012221469847FF2384F8003219
:103FE000002010BD43230380004870478400002058
:103FF0004323038000487047C80000204323038008
:1040000000487047180100200A23038000487047C9
:104010000C01002038B50446D0F81852FFF7BEFB5B
:10402000C5F80C02D4F818324BB1D4F81C32DB6856
:1040300005F50371D5F804029847002038BD022029
:1040400038BD000070B505460C46D0F818620B78F4
:1040500013F0600224D0202A25D1CA88CAB113F0F7
:10406000800F0AD14B7886F80032CB8886F801326F
:10407000CA883146FFF76CFF15E0D0F81C329B6808
:10408000314660789847E28831462846FFF74BFF73
:1040900009E0D0F81C329B6800224878984702E07B
:1040A0004B780A2B01D0002070BD01220149FFF797
:1040B0003AFFF8E7293F002010B504468121FFF7B9
:1040C00002FB01212046FFF7FEFA82212046FFF77E
:1040D000FAFAD4F8183253B1D4F81C325B68984716
:1040E000D4F8180200F050F90023C4F81832002068
:1040F00010BD38B50446037C73BB4FF40073022235
:104100008121FFF7CFFA4FF40073022201212046EC
:10411000FFF7C8FA0823032282212046FFF7C2FADC
:104120004FF4077000F028F90546C4F8180248B3A8
:10413000D4F81C321B6898470023C5F81432C5F820
:104140001832237CA3B14023D5F804220121204654
:10415000FFF716FB002038BD402302228121FFF724
:10416000A1FA4023022201212046FFF79BFAD1E762
:104170004FF40073D5F8042201212046FFF700FB1D
:10418000002038BD012038BD19B1C0F81C12002034
:10419000704702207047D0F81832C3F80812C3F8ED
:1041A000102200207047D0F81832C3F80412002003
:1041B0007047D0F818228AB108B5D2F814320BB182
:1041C000012008BD0123C2F81432B2F81032D2F82F
:1041D00008228121FFF7C6FA002008BD022070479F
:1041E000D0F818229AB108B5037C3BB14023D2F82D
:1041F00004220121FFF7C4FA002008BD4FF4007328
:10420000D2F804220121FFF7BBFA002008BD0220EA
:104210007047000010B5094C012209492046FFF7FC
:10422000C3FA08492046FFF7D6FA07492046FFF7A8
:10423000ABFF2046FFF7D6FA10BD00BF6C5500203B
:10424000180000204C00002008000020F0B4049F5B
:10425000002595420CDA5E5D0478A6420BD13C68DD
:10426000641B013C1E5D0C78A64206D10135F0E7C7
:104270000120F0BC70470020FBE70020F9E70000B8
:1042800000B585B003AB0193012300930023802286
:1042900003490448FDF77AF805B05DF804FB00BF58
:1042A00030460008A942000800B585B0094B93E8E4
:1042B000070004AB03E9070040210748FDF79CFC19
:1042C0000C2101A8FFF74AF84FF47A70FDF7E4F9E2
:1042D000F2E700BF3C46000800080240DFF834D097
:1042E000002103E00C4B5B58435004310B480C4B4E
:1042F00042189A42F6D30B4A02E0002342F8043BEC
:10430000094B9A42F9D3FDF78FFA00F011F8FDF747
:1043100069FB7047000002205046000800000020A2
:10432000C0010020C001002094570020FEE70000DB
:1043300070B50D4E0D4CA41BA4100025A54209D14B
:104340000B4E0C4C00F0F4F8A41BA4100025A54261
:1043500005D170BD56F8253098470135EEE756F87F
:10436000253098470135F2E74846000848460008DE
:10437000484600084C460008024B0146186800F009
:1043800059B800BF5C010020024B0146186800F0DC
:1043900003B800BF5C01002038B50546002945D0B0
:1043A00051F8043C0C1F002BB8BFE41800F0B0F823
:1043B0001F4A1368104633B9636014602846BDE88D
:1043C000384000F0A6B8A3420CD921686218934285
:1043D00004BF1A685B68636004BF521822600460FF
:1043E000ECE713465A680AB1A242FAD9196858187C
:1043F000A0420BD120680144581882421960DDD1D7
:10440000106852685A6001441960D7E702D90C233A
:104410002B60D3E7206821188A4204BF11685268D4
:10442000626004BF091821605C60C7E738BD00BF47
:104430002C3F002070B5CD1C25F0030508350C2D50
:1044400038BF0C25002D064601DBA94203D90C23F9
:104450003360002070BD00F05BF8234A14682146E9
:1044600091B9224C23681BB9304600F041F8206016
:104470002946304600F03CF8431C26D10C2333601B
:10448000304600F046F8E4E70B685B1B1AD40B2BB0
:104490000FD90B60CD50CC18304600F03AF804F13B
:1044A0000B00231D20F00700C31A1BD05A42E25014
:1044B00070BD8C420DBF63684B686360136018BFAA
:1044C0000C46E9E70C464968CAE7C41C24F003041B
:1044D000A04205D0211A304600F00AF80130CDD0B4
:1044E0002560D9E770BD00BF2C3F0020303F002081
:1044F00038B5064C002305460846236000F00AF84C
:10450000431C02D1236803B12B6038BD90570020B3
:1045100070477047044A05491368002B08BF0B46D3
:104520001844106018467047343F00209857002008
:10453000F8B500BFF8BC08BC9E467047F8B500BF90
:08454000F8BC08BC9E46704760
:1045480088450008F9180008000000000000000075
:104558008000000049444C450000000000000000B5
:10456800000000000102030406070809000000001B
:10457800010203045372632F6D61696E2E6300009C
:1045880064656661756C745461736B00400000006B
:10459800230000007468727573742068656C6C2061
:1045A80079656168200D0A006E6F7420676F6F640B
:1045B80020656E6F756768206B69640D0A000000DE
:1045C80043444320436F6E666967000043444320B9
:1045D800496E7465726661636500000053544D69E5
:1045E80063726F656C656374726F6E6963730000E4
:1045F80053544D3332205669727475616C20436F81
:104608006D506F7274000000303030303030303010
:1046180030303141000000005372632F75736264BB
:104628005F636F6E662E63004865617274626561D0
:10463800740000006865617274626561740D0A0037
:04464800B5010008B0
:04464C0091010008D0
:10465000AAAAAAAA0024F400353300082D330008C2
:1046600031330008893300080D340008193400087C
:1046700049340008253400086534000889340008EE
:10468000AD340008120100020202004083044057CA
:10469000000201020301000004030904F3400008C2
:1046A000B94000084540000800000000BD3F000878
:1046B000AB3F0008154000080000000000000000AB
:1046C00000000000F13F0008E53F0008FD3F000842
:1046D0000940000809024300020100C03209040039
:1046E000000102020100052400100105240100015F
:1046F00004240202052406000107058203080010B5
:1047000009040100020A0000000705010240000040
:10471000070581024000000009024300020100C0B9
:104720003209040000010202010005240010010505
:104730002401000104240202052406000107058269
:104740000308001009040100020A00000007050127
:104750000200020007058102000200000A060002B2
:10476000000000400100000009074300020104C0EE
:1047700032090400000102020100052400100105B5
:104780002401000104240202052406000107058219
:10479000030800FF09040100020A000000070501E8
:1047A0000240000007058102400000006001002077
:1047B00000000000000000000000000000000000F9
:1047C00000000000000000000000000000000000E9
:1047D00000000000000000000000000000000000D9
:1047E00000000000000000000000000000000000C9
:1047F00000000000000000000000000000000000B9
:1048000000000000000000000000000000000000A8
:04000005080042DDD0
:00000001FF
