:020000040800F2
:1000000000000220496B0008092700080B270008A0
:100010000D2700080F270008112700080000000026
:10002000000000000000000000000000113E000879
:100030001327000800000000B13E00081527000843
:10004000996B0008996B0008996B0008996B000880
:10005000996B0008996B0008996B0008996B000870
:10006000996B0008996B0008996B0008996B000860
:10007000996B0008996B0008996B0008996B000850
:10008000996B0008996B0008996B0008996B000840
:10009000996B0008996B0008996B0008996B000830
:1000A000996B00081D270008996B0008996B0008E0
:1000B000996B0008996B0008996B0008996B000810
:1000C000996B0008996B0008996B0008996B000800
:1000D000996B0008996B0008996B0008996B0008F0
:1000E000996B0008996B0008996B0008996B0008E0
:1000F000996B0008996B0008996B0008996B0008D0
:10010000996B0008996B0008996B0008996B0008BF
:10011000996B0008996B0008996B0008996B0008AF
:10012000996B0008996B0008996B0008996B00089F
:10013000996B00080000000000000000996B0008A7
:10014000996B0008996B0008996B0008996B00087F
:10015000996B0008996B0008996B0008996B00086F
:10016000996B0008996B0008996B0008996B00085F
:10017000996B00082D270008000000000000000017
:08018000996B0008996B00085F
:1001900010B5054C237833B9044B13B10448AFF3C1
:1001A00000800123237010BD2C03002000000000FC
:1001B000C88400080C4B43B10C480D4910B5AFF38F
:1001C00000800C48036823B910BD0A48036833B99E
:1001D0007047094B002BF7D0BDE810401847064B7D
:1001E000002BF5D0184700BF00000000C8840008AD
:1001F000300300202C03002000000000034613F809
:10020000012B002AFBD1181A0138704781F00041F8
:1002100002E000BF83F0004330B54FEA41044FEAEB
:10022000430594EA050F08BF90EA020F1FBF54EA86
:10023000000C55EA020C7FEA645C7FEA655C00F022
:10024000E2804FEA5454D4EB5555B8BF6D420CDDF3
:100250002C4480EA020281EA030382EA000083EA76
:10026000010180EA020281EA0303362D88BF30BD16
:1002700011F0004F4FEA01314FF4801C4CEA11316C
:1002800002D0404261EB410113F0004F4FEA0333CB
:100290004CEA133302D0524263EB430394EA050F56
:1002A00000F0A780A4F10104D5F1200E0DDB02FAC5
:1002B0000EFC22FA05F2801841F1000103FA0EF259
:1002C000801843FA05F359410EE0A5F120050EF11F
:1002D000200E012A03FA0EFC28BF4CF0020C43FA50
:1002E00005F3C01851EBE37101F0004507D54FF05D
:1002F000000EDCF1000C7EEB00006EEB0101B1F5AD
:10030000801F1BD3B1F5001F0CD349085FEA3000F2
:100310004FEA3C0C04F101044FEA445212F5800FFD
:1003200080F09A80BCF1004F08BF5FEA500C50F19A
:10033000000041EB045141EA050130BD5FEA4C0C7D
:10034000404141EB010111F4801FA4F10104E9D106
:1003500091F0000F04BF01460020B1FA81F308BFFD
:100360002033A3F10B03B3F120020CDA0C3208DDC9
:1003700002F1140CC2F10C0201FA0CF021FA02F1A4
:100380000CE002F11402D8BFC2F1200C01FA02F114
:1003900020FA0CFCDCBF41EA0C019040E41AA2BF39
:1003A00001EB0451294330BD6FEA04041F3C1CDA01
:1003B0000C340EDC04F11404C4F1200220FA04F021
:1003C00001FA02F340EA030021FA04F345EA0301CB
:1003D00030BDC4F10C04C4F1200220FA02F001FA8D
:1003E00004F340EA0300294630BD21FA04F029460F
:1003F00030BD94F0000F83F4801306BF81F48011A8
:100400000134013D4EE77FEA645C18BF7FEA655C1A
:1004100029D094EA050F08BF90EA020F05D054EAEC
:10042000000C04BF1946104630BD91EA030F1EBFF1
:100430000021002030BD5FEA545C05D140004941F5
:1004400028BF41F0004130BD14F580043CBF01F5E8
:10045000801130BD01F0004545F0FE4141F47001CE
:100460004FF0000030BD7FEA645C1ABF19461046A9
:100470007FEA655C1CBF0B46024650EA013406BFAA
:1004800052EA033591EA030F41F4002130BD00BF69
:1004900090F0000F04BF0021704730B54FF4806426
:1004A00004F132044FF000054FF0000150E700BFA7
:1004B00090F0000F04BF0021704730B54FF4806406
:1004C00004F1320410F0004548BF40424FF00001F3
:1004D0003EE700BF42004FEAE2014FEA31014FEA36
:1004E00002701FBF12F07F4393F07F4F81F0605185
:1004F000704792F0000F14BF93F07F4F704730B5F4
:100500004FF4607401F0004521F0004120E700BF86
:1005100050EA010208BF704730B54FF000050AE00D
:1005200050EA010208BF704730B511F0004502D50E
:10053000404261EB41014FF4806404F132045FEA10
:10054000915C3FF4DCAE4FF003025FEADC0C18BFB5
:1005500003325FEADC0C18BF033202EBDC02C2F1AB
:10056000200300FA03FC20FA02F001FA03FE40EA3D
:100570000E0021FA02F11444C1E600BF70B54FF03D
:10058000FF0C4CF4E06C1CEA11541DBF1CEA13551F
:1005900094EA0C0F95EA0C0F00F0DEF82C4481EA87
:1005A000030621EA4C5123EA4C5350EA013518BFA7
:1005B00052EA033541F4801143F4801338D0A0FB94
:1005C00002CE4FF00005E1FB02E506F00042E0FB41
:1005D00003E54FF00006E1FB03569CF0000F18BF47
:1005E0004EF0010EA4F1FF04B6F5007F64F54074EF
:1005F00004D25FEA4E0E6D4146EB060642EAC62182
:1006000041EA55514FEAC52040EA5E504FEACE2EEE
:10061000B4F1FD0C88BFBCF5E06F1ED8BEF1004FF1
:1006200008BF5FEA500E50F1000041EB045170BD6D
:1006300006F0004646EA010140EA020081EA0301B1
:10064000B4EB5C04C2BFD4EB0C0541EA045170BDAD
:1006500041F480114FF0000E013C00F3AB8014F127
:10066000360FDEBF002001F0004170BDC4F1000470
:10067000203C35DA0C341BDC04F11404C4F12005F1
:1006800000FA05F320FA04F001FA05F240EA02004C
:1006900001F0004221F0004110EBD37021FA04F682
:1006A00042EB06015EEA430E08BF20EAD37070BD3C
:1006B000C4F10C04C4F1200500FA04F320FA05F09B
:1006C00001FA04F240EA020001F0004110EBD3709D
:1006D00041F100015EEA430E08BF20EAD37070BD0D
:1006E000C4F1200500FA05F24EEA020E20FA04F3E6
:1006F00001FA05F243EA020321FA04F001F0004195
:1007000021FA04F220EA020000EBD3705EEA430E05
:1007100008BF20EAD37070BD94F0000F0FD101F034
:100720000046400041EB010111F4801F08BF013C6D
:10073000F7D041EA060195F0000F18BF704703F0AB
:100740000046520043EB030313F4801F08BF013D32
:10075000F7D043EA0603704794EA0C0F0CEA1355EE
:1007600018BF95EA0C0F0CD050EA410618BF52EAA8
:100770004306D1D181EA030101F000414FF00000AE
:1007800070BD50EA410606BF1046194652EA4306BC
:1007900019D094EA0C0F02D150EA013613D195EA30
:1007A0000C0F05D152EA03361CBF104619460AD178
:1007B00081EA030101F0004141F0FE4141F4700182
:1007C0004FF0000070BD41F0FE4141F4780170BD72
:1007D00070B54FF0FF0C4CF4E06C1CEA11541DBFD7
:1007E0001CEA135594EA0C0F95EA0C0F00F0A7F8D9
:1007F000A4EB050481EA030E52EA03354FEA013106
:1008000000F088804FEA03334FF0805545EA131318
:1008100043EA12634FEA022245EA111545EA1065E0
:100820004FEA00260EF000419D4208BF964244F177
:10083000FD0404F5407402D25B084FEA3202B61A96
:1008400065EB03055B084FEA32024FF480104FF46A
:10085000002CB6EB020E75EB030E22BFB61A7546DE
:1008600040EA0C005B084FEA3202B6EB020E75EB71
:10087000030E22BFB61A754640EA5C005B084FEAD9
:100880003202B6EB020E75EB030E22BFB61A7546A6
:1008900040EA9C005B084FEA3202B6EB020E75EBB1
:1008A000030E22BFB61A754640EADC0055EA060E72
:1008B00018D04FEA051545EA16754FEA06164FEAB5
:1008C000C30343EA52734FEAC2025FEA1C1CC0D161
:1008D00011F4801F0BD141EA00014FF000004FF0EE
:1008E000004CB6E711F4801F04BF01430020B4F1AF
:1008F000FD0C88BFBCF5E06F3FF6AFAEB5EB030C67
:1009000004BFB6EB020C5FEA500C50F1000041EB63
:10091000045170BD0EF0004E4EEA113114EB5C0430
:10092000C2BFD4EB0C0541EA045170BD41F4801103
:100930004FF0000E013C90E645EA060E8DE60CEA0B
:10094000135594EA0C0F08BF95EA0C0F3FF43BAF28
:1009500094EA0C0F0AD150EA01347FF434AF95EADF
:100960000C0F7FF425AF104619462CE795EA0C0FC3
:1009700006D152EA03353FF4FDAE1046194622E790
:1009800050EA410618BF52EA43067FF4C5AE50EA6A
:1009900041047FF40DAF52EA43057FF4EBAE12E75A
:1009A0004FF0FF3C06E000BF4FF0010C02E000BF3B
:1009B0004FF0010C4DF804CD4FEA410C7FEA6C5C1E
:1009C0004FEA430C18BF7FEA6C5C1BD001B050EAC1
:1009D000410C0CBF52EA430C91EA030F02BF90EAAC
:1009E000020F0020704710F1000F91EA030F58BF6B
:1009F000994208BF90422CBFD8176FEAE37040F0CD
:100A0000010070474FEA410C7FEA6C5C02D150EA6A
:100A1000013C07D14FEA430C7FEA6C5CD6D152EA25
:100A2000033CD3D05DF8040B704700BF84461046EA
:100A300062468C461946634600E000BF01B5FFF7E9
:100A4000B7FF002848BF10F1000F01BD4DF808EDB9
:100A5000FFF7F4FF0CBF012000205DF808FB00BF8A
:100A60004DF808EDFFF7EAFF34BF012000205DF8E4
:100A700008FB00BF4DF808EDFFF7E0FF94BF012031
:100A800000205DF808FB00BF4DF808EDFFF7CEFF32
:100A900094BF012000205DF808FB00BF4DF808ED71
:100AA000FFF7C4FF34BF012000205DF808FB00BF42
:100AB0004FEA410212F5001215D211D56FF4787386
:100AC000B3EB625212D94FEAC12343F0004343EA29
:100AD000505311F0004F23FA02F018BF4042704704
:100AE0004FF00000704750EA013005D111F000408E
:100AF00008BF6FF0004070474FF00000704700BF24
:100B00004FEA4102B2F1E04324BFB3F5001CDCF12F
:100B1000FE5C0DD901F0004C4FEAC0024CEA507067
:100B2000B2F1004F40EB830008BF20F00100704796
:100B300011F0804F21D113F13872BCBF01F0004099
:100B4000704741F480114FEA5252C2F11802C2F1CB
:100B5000200C10FA0CF320FA02F018BF40F001004C
:100B60004FEAC1234FEAD32303FA0CFC40EA0C00FE
:100B700023FA02F34FEA4303CCE77FEA625307D13B
:100B800050EA01331EBF4FF0FE4040F44000704772
:100B900001F0004040F0FE4040F40000704700BF0C
:100BA0007BB972B90029BEBF00204FF0004106E0BA
:100BB00008BF00281CBF6FF000414FF0FF3000F06D
:100BC000ADB9ADF1080C6DE904CE002909DB002BAD
:100BD0001ADB00F035F8DDF804E0DDE9022304B0AB
:100BE0007047404261EB4101002B1BDB00F028F80D
:100BF000DDF804E0DDE9022304B0404261EB41018D
:100C0000524263EB43037047524263EB430300F0ED
:100C100017F8DDF804E0DDE9022304B0404261EB9F
:100C200041017047524263EB430300F009F8DDF8DD
:100C300004E0DDE9022304B0524263EB4303704752
:100C40002DE9F0478C460D460446089E002B51D1F5
:100C50008A4217466DD9B2FA82FEBEF1000F0BD060
:100C6000CEF1200C01FA0EF520FA0CFC02FA0EF778
:100C70004CEA050C00FA0EF44FEA174A250CBCFBAF
:100C8000FAF81FFA87F90AFB18CC45EA0C4508FB6D
:100C900009F3AB420AD9ED1908F1FF3280F0238144
:100CA000AB4240F22081A8F102083D44ED1AA4B203
:100CB000B5FBFAF00AFB105544EA054400FB09F9BC
:100CC000A14509D9E41900F1FF3380F00A81A1455B
:100CD00040F2078102383C44A4EB090440EA084092
:100CE0000021002E61D024FA0EF4002334607360DA
:100CF000BDE8F0878B4207D9002E54D0002186E84A
:100D000021000846BDE8F087B3FA83F1002940F0DE
:100D10008E80AB4202D3824200F2FA80841A65EBE5
:100D200003050120AC46002E3FD086E81010BDE838
:100D3000F08712B90127B7FBF2F7B7FA87FEBEF1C9
:100D4000000F34D1EB1B3A0C1FFA87FC0121B3FBD7
:100D5000F2F8250C02FB183345EA03450CFB08F3B7
:100D6000AB4207D9ED1908F1FF3002D2AB4200F2D5
:100D7000D1808046ED1AA3B2B5FBF2F002FB10550C
:100D800043EA05440CFB00FCA44507D9E41900F133
:100D9000FF3302D2A44500F2B8801846A4EB0C043D
:100DA00040EA08409DE731463046BDE8F087CEF185
:100DB000200405FA0EF307FA0EF720FA04F83A0CAD
:100DC00025FA04F448EA0308B4FBF2F14FEA1845A7
:100DD00002FB11441FFA87FC45EA044501FB0CF3B2
:100DE000AB4200FA0EF409D9ED1901F1FF3080F0A1
:100DF0008A80AB4240F2878002393D44EB1A1FFAE9
:100E000088F5B3FBF2F002FB103345EA034500FB23
:100E10000CF3AB4207D9ED1900F1FF386FD2AB42AA
:100E20006DD902383D44EB1A40EA01418FE7C1F128
:100E3000200722FA07F88B4005FA01F448EA030379
:100E400020FA07FE4FEA134CFD404EEA040EB5FBB4
:100E5000FCF94FEA1E440CFB19551FFA83F844EACB
:100E6000054509FB08F4AC4202FA01F200FA01FA66
:100E700008D9ED1809F1FF3043D2AC4241D9A9F1AC
:100E800002091D442D1B1FFA8EFEB5FBFCF00CFB66
:100E900010554EEA054400FB08F8A04507D9E418B0
:100EA00000F1FF3529D2A04527D902381C4440EA79
:100EB0000940A4EB0804A0FB02894C45C6464D46F8
:100EC00015D312D056B1BAEB0E0364EB050404FA45
:100ED00007F7CB401F43CC40376074600021BDE86A
:100EE000F0871846F8E69046E0E6C245EAD2B8EB4D
:100EF000020E69EB03050138E4E72846D7E74046D0
:100F000091E78146BEE7014678E702383C4445E771
:100F1000084608E7A8F102083D442BE7704700BFE8
:100F200008B50B4B1A6842F400721A601A6842F452
:100F300080621A601A6842F480721A60032000F01E
:100F400091FC002003F0E8FD00F049FD002008BD01
:100F5000003C0240024A136801331360704700BF2F
:100F6000A8400020014B1868704700BFA84000202F
:100F700030B583B00190FFF7F5FF0546019CB4F151
:100F8000FF3F00D00134FFF7EDFF401BA042FAD332
:100F900003B030BDF0B58BB000240194314B1A6B17
:100FA00042F004021A631A6B02F004020192019AE1
:100FB00002941A6B42F080021A631A6B02F08002EC
:100FC0000292029A03941A6B42F001021A631A6B9E
:100FD00002F001020392039A04941A6B42F0020297
:100FE0001A631B6B03F002030493049B1E4F2246FB
:100FF0003021384603F019FC1C4D2246F0212846CA
:1010000003F013FC4EF20E0305930694079405A912
:10101000284603F01DFB012605960694022307933C
:1010200005A9284603F014FB302305930696079480
:10103000089405A9384603F00BFBF02305930696A8
:101040000794089405A9284603F002FB4FF4407367
:1010500005930694079405A9054803F0F9FA0BB027
:10106000F0BD00BF0038024000000240000802400E
:101070000004024008B505F0CFF8012001F033FB71
:10108000FBE700000D4B1B6802881A640C4B1B68C1
:1010900042889A6382881A64C288DA63094B1B68A3
:1010A00002891A64084A126841895163074A126822
:1010B00081895163C289DA63704700BF58410020BB
:1010C0000C4200209441002048420020D0410020E2
:1010D0000A4B1A6840F2DC531364094A126893639E
:1010E0001364D363074A12681364074909684B63A2
:1010F000064909684B63D363704700BF584100201D
:101100000C4200209441002048420020D0410020A1
:10111000004870470441002008B50268034B9A421A
:1011200000D008BDFFF716FFFBE700BF000001403D
:10113000FEE7000000B58BB028484FF08043036005
:10114000472343600023836040F6B832C2600361E6
:1011500003F08DF940BB00230893099308A91F48A9
:1011600002F055FA28BB6023019340F2DC5302934E
:1011700000230393059304220DEB0201174803F0AB
:10118000C7F9D8B9082201A9144803F0C1F9D0B9A8
:101190000C2201A9114803F0BBF9C8B90F4800F0AF
:1011A0000BFD0BB05DF804FB40F233110C48FFF768
:1011B000BFFF4FF49D710A48FFF7BAFF40F2431199
:1011C0000748FFF7B5FF4FF4A4710548FFF7B0FFDC
:1011D00040F24D110248FFF7ABFF00BF0C42002068
:1011E0000485000800B589B019481A4B03604723ED
:1011F00043600023836040F6B832C260036103F0AD
:101200001DF9B0B9124803F032F9B8B9602301935F
:1012100040F2DC53029300220392059201A90C488C
:1012200003F076F978B90A4800F0C6FC09B05DF819
:1012300004FB4FF4D8710848FFF77AFF40F2B5116C
:101240000548FFF775FF4FF4DF710348FFF770FFA4
:10125000D0410020001C00400485000800B589B082
:1012600019481A4B0360472343600023836040F60C
:10127000B832C260036103F0E1F8B0B9124803F07C
:10128000F6F8B8B96023019340F2DC5302930022D0
:101290000392059201A90C4803F03AF978B90A487B
:1012A00000F08AFC09B05DF804FB4FF4E9710848CE
:1012B000FFF73EFF40F2D7110548FFF739FF4FF423
:1012C000F0710348FFF734FF48420020002000403F
:1012D0000485000808B50C480C4B03600C4B4360B8
:1012E00000238360C3604FF48042026143618361E5
:1012F000C361036204F0C6FC00B908BD4FF49071ED
:101300000448FFF715FF00BFB0400020005C00401C
:10131000A08601000485000808B50C480C4B03604A
:101320000C4B436000238360C3604FF48042026132
:1013300043618361C361036204F0A4FC00B908BD8A
:101340004FF486710448FFF7F3FE00BF044100200C
:1013500000540040A08601000485000800B58BB051
:101360002148224B0360472343600023836040F6FB
:10137000B832C260036103F07AF808BB0023089317
:10138000099308A9184802F042F9F0B960230193C3
:1013900040F2DC530293002303930593082201A932
:1013A000114803F0B5F8A8B90C2201A90E4803F0C2
:1013B000AFF8A0B90C4800F0FFFB0BB05DF804FBE0
:1013C0004FF4B1710A48FFF7B3FE40F269110848C3
:1013D000FFF7AEFE4FF4B9710548FFF7A9FE40F2E2
:1013E00077110348FFF7A4FE944100200004004059
:1013F0000485000800B58BB01C481D4B03604723D3
:1014000043600023836040F6B832C260036103F09A
:101410002EF8D8B900230893099308A9134802F0BD
:10142000F6F8C0B96023019340F2DC530293002325
:10143000039305930C2201A90C4803F069F878B9CD
:101440000A4800F0B9FB0BB05DF804FB4FF4C6711D
:101450000848FFF76DFE40F293110648FFF768FE5B
:101460004FF4CE710348FFF763FE00BF58410020E0
:10147000000C00400485000800B595B000210191E2
:10148000294B1A6C42F080521A641B6C03F0805393
:101490000193019B0291254B1A6842F480421A6025
:1014A0001B6803F480430293029B012308934FF4CB
:1014B0008033099302230E934FF480020F92082287
:1014C00010924822119212930323139308A800F05C
:1014D000ABFD08BB0F230393022104910023059366
:1014E0004FF480520692079303A800F0B9FFB8B9F1
:1014F00001F084F80E4BA3FB0030800900F002FAE3
:10150000042000F015FA00220F214FF0FF3000F008
:10151000BBF915B05DF804FBE0210648FFF708FEB3
:10152000EE210448FFF704FE00380240007000403E
:10153000D34D62100485000800B587B0FFF7F0FCBA
:10154000FFF79AFFFFF726FDFFF7F4FDFFF74AFECE
:10155000FFF784FEFFF7BEFEFFF7DEFEFFF7FEFE9D
:10156000FFF748FF1D4C0021204603F04FF80421EF
:10157000204603F04BF80821204603F047F80C21E1
:10158000204603F043F8164C0821204603F03EF8AD
:101590000C21204603F03AF8124C0821204603F0B3
:1015A00035F80C21204603F031F800210E4803F0F5
:1015B0002DF800210D4803F029F801AC0C4D0FCD9A
:1015C0000FC42B682360002101A801F072F8094BB9
:1015D000186005F0AFF801F067F8FEE70C42002054
:1015E0009441002058410020D04100204842002072
:1015F000E0840008AC400020D0F818321BB1002075
:10160000C3F8140270470220704710B5D0F8184292
:10161000D0F81C325BB194F80002FF2807D09B6819
:1016200094F8012221469847FF2384F800320020D5
:1016300010BD00004323038000487047380000209D
:1016400043230380004870477C000020432303802D
:1016500000487047CC0000200A23038000487047F0
:10166000C000002038B50446D0F8185203F04EFAF6
:10167000C5F80C02D4F818324BB1D4F81C32DB6830
:1016800005F50371D5F804029847002038BD022003
:1016900038BD000070B505460C46D0F818620B78CE
:1016A00013F0600224D0202A25D1CA88CAB113F0D1
:1016B000800F0AD14B7886F80032CB8886F8013249
:1016C000CA88314604F01BFE15E0D0F81C329B6836
:1016D000314660789847E2883146284604F0FAFDA2
:1016E00009E0D0F81C329B6800224878984702E055
:1016F0004B780A2B01D0002070BD0122014904F073
:10170000E9FDF8E74803002010B50446812103F005
:1017100092F90121204603F08EF98221204603F040
:101720008AF9D4F8183253B1D4F81C325B68984760
:10173000D4F8180205F08EFA0023C4F818320020FD
:1017400010BD38B50446037C73BB4FF4007302220E
:10175000812103F05FF94FF400730222012120463A
:1017600003F058F9082303228221204603F052F99E
:101770004FF4077005F066FA0546C4F8180248B33E
:10178000D4F81C321B6898470023C5F81432C5F8FA
:101790001832237CA3B14023D5F80422012120462E
:1017A00003F0A6F9002038BD40230222812103F076
:1017B00031F9402302220121204603F02BF9D1E721
:1017C0004FF40073D5F804220121204603F090F96C
:1017D000002038BD012038BD19B1C0F81C1200200E
:1017E000704702207047D0F81832C3F80812C3F8C7
:1017F000102200207047D0F81832C3F804120020DD
:101800007047D0F818228AB108B5D2F814320BB15B
:10181000012008BD0123C2F81432B2F81032D2F808
:101820000822812103F056F9002008BD02207047EC
:10183000D0F818229AB108B5037C3BB14023D2F806
:101840000422012103F054F9002008BD4FF4007375
:10185000D2F80422012103F04BF9002008BD022038
:1018600070470000074AD36823F4E0631B041B0C95
:10187000000200F4E060184340F0BF6040F4003024
:10188000D060704700ED00E030B4164BDB68C3F366
:101890000223C3F10704042C28BF04241D1D062DB8
:1018A00017D9033B012505FA04F4013C2140994076
:1018B00005FA03F3013B1340194300280BDB090130
:1018C000C9B200F1604000F5614080F8001330BCFF
:1018D00070470023E6E700F00F000901C9B2024B90
:1018E0001954F4E700ED00E014ED00E0420900F0C7
:1018F0001F00012303FA00F0014B43F82200704758
:1019000000E100E00138B0F1807F0AD2064B586058
:10191000F021064A82F823100020986007221A60FE
:1019200070470120704700BF10E000E000ED00E0CC
:10193000042805D0054A136823F004031360704798
:10194000024A136843F004031360704710E000E09C
:1019500000F1080343604FF0FF328260C36003610F
:1019600000230360704700230361704743684B60A6
:101970009A688A609A6851609960086103680133C7
:101980000360704730B40D68B5F1FF3F02D000F13D
:10199000080202E0026904E01A4653681C68A54286
:1019A000FAD253684B6099608A605160086103689D
:1019B0000133036030BC70470369426881689160FD
:1019C0008268416851605A68904205D000220261E5
:1019D000186801381860704782685A60F6E708B5E1
:1019E0000320FFF73FFF002211466FF00B00FFF7C7
:1019F0004BFF002211466FF00A00FFF745FF00225F
:101A000011466FF00900FFF73FFF002211466FF00B
:101A10000400FFF739FF002211466FF00300FFF7C3
:101A200033FF00220F216FF00100FFF72DFF00228E
:101A30000F214FF0FF30FFF727FF08BDF0B589B049
:101A40000368254A934204D0244A93421CD009B02B
:101A5000F0BDC023039312230493012305930323B2
:101A600006930423079303A91D4802F0F1FD002308
:101A700001931C4B1A6C42F400121A641B6C03F4A1
:101A800000130193019BE2E74FF4007303931227C5
:101A9000049701260596032506950424079403A9B7
:101AA000114802F0D5FD4FF4807303930497059617
:101AB0000695079403A90D4802F0CAFD002302937E
:101AC000084B1A6C42F400021A641B6C03F4000306
:101AD0000293029BBBE700BF00540040005C004043
:101AE00000040240003802400008024000000240AA
:101AF00084B00368B3F1804F07D0174A934211D0E6
:101B0000164A93421BD004B0704700230193144B34
:101B10001A6C42F001021A641B6C03F0010301937A
:101B2000019BF0E7002302930D4B1A6C42F0020276
:101B30001A641B6C03F002030293029BE3E7002389
:101B40000393074B1A6C42F008021A641B6C03F0F3
:101B500008030393039BD6E700040040000C0040F9
:101B60000038024082B00368104A934204D0104A01
:101B700093420ED002B07047002300930D4B1A6CB5
:101B800042F080021A641B6C03F080030093009BF8
:101B9000F0E700230193074B1A6C42F480721A6439
:101BA0001B6C03F480730193019BE3E7001C00406E
:101BB000002000400038024070B586B00368B3F1E1
:101BC000804F0DD02D4A934222D02D4A93422CD0E3
:101BD0002C4A934236D02C4A934241D006B070BD75
:101BE000022501950295002403940494012605968C
:101BF00001A9264802F02CFD4FF4406301930295A1
:101C000003940494059601A9214802F021FDE5E71B
:101C1000032301930223029300220392049205936B
:101C200001A91B4802F014FDD8E708230193022301
:101C30000293002203920492059301A9134802F033
:101C400007FDCBE740230193022302930023039374
:101C500004930923059301A90C4802F0F9FCBDE7A0
:101C60008023019302230293002303930493092307
:101C7000059301A9054802F0EBFCAFE70004004022
:101C8000000C0040001C004000200040000002400A
:101C9000000402400F49D1F8883043F47003C1F8C2
:101CA00088300D4B1A6842F001021A6000209860DB
:101CB0001A6822F0847222F480321A60074A5A604D
:101CC0001A6822F480221A60D8604FF000638B609B
:101CD000704700BF00ED00E00038024010300024E3
:101CE000124A12F0070F1ED0D11D21F00701C1F5D5
:101CF000705313440A460E480260002141601344A9
:101D0000083B23F007030B48036059601960991AD8
:101D100051601360084B1960084B19604FF0004286
:101D2000074B1A6070474FF47053E4E750030020EC
:101D30005C3F00204C030020583F0020543F00200F
:101D4000503F002010B4134B1A6882421BD35968CD
:101D50005C18A04203D140680144596018464168AC
:101D60004418A24213D10C4C2468A2420DD05268F0
:101D7000114441601A6812680260984200D01860ED
:101D80005DF8044B70471346DEE70460F5E7026038
:101D9000F3E700BF5C3F00204C03002070B5044611
:101DA00001F008FE3A4B1B68BBB13A4B1B681C4262
:101DB00063D1ACB1083414F0070F11D024F007043C
:101DC000083404F007035BB14FF0500383F311882C
:101DD000BFF36F8FBFF34F8FFEE7FFF781FFE4E79D
:101DE000002C4CD02C4B1B689C424AD82B4B1D68B6
:101DF00001E02B4615466A68944202D92A68002AF7
:101E0000F7D1234A126895423DD01E6808362A68E9
:101E10001A606B681B1B102B10D9281910F0070FC4
:101E200008D04FF0500383F31188BFF36F8FBFF3D7
:101E30004F8FFEE743606C60FFF784FF6A681649C6
:101E40000B689B1A0B60164909688B4201D2144932
:101E50000B60104B1B6813436B6000232B6001F079
:101E600041FE16F0070F10D04FF0500383F3118896
:101E7000BFF36F8FBFF34F8FFEE70026EFE700261B
:101E8000EDE70026EBE70026E9E7304670BD00BF2E
:101E90004C030020503F0020543F00205C3F0020B6
:101EA000583F002080B338B50446A0F1080550F82B
:101EB000042C164909680A4208D14FF0500383F3F5
:101EC0001188BFF36F8FBFF34F8FFEE750F8080CF8
:101ED00040B14FF0500383F31188BFF36F8FBFF30E
:101EE0004F8FFEE722EA010244F8042C01F062FD64
:101EF00054F8041C064A13680B4413602846FFF785
:101F000021FF01F0EFFD38BD704700BF503F0020BA
:101F1000543F002012230B800048704730010020FE
:101F200004230B80004870474401002008B50A468E
:101F300028B10549054801F04DFB034808BD024999
:101F4000024801F047FBF8E784420020648500085E
:101F500010B5044C0A462146034801F03BFB2046DD
:101F600010BD00BF844200205085000808B50A4615
:101F700028B10549054801F02DFB034808BD024979
:101F8000024801F027FBF8E7844200207085000832
:101F900008B50A4628B10549054801F01BFB03486E
:101FA00008BD0249024801F015FBF8E78442002011
:101FB0003485000808B50A4628B10549054801F0EE
:101FC00009FB034808BD0249024801F003FBF8E79A
:101FD000844200204085000830B40468606A29B15A
:101FE0000D46A36A00EB134000230CE040EA0240D8
:101FF000A06212E003F1400104EB8101496800EBAB
:1020000011400133DBB2691E8B42F3DB40EA024030
:1020100005F13F0104EB81014860002030BC7047AE
:10202000036859620020704730B583B004460368E6
:1020300013F0010F3BD0A94B9B6803F00C03042B5A
:102040002CD0A64B9B6803F00C03082B21D06368AF
:10205000B3F5803F4FD0B3F5A02F52D09F4B1A68F5
:1020600022F480321A601A6822F480221A606368AF
:10207000002B50D0FEF776FF0546984B1B6813F4F3
:10208000003F14D1FEF76EFF401B6428F5D90320F2
:1020900099E1924B5B6813F4800FD8D08F4B1B688B
:1020A00013F4003F03D06368002B00F0898123689C
:1020B00013F0020F5BD0894B9B6813F00C0F3ED0DE
:1020C000864B9B6803F00C03082B33D0E368002B8E
:1020D00074D00122824B1A60FEF744FF05467F4B05
:1020E0001B6813F0020F5AD1FEF73CFF401B022879
:1020F000F5D9032067E1794A136843F4803313600C
:10210000B5E7764B1A6842F480221A601A6842F4E6
:1021100080321A60ABE7FEF725FF05466F4B1B6860
:1021200013F4003FC3D0FEF71DFF401B6428F5D910
:10213000032048E1694B5B6813F4800FC6D1674BFD
:102140001B6813F0020F04D0E368012B01D00120BB
:1021500039E16248036823F0F8032169F82292FA12
:10216000A2F2B2FA82F201FA02F213430360236888
:1021700013F0080F46D0636993B30122594B1A60DC
:10218000FEF7F0FE0546554B5B6F13F0020F39D199
:10219000FEF7E8FE401B0228F5D9032013E14F4863
:1021A000036823F0F8032169F82292FAA2F2B2FA46
:1021B00082F201FA02F213430360D8E70022484B8F
:1021C0001A60FEF7CFFE0546444B1B6813F0020F62
:1021D000CDD0FEF7C7FE401B0228F5D90320F2E060
:1021E0000022404B1A60FEF7BDFE05463B4B5B6F7D
:1021F00013F0020F06D0FEF7B5FE401B0228F5D9FA
:102200000320E0E0236813F0040F20D1A369002B22
:1022100000F0D880314A926802F00C02082A00F0DF
:10222000D480022B00F0808000222F4B1A60FEF732
:1022300099FE0446294B1B6813F0007F00F0BE8016
:10224000FEF790FE001B0228F4D90320BBE0002318
:102250000193224B1A6C42F080521A641B6C03F0FB
:1022600080530193019B214A136843F480731360E8
:10227000FEF778FE05461D4B1B6813F4807F06D1E0
:10228000FEF770FE401B0228F5D903209BE0A368EF
:10229000012B1DD0052B2BD0104B1A6F22F0010201
:1022A0001A671A6F22F004021A67A36853B3FEF785
:1022B00059FE0546094B1B6F13F0020FA6D1FEF71E
:1022C00051FE401B41F288339842F3D903207AE053
:1022D000024A136F43F001031367E6E70038024038
:1022E00000004742800E47426000474200700040B5
:1022F000374B1A6F42F004021A671A6F42F001025C
:102300001A67D2E7FEF72EFE0546314B1B6F13F01E
:10231000020F3FF47BAFFEF725FE401B41F28833EE
:102320009842F2D903204EE000222A4B1A60FEF7B1
:1023300019FE0546264B1B6813F0007F06D0FEF7FA
:1023400011FE401B0228F5D903203CE0E369226A14
:102350001343616A47F6C07292FAA2F2B2FA82F2AD
:1023600001FA02F21343A26A5208013A4FF44031D3
:1023700091FAA1F1B1FA81F18A401343E16A4FF079
:10238000706292FAA2F2B2FA82F201FA02F21343F6
:102390000F4A536001220F4B1A60FEF7E3FD04461B
:1023A0000B4B1B6813F0007F06D1FEF7DBFD001B13
:1023B0000228F5D9032006E0002004E0002002E016
:1023C000012000E0002003B030BD0120FBE700BF8A
:1023D00000380240600047421F4B9B6803F00C032B
:1023E000082B36D11C4A536803F03F03526812F49D
:1023F000800F1ED01948B0FBF3F3174A506847F618
:10240000C072104092FAA2F2B2FA82F2D04000FBFF
:1024100003F0114B5B6803F440334FF4403292FAFF
:10242000A2F2B2FA82F2D34001335B00B0FBF3F0C8
:1024300070470A48B0FBF3F3074A506847F6C0728A
:10244000104092FAA2F2B2FA82F2D04000FB03F0FE
:10245000DFE70248704700BF003802400024F40064
:10246000624B1B6803F00F038B4209D2CBB25F4A69
:102470001370136803F00F03994201D001207047D5
:1024800070B5036813F0020F06D0594A936823F021
:10249000F0038468234393600D460446036813F0F9
:1024A000010F64D04368012B26D09A1E012A2AD935
:1024B0004F4A126812F0020F00F096804C498A6869
:1024C00022F0030213438B60FEF74CFD064663685F
:1024D000012B1FD0022B2CD0032B39D0444B9B68EF
:1024E00013F00C0F43D0FEF73DFD801B41F2883303
:1024F0009842F3D9032070BD3D4A126812F4003FA0
:10250000DCD1012070BD3A4A126812F0007FD5D1AB
:10251000012070BD364B9B6803F00C03042B26D0C2
:10252000FEF720FD801B41F288339842F2D9032048
:1025300070BD2F4B9B6803F00C03082B17D0FEF7E0
:1025400011FD801B41F288339842F2D9032070BDFF
:10255000274B9B6803F00C030C2B08D0FEF702FD01
:10256000801B41F288339842F2D9032070BD1F4B83
:102570001B6803F00F039D4209D2EAB21B4B1A708D
:102580001B6803F00F039D4201D0012070BD23683A
:1025900013F0040F06D0164A936823F4E053E16861
:1025A0000B439360236813F0080F07D0104A936819
:1025B00023F46043216943EAC1039360FFF70CFFF2
:1025C0000B4B9B6803F0F003F02292FAA2F2B2FAEE
:1025D00082F2D340074AD35CD840074B18600020F2
:1025E00002F09AFA002070BD012070BD003C02404C
:1025F000003802401C85000810010020014B1868BB
:10260000704700BF1001002008B5FFF7F7FF074B28
:102610009B6803F4E0534FF4E05292FAA2F2B2FA4C
:1026200082F2D340024AD35CD84008BD0038024051
:102630002C85000808B5FFF7E1FF074B9B6803F402
:1026400060434FF4604292FAA2F2B2FA82F2D340AF
:10265000024AD35CD84008BD003802402C850008EF
:102660000F2303600B4B9A6802F0030242609A68E2
:1026700002F0F00282609A6802F4E052C2609B6845
:10268000DB0803F4E0530361034B1B6803F00F0303
:102690000B60704700380240003C0240842801D0A3
:1026A000033070470020704708B501F045F900205D
:1026B00008BDF0B585B00F46446805680669B0F9F5
:1026C0000800FFF7EBFF03AB019300903B46B2B26B
:1026D0002946204601F0FEF8012802D1039805B0F2
:1026E000F0BD0020FBE708B5034600B901231846FA
:1026F00001F076FA002008BD08B501F029FB012899
:1027000001D001F007FC08BD7047FEE7FEE7FEE7D9
:10271000FEE7704708B5FFF7EFFF08BD08B50248B0
:1027200001F040FD08BD00BF7448002008B5024814
:1027300000F0E0F808BD00BF844400202DE9F0431C
:1027400083B007460D46D0F80080CA00521A9300A5
:102750000344DE6C1A6DB61A1B6C9E4200D91E46ED
:1027600006F103094FEA990915E006F103094FEA5A
:102770009909EB005B1B9C003C44616C3B7C009323
:10278000B3B2EAB2404602F0FBFD636C33446364CB
:10279000236D33442365414608EB451303F510636D
:1027A0009B699BB2994512D2EA00521B93003B44AD
:1027B0001A6DDB6C9A420AD24BB19E1AC5EBC50268
:1027C00093003B441B6C9E42CFD91E46CDE73EB9D9
:1027D0000123AB40D1F8345825EA0305C1F8345839
:1027E000002003B0BDE8F08300286BD0F0B58BB0BB
:1027F0000446032380F8B93302F022F8206802F07F
:102800000BFA254655F8107B6E460FCD0FC60FCD3F
:102810000FC695E8030086E80300231D0ECB38465B
:1028200002F0B6F90021206802F0FCF9002210E065
:10283000D100891A8B002344012183F8391083F8D1
:102840003820DA87002183F83B1019645964D96471
:1028500001320E2AECD9002218E0D100891A8B002F
:102860002344002183F8F91183F8F821DA8783F8EB
:10287000FB11C3F80012C3F80412C3F80C1223684A
:1028800002F1400003EB8003596001320E2AE4D9C3
:10289000254655F8107B6E460FCD0FC60FCD0FC6DF
:1028A00095E8030086E80300231D0ECB384602F0AE
:1028B000CFF9012384F8B933206802F00CFE002020
:1028C0000BB0F0BD0120704790F8B833012B01D157
:1028D0000220704710B50446012380F8B833006821
:1028E00002F0EDFD206802F091F9002084F8B803B1
:1028F00010BD00002DE9F04704460768384602F095
:1029000021FE08B1BDE8F0870646206802F0EFFD21
:102910000028F7D0206802F0EAFD10F0020F04D082
:102920002268536903F002035361206802F0DFFD5F
:1029300010F4002F75D13546206802F0D8FD10F450
:10294000802F40F0D280206802F0D1FD0028C0F234
:102950003E81206802F0CBFD10F4006F0AD0D7F85A
:10296000083813F0010F40F041812268536903F4E5
:1029700000635361206802F0BAFD10F4805F40F0FC
:102980003981206802F0B3FD10F4005F40F08281CD
:10299000206802F0ACFD10F0100F14D0226893698B
:1029A00023F0100393613E6A06F00F08C6F3434319
:1029B000022B00F00382062B00F02182226893692B
:1029C00043F010039361206802F091FD10F0080FAE
:1029D00040F02982206802F08AFD10F4801F40F048
:1029E0002B82206802F083FD10F4001F40F02E823D
:1029F000206802F07CFD10F0804F40F031822068AA
:102A000002F075FD10F0040F3FF47CAF23685D68A1
:102A100015F0040F40F02D8223685A6815435D605D
:102A200070E7206802F067FD8046354621E0E90046
:102A3000491B8A002244D2F800121B69C3F3120317
:102A4000C91AC2F81012D2F80012D2F804320B449C
:102A5000C2F8043228E019F0080F3DD119F0100F28
:102A600004D007EB45131022C3F8082B01354FEAB9
:102A70005808B8F1000F3FF45FAF18F0010FF5D020
:102A80005FFA85FA5146206802F045FD814610F054
:102A9000010FE0D007EB45130122C3F8082B03F523
:102AA00030632269012AC2D05146204601F002FF5C
:102AB0002369012BCFD1002DCDD1C5EBC5029300E9
:102AC0002344D3F80C32002BC5D104F56F720121D9
:102AD000206802F057FDBEE7204601F0E3FE07EB59
:102AE00045130822C3F8082BB8E7206802F00BFD55
:102AF000804635462EE0EA00521B93002344196CB1
:102B00005A6C0A445A6446E019F0080F04D007EBE7
:102B100045130822C3F8082919F0100F04D007EB59
:102B200045131022C3F8082919F0400F04D007EB11
:102B300045134022C3F8082919F0020F04D007EB0F
:102B400045130222C3F8082919F0800F3AD1013544
:102B50004FEA5808B8F1000F3FF4F5AE18F0010F36
:102B6000F5D05FFA85FA5146206802F0DDFC814617
:102B700010F0010FC8D0012202FA05F0D7F834385E
:102B800023EA0003C7F8343807EB4513C3F80829D4
:102B900023699342AFD05146204601F097FE236946
:102BA000012BB1D1002DAFD1C5EBC5029300234459
:102BB000DB6C002BA8D104F56F720121206802F0B4
:102BC000E1FCA1E729462046FFF7B8FDBFE7D7F8AB
:102BD000043823F00103C7F80438204601F0B0FEA2
:102BE0002268536903F000435361B2E6204601F0C6
:102BF0008FFEBAE6B84607F50069D9F8043023F02D
:102C00000103C9F804301021206802F0C9F807E078
:102C100008EB4613FF22C3F80829C3F8082B013636
:102C200063689E42F4D34FF0FF33C9F81830D9F8E7
:102C30001C3043F00113C9F81C30236BEBB1D9F8F9
:102C4000843043F00B03C9F88430D9F8443043F0A2
:102C50000B03C9F84430D7F8003823F4FE63C7F8F3
:102C6000003804F56F72217C206802F08BFC22682A
:102C7000536903F48053536183E6D9F8143043F069
:102C80000B03C9F81430D9F8103043F00B03C9F81E
:102C90001030E0E7206802F059FC2268D36823F482
:102CA0007053D360206802F0A8F890B90023E36065
:102CB0004FF4007363612268D36843F41053D36008
:102CC000204601F014FE2268536903F40053536157
:102CD0005EE60323E36040236361FFF78FFC674BED
:102CE0000344674A934205D82268D36843F470537B
:102CF000D360E5E7634B0344634A934205D82268F7
:102D0000D36843F46053D360DAE7A0F57403A3F506
:102D100010535E4A934205D82268D36843F4505357
:102D2000D360CDE7A0F18373A3F5E743584A9342FC
:102D300005D82268D36843F44053D360C0E7554BAD
:102D40000344554A934205D82268D36843F430536C
:102D5000D360B5E7514B0344514A934205D82268EA
:102D6000D36843F42053D360AAE74E4B03444E4A42
:102D7000934205D82268D36843F41053D3609FE789
:102D8000A0F1B773A3F55853484A934205D8226877
:102D9000D36843F40053D36092E7454B0344454A5C
:102DA000934205D82268D36843F4E053D36087E7A1
:102DB0002268D36843F4C053D36081E747F6F073C9
:102DC0001E423FF4FBAD36094FEAC80AAAEB0803DE
:102DD0004FEA8309A144C6F30A02D9F8041238461F
:102DE00002F0E2FAC6F30A06D9F804323344C9F80D
:102DF0000432D9F810321E44C9F81062DEE5082208
:102E000004F56F71384602F0CFFAC6F30A164FEA9E
:102E1000C803A3EB08018A002244D2F810321E44F2
:102E2000C2F81062CAE5204601F05BFD22685369D2
:102E300003F008035361CDE5E9B2204601F08CFDB3
:102E40002268536903F480135361CAE5E9B220464E
:102E500001F07CFD2268536903F400135361C7E558
:102E6000204601F07FFD2268536903F080435361DF
:102E7000C5E5204601F07CFDCEE500BF405327FFAD
:102E8000FF340C00401E1BFF3F420F007F4F12001B
:102E90001FD6130060B6E5FE5FE3160000D3CEFE3A
:102EA0003F771B00C05BB3FEBF9121001F75380048
:102EB000E05459FEDF9C410090F8B833012B01D15A
:102EC0000220704710B50446012380F8B83300682B
:102ED00002F0E5FA002084F8B80310BD70B54DB2D9
:102EE000002D18DB01F07F06C6EBC606B40004F522
:102EF000FC74044401F07F012170ED0F6570A26045
:102F0000E37005B1E180022B0DD090F8B833012BAE
:102F10000CD1022070BD01F07F06C6EBC606B400DE
:102F200038340444E6E700232371EEE70546012325
:102F300080F8B8332146006801F07FFF002085F853
:102F4000B80370BD10B54AB2002A12DB01F07F044D
:102F5000C4EBC404A30003F5FC73034401F07F0138
:102F60001970D20F5A7090F8B823012A09D10220A3
:102F700010BD01F07F04C4EBC404A3003833034444
:102F8000ECE70446012280F8B8231946006801F0F6
:102F90009DFF002084F8B80310BD70B501F07F06D6
:102FA000F500A91B8C0004F5FC740119AD1BAC00E5
:102FB0000444C4F80422C4F80C320023C4F81032CC
:102FC00084F8F93184F8F8610369012B06D066B101
:102FD000DAB2006801F0F2FF002070BDC6EBC60552
:102FE000AC000444C4F80822F1E7DAB2006802F049
:102FF00017F9F1E701F00F01C1EBC1018B00184493
:10300000B0F81002704770B501F07F06F500A91BFB
:103010008C0038340119AD1BAC0004446264E364D5
:1030200000232365012384F8393084F8386003696C
:10303000012B06D05EB1DAB2006801F0BFFF0020BC
:1030400070BDC6EBC605AC000444A264F2E7DAB278
:10305000006802F0E5F8F2E738B54AB2002A12DB60
:10306000C1EBC104A30003F5FC73034401249C706D
:1030700001F07F041C70D20F5A7090F8B823012A17
:1030800009D1022038BD01F07F04C4EBC404A300C1
:1030900038330344EAE70546012280F8B82319468D
:1030A000006802F095F91CB1002085F8B80338BD1E
:1030B00005F56F72297C286802F064FAF4E710B510
:1030C0004AB2002A12DBC1EBC104A30003F5FC7372
:1030D000034400249C7001F07F011970D20F5A70D4
:1030E00090F8B823012A09D1022010BD01F07F0415
:1030F000C4EBC404A30038330344EAE704460122C6
:1031000080F8B8231946006802F094F9002084F88A
:10311000B80310BD002302E00133DBB201300278B6
:10312000002AF9D1184670474B88012B00D0704710
:1031300010B50446C0F80432D0F814329B689847A2
:10314000204603F0F3F810BD0B7803704B78437002
:103150008B78CA7803EB022343800B794A7903EB1F
:10316000022383808B79CA7903EB0223C3807047E3
:1031700010B50446802101F06CFC0021204601F0CE
:1031800068FC10BD30B583B004460D464A88130A6A
:10319000013B062B00F28180DFE803F00413277F58
:1031A0007F637000D0F810321B680DF10601007CBF
:1031B0009847BDF8062012B1EB88002B71D103B0FF
:1031C00030BD037C43B9D0F814329B6A0DF1060080
:1031D000984702234370ECE7D0F81432DB6A0DF114
:1031E0000600984702234370E3E7D2B2052A34D899
:1031F000DFE802F0030B131B232BD0F810325B68BF
:103200000DF10601007C9847D3E7D0F810329B6897
:103210000DF10601007C9847CBE7D0F81032DB684F
:103220000DF10601007C9847C3E7D0F810321B6906
:103230000DF10601007C9847BBE7D0F810325B69BE
:103240000DF10601007C9847B3E7D0F810329B6976
:103250000DF10601007C9847ABE72946FFF788FF90
:10326000ADE7037C33B9D0F814325B6B0DF1060087
:1032700098479EE72946FFF77BFFA0E7037C43B909
:10328000D0F814321B6B0DF10600984707234370EA
:103290008FE72946FFF76CFF91E72946FFF768FFA4
:1032A0008DE79A4228BF1A46ADF80620014620460F
:1032B00003F010F883E738B504468B88E3B9CB8870
:1032C000D3B98D7805F07F0590F8FC31032B0CD035
:1032D00080F8FE51294601F0EFFB204603F026F866
:1032E00035B1022384F8FC3138BDFFF741FF38BD0A
:1032F000012384F8FC3138BD2046FFF739FF38BD83
:1033000038B504460D468978254B1970012909D82E
:1033100090F8FC31022B09D0032B1CD02946FFF773
:1033200027FF38BD2946FFF723FF38BD81B1416033
:10333000032380F8FC3102F08AF9022803D02046EA
:1033400002F0F4FF38BD29462046FFF711FF38BDD3
:1033500002F0ECFF38BD89B1436899421DD0D9B263
:1033600002F082F90E4B19786160204602F06FF985
:1033700002280DD0204602F0D9FF38BD022380F884
:10338000FC31416002F070F9204602F0CFFF38BDF9
:1033900029462046FFF7ECFE38BD02F0C7FF38BDD6
:1033A000643F002008B5CB88012B08D190F8FC3190
:1033B000022B07D0032B0DD0FFF7DAFE08BDFFF775
:1033C000D7FE08BD0146002341F8083F012202F064
:1033D00081FF08BD0122011D02F07CFF08BD08B578
:1033E00090F8FC31023B012B0CD80123C360D0F8CC
:1033F00004320BB10323C360022200F10C0102F07E
:1034000069FF08BDFFF7B4FE08BD10B5044690F88B
:10341000FC31023B012B0ED84B88012B00D010BD94
:103420000023C0F80432D0F814329B689847204635
:1034300002F07CFF10BDFFF79BFEF0E708B54B786C
:10344000092B1CD8DFE803F012181B151B09051BFC
:103450000F0CFFF797FE002008BDFFF72CFFFAE7DF
:10346000FFF74EFFF7E7FFF79DFFF4E7FFF7B7FF22
:10347000F1E7FFF759FEEEE7FFF7C7FFEBE7FFF7CE
:1034800077FEE8E738B504460D4690F8FC31032B8B
:1034900011D10B79012B03D9FFF76AFE002038BD4B
:1034A000D0F814329B689847EB88002BF6D1204661
:1034B00002F03CFFF2E7FFF75BFEEFE738B50546A9
:1034C0000C468A880B7803F06003202B11D0D1B210
:1034D0006378012B2BD0002B4DD0032B0DD190F80E
:1034E000FC31022B0BD0032B10D02146FFF740FEFE
:1034F00003E0D0F814329B689847002038BD0029BB
:10350000FBD08029F9D001F0A4FAF6E7638823B94B
:1035100019B1802901D001F09CFAD5F814329B68CA
:10352000214628469847284602F000FFE5E790F834
:10353000FC31022B05D0032B0AD02146FFF718FEE1
:10354000DBE70029D9D08029D7D001F082FAD4E76F
:103550006388002BD1D111F07F0F03D1284602F0F0
:10356000E5FECAE701F083FAD5F814329B682146DC
:1035700028469847F2E790F8FC31022B05D0032B40
:1035800009D02146FFF7F4FDB7E711F07F0FB4D063
:1035900001F05FFAB1E712F0800F11D101F07F0462
:1035A000103400EB04140434284601F06EFA70B1B4
:1035B0000123236002222146284602F08BFE9CE76D
:1035C00001F07F04013400EB04140434ECE7002321
:1035D0002360EFE7D0B170B50D4616460446FFF7FD
:1035E00099FD0130400080B23080287003236B7059
:1035F000022307E05A1CD2B20134E9540233DBB291
:103600000021A95421780029F4D170BD704790F8A9
:103610003830012B22D030B4012280F83820022328
:1036200080F839300468636823F0700363600468CD
:1036300063680D682B4363600468A36823F080030C
:10364000A3600468A36849680B43A36080F839202D
:10365000002380F83830184630BC7047022070478D
:10366000704770470A4B1B681B684BB901234BB965
:10367000074B1B68DB68DB685A68064B1A607047AB
:103680000023F4E74FF0FF32024B1A60704700BF8F
:103690006C3F00204440002010B50446006BFEF74C
:1036A00001FC2046FEF7FEFB10BD2DE9F0478046E9
:1036B0009946089D099F0A9C266B02F18042013AB7
:1036C00006EB820626F0070600230F2B07D8C85CFE
:1036D000E21882F83400CA5C0AB10133F5E700232E
:1036E00084F84330062D00D90625E56265644FF065
:1036F000000AC4F848A0201DFEF735F904F11800AF
:10370000FEF731F92461C5F10705A5616462C4F8CB
:103710004CA084F850A04A464146304600F05CFB7D
:10372000206007B13C60BDE8F087000038B5002498
:1037300007E004EB840293000E481844FEF708F9F2
:103740000134062CF5D90C4D2846FEF701F90B4C37
:103750002046FEF7FDF80A48FEF7FAF80948FEF79A
:10376000F7F80948FEF7F4F8084B1D60084B1C6099
:1037700038BD00BF743F0020184000202C400020BE
:103780004C40002078400020644000206C3F002026
:10379000703F002010B5044600F04CFB204A13682F
:1037A000013313601F4B1B68002B31D01E4B1B686D
:1037B0003BB91C4B1B68DA6AE36A9A4201D8194B81
:1037C0001C601A4A136801331360E36A01229A40AD
:1037D0001749086802430A6003EB83039A00211D1E
:1037E00014481044FEF7C2F800F046FB0E4B1B686D
:1037F0006BB10C4B1B68DA6AE36A9A4207D24FF04E
:1038000080520D4B1A60BFF34F8FBFF36F8F10BD07
:10381000044B1C601368012BD3D1FFF787FFD0E75F
:1038200000400020683F0020604000201040002041
:1038300014400020743F002004ED00E070B5044601
:103840000E461D4B1D681D4B18680430FEF7B4F87A
:1038500050B91A4B1B68DA6A012303FA02F21849BD
:103860000B6823EA02030B60B4F1FF3F13D02C4432
:10387000124B1B685C60A54216D8124B18680F4BA0
:1038800019680431FEF77EF80F4B1B689C4201D289
:103890000D4B1C6070BD002EE9D0084B1968043137
:1038A0000A48FEF763F870BD094B1868034B1968A6
:1038B0000431FEF767F870BD8C400020683F00209F
:1038C000144000206C3F0020444000206440002051
:1038D000703F00202DE9F04385B006460F4615469F
:1038E00098469000FEF75AFA00B381465420FEF73E
:1038F00055FA0446B0B1C0F83090CCB10023039320
:1039000002940D9B01930C9B009343462A46394633
:103910003046FFF7CAFE2046FFF73CFF012005B006
:10392000BDE8F0834846FEF7BDFAE6E70024E4E789
:103930004FF0FF30F3E7000000B583B0174B019361
:1039400000230093802216491648FFF7C3FF012881
:1039500005D0B0F1FF3F17D003B05DF804FB4FF086
:10396000500383F31188BFF36F8FBFF34F8F4FF076
:10397000FF320D4B1A6001220C4B1A6000220C4BD7
:103980001A6000F0F3FAE7E74FF0500383F3118871
:10399000BFF36F8FBFF34F8FFEE700BF40400020A3
:1039A000808500088D3C00084440002060400020D5
:1039B0008C400020024A136801331360704700BF37
:1039C0000C400020F8B53C4B1B68002B68D13B4BEA
:1039D0001D6801351D60C5B9394B1B681B6843B1B3
:1039E0004FF0500383F31188BFF36F8FBFF34F8FF6
:1039F000FEE7334A1168334B186810601960324A89
:103A0000136801331360FFF72DFE304B1B689D4296
:103A10003AD200242E4B1B68DB6A03EB83039A0027
:103A20002C4B9B58012B40D901243EE00124244B10
:103A30001B681B6853B3002353BB214B1B68DB6817
:103A4000DE6873689D4228D3371D3846FDF7B4FF02
:103A5000B36A1BB106F11800FDF7AEFFF36A01224D
:103A60009A401D49086802430A6003EB83039A00E9
:103A7000394618481044FDF779FFF26A144B1B6869
:103A8000DB6A9A42D2D2D2E70024D0E70123D3E7FF
:103A90004FF0FF320D4B1A60BCE70C4A1360B9E7D8
:103AA0000E4A13680133136000240D4B1B6803B1E9
:103AB00001242046F8BD00BF0C4000208C400020AF
:103AC0006C3F0020703F0020484000204440002010
:103AD000683F0020743F0020144000200840002070
:103AE0009040002038B5354B1B6843B94FF0500368
:103AF00083F31188BFF36F8FBFF34F8FFEE700F0A2
:103B000099F92E4B1A68013A1A601B68002B50D1A4
:103B10002B4B1B6823B9002400F0AEF9204638BDBA
:103B20000024284B1B681BB3264BDB68DC6804F1C0
:103B30001800FDF741FF251D2846FDF73DFFE36A0C
:103B400001229A402049086802430A6003EB83037C
:103B50009A0029461D481044FDF708FFE26A1C4BF5
:103B60001B68DB6A9A42DCD301221A4B1A60D8E741
:103B70000CB1FFF777FD184B1C6874B9154B1B6827
:103B8000CBB14FF08052154B1A60BFF34F8FBFF38C
:103B90006F8F0124C0E7013C07D0FFF713FF002817
:103BA000F9D001220B4B1A60F5E700220A4B1A608C
:103BB000E4E70024B0E70024AEE700BF0C4000209B
:103BC000004000204C40002014400020743F0020A2
:103BD000683F0020904000200840002004ED00E0F5
:103BE00010B5A8B10446104B1B6843B14FF0500309
:103BF00083F31188BFF36F8FBFF34F8FFEE7FFF79B
:103C0000D9FE00212046FFF719FEFFF76BFF00E009
:103C1000002038B94FF08052044B1A60BFF34F8F29
:103C2000BFF36F8F10BD00BF0C40002004ED00E01B
:103C3000134B1B6813B310B5FFF7BCFE114B1C6888
:103C4000FFF750FF24B90E4B1B68002BF4D110BDB9
:103C500000F0F0F80B4BDB68DC68201DFDF7ACFED4
:103C6000094A1368013B1360054A1368013B13605E
:103C700000F002F92046FFF70FFDE4E7704700BFB0
:103C800004400020784000200040002008B5FFF7E5
:103C9000CFFF064B1B68012BF9D94FF08052044B24
:103CA0001A60BFF34F8FBFF36F8FF0E7743F0020B0
:103CB00004ED00E0214B1B68C3B90022204B1A60C1
:103CC000204B1B68B3FA83F3DBB2C3F11F0303EB92
:103CD00083018A001C498A5862B94FF0500383F36C
:103CE0001188BFF36F8FBFF34F8FFEE70122144B94
:103CF0001A60704710B414489A00D418A100014407
:103D00004C6864684C601A4491000831084484424D
:103D10000BD003EB83039A000B4B13445B68DA6808
:103D20000A4B1A605DF8044B7047606803EB83022E
:103D30009100054A0A445060EBE700BF0C400020A8
:103D40009040002014400020743F0020683F002075
:103D5000054B1B6823B1054B1B681BB9022070473C
:103D60000120704700207047604000200C40002078
:103D70000B4B1B68B3F1FF3F08D04FF0500383F3A8
:103D80001188BFF36F8FBFF34F8FFEE74FF05003E3
:103D900083F31188BFF36F8FBFF34F8FFEE700BF30
:103DA0004801002006480068006880F3088862B671
:103DB00061B6BFF34F8FBFF36F8F00DF00BF00000E
:103DC00008ED00E0DFF80C00016841F470010160CB
:103DD0007047000088ED00E04FF0807340F8043C2D
:103DE00021F0010140F8081C054B40F80C3C40F85C
:103DF000202C6FF0020340F8243C4438704700BF89
:103E0000713D0008000000000000000000000000FC
:103E1000074B19680868B0E8F04F80F30988BFF3D2
:103E20006F8F4FF0000080F311887047AFF3008070
:103E3000683F00204FF0500383F31188BFF36F8F6A
:103E4000BFF34F8F0A4A136801331360012B0DD162
:103E5000084B1B6813F0FF0F08D04FF0500383F39B
:103E60001188BFF36F8FBFF34F8FFEE7704700BF1E
:103E70004801002004ED00E0094B1B6843B94FF0F6
:103E8000500383F31188BFF36F8FBFF34F8FFEE7AB
:103E9000013B034A13600BB983F31188704700BFDD
:103EA00048010020000000000000000000000000A9
:103EB000EFF30980BFF36F8F154B1A681EF0100FD8
:103EC00008BF20ED108A20E9F04F10604DF8043D46
:103ED0004FF0500080F31188BFF34F8FBFF36F8F07
:103EE000FFF7E8FE4FF0000080F3118808BC196866
:103EF0000868B0E8F04F1EF0100F08BFB0EC108A51
:103F000080F30988BFF36F8F704700BFAFF3008065
:103F1000683F002008B54FF0500383F31188BFF3CA
:103F20006F8FBFF34F8FFFF74DFD18B14FF08052E9
:103F3000024B1A60002383F3118808BD04ED00E0F2
:103F4000064B1B68064AA2FB03239B09013B054A5B
:103F500013600722044B1A60704700BF1001002055
:103F6000D34D621014E000E010E000E0314B1A681D
:103F7000314B9A421AD02F4B1A68304B9A421ED0BE
:103F800000B583B02E4B1A78D2B20192FF221A707C
:103F90001B78DBB28DF803309DF8033003F050033B
:103FA000284A13700722284B1A601BE04FF0500379
:103FB00083F31188BFF36F8FBFF34F8FFEE74FF08E
:103FC000500383F31188BFF36F8FBFF34F8FFEE76A
:103FD0001D4A1368013B13609DF803305B00DBB2A0
:103FE0008DF803309DF8033013F0800FF0D1164A9E
:103FF00013681B0203F4E0631360019BDBB2104AF9
:104000001370124B1A6842F470021A601A6842F078
:1040100070421A60FFF794FF00220D4B1A60FFF701
:10402000D1FE0C4A136843F040431360FFF7BAFE19
:10403000FFF79EFE00ED00E071C20F4170C20F411C
:1040400000E400E0944000209840002020ED00E0D3
:104050004801002034EF00E030B4036A23F001038C
:104060000362036A4468826922F073020D682A437E
:1040700023F002038D682B430F4DA8421AD005F59B
:104080008065A84214D000255DB123F00803CD68F7
:104090002B4323F0040324F440744D692C438D69B1
:1040A0002C43446082614A684263036230BC7047BB
:1040B0000125E9E70125E7E70000014030B4036A84
:1040C00023F480730362036A4468C26922F07302B6
:1040D0000D682A4323F400738D6843EA0523114DCC
:1040E000A8421DD005F58065A84217D0002575B1FE
:1040F00023F40063CD6843EA052323F4806324F4AA
:1041000040544D6944EA05148D6944EA051444603D
:10411000C2614A68C263036230BC70470125E6E7AA
:104120000125E4E70000014030B4036A23F4805322
:104130000362036A4468C26922F4E6420D6842EAF7
:10414000052223F400538D6843EA05330C4DA84241
:1041500013D005F58065A8420DD0002525B124F4C3
:1041600080444D6944EA85144460C2614A6802642F
:10417000036230BC70470125F0E70125EEE700BF80
:10418000000001400268D36843F00103D360026875
:10419000136843F0010313600020704770477047B5
:1041A0007047704710B5044603681A6912F0020F91
:1041B00011D0DA6812F0020F0DD06FF002021A610E
:1041C0000123037603689B6913F0030F70D0FFF798
:1041D000E6FF0023237623681A6912F0040F12D039
:1041E000DA6812F0040F0ED06FF004021A61022395
:1041F000237623689B6913F4407F5FD02046FFF746
:10420000CEFF0023237623681A6912F0080F12D01C
:10421000DA6812F0080F0ED06FF008021A6104235A
:1042200023762368DB6913F0030F4ED02046FFF797
:10423000B6FF0023237623681A6912F0100F12D0FC
:10424000DA6812F0100F0ED06FF010021A61082316
:1042500023762368DB6913F4407F3DD02046FFF7C7
:104260009EFF0023237623681A6912F0010F03D002
:10427000DA6812F0010F36D123681A6912F0800F44
:1042800003D0DA6812F0800F34D123681A6912F073
:10429000400F03D0DA6812F0400F32D123681A6958
:1042A00012F0200F03D0DA6812F0200F30D110BDC9
:1042B000FFF774FF2046FFF773FF8AE72046FFF7FA
:1042C0006DFF2046FFF76CFF9BE72046FFF766FF78
:1042D0002046FFF765FFACE72046FFF75FFF20466B
:1042E000FFF75EFFBDE76FF001021A612046FCF7A1
:1042F00013FFC1E76FF080021A612046FFF7B1F9A2
:10430000C3E76FF040021A612046FFF74AFFC5E796
:104310006FF020021A612046FFF7A2F9C7E70000FC
:104320000368454A90424AD0B0F1804F49D0A2F587
:104330007C42904247D002F58062904245D002F51F
:104340008062904243D002F57842904235D00022FC
:104350001AB123F070034A681343374A90423AD0A7
:10436000B0F1804F50D0A2F57C4290424ED002F581
:10437000806290424CD002F5806290424AD002F5B1
:104380007842904248D002F57052904246D002F5F1
:104390008062904244D002F58062904242D0A2F501
:1043A0009832904240D002F5806290423ED002F5B1
:1043B000806290420DD000220EE00122C8E7012267
:1043C000C6E70122C4E70122C2E70122C0E70122B9
:1043D000BEE7012200E001221AB123F44073CA684B
:1043E000134303608B68C3620B688362124B98426D
:1043F00020D003F5806398421AD000230BB10B69DB
:1044000003630123436170470122E5E70122E3E7EB
:104410000122E1E70122DFE70122DDE70122DBE7FC
:104420000122D9E70122D7E70122D5E70122D3E70C
:104430000123E3E70123E1E700000140A8B110B543
:10444000044690F839305BB1022384F83930211DDD
:104450002068FFF765FF012384F83930002010BD84
:1044600080F83830FDF77EFBEEE701207047A8B1F9
:1044700010B5044690F839305BB1022384F8393026
:10448000211D2068FFF74CFF012384F839300020FC
:1044900010BD80F83830FDF72BFBEEE701207047A8
:1044A00030B4036A23F010030362036A446882692C
:1044B00022F4E6420D6842EA052223F020038D68CB
:1044C00043EA0513114DA8421DD005F58065A842A9
:1044D00017D0002575B123F08003CD6843EA05139A
:1044E00023F0400324F440644D6944EA85048D6957
:1044F00044EA8504446082614A688263036230BC96
:1045000070470125E6E70125E4E700BF0000014010
:1045100038B590F83830012B66D00D46044601239B
:1045200080F83830022380F839300C2A1AD8DFE8B6
:1045300002F0071919192019191934191919470006
:104540000068FFF789FD2268936943F008039361CF
:104550002268936923F004039361226893692969AF
:104560000B439361012384F83930002084F838002C
:1045700038BD0068FFF794FF2268936943F4006335
:1045800093612268936923F480639361226893693D
:10459000296943EA01239361E4E70068FFF78EFD90
:1045A0002268D36943F00803D3612268D36923F0FA
:1045B0000403D3612268D36929690B43D361D1E72E
:1045C0000068FFF7B1FD2268D36943F40063D3614B
:1045D0002268D36923F48063D3612268D36929698F
:1045E00043EA0123D361BDE7022038BD10B40123A3
:1045F00003FA01F4036A23EA04030362036A8A40AC
:10460000134303625DF8044B7047000010B5044685
:1046100001220068FFF7EAFF23680C4A934212D098
:1046200002F5806293420CD000221AB15A6C42F417
:1046300000425A642268136843F0010313600020AB
:1046400010BD0122F1E70122EFE700BF00000140A9
:10465000F0B583B000244BE04FEAD40E0EF1080E03
:1046600050F82E2004F00706B6000F27B74022EAC4
:1046700007020F6907FA06F6324340F82E2046E09B
:10468000072600E0002606FA0EF6324302335E4E9D
:1046900046F823205D4B1A68EB4302EA03064F6895
:1046A00017F4803F01D045EA0206584A1660526866
:1046B00003EA02064F6817F4003F01D045EA0206FC
:1046C000524A5660926803EA02064F6817F4801F48
:1046D00001D045EA02064D4A9660D26813404E6802
:1046E00016F4001F01D045EA0203484AD3600134A2
:1046F0000F2C00F286800123A3400A6803EA02051A
:10470000AB42F4D14A68022AA6D0122AA4D0066885
:104710004FEA440E032202FA0EF2D24316404F68CB
:1047200007F0030707FA0EF73E4306604E68771E50
:10473000012F03D9112E01D0122E0FD186681640F9
:10474000CF6807FA0EF73E438660466826EA030301
:104750004E68C6F30016A64033434360C3681A4050
:104760008B6803FA0EF31A43C2604B6813F0805F44
:10477000BDD000230193264B5A6C42F480425A6408
:104780005B6C03F480430193019BA3089E1C1E4AAB
:1047900052F8262004F003064FEA860E0F2606FA8A
:1047A0000EF622EA06021B4FB8423FF46BAF1A4ED8
:1047B000B0421AD006F58066B04218D006F5806681
:1047C000B04216D006F58066B04214D006F5806679
:1047D000B04212D006F58066B04210D006F5806671
:1047E000B0423FF44DAF08264DE701264BE70226C5
:1047F00049E7032647E7042645E7052643E706265B
:1048000041E703B0F0BD00BF00380140003C01406B
:1048100000380240000002400004024003691942CF
:1048200001D1002070470120704712B9090481614D
:10483000704781617047436959404161704700008A
:104840000268154B9A4200D0704710B586B04FF4FD
:10485000404301930223029300240394032304930F
:104860000C23059301A90D48FFF7F2FE00940C4BB1
:104870001A6B42F000521A631B6B03F00053009353
:10488000009B224605214D20FCF7FEFF4D20FDF741
:104890002DF806B010BD00BF000004400004024027
:1048A0000038024008B500F56F71D0F8EC0300F055
:1048B000E2FE08BD08B5C1EBC10293000344D3F882
:1048C0000422D0F8EC0300F003FF08BD08B5C1EBEB
:1048D000C102930003445A6CD0F8EC0300F02DFFA2
:1048E00008BD08B5D0F8EC0300F0B1FF08BD10B565
:1048F0000446C3684BB10121D4F8EC0300F095FFE6
:10490000D4F8EC0300F072FF10BD0021F4E70000C2
:1049100010B50446D0F8EC0300F08AFF2268D2F804
:10492000003E43F00103C2F8003E236A23B1034A6C
:10493000136943F00603136110BD00BF00ED00E0F2
:1049400008B5D0F8EC0300F07CFF08BD08B5D0F83E
:10495000EC0300F08CFF08BD08B5D0F8EC0300F0C4
:1049600084FF08BD08B5D0F8EC0300F082FF08BD55
:1049700008B5D0F8EC0300F07EFF08BD0378012BEA
:1049800001D00020704710B503461848C0F8EC333A
:10499000C3F82002164B0360062343600222C26064
:1049A0000023036143618261C36103624362C362A6
:1049B00003634363FDF718FF90B90C4C4FF400718B
:1049C0002046FDF72DFB802200212046FDF704FB49
:1049D0004FF4BA7201212046FDF7FEFA002010BD07
:1049E0004FF4A4710348FCF7A3FBE6E784440020DE
:1049F000000004408885000808B5D0F82002FDF7C3
:104A000063FF18B1022803D0022008BD002008BDB2
:104A1000012008BD10B51C4613462246D0F82002DE
:104A2000FEF75CFA18B1022803D0022010BD002066
:104A300010BD012010BD08B5D0F82002FEF782FAA3
:104A400018B1022803D0022008BD002008BD0120B3
:104A500008BD08B5D0F82002FEF7FEFA18B102280A
:104A600003D0022008BD002008BD012008BD08B504
:104A7000D0F82002FEF723FB18B1022803D0022051
:104A800008BD002008BD012008BDD0F8203211F07B
:104A9000800F08D101F07F01C1EBC1018A001344EE
:104AA00093F8FA01704701F07F01C1EBC1018A0060
:104AB000134493F83A00704708B5D0F82002FEF787
:104AC000FBF918B1022803D0022008BD002008BD60
:104AD000012008BD08B5D0F82002FEF794FA18B1FD
:104AE000022803D0022008BD002008BD012008BD17
:104AF00008B5D0F82002FEF750FA18B1022803D00A
:104B0000022008BD002008BD012008BD08B5D0F86E
:104B10002002FEF76FFA08BD10B588B000220146EA
:104B20001920FCF7B1FE1920FCF7E0FE00240194E7
:104B3000134B5A6C42F001025A645B6C03F00103A0
:104B40000193019B02A903A8FDF78AFDFDF772FD01
:104B50000C4BA3FB00239B0C013B0B480B4A026050
:104B600040F2E732C260436004618460FFF766FC94
:104B700010B1012008B010BD0348FFF703FBF9E7AF
:104B80000038024083DE1B437448002000000140CF
:104B900084B010B5044603A880E80E00089B012BE2
:104BA00011D0E36843F04003E360204600F00EFDBF
:104BB0004FF48033A363069B012B1ED00020BDE879
:104BC000104004B07047A36B23F48033A363E36801
:104BD00023F4840323F04003E360E36823F44013E9
:104BE000E3600F9B012B03D0204600F0EFFCE2E7CF
:104BF000E36843F48013E360F6E7A36843F0060339
:104C0000A360A36843F02003A360D7E7836843F061
:104C10000103836000207047836823F001038360F1
:104C20000020704708B5C36823F0C043C360012962
:104C300009D019B9C36843F08043C3603220FCF740
:104C400097F9002008BDC36843F00053C360F5E73F
:104C500084B0F8B5054607A880E80E00119F1FBB79
:104C6000AB6B43F40013AB632C460023C5F8003E46
:104C700005F50066D5F80038C5F800380C9B012B07
:104C800017D00321284600F0B1F81021284600F083
:104C900087F8284600F098F80023336173614FF0DD
:104CA000FF32B261F36119E0AB6B43F40023AB63F5
:104CB000DAE7099B23B90021284600F097F8E4E7DA
:104CC0000121284600F092F8DFE74FF09040C2F84B
:104CD000000900220A61FF228A60013307998B4292
:104CE0000BD204EB431202F51061D2F80009002840
:104CF000EBDB0020C2F80009EBE7002308E04FF0EF
:104D0000904EC2F800EB00220261FF228260013364
:104D10008B420DD204EB431202F53060D2F800EB67
:104D2000BEF1000FEBDB4FF0000EC2F800EBEAE73C
:104D3000336923F4807333610A9B012B1AD000225C
:104D4000AA616FF080426A611BB9AB6943F010033E
:104D5000AB61AA69104B1343AB610D9B1BB1AB69EF
:104D600043F00803AB61012F0ED00020BDE8F840EE
:104D700004B07047094A3263326B42F4803242F029
:104D800003023263326BDAE7AB6943F0804343F0EE
:104D90000403AB61E9E700BF00383C8000018000FC
:104DA000890141F02001016100230133054A93424A
:104DB00005D8026912F0200FF7D1002070470320B8
:104DC000704700BF400D030010230361002301332F
:104DD000054A934205D8026912F0100FF7D100205E
:104DE00070470320704700BF400D0300D0F8003823
:104DF0001943C0F8001800207047D0F8083800F5B3
:104E0000006013F0060F10D0836803F00603022B36
:104E10000DD0836803F00603062B0AD0836803F0E5
:104E20000603042B07D000207047002070470320A2
:104E30007047032070470220704730B44B78012B35
:104E400022D0D0F81C380D780122AA4043EA024350
:104E5000C0F81C380B7800EB4310D0F8003B13F47B
:104E6000004F0ED1D0F8003B8A68C2F30A02C9781D
:104E700042EA8142134343F0805343F40043C0F8B5
:104E8000003B002030BC7047D0F81C280D78AB40A8
:104E90009BB21343C0F81C380C7800EB4410D0F8D8
:104EA000003913F4004FECD1D0F800398A68C2F30E
:104EB0000A02C97842EA814242EA8452134343F02B
:104EC000805343F40043C0F80039DAE738B54B7833
:104ED000012B36D00B78044600EB4313D3F8002B9C
:104EE00022F40042C3F8002B0B7800EB43134FF081
:104EF0000062C3F8002B0B7800EB43134FF08042A5
:104F0000C3F8002B002201322B4B9A4252D80B7867
:104F100004EB431303F530639B6813F0100FF2D1D9
:104F2000D0F8043843F48063C0F80438D0F81C3853
:104F3000097801228A4023EA0243C0F81C38002085
:104F400038BD0B78044600EB4313D3F8002922F454
:104F50000042C3F800290B7800EB43134FF00062C6
:104F6000C3F800290B7800EB43134FF08042C3F8DD
:104F7000002900220132104B9A4219D80B7804EB19
:104F8000431303F510639B6813F0804FF2D10D4675
:104F900004461021FFF704FFD4F81C2829780123C8
:104FA0008B409BB222EA0303C4F81C38002038BDB2
:104FB000032038BD032038BD400D030070B582B01A
:104FC0004B78012B3ED00B7800EB4313D3F8104BFA
:104FD000E40CE404C3F8104B0B7800EB4313D3F854
:104FE000104B24F0FF5424F4C014C3F8104B4B6949
:104FF000002B40F0D4800B7800EB4313D3F8104B18
:105000008D68C5F312052C43C3F8104B0B7800EBE9
:105010004313D3F8104B44F40024C3F8104B012A77
:1050200000F0DC80CB78012B00F0DF800B7800EB08
:105030004310D0F8003B43F00443C0F8003B00208D
:1050400002B070BD4B696BBB0B7800EB4313D3F818
:10505000104924F0FF5424F4C014C3F810490B780D
:1050600000EB4313D3F8104944F40024C3F810496B
:105070000B7800EB4313D3F81049E40CE404C3F8B5
:105080001049012A54D0CB78012B57D04B69002B03
:1050900054D0D0F834380E780124B4402343C0F8FB
:1050A00034384BE00B7800EB4313D3F81049E40C91
:1050B000E404C3F810490B7800EB4313D3F810490C
:1050C00024F0FF5424F4C014C3F810490C7800EB0A
:1050D0004414D4F810594B698E683344013BB3FB38
:1050E000F6F34E4E06EAC3432B43C4F810390B784F
:1050F00000EB4313D3F810494D69C5F312052C4357
:10510000C3F81049CB78012BBBD10B7800EB4313CC
:10511000D3F8104924F0C044C3F810490B7800EBD1
:105120004313D3F8104944F00054C3F81049A8E7DA
:105130000B7800EB43130C69C3F81449CB78012BAF
:1051400014D00B7800EB4313D3F8004944F0044427
:10515000C3F80049CB78012B7FF471AF14468B8ADA
:105160000A78C968009400F00BF968E7D0F80838AD
:1051700013F4807F09D10B7800EB4313D3F8004977
:1051800044F00054C3F80049DBE70B7800EB43130D
:10519000D3F8004944F08054C3F80049D1E78C6843
:1051A0002344013BB3FBF4F30C7800EB4414D4F834
:1051B000105B1A4E06EAC3463543C4F8105B0C7800
:1051C00000EB4414D4F8106B8D689BB205FB03F51B
:1051D000C5F312053543C4F8105B20E70B7800EBEC
:1051E0004313CA68C3F8142B1CE7D0F8083813F42B
:1051F000807F09D10B7800EB4313D3F8002B42F0EA
:105200000052C3F8002B11E70B7800EB4313D3F8DF
:10521000002B42F08052C3F8002B07E70000F81F74
:1052200030B44B78012B39D00B7800EB4313D3F813
:10523000104BE40CE404C3F8104B0B7800EB431361
:10524000D3F8104B24F0FF5424F4C014C3F8104BCF
:105250004B690BB18B684B610B7800EB4313D3F8B0
:10526000104B44F40024C3F8104B0B7800EB4313AD
:10527000D3F8104B8D68C5F312052C43C3F8104BBF
:10528000012A76D00B7800EB4310D0F8003B43F0B6
:105290000443C0F8003B002030BC70474B699BBB07
:1052A0000B7800EB4313D3F8104924F0FF5424F497
:1052B000C014C3F810490B7800EB4313D3F810491E
:1052C00044F40024C3F810490B7800EB4313D3F8DF
:1052D0001049E40CE404C3F810490B7800EB4313C5
:1052E000D3F8004944F00444C3F80049012A39D0F6
:1052F0004B69002BCFD0D0F83438097801228A408E
:105300001343C0F83438C6E70B7800EB4313D3F8E7
:105310001049E40CE404C3F810490B7800EB431384
:10532000D3F8104924F0FF5424F4C014C3F81049F2
:105330004C698B689C4200D94B610B7800EB43139E
:10534000D3F8104944F40024C3F810490B7800EB5B
:105350004313D3F810494D69C5F312052C43C3F824
:105360001049BAE70B7800EB43100B69C0F8143909
:1053700091E70B7800EB4313CA68C3F8142B81E75D
:1053800070B49DF80C4064B903339E0807E000EB4D
:10539000023303F5805351F8045B1D600134B442BD
:1053A000F5D3002070BC704703329208002393426B
:1053B0000CD210B400F58054246841F8044B01333A
:1053C0009342F7D308465DF8044B70470846704790
:1053D0004B78012B17D00B7800EB4313D3F8002B3D
:1053E000002A05DBD3F8002B22F08042C3F8002B03
:1053F0000B7800EB4310D0F8003B43F40013C0F8E7
:10540000003B002070470B7800EB4313D3F80029D2
:10541000002A05DBD3F8002922F08042C3F80029D6
:105420000B7800EB4310D0F8003943F40013C0F8B8
:105430000039E6E74B78012B0FD00B7800EB4313D4
:10544000D3F8002B22F40012C3F8002BCB78023BD8
:10545000DBB2012B19D9002070470B7800EB431306
:10546000D3F8002922F40012C3F80029CB78023BBC
:10547000DBB2012BEFD80B7800EB4310D0F80039EA
:1054800043F08053C0F80039E5E70B7800EB431098
:10549000D0F8003B43F08053C0F8003BDBE7D0F886
:1054A000003823F4FE63C0F80038D0F80038090152
:1054B00001F4FE610B43C0F800380020704708B5C6
:1054C000D0F8043823F00203C0F804380320FBF7B7
:1054D0004FFD002008BD08B5D0F8043843F00203A2
:1054E000C0F804380320FBF743FD002008BD4269E3
:1054F000806910407047D0F8183800F50060C06926
:105500001840000C7047D0F8183800F50060C069EA
:10551000184080B2704700EB4111D1F8082B00F51C
:105520000060406910407047D0F81028D0F8343837
:10553000CB40DB01DBB2134300EB4111D1F808098A
:1055400018407047406900F001007047D0F80039FA
:1055500023F4FF6323F00703C0F8003900F500636C
:105560009A6802F00602042A05D05A6842F4807252
:105570005A6000207047D0F8002942F00302C0F8BA
:105580000029F2E710B40024C0F8104BD0F8104BFB
:1055900044F40024C0F8104BD0F8104B44F0180429
:1055A000C0F8104BD0F8104B44F0C044C0F8104B7A
:1055B000012903D000205DF8044B7047C0F8142B7C
:1055C0004FF08023C0F8003BF4E7000000230133D4
:1055D0000C4A934211D80269002AF8DA036943F0B1
:1055E0000103036100230133064A934207D802698D
:1055F00012F0010FF7D100207047032070470320FD
:10560000704700BF400D030098B108B50346D0F8BD
:10561000140210B10020C3F8140209B1C3F810122B
:105620001846012380F8FC310270FFF7A7F900202B
:1056300008BD0220704719B1C0F81412002070474D
:105640000220704708B5FFF7D7F9002008BD08B55C
:10565000D0F8143223B11B68984718B1022008BD56
:10566000022008BD002008BD08B5D0F814325B68E0
:105670009847002008BD38B5044600F50275284655
:10568000FDF762FD0123C4F8F431B4F80E32C4F81A
:10569000F83194F8081201F01F03012B0ED03BB132
:1056A000022B10D001F080012046FFF7D2F903E071
:1056B00029462046FDF7C2FE002038BD2946204677
:1056C000FDF7E0FEF8E729462046FDF7F7FEF3E791
:1056D00010B5044619BB1346D0F8F421032A27D18C
:1056E000D0F80C11D0F8102191420BD8D0F8143218
:1056F0001B691BB190F8FC21032A0ED0204600F054
:1057000015FE15E0891AC0F80C118A4228BF0A4616
:1057100092B2194600F002FE0AE09847EEE70A4608
:10572000D0F814329B691BB190F8FC11032901D009
:10573000002010BD11469847FAE710B5044600292D
:1057400047D11346D0F8F421022A05D094F800324C
:10575000012B3AD0002010BDC169026A914217D8CE
:105760008169B1FBF2F302FB13132BB98A4203D810
:10577000D0F8F831994218D3D4F81432DB681BB151
:1057800094F8FC21032A1DD0204600F0DAFDDDE765
:105790008A1AC26192B2194600F0A9FD00231A4686
:1057A00019462046FFF7A4F9D0E70022114600F081
:1057B0009EFD0021C4F8F8110B460A462046FFF76B
:1057C00097F9C3E720469847DEE7002384F80032C4
:1057D000C0E70A46D0F814325B69002BBAD090F8C3
:1057E000FC110329B6D111469847B3E738B50446F2
:1057F000402300221146FFF70DF94025C4F810514F
:105800002B46002280212046FFF704F92562012360
:1058100084F8FC31D4F818322BB1D4F814325B6818
:10582000217920469847002038BD01740020704738
:1058300090F8FC3180F8FD31042380F8FC31002021
:10584000704790F8FD3180F8FC310020704708B5B2
:1058500090F8FC31032B01D0002008BDD0F81432A1
:10586000DB69002BF8D09847F6E70020704700204E
:1058700070470020704708B5012280F8FC21D0F85D
:105880001422526801799047002008BD03685A69C4
:1058900012F4806F0DD06FF480625A6104230364A8
:1058A00000230363202280F83D2080F83C30012053
:1058B000704700207047F8B506460C4617461D464F
:1058C0001EE02DB1FBF74EFB069BC01A854217D296
:1058D00000233363202286F83D2086F83E3086F888
:1058E0003C300320F8BD33685B6924EA03039BB2B4
:1058F000B3FA83F35B09BB420FD1B5F1FF3FE0D1AF
:10590000C4F30743012BEED033689B6924EA0303F9
:105910009BB2B3FA83F35B09EDE70020F8BDF8B55D
:1059200004460D4616461F4632E01A6842F40072DD
:105930001A6023686FF480625A6104232364002391
:105940002363202284F83D2084F83C300120F8BDF8
:1059500026B1FBF707FBC01B864219D20023236345
:10596000202284F83D2084F83C300320F8BD2368D1
:105970005B6925EA03039BB2003318BF0123A3B17F
:1059800023685A6912F4806FCFD1B6F1FF3FDFD19F
:10599000C5F30743012BEAD023689B6925EA03037B
:1059A0009BB2003318BF0123E9E70020F8BD0000D7
:1059B000F0B583B004460F4615461E46C36A042B55
:1059C0000DD0012B0BD013F5803F08D0036B122BA9
:1059D0000AD10268136843F48073136004E02268FC
:1059E000136843F48073136000962B4600224FF037
:1059F00001112046FFF75FFF18B10323184603B0DB
:105A0000F0BD2369B3F5804F12D02268FB1103F07B
:105A1000060343F0F003136133462A46114920463A
:105A2000FFF77DFFC0B1236C042B13D00323E5E700
:105A3000236807F0FE071F6133462A460A492046BD
:105A4000FFF76DFF03460028D8D0236C042B07D046
:105A50000323D3E70123D1E72368FFB21F61EBE7FC
:105A60000123CBE708000100020001002DE9F0410D
:105A700084B004460F4615461E46C26A01680B688C
:105A800043F480630B60042A0DD0012A0BD012F579
:105A9000803F08D0036B112B0AD10268136843F4CE
:105AA0008073136004E02268136843F4807313600A
:105AB00000962B4600224FF001112046FFF7FBFE17
:105AC00020B10323184604B0BDE8F0812369B3F583
:105AD000804F13D023684FEAE71808F0060848F013
