:020000040800F2
:1000000000000220F16400083D0700083F070008D7
:1000100041070008430700084507000800000000EA
:10002000000000000000000000000000C1580008AF
:100030004707000800000000615900084907000850
:1000400041650008416500084165000841650008F8
:1000500041650008416500084165000841650008E8
:1000600041650008416500084165000841650008D8
:1000700041650008416500084165000841650008C8
:1000800041650008416500084165000841650008B8
:1000900041650008416500084165000841650008A8
:1000A00041650008510700084165000841650008E6
:1000B0004165000841650008416500084165000888
:1000C0004165000841650008416500084165000878
:1000D0004165000841650008416500084165000868
:1000E0004165000841650008416500084165000858
:1000F0004165000841650008416500084165000848
:100100004165000841650008416500084165000837
:100110004165000841650008416500084165000827
:100120004165000841650008416500084165000817
:100130004165000800000000000000004165000863
:1001400041650008416500084165000841650008F7
:1001500041650008416500084165000841650008E7
:1001600041650008416500084165000841650008D7
:100170004165000861070008000000000000000061
:0801800041650008416500081B
:1001900010B5054C237833B9044B13B10448AFF3C1
:1001A00000800123237010BDC40100200000000066
:1001B000446700080C4B43B10C480D4910B5AFF330
:1001C00000800C48036823B910BD0A48036833B99E
:1001D0007047094B002BF7D0BDE810401847064B7D
:1001E000002BF5D0184700BF00000000446700084E
:1001F000C8010020C401002000000000074AD368A5
:1002000023F4E0631B041B0C000200F4E0601843BD
:1002100040F0BF6040F40030D060704700ED00E077
:1002200030B4164BDB68C3F30223C3F10704042C7C
:1002300028BF04241D1D062D17D9033B012505FAEF
:1002400004F4013C2140994005FA03F3013B1340BB
:10025000194300280BDB0901C9B200F1604000F529
:10026000614080F8001330BC70470023E6E700F0DF
:100270000F000901C9B2024B1954F4E700ED00E088
:1002800014ED00E0420900F01F00012303FA00F022
:10029000014B43F82200704700E100E00138B0F163
:1002A000807F0AD2064B5860F021064A82F823105C
:1002B0000020986007221A6070470120704700BF35
:1002C00010E000E000ED00E0042805D0054A1368C6
:1002D00023F0040313607047024A136843F00403D9
:1002E0001360704710E000E0002070470020704766
:1002F00010B5054C0146204601F07BFF204601F079
:100300007EFF002010BD00BF983F002010B5064CB6
:1003100000220649204601F064FF0549204601F00D
:1003200068FF002010BD00BF983F00204C3F002018
:10033000483F002090F83830012B22D030B4012201
:1003400080F83820022380F839300468636823F08D
:1003500070036360046863680D682B43636004681E
:10036000A36823F08003A3600468A36849680B4373
:10037000A36080F83920002380F83830184630BC5C
:100380007047022070477047704708B50320FFF799
:1003900035FF002211466FF00B00FFF741FF0022EE
:1003A00011466FF00A00FFF73BFF002211466FF085
:1003B0000900FFF735FF002211466FF00400FFF738
:1003C0002FFF002211466FF00300FFF729FF0022E4
:1003D0000F216FF00100FFF723FF00220F214FF0E4
:1003E000FF30FFF71DFF08BD02680F4B9A4200D097
:1003F000704700B587B00021009103F58B335A6C2C
:1004000042F480625A645B6C03F480630093009B47
:100410000123019303230293039101A9034801F0EF
:1004200077FF07B05DF804FB00220140000802409E
:100430000268124B9A4200D0704700B587B0002185
:10044000009103F5EA331A6C42F000721A641B6CD7
:1004500003F000730093009B4FF4C05301930223F9
:1004600002930391032304930923059301A90448EC
:1004700001F04EFF07B05DF804FB00BF00640040D0
:10048000000002400268124B9A4200D0704700B54B
:1004900087B04FF440730193122302930123039317
:1004A00003230493042305930DEB0301094801F092
:1004B0002FFF00230093084B1A6C42F400121A64B9
:1004C0001B6C03F400130093009B07B05DF804FB62
:1004D0000054004000040240003802400268094B0A
:1004E0009A4200D0704782B000230193064B5A6BAA
:1004F00042F040025A635B6B03F040030193019B9F
:1005000002B0EFE700080650003802400268174BBF
:100510009A4200D07047F0B587B00024009403F5EC
:1005200086335A6C42F400625A645B6C03F40063D5
:100530000093009B4FF48853019302270297039482
:10054000032604960C25059501A9094801F0E0FE53
:100550000423019302970394049605950DEB030180
:10056000044801F0D5FE07B0F0BD00BF002C0140EB
:1005700000080240000C024084B00368B3F1804FD1
:1005800007D0174A934211D0164A93421BD004B0A9
:10059000704700230193144B1A6C42F001021A6455
:1005A0001B6C03F001030193019BF0E7002302930E
:1005B0000D4B1A6C42F002021A641B6C03F002032A
:1005C0000293029BE3E700230393074B1A6C42F06C
:1005D00008021A641B6C03F008030393039BD6E71D
:1005E00000040040000C00400038024082B0036864
:1005F000104A934204D0104A93420ED002B0704782
:10060000002300930D4B1A6C42F080021A641B6C9D
:1006100003F080030093009BF0E700230193074B56
:100620001A6C42F480721A641B6C03F48073019399
:10063000019BE3E7001C004000200040003802401E
:1006400000B587B00368B3F1804F0ED0294A9342BA
:100650001AD0294A934224D0284A93422ED0284ABD
:10066000934239D007B05DF804FB4FF44063019327
:10067000022302930023039304930123059301A90A
:10068000204801F045FEEDE7032301930223029386
:10069000002203920492059301A91A4801F038FE42
:1006A000E0E70F23019302230293002203920492B6
:1006B000059301A9144801F02BFED3E740230193D1
:1006C000022302930023039304930923059301A9B2
:1006D0000D4801F01DFEC5E780230193022302931C
:1006E0000023039304930923059301A9064801F00D
:1006F0000FFEB7E700040040000C0040001C004063
:100700000020004000040240000002400268094B43
:100710009A4200D0704782B000230193064B1A6CB6
:1007200042F400621A641B6C03F400630193019BA2
:1007300002B0EFE7002C0040003802407047FEE7AF
:10074000FEE7FEE7FEE7704708B505F025FB08BDAC
:1007500008B5024802F002FB08BD00BF543F00206C
:1007600008B5024804F0ACF808BD00BFBC41002049
:1007700008B50B4B1A6842F400721A601A6842F40A
:1007800080621A601A6842F480721A600320FFF7D0
:1007900035FD002000F026F8FFF7F7FD002008BD2A
:1007A000003C0240024A136801331360704700BFE7
:1007B000503F0020014B1868704700BF503F002099
:1007C00030B583B00190FFF7F5FF0546019CB4F109
:1007D000FF3F00D00134FFF7EDFF401BA042FAD3EA
:1007E00003B030BD10B588B0002201461920FFF7D4
:1007F00017FD1920FFF746FD00240194144B5A6C95
:1008000042F001025A645B6C03F001030193019B07
:1008100002A903A803F05AFF03F042FF43000D486A
:10082000A0FB03239B0C013B0B480C4A026040F2E7
:10083000E732C26043600461846002F0DBFB10B108
:10084000012008B010BD044802F078FAF9E700BFB3
:100850000038024083DE1B43543F0020000001406B
:100860004C4B5A6822F440325A605A6841680A4335
:100870005A600268536823F48073536002685368B7
:10088000016943EA012353600268536823F040730F
:1008900053600268536881680B4353600268936831
:1008A00023F40063936002689368C1680B4393600C
:1008B000826A394B9A4249D00268936823F0706388
:1008C000936002689368816A0B439360026893683F
:1008D00023F04053936002689368C16A0B439360AE
:1008E0000268936823F00203936002689368816949
:1008F00043EA41039360036A002B32D102685368D4
:1009000023F4006353600268D36A23F47003D36254
:100910000168CB6AC269013A43EA0253CB620268BA
:10092000936823F40073936002689368016B43EA51
:10093000412393600268936823F4806393600268A4
:100940009368416943EA8123936070470268936822
:1009500023F0706393600268936823F040539360C0
:10096000BEE70268536843F400635360026853684B
:1009700023F460435360436A013B4FF4604292FAB0
:10098000A2F2B2FA82F29340026851680B435360BC
:10099000B9E700BF002301400100000F30B310B5DC
:1009A0000446036C43B1236C13F0100F0AD00120EE
:1009B000002384F83C3010BD436480F83C30FFF7DE
:1009C00013FDF0E7236C23F4885323F0020343F074
:1009D000020323642046FFF743FF00206064236C7A
:1009E00023F0030343F001032364E1E70120704790
:1009F00030B482B00023019390F83C30012B00F01A
:100A0000B780012380F83C300B68092B3ED905687C
:100A1000EA689BB203EB43031E3B072404FA03F38B
:100A200022EA0303EB600568EA688C680B8803EB35
:100A300043031E3B04FA03F31343EB604B68062B9E
:100A40003AD805686A6B03EB8303053B1F2404FA5D
:100A500003F322EA03036B6305686A6B4B6803EBDD
:100A60008303053B0C8804FA03F313436B630268AA
:100A7000404B9A4250D002683E4B9A4255D00023D8
:100A800080F83C30184602B030BC704705682A69CF
:100A90009BB203EB4303072404FA03F322EA0303A4
:100AA0002B6105682A698C680B8803EB430304FA01
:100AB00003F313432B61C1E70C2B16D805682A6B8F
:100AC00003EB8303233B1F2404FA03F322EA03030B
:100AD0002B6305682A6B4B6803EB8303233B0C886D
:100AE00004FA03F313432B63C1E70568EA6A03EBD7
:100AF0008303413B1F2404FA03F322EA0303EB625E
:100B00000568EA6A4B6803EB8303413B0C8804FAEF
:100B100003F31343EB62AAE70B68122BABD1164A1F
:100B2000536843F480035360A5E70B68103B012B27
:100B3000A5D8114A536843F4000353600B68102B87
:100B40009DD10E4B1B6802F1467202F52E3202F265
:100B50008332A2FB03239B0C03EB83035A00019215
:100B600002E0019B013B0193019B002BF9D186E739
:100B7000022088E7002001400023014024010020DA
:100B800008B50122064B1A7001F0B4FB20B9044AE3
:100B9000137803F0FE031370014B187808BD00BFF3
:100BA0001000002008B50122064B1A7001F088FBE6
:100BB00020B9044A137803F0FE031370014B187830
:100BC00008BD00BF1000002010B5084611461A46A7
:100BD000084B01F055FB38B9074C01F071FB28B107
:100BE000631E24B11C46F8E7012010BD10BD012092
:100BF00010BD00BF00E1F505A086010010B5084654
:100C000011461A46084B01F04BFB38B9074C01F06E
:100C100057FB28B1631E24B11C46F8E7012010BD24
:100C200010BD012010BD00BF00E1F505A086010048
:100C3000144B1B7813F0010F01D00320704710B53F
:100C400088B0144603291BD8DFE801F002050C1315
:100C5000002008B010BD684601F03CFB069B2360F5
:100C60000020F6E7684601F035FB079B2380002053
:100C7000EFE7684601F02EFB079B23600020E8E7C2
:100C80000420E6E71000002008B50349034801F0FE
:100C90006BFC034B187008BD943F00207067000880
:100CA000903F002084B010B5044603A880E80E00F1
:100CB000089B012B11D0E36843F04003E36020461A
:100CC00000F00EFD4FF48033A363069B012B1ED072
:100CD0000020BDE8104004B07047A36B23F48033BC
:100CE000A363E36823F4840323F04003E360E36831
:100CF00023F44013E3600F9B012B03D0204600F048
:100D0000EFFCE2E7E36843F48013E360F6E7A368EF
:100D100043F00603A360A36843F02003A360D7E772
:100D2000836843F00103836000207047836823F0E9
:100D3000010383600020704708B5C36823F0C043F7
:100D4000C360012909D019B9C36843F08043C36067
:100D50003220FFF735FD002008BDC36843F0005383
:100D6000C360F5E784B0F8B5054607A880E80E0033
:100D7000119F1FBBAB6B43F40013AB632C460023E6
:100D8000C5F8003E05F50066D5F80038C5F800380E
:100D90000C9B012B17D00321284600F0B1F810213D
:100DA000284600F087F8284600F098F800233361C1
:100DB00073614FF0FF32B261F36119E0AB6B43F442
:100DC0000023AB63DAE7099B23B90021284600F032
:100DD00097F8E4E70121284600F092F8DFE74FF0AA
:100DE0009040C2F8000900220A61FF228A600133A4
:100DF00007998B420BD204EB431202F51061D2F833
:100E000000090028EBDB0020C2F80009EBE7002313
:100E100008E04FF0904EC2F800EB00220261FF2282
:100E2000826001338B420DD204EB431202F5306035
:100E3000D2F800EBBEF1000FEBDB4FF0000EC2F872
:100E400000EBEAE7336923F4807333610A9B012BDB
:100E50001AD00022AA616FF080426A611BB9AB69A7
:100E600043F01003AB61AA69104B1343AB610D9BB8
:100E70001BB1AB6943F00803AB61012F0ED000201A
:100E8000BDE8F84004B07047094A3263326B42F45F
:100E9000803242F003023263326BDAE7AB6943F02F
:100EA000804343F00403AB61E9E700BF00383C80B6
:100EB00000018000890141F020010161002301331C
:100EC000054A934205D8026912F0200FF7D100209D
:100ED00070470320704700BF400D030010230361DB
:100EE00000230133054A934205D8026912F0100F1E
:100EF000F7D1002070470320704700BF400D03006A
:100F0000D0F800381943C0F8001800207047D0F816
:100F1000083800F5006013F0060F10D0836803F066
:100F20000603022B0DD0836803F00603062B0AD0BC
:100F3000836803F00603042B07D0002070470020CD
:100F4000704703207047032070470220704730B479
:100F50004B78012B22D0D0F81C380D780122AA4002
:100F600043EA0243C0F81C380B7800EB4310D0F87A
:100F7000003B13F4004F0ED1D0F8003B8A68C2F357
:100F80000A02C97842EA8142134343F0805343F492
:100F90000043C0F8003B002030BC7047D0F81C284C
:100FA0000D78AB409BB21343C0F81C380C7800EBB3
:100FB0004410D0F8003913F4004FECD1D0F80039C8
:100FC0008A68C2F30A02C97842EA814242EA84523C
:100FD000134343F0805343F40043C0F80039DAE789
:100FE00038B54B78012B36D00B78044600EB431311
:100FF000D3F8002B22F40042C3F8002B0B7800EB4F
:1010000043134FF00062C3F8002B0B7800EB43133F
:101010004FF08042C3F8002B002201322B4B9A4242
:1010200052D80B7804EB431303F530639B6813F03D
:10103000100FF2D1D0F8043843F48063C0F80438BC
:10104000D0F81C38097801228A4023EA0243C0F80C
:101050001C38002038BD0B78044600EB4313D3F84E
:10106000002922F40042C3F800290B7800EB431357
:101070004FF00062C3F800290B7800EB43134FF0E8
:101080008042C3F8002900220132104B9A4219D83D
:101090000B7804EB431303F510639B6813F0804F48
:1010A000F2D10D4604461021FFF704FFD4F81C28A6
:1010B000297801238B409BB222EA0303C4F81C3831
:1010C000002038BD032038BD032038BD400D03008B
:1010D00070B582B04B78012B3ED00B7800EB4313F8
:1010E000D3F8104BE40CE404C3F8104B0B7800EB7E
:1010F0004313D3F8104B24F0FF5424F4C014C3F866
:10110000104B4B69002B40F0D4800B7800EB43135D
:10111000D3F8104B8D68C5F312052C43C3F8104B60
:101120000B7800EB4313D3F8104B44F40024C3F8BE
:10113000104B012A00F0DC80CB78012B00F0DF801F
:101140000B7800EB4310D0F8003B43F00443C0F8A9
:10115000003B002002B070BD4B696BBB0B7800EB0D
:101160004313D3F8104924F0FF5424F4C014C3F8F7
:1011700010490B7800EB4313D3F8104944F40024D2
:10118000C3F810490B7800EB4313D3F81049E40C73
:10119000E404C3F81049012A54D0CB78012B57D06E
:1011A0004B69002B54D0D0F834380E780124B44069
:1011B0002343C0F834384BE00B7800EB4313D3F8EB
:1011C0001049E40CE404C3F810490B7800EB431316
:1011D000D3F8104924F0FF5424F4C014C3F8104984
:1011E0000C7800EB4414D4F810594B698E683344E2
:1011F000013BB3FBF6F34E4E06EAC3432B43C4F860
:1012000010390B7800EB4313D3F810494D69C5F33F
:1012100012052C43C3F81049CB78012BBBD10B78B6
:1012200000EB4313D3F8104924F0C044C3F810492D
:101230000B7800EB4313D3F8104944F00054C3F883
:101240001049A8E70B7800EB43130C69C3F8144965
:10125000CB78012B14D00B7800EB4313D3F8004963
:1012600044F00444C3F80049CB78012B7FF471AFFC
:1012700014468B8A0A78C968009400F00BF968E775
:10128000D0F8083813F4807F09D10B7800EB4313B2
:10129000D3F8004944F00054C3F80049DBE70B7869
:1012A00000EB4313D3F8004944F08054C3F80049DD
:1012B000D1E78C682344013BB3FBF4F30C7800EBDB
:1012C0004414D4F8105B1A4E06EAC3463543C4F8FA
:1012D000105B0C7800EB4414D4F8106B8D689BB253
:1012E00005FB03F5C5F312053543C4F8105B20E791
:1012F0000B7800EB4313CA68C3F8142B1CE7D0F833
:10130000083813F4807F09D10B7800EB4313D3F82E
:10131000002B42F00052C3F8002B11E70B7800EBD2
:101320004313D3F8002B42F08052C3F8002B07E799
:101330000000F81F30B44B78012B39D00B7800EB4C
:101340004313D3F8104BE40CE404C3F8104B0B78B0
:1013500000EB4313D3F8104B24F0FF5424F4C014D3
:10136000C3F8104B4B690BB18B684B610B7800EBEA
:101370004313D3F8104B44F40024C3F8104B0B78FC
:1013800000EB4313D3F8104B8D68C5F312052C43C3
:10139000C3F8104B012A76D00B7800EB4310D0F83D
:1013A000003B43F00443C0F8003B002030BC7047D2
:1013B0004B699BBB0B7800EB4313D3F8104924F027
:1013C000FF5424F4C014C3F810490B7800EB431306
:1013D000D3F8104944F40024C3F810490B7800EB0B
:1013E0004313D3F81049E40CE404C3F810490B7814
:1013F00000EB4313D3F8004944F00444C3F8004918
:10140000012A39D04B69002BCFD0D0F83438097875
:1014100001228A401343C0F83438C6E70B7800EB4A
:101420004313D3F81049E40CE404C3F810490B78D3
:1014300000EB4313D3F8104924F0FF5424F4C014F4
:10144000C3F810494C698B689C4200D94B610B78FA
:1014500000EB4313D3F8104944F40024C3F81049B7
:101460000B7800EB4313D3F810494D69C5F312050F
:101470002C43C3F81049BAE70B7800EB43100B6913
:10148000C0F8143991E70B7800EB4313CA68C3F82E
:10149000142B81E770B49DF80C4064B903339E08A7
:1014A00007E000EB023303F5805351F8045B1D6045
:1014B0000134B442F5D3002070BC70470332920867
:1014C000002393420CD210B400F58054246841F8F4
:1014D000044B01339342F7D308465DF8044B704741
:1014E000084670474B78012B17D00B7800EB43135D
:1014F000D3F8002B002A05DBD3F8002B22F0804222
:10150000C3F8002B0B7800EB4310D0F8003B43F4FA
:101510000013C0F8003B002070470B7800EB43132A
:10152000D3F80029002A05DBD3F8002922F08042F5
:10153000C3F800290B7800EB4310D0F8003943F4CE
:101540000013C0F80039E6E74B78012B0FD00B7879
:1015500000EB4313D3F8002B22F40012C3F8002B46
:10156000CB78023BDBB2012B19D9002070470B78F6
:1015700000EB4313D3F8002922F40012C3F800292A
:10158000CB78023BDBB2012BEFD80B7800EB43109A
:10159000D0F8003943F08053C0F80039E5E70B7804
:1015A00000EB4310D0F8003B43F08053C0F8003B01
:1015B000DBE7D0F8003823F4FE63C0F80038D0F839
:1015C0000038090101F4FE610B43C0F80038002027
:1015D000704708B5D0F8043823F00203C0F8043887
:1015E0000320FFF7EDF8002008BD08B5D0F8043857
:1015F00043F00203C0F804380320FFF7E1F80020AD
:1016000008BD4269806910407047D0F8183800F56D
:101610000060C0691840000C7047D0F8183800F519
:101620000060C069184080B2704700EB4111D1F8EA
:10163000082B00F50060406910407047D0F8102872
:10164000D0F83438CB40DB01DBB2134300EB41115F
:10165000D1F8080918407047406900F00100704750
:10166000D0F8003923F4FF6323F00703C0F80039F2
:1016700000F500639A6802F00602042A05D05A6851
:1016800042F480725A6000207047D0F8002942F07E
:101690000302C0F80029F2E710B40024C0F8104B90
:1016A000D0F8104B44F40024C0F8104BD0F8104B85
:1016B00044F01804C0F8104BD0F8104B44F0C0446C
:1016C000C0F8104B012903D000205DF8044B70478F
:1016D000C0F8142B4FF08023C0F8003BF4E7000063
:1016E000002301330C4A934211D80269002AF8DA28
:1016F000036943F00103036100230133064A934267
:1017000007D8026912F0010FF7D1002070470320BB
:1017100070470320704700BF400D030070B582B0D2
:10172000044600230193006802F096FB054610B1C1
:10173000284602B070BD206802F0A1FB064610B337
:101740000023A3642E46DEB9019B5A1C01924FF67A
:10175000FF72934244D00021206802F0A7FB0028CA
:1017600041D10021206802F0B9FB064600283DD196
:101770000021206802F0ADF9C00FE4D00646E2E790
:1017800000236364D4E70123A3640546EDB9019BFC
:101790005A1C01924FF6FF7293422AD00021206812
:1017A00002F084FB05460028C2D14FF0804120683A
:1017B00002F094FB05460028BAD10021206802F00F
:1017C00088F9C30FE2D01D46E0E710F0804F03D147
:1017D000002363643546ABE7012363643546A7E71E
:1017E0004FF08075A4E74FF08055A1E74FF080558A
:1017F0009EE74FF080759BE770B571B10D460446CA
:10180000016D0904006802F0C4FB064638B90021E6
:10181000206802F05EF9286001E04FF00066304673
:1018200070BD2DE9F04387B004460E461546984634
:10183000FEF7C0FF6EB1074694F83430DBB2012BDF
:101840000DD0A36B43F00053A363012007B0BDE8A4
:10185000F083A36B43F00063A3630120F6E700234A
:10186000A36305EB0803E26D93421BD8032384F8BE
:10187000343023680022DA62636C012B00D06D02E1
:101880004FF40071206802F03DFA034680B12268EF
:1018900040F2FF519163A26B1343A363012084F8CC
:1018A0003400D3E7A36B43F00073A3630120CDE7BB
:1018B0004FF0FF3300934FEA4823019390230293A4
:1018C00002230393002304930123059369462068B0
:1018D00002F006FAB8F1010F15D902232363294655
:1018E000206802F03FFA8146B9F1000F24D0236846
:1018F00040F2FF529A63A36B49EA0303A3630120FA
:1019000084F83400A2E7012323632946206802F00B
:1019100011FA8146E8E7206802F0B6F846F825009B
:101920000135072DF7D920360E9B8BB1FEF742FF0C
:10193000C01B0E9B83420BD92068426B40F22A33B6
:101940001A4212D1436B13F4004FEDD04D46E8E735
:10195000236840F2FF529A63A36B43F00043A363F2
:10196000012384F83430032070E7436B13F4807F45
:1019700009D0B8F1010F06D9636C032B03D002F034
:1019800039FA034648BB23685A6B12F0080F2FD16F
:101990005A6B12F0020F36D15A6B12F0200F3DD164
:1019A0002068436B13F4001F43D002F06DF846F833
:1019B000040B0E9B2BB1FEF7FDFEC01B0E9B83425A
:1019C000EED8236840F2FF529A63A36B43F00043C2
:1019D000A363012084F8340038E7226840F2FF5105
:1019E0009163A26B1343A363012084F834002DE7B5
:1019F00040F2FF529A63A36B43F00803A3630120F4
:101A000084F8340022E740F2FF529A63A36B43F05C
:101A10000203A363012084F8340017E740F2FF5269
:101A20009A63A36B43F02003A363012084F834007E
:101A30000CE740F2FF538363012384F83430002025
:101A400004E72DE9F04387B004460E461546984654
:101A5000FEF7B0FE6EB1074694F83430DBB2012BCE
:101A60000DD0A36B43F00053A363012007B0BDE882
:101A7000F083A36B43F00063A3630120F6E7002328
:101A8000A36305EB0803E26D934229D8032384F88E
:101A9000343023680022DA62636C012B00D06D02BF
:101AA0004FF40071206802F02DF90346F0B9B8F147
:101AB000010F26D9202323632946206802F082F9EA
:101AC0008146B9F1000F24D0236840F2FF529A6397
:101AD000A36B49EA0303A363012084F83400C5E73C
:101AE000A36B43F00073A3630120BFE7226840F2B9
:101AF000FF519163A26B1343A363012084F8340068
:101B0000B4E7102323632946206802F043F9814695
:101B1000D7E74FF0FF3300934FEA48230193902318
:101B200002930023039304930123059369462068DD
:101B300002F0D6F810E006EB8501206801F0A7FF5F
:101B40000135072DF7D920360E9B8BB1FEF732FEFB
:101B5000C01B0E9B83420BD92068426B40F21A33A4
:101B60001A4212D1436B13F4804FEDD04D46E8E793
:101B7000236840F2FF529A63A36B49EA0303A3630D
:101B8000012384F83430032070E7436B13F4807F23
:101B900009D0B8F1010F06D9636C032B03D002F012
:101BA00029F90346B8B923685A6B12F0080F1DD102
:101BB0005A6B12F0020F24D15A6B12F0100F2BD077
:101BC00040F2FF529A63A36B43F01003A36301201A
:101BD00084F834004AE7226840F2FF519163A26B17
:101BE0001343A363012084F834003FE740F2FF521F
:101BF0009A63A36B43F00803A363012084F83400C5
:101C000034E740F2FF529A63A36B43F00203A363ED
:101C1000012084F8340029E740F2FF529A6301233F
:101C200084F83430002021E730B4436E9A0F0A70F4
:101C3000C3F383624A70C3F301638B7090F866301C
:101C4000CB7090F865300B7190F864304B7190F860
:101C50006B301B01CB80B0F86A20CB889BB2C2F3FB
:101C600003142343CB8002F00F020A7290F869300C
:101C7000DA094A72C3F380128A72C3F34012CA723D
:101C8000C3F300120A7300224A73426C002A40F028
:101C900092809B0203F440630B61836E0A699B0090
:101CA00003F47F7313430B61C36E0A6942EA9372B4
:101CB0000A61C3F3C2620A75C3F302634B75C26E55
:101CC000C2F30743C2F342548C75C2F38242CA7511
:101CD0005B0003F006030B76C26EC2F307230C7E93
:101CE000C2F3C03222430A760A69013242650C7E91
:101CF000023402FA04F444650A7AD5B20122AA40F9
:101D00008265520A02FB04F2C2654FF40072026659
:101D1000C3F380124A765B0003F07E038B76C36EBA
:101D20008A7EC3F3C01422438A7603F07F03CB7606
:101D3000036F1A0EDC0F0C77C3F341744C77C3F3B7
:101D400082638B77930003F00C03CB77036FCA7F1A
:101D5000C3F381542243CA77C3F3405281F8202051
:101D6000002281F82120C3F3004381F82230036F61
:101D7000C3F3C03481F82340C3F3803481F8244096
:101D8000C3F3403481F82540C3F3003481F8264082
:101D9000C3F3812481F82740C3F3012381F828305D
:101DA000036FC3F3460381F82930012381F82A30F9
:101DB000104630BC7047012A0CD0036840F2FF5235
:101DC0009A63836B43F080538363012280F834204D
:101DD0001046EEE7836E1B0403F47C130B6190F84E
:101DE0006F200B6943EA02230B610A6990F86E3099
:101DF00013430B6190F86D300C690134A402446503
:101E0000C4654FF400728265026681E770B590B0D8
:101E100004460123ADF81230006801F041FE20B9FC
:101E20004FF08065284610B070BD636C032B1AD04C
:101E3000206802F06CF805460028F3D100212068E4
:101E400001F047FE60670421206801F042FEA067B0
:101E50000821206801F03DFEE0670C21206801F0B8
:101E600038FEC4F88000636C032B07D00DF112011B
:101E7000206802F076F805460028D3D1636C032B66
:101E80001DD0BDF8121021650904206802F054F835
:101E900005460028C6D10021206801F01AFE6066C0
:101EA0000421206801F015FEA0660821206801F0D9
:101EB00010FEE0660C21206801F00BFE2067042173
:101EC000206801F006FE000DE06405A92046FFF73A
:101ED000ABFE226D12040023206801F0A5FF054629
:101EE00000289FD1234653F8106B93E807008DE834
:101EF0000700043494E80E00304601F0A9FD91E794
:101F000070B58AB00546002404940594069407949D
:101F10000894762309930AAB13E907008DE80700BC
:101F200004AB0ECB286801F093FD124E3460286894
:101F300001F0B2FD012333600220FEF741FC284688
:101F4000FFF7ECFB40B10346012085F83400AA6B93
:101F50001343AB630AB070BD2846FFF757FF034633
:101F600030B1012085F83400AA6B1343AB63F1E76D
:101F70000020EFE7A0802542A8B110B5044690F8F4
:101F8000343063B1032384F834302046FFF7B8FFC0
:101F90000020A0632063012384F8343010BD037750
:101FA000FEF7B4FAEEE701207047436C0B60836CD8
:101FB0004B60C36C8B60036DCB60436D0B61836DB5
:101FC0004B61C36D8B61036ECB610020704710B510
:101FD00082B0044602A9002341F8043DFFF70CFC3F
:101FE00018B10346A26B1343A3630198C0F34320C7
:101FF00002B010BDD0F818321BB10020C3F8140293
:1020000070470220704710B5D0F81842D0F81C3243
:102010005BB194F80002FF2807D09B6894F8012276
:1020200021469847FF2384F80032002010BD0000AD
:1020300043230380004870474C0000204323038063
:1020400000487047900000204323038000487047F9
:10205000E00000200A23038000487047D4000020DD
:1020600038B50446D0F8185201F050FCC5F80C02FF
:10207000D4F818324BB1D4F81C32DB6805F5037183
:10208000D5F804029847002038BD022038BD000072
:1020900070B505460C46D0F818620B7813F0600254
:1020A00024D0202A25D1CA88CAB113F0800F0AD1C2
:1020B0004B7886F80032CB8886F80132CA883146E0
:1020C00000F078FD15E0D0F81C329B68314660784E
:1020D0009847E2883146284600F057FD09E0D0F8DD
:1020E0001C329B6800224878984702E04B780A2B04
:1020F00001D0002070BD0122014900F046FDF8E743
:10210000E001002010B50446812101F094FB01217B
:10211000204601F090FB8221204601F08CFBD4F890
:10212000183253B1D4F81C325B689847D4F81802BF
:1021300004F034FA0023C4F81832002010BD38B57A
:102140000446037C73BB4FF400730222812101F02B
:1021500061FB4FF4007302220121204601F05AFB7B
:10216000082303228221204601F054FB4FF407701C
:1021700004F00CFA0546C4F8180248B3D4F81C322F
:102180001B6898470023C5F81432C5F81832237C21
:10219000A3B14023D5F804220121204601F0A8FB79
:1021A000002038BD40230222812101F033FB40236F
:1021B00002220121204601F02DFBD1E74FF40073EC
:1021C000D5F804220121204601F092FB002038BD01
:1021D000012038BD19B1C0F81C1200207047022040
:1021E0007047D0F81832C3F80812C3F81022002044
:1021F0007047D0F81832C3F8041200207047D0F8A6
:1022000018229AB108B5037C3BB14023D2F80422CE
:10221000012101F06DFB002008BD4FF40073D2F8DE
:102220000422012101F064FB002008BD0220704758
:1022300030B40468606A29B10D46A36A00EB13400C
:1022400000230CE040EA0240A06212E003F14001EA
:1022500004EB8101496800EB11400133DBB2691ED8
:102260008B42F3DB40EA024005F13F0104EB8101C0
:102270004860002030BC70470368596200207047F6
:1022800000B583B0009313460A4601460348FFF7A2
:10229000C8FA00B1012003B05DF804FB2C4900200E
:1022A00000B583B0009313460A4601460348FFF782
:1022B000C8FB00B1012003B05DF804FB2C490020ED
:1022C00008B50348FFF783FE043818BF012008BD96
:1022D0002C49002008B501460148FFF766FE08BDFD
:1022E0002C49002082B001238DF807309DF80700AB
:1022F00002B0704708B5FFF7F5FF012801D00120B3
:1023000008BD0248FFF738FE08BD00BF2C49002079
:10231000F0B583B000244BE04FEAD40E0EF1080E66
:1023200050F82E2004F00706B6000F27B74022EA27
:1023300007020F6907FA06F6324340F82E2046E0FE
:10234000072600E0002606FA0EF6324302335E4E00
:1023500046F823205D4B1A68EB4302EA03064F68F8
:1023600017F4803F01D045EA0206584A16605268C9
:1023700003EA02064F6817F4003F01D045EA02065F
:10238000524A5660926803EA02064F6817F4801FAB
:1023900001D045EA02064D4A9660D26813404E6865
:1023A00016F4001F01D045EA0203484AD360013405
:1023B0000F2C00F286800123A3400A6803EA02057D
:1023C000AB42F4D14A68022AA6D0122AA4D00668E9
:1023D0004FEA440E032202FA0EF2D24316404F682F
:1023E00007F0030707FA0EF73E4306604E68771EB4
:1023F000012F03D9112E01D0122E0FD1866816405D
:10240000CF6807FA0EF73E438660466826EA030364
:102410004E68C6F30016A64033434360C3681A40B3
:102420008B6803FA0EF31A43C2604B6813F0805FA7
:10243000BDD000230193264B5A6C42F480425A646B
:102440005B6C03F480430193019BA3089E1C1E4A0E
:1024500052F8262004F003064FEA860E0F2606FAED
:102460000EF622EA06021B4FB8423FF46BAF1A4E3B
:10247000B0421AD006F58066B04218D006F58066E4
:10248000B04216D006F58066B04214D006F58066DC
:10249000B04212D006F58066B04210D006F58066D4
:1024A000B0423FF44DAF08264DE701264BE7022628
:1024B00049E7032647E7042645E7052643E70626BE
:1024C00041E703B0F0BD00BF00380140003C0140CF
:1024D00000380240000002400004024043695940B5
:1024E0004161704710B5094C01220949204600F0AE
:1024F000A4FE0849204600F0B7FE07492046FFF732
:1025000069FE204600F0B7FE10BD00BF983F0020D6
:10251000280100201400002000000020114B5B7AED
:10252000DBB2012B01D90120704730B40D4C657A24
:10253000EDB200236355657A04EB85056860607A27
:1025400020440272627AD2B2501CC0B26072303241
:102550000A703A224A702F228A70CB70184630BC1B
:10256000704700BFE401002008B50022FFF7D6FF46
:1025700008BD0000002800F0828038B5044690F8BD
:102580003D30002B41D0242384F83D30226813686D
:1025900023F00103136002F06DF83A4BA3FB002314
:1025A0009B0C2268536021686568374A954231D890
:1025B00001330B6221686368334A934234D85B006D
:1025C000B0FBF3F0C0F30B03032B00D80420C86169
:1025D0002268E369216A0B43136022682369E1687A
:1025E0000B43936022686369A1690B43D36022683F
:1025F000136843F00103136000202064202384F853
:102600003D30206384F83E0038BD80F83C30FDF753
:1026100039FFB8E74FF4967202FB03F31B4AA2FBA3
:1026200003239B090133C4E7A5688DB903EB43027B
:10263000B0FBF2F2C2F30B02B2FA82F25209E2B933
:1026400095B903EB4303B0FBF3F040F40040BEE761
:1026500003EB830202EB8202B0FBF2F2C2F30B0245
:10266000B2FA82F25209EAE703EB830303EB830336
:10267000B0FBF3F040F44040A9E70120A7E70120B8
:10268000704700BF83DE1B43A0860100D34D62105C
:10269000002302E00133DBB201300278002AF9D1D5
:1026A000184670474B88012B00D0704710B5044680
:1026B000C0F80432D0F814329B689847204600F0E6
:1026C00090FA10BD0B7803704B7843708B78CA7802
:1026D00003EB022343800B794A7903EB02238380C7
:1026E0008B79CA7903EB0223C380704710B5044687
:1026F000802101F0AEF80021204601F0AAF810BDBB
:1027000030B583B004460D464A88130A013B062BB8
:1027100000F28180DFE803F00413277F7F637000FD
:10272000D0F810321B680DF10601007C9847BDF807
:10273000062012B1EB88002B71D103B030BD037CB1
:1027400043B9D0F814329B6A0DF106009847022372
:102750004370ECE7D0F81432DB6A0DF106009847BD
:1027600002234370E3E7D2B2052A34D8DFE802F04F
:10277000030B131B232BD0F810325B680DF10601FD
:10278000007C9847D3E7D0F810329B680DF1060122
:10279000007C9847CBE7D0F81032DB680DF10601DA
:1027A000007C9847C3E7D0F810321B690DF1060191
:1027B000007C9847BBE7D0F810325B690DF1060149
:1027C000007C9847B3E7D0F810329B690DF1060101
:1027D000007C9847ABE72946FFF788FFADE7037C0D
:1027E00033B9D0F814325B6B0DF1060098479EE7C1
:1027F0002946FFF77BFFA0E7037C43B9D0F81432EA
:102800001B6B0DF106009847072343708FE729469D
:10281000FFF76CFF91E72946FFF768FF8DE79A42C3
:1028200028BF1A46ADF806200146204600F0ADF953
:1028300083E738B504468B88E3B9CB88D3B98D7864
:1028400005F07F0590F8FC31032B0CD080F8FE5189
:10285000294601F031F8204600F0C3F935B10223D2
:1028600084F8FC3138BDFFF741FF38BD012384F8FF
:10287000FC3138BD2046FFF739FF38BD38B5044676
:102880000D468978254B1970012909D890F8FC313B
:10289000022B09D0032B1CD02946FFF727FF38BD98
:1028A0002946FFF723FF38BD81B14160032380F83B
:1028B000FC3100F0E5FC022803D0204600F091F93D
:1028C00038BD29462046FFF711FF38BD00F089F9D1
:1028D00038BD89B1436899421DD0D9B200F0DDFC02
:1028E0000E4B19786160204600F0CAFC02280DD01A
:1028F000204600F076F938BD022380F8FC314160B3
:1029000000F0CBFC204600F06CF938BD294620468B
:10291000FFF7ECFE38BD00F064F938BDF00100208F
:1029200008B5CB88012B08D190F8FC31022B07D0D9
:10293000032B0DD0FFF7DAFE08BDFFF7D7FE08BD69
:102940000146002341F8083F012200F01EF908BDAE
:102950000122011D00F019F908BD08B590F8FC31FD
:10296000023B012B0CD80123C360D0F804320BB119
:102970000323C360022200F10C0100F006F908BD38
:10298000FFF7B4FE08BD10B5044690F8FC31023BD9
:10299000012B0ED84B88012B00D010BD0023C0F8AE
:1029A0000432D0F814329B689847204600F019F999
:1029B00010BDFFF79BFEF0E708B54B78092B1CD83C
:1029C000DFE803F012181B151B09051B0F0CFFF79E
:1029D00097FE002008BDFFF72CFFFAE7FFF74EFF38
:1029E000F7E7FFF79DFFF4E7FFF7B7FFF1E7FFF722
:1029F00059FEEEE7FFF7C7FFEBE7FFF777FEE8E7E3
:102A000038B504460D4690F8FC31032B11D10B79F3
:102A1000012B03D9FFF76AFE002038BDD0F814322D
:102A20009B689847EB88002BF6D1204600F0D9F838
:102A3000F2E7FFF75BFEEFE738B505460C468A88FC
:102A40000B7803F06003202B11D0D1B26378012BF7
:102A50002BD0002B4DD0032B0DD190F8FC31022B45
:102A60000BD0032B10D02146FFF740FE03E0D0F837
:102A700014329B689847002038BD0029FBD080297C
:102A8000F9D000F0E6FEF6E7638823B919B1802992
:102A900001D000F0DEFED5F814329B6821462846AE
:102AA0009847284600F09DF8E5E790F8FC31022BA6
:102AB00005D0032B0AD02146FFF718FEDBE70029DB
:102AC000D9D08029D7D000F0C4FED4E76388002B8A
:102AD000D1D111F07F0F03D1284600F082F8CAE768
:102AE00000F0C5FED5F814329B6821462846984769
:102AF000F2E790F8FC31022B05D0032B09D02146D8
:102B0000FFF7F4FDB7E711F07F0FB4D000F0A1FE9E
:102B1000B1E712F0800F11D101F07F04103400EB07
:102B200004140434284600F0B0FE70B10123236081
:102B300002222146284600F028F89CE701F07F0495
:102B4000013400EB04140434ECE700232360EFE7C6
:102B5000D0B170B50D4616460446FFF799FD013019
:102B6000400080B23080287003236B70022307E09E
:102B70005A1CD2B20134E9540233DBB20021A95409
:102B800021780029F4D170BD704710B51346022298
:102B9000C0F8F4218361C3610A46002100F09AFE67
:102BA000002010BD08B513460A46002100F092FE31
:102BB000002008BD10B513460322C0F8F421C0F868
:102BC0000831C0F80C310A46002100F091FE0020C7
:102BD00010BD08B513460A46002100F089FE00200A
:102BE00008BD08B50423C0F8F43100231A4619467D
:102BF00000F070FE002008BD08B50523C0F8F431D0
:102C000000231A46194600F073FE002008BD00009C
:102C100030B4036A23F001030362036A44688269E3
:102C200022F073020D682A4323F002038D682B43C0
:102C30000F4DA8421AD005F58065A84214D0002592
:102C40005DB123F00803CD682B4323F0040324F483
:102C500040744D692C438D692C43446082614A68FD
:102C60004263036230BC70470125E9E70125E7E7CD
:102C70000000014030B4036A23F480730362036AE6
:102C80004468C26922F073020D682A4323F400737A
:102C90008D6843EA0523114DA8421DD005F58065D6
:102CA000A84217D0002575B123F40063CD6843EA2C
:102CB000052323F4806324F440544D6944EA051449
:102CC0008D6944EA05144460C2614A68C2630362C4
:102CD00030BC70470125E6E70125E4E7000001402C
:102CE00030B4036A23F480530362036A4468C26900
:102CF00022F4E6420D6842EA052223F400538D686F
:102D000043EA05330C4DA84213D005F58065A8426F
:102D10000DD0002525B124F480444D6944EA851482
:102D20004460C2614A680264036230BC7047012596
:102D3000F0E70125EEE700BF000001400268D3681C
:102D400043F00103D3600268136843F0010313608A
:102D500000207047704770477047704710B50446B1
:102D600003681A6912F0020F11D0DA6812F0020F2C
:102D70000DD06FF002021A610123037603689B698C
:102D800013F0030F70D0FFF7E6FF002323762368CC
:102D90001A6912F0040F12D0DA6812F0040F0ED084
:102DA0006FF004021A610223237623689B6913F4EF
:102DB000407F5FD02046FFF7CEFF002323762368B5
:102DC0001A6912F0080F12D0DA6812F0080F0ED04C
:102DD0006FF008021A61042323762368DB6913F07D
:102DE000030F4ED02046FFF7B6FF0023237623685B
:102DF0001A6912F0100F12D0DA6812F0100F0ED00C
:102E00006FF010021A61082323762368DB6913F43C
:102E1000407F3DD02046FFF79EFF002323762368A6
:102E20001A6912F0010F03D0DA6812F0010F36D1DF
:102E300023681A6912F0800F03D0DA6812F0800F4D
:102E400034D123681A6912F0400F03D0DA6812F007
:102E5000400F32D123681A6912F0200F03D0DA68CC
:102E600012F0200F30D110BDFFF774FF2046FFF79E
:102E700073FF8AE72046FFF76DFF2046FFF76CFFE0
:102E80009BE72046FFF766FF2046FFF765FFACE7AC
:102E90002046FFF75FFF2046FFF75EFFBDE76FF0BC
:102EA00001021A61204602F085F9C1E76FF0800245
:102EB0001A612046FDF768FAC3E76FF040021A6115
:102EC0002046FFF74AFFC5E76FF020021A6120464F
:102ED000FDF759FAC7E700000368454A90424AD017
:102EE000B0F1804F49D0A2F57C42904247D002F524
:102EF0008062904245D002F58062904243D002F554
:102F00007842904235D000221AB123F070034A680B
:102F10001343374A90423AD0B0F1804F50D0A2F5D7
:102F20007C4290424ED002F5806290424CD002F535
:102F3000806290424AD002F57842904248D002F531
:102F40007052904246D002F58062904244D002F521
:102F50008062904242D0A2F59832904240D002F571
:102F6000806290423ED002F5806290420DD00022F5
:102F70000EE00122C8E70122C6E70122C4E70122D0
:102F8000C2E70122C0E70122BEE7012200E00122E0
:102F90001AB123F44073CA68134303608B68C36299
:102FA0000B688362124B984220D003F580639842ED
:102FB0001AD000230BB10B690363012343617047EF
:102FC0000122E5E70122E3E70122E1E70122DFE751
:102FD0000122DDE70122DBE70122D9E70122D7E761
:102FE0000122D5E70122D3E70123E3E70123E1E74B
:102FF00000000140A8B110B5044690F839305BB12B
:10300000022384F83930211D2068FFF765FF012372
:1030100084F83930002010BD80F83830FDF7E6FA2A
:10302000EEE701207047A8B110B5044690F839309A
:103030005BB1022384F83930211D2068FFF74CFF73
:10304000012384F83930002010BD80F83830FDF7B6
:1030500093FAEEE70120704730B4036A23F01003BF
:103060000362036A4468826922F4E6420D6842EA18
:10307000052223F020038D6843EA0513114DA84271
:103080001DD005F58065A84217D0002575B123F045
:103090008003CD6843EA051323F0400324F4406421
:1030A0004D6944EA85048D6944EA8504446082617F
:1030B0004A688263036230BC70470125E6E7012558
:1030C000E4E700BF0000014038B590F83830012B2C
:1030D00066D00D460446012380F83830022380F87C
:1030E00039300C2A1AD8DFE802F00719191920190B
:1030F00019193419191947000068FFF789FD22686A
:10310000936943F0080393612268936923F00403F1
:1031100093612268936929690B439361012384F8C1
:103120003930002084F8380038BD0068FFF794FF7C
:103130002268936943F4006393612268936923F4DE
:103140008063936122689369296943EA012393614B
:10315000E4E70068FFF78EFD2268D36943F00803B7
:10316000D3612268D36923F00403D3612268D36951
:1031700029690B43D361D1E70068FFF7B1FD2268ED
:10318000D36943F40063D3612268D36923F4806375
:10319000D3612268D369296943EA0123D361BDE77A
:1031A000022038BD0F49D1F8883043F47003C1F8CC
:1031B00088300D4B1A6842F001021A6000209860B6
:1031C0001A6822F0847222F480321A60074A5A6028
:1031D0001A6822F480221A60D8604FF000638B6076
:1031E000704700BF00ED00E00038024010300024BE
:1031F00008B338B5044603684CF6CC421A6003683D
:1032000045F255521A60036842685A600368826842
:103210009A60FDF7CFFA05462368DA6832B1FDF708
:10322000C9FA401B3028F7D9032038BD4AF6AA2234
:103230001A60002038BD0120704798B108B50346D8
:10324000D0F8140210B10020C3F8140209B1C3F879
:1032500010121846012380F8FC31027000F08EFA3B
:10326000002008BD0220704719B1C0F814120020D8
:1032700070470220704708B500F0BEFA002008BD74
:1032800008B5D0F8143223B11B68984718B1022052
:1032900008BD022008BD002008BD08B5D0F81432D2
:1032A0005B689847002008BD38B5044600F50275F4
:1032B0002846FFF707FA0123C4F8F431B4F80E32B8
:1032C000C4F8F83194F8081201F01F03012B0ED056
:1032D0003BB1022B10D001F08001204600F0B9FA7A
:1032E00003E029462046FFF767FB002038BD29464A
:1032F0002046FFF785FBF8E729462046FFF79CFBB1
:10330000F3E710B5044619BB1346D0F8F421032A9D
:1033100027D1D0F80C11D0F8102191420BD8D0F859
:1033200014321B691BB190F8FC21032A0ED02046F1
:10333000FFF757FC15E0891AC0F80C118A4228BF24
:103340000A4692B21946FFF744FC0AE09847EEE7B6
:103350000A46D0F814329B691BB190F8FC1103297E
:1033600001D0002010BD11469847FAE710B5044679
:10337000002947D11346D0F8F421022A05D094F849
:103380000032012B3AD0002010BDC169026A91427F
:1033900017D88169B1FBF2F302FB13132BB98A42F0
:1033A00003D8D0F8F831994218D3D4F81432DB6836
:1033B0001BB194F8FC21032A1DD02046FFF71CFC0A
:1033C000DDE78A1AC26192B21946FFF7EBFB0023D0
:1033D0001A461946204600F08BFAD0E70022114623
:1033E000FFF7E0FB0021C4F8F8110B460A4620461F
:1033F00000F07EFAC3E720469847DEE7002384F812
:103400000032C0E70A46D0F814325B69002BBAD00C
:1034100090F8FC110329B6D111469847B3E738B5A7
:10342000044640230022114600F0F4F94025C4F878
:1034300010512B4600228021204600F0EBF9256236
:10344000012384F8FC31D4F818322BB1D4F81432AB
:103450005B68217920469847002038BD0174002020
:10346000704790F8FC3180F8FD31042380F8FC317E
:103470000020704790F8FD3180F8FC310020704743
:1034800008B590F8FC31032B01D0002008BDD0F81E
:103490001432DB69002BF8D09847F6E7002070471C
:1034A000002070470020704708B5012280F8FC21F9
:1034B000D0F81422526801799047002008BD0028F6
:1034C00000F0BB8038B5044690F83C3003B30223CB
:1034D00084F83C302268136823F0020313602268EA
:1034E000136843F001031360FDF764F90546236890
:1034F0005A6812F0010F10D1FDF75CF9401B0A2841
:10350000F5D9032084F83C00002384F83D3038BD11
:1035100080F83D30FCF78CFFD9E75A6812F0010FB4
:103520007CD0A269012A50D01A6822F080021A6069
:10353000E369012B4ED02268136823F04003136027
:10354000236A012B4CD02268136823F020031360F8
:10355000636A012B4AD02268136823F010031360BA
:10356000A36A012B48D02268136823F00803136074
:10357000E36A012B46D02268136823F0040313602A
:103580002168A368E2681343226913436269134305
:103590006268013A1343CB612268136823F0010388
:1035A0001360FDF707F9054623685A6812F0010F0A
:1035B0002ED0FDF7FFF8401B0A28F5D9032084F828
:1035C0003C00002384F83D3038BD1A6842F0800288
:1035D0001A60ADE72268136843F040031360AFE759
:1035E0002268136843F020031360B1E72268136870
:1035F00043F010031360B3E72268136843F0080335
:103600001360B5E72268136843F004031360B7E75B
:103610005B6813F0010F08D0002300E0002333B9EA
:10362000042384F83C30012038BD0123F7E7002053
:103630002064012384F83C3038BD0120704700002D
:103640000268154B9A4200D0704710B586B04FF40F
:103650004043019302230293002403940323049321
:103660000C23059301A90D48FEF752FE00940C4B64
:103670001A6B42F000521A631B6B03F00053009365
:10368000009B224605214D20FCF7CAFD4D20FCF78A
:10369000F9FD06B010BD00BF000004400004024068
:1036A0000038024008B500F56F71D0F8EC03FFF761
:1036B000FBFD08BD08B5C1EBC10293000344D3F87C
:1036C0000422D0F8EC03FFF71CFE08BD08B5C1EBDF
:1036D000C102930003445A6CD0F8EC03FFF746FE96
:1036E00008BD08B5D0F8EC03FFF7CAFE08BD10B559
:1036F0000446C3684BB10121D4F8EC03FFF7AEFEDA
:10370000D4F8EC03FFF78BFE10BD0021F4E70000B6
:1037100010B50446D0F8EC03FFF7A3FE2268D2F8F8
:10372000003E43F00103C2F8003E236A23B1034A7E
:10373000136943F00603136110BD00BF00ED00E004
:1037400008B5D0F8EC03FFF795FE08BD08B5D0F832
:10375000EC03FFF7A5FE08BD08B5D0F8EC03FFF7B2
:103760009DFE08BD08B5D0F8EC03FFF79BFE08BD31
:1037700008B5D0F8EC03FFF797FE08BD0378012BDE
:1037800001D00020704710B503461848C0F8EC334C
:10379000C3F82002164B0360062343600222C26076
:1037A0000023036143618261C36103624362C362B8
:1037B0000363436300F0FEFF90B90C4C4FF40071BB
:1037C0002046FEF759FD802200212046FEF730FDFD
:1037D0004FF4BA7201212046FEF72AFD002010BDE9
:1037E00040F23511034801F0F1FCE6E7BC4100204E
:1037F000000004409C67000808B5D0F8200201F0E2
:1038000049F818B1022803D0022008BD002008BDE5
:10381000012008BD10B51C4613462246D0F82002F0
:1038200001F042FB18B1022803D0022010BD002095
:1038300010BD012010BD08B5D0F8200201F068FBD2
:1038400018B1022803D0022008BD002008BD0120C5
:1038500008BD08B5D0F8200201F0E4FB18B1022839
:1038600003D0022008BD002008BD012008BD08B516
:10387000D0F8200201F009FC18B1022803D0022080
:1038800008BD002008BD012008BDD0F8203211F08D
:10389000800F08D101F07F01C1EBC1018A00134400
:1038A00093F8FA01704701F07F01C1EBC1018A0072
:1038B000134493F83A00704708B5D0F8200201F09D
:1038C000E1FA18B1022803D0022008BD002008BD8B
:1038D000012008BD08B5D0F8200201F07AFB18B12C
:1038E000022803D0022008BD002008BD012008BD29
:1038F00008B5D0F8200201F036FB18B1022803D039
:10390000022008BD002008BD012008BD08B5D0F880
:10391000200201F055FB08BD0C4B1B680C4AA2FBB2
:1039200003235A0A41F2883303FB02F35A1E4BB1B8
:10393000416B134611F0800FF8D040F2FF538363C0
:10394000002070474FF00040704700BF2401002066
:10395000D34D6210144B1B68144AA2FB03235A0A6E
:1039600041F2883303FB02F35A1ECBB1416B13467D
:1039700011F0450FF8D0436B13F0040F03D004236C
:10398000836318467047436B13F0010F04D140F274
:10399000FF538363002070470123836318467047F9
:1039A0004FF00040704700BF24010020D34D62104B
:1039B000104B1B68104AA2FB03235A0A41F28833BA
:1039C00003FB02F35A1E8BB1416B134611F0450FF6
:1039D000F8D0436B13F0040F03D00423836318461D
:1039E000704740F2FF538363002070474FF0004060
:1039F000704700BF24010020D34D6210124B1B689A
:103A0000124AA2FB03235A0A41F2883303FB02F352
:103A10005A1EA3B1416B134611F0450FF8D0436B0A
:103A200013F0040F03D04023836304207047436BDB
:103A300013F0400F06D040238363002070474FF0FF
:103A4000004070470020704724010020D34D6210D1
:103A500084B010B402AC84E80E00039A0B46134302
:103A6000049A1343059A1343069A1343079A134380
:103A7000426822F4FD4222F07F021343436000209B
:103A80005DF8044B04B07047D0F8800070470B68B5
:103A9000C0F8803000207047032303600020704787
:103AA000006800F0030070470B6883604B688A6809
:103AB0001343CA6813430A691343C26822F47F623E
:103AC00022F00F021343C360002070470069C0B2A8
:103AD000704782B000230193143001440191019B8F
:103AE000186802B07047000038B5524B1B68524C42
:103AF000A4FB03435B0A02FB03F2531E002A63D0BC
:103B0000446B1A4614F0450FF7D0436B13F0040FC3
:103B100003D004238363184638BD436B13F0010FB1
:103B200003D001238363184638BD0D460446FFF7D2
:103B3000CDFFA84201D0012038BD40F2FF53A3635E
:103B400000212046FFF7C5FF3C4B0340002B3ED031
:103B500000283EDB10F0804F01D0402038BD10F02F
:103B6000005F01D0802038BD10F0805F34D110F0AC
:103B7000006F34D110F0806F34D110F0807F34D1D9
:103B800010F4000F34D110F4800F34D110F4001F62
:103B900034D110F4801F34D110F4802F34D110F4BC
:103BA000003F34D110F4803F34D110F4004F34D1B1
:103BB00010F4804F34D110F4005F34D110F0080FAE
:103BC00034D04FF4000038BD4FF0004038BD002025
:103BD00038BD4FF0007038BD4FF4807038BD4FF4E1
:103BE000007038BD4FF4806038BD4FF4006038BDC0
:103BF0004FF4805038BD4FF4005038BD4FF4804032
:103C000038BD4FF4004038BD4FF4003038BD4FF49C
:103C1000802038BD4FF4002038BD4FF4801038BDEF
:103C20004FF4001038BD4FF4800038BD4FF48030A1
:103C300038BD00BF24010020D34D621008E0FFFD15
:103C400070B5254B1B68254CA4FB03435C0A41F26D
:103C5000883303FB04F35C1E002B37D0456B2346EF
:103C600015F0450FF7D0436B13F0040F03D0042376
:103C70008363184670BD436B13F0010F03D001231B
:103C80008363184670BD16460D460446FFF71EFFB7
:103C9000A84201D0012070BD40F2FF53A363002170
:103CA0002046FFF716FF10F4604F05D010F4804F48
:103CB00006D04FF4005070BD000C3080002070BD65
:103CC00010F4004F05D04FF4805070BD4FF000400D
:103CD00070BD4FF4803070BD24010020D34D6210C0
:103CE0000B6843624B6883628B68CA6813430A6936
:103CF00013434A691343C26A22F0F7021343C362B3
:103D00000020704730B587B0054601911024029419
:103D100040230393002304934FF48063059301A988
:103D2000FFF7C2FE41F2883221462846FFF7DCFE4B
:103D300007B030BD30B587B005460191112402941B
:103D400040230393002304934FF48063059301A958
:103D5000FFF7AAFE41F2883221462846FFF7C4FE4B
:103D600007B030BD30B587B00546019112240294EA
:103D700040230393002304934FF48063059301A928
:103D8000FFF792FE41F2883221462846FFF7ACFE4B
:103D900007B030BD30B587B00546019118240294B4
:103DA00040230393002304934FF48063059301A9F8
:103DB000FFF77AFE41F2883221462846FFF794FE4B
:103DC00007B030BD30B587B0054601911924029483
:103DD00040230393002304934FF48063059301A9C8
:103DE000FFF762FE41F2883221462846FFF77CFE4B
:103DF00007B030BD30B587B00546002301930C24D1
:103E000002944022039204934FF48063059301A926
:103E1000FFF74AFE034A21462846FFF765FE07B032
:103E200030BD00BF00E1F50530B587B00546019211
:103E30000724029440230393002304934FF48063E8
:103E4000059301A9FFF730FE41F28832214628464A
:103E5000FFF74AFE07B030BD10B586B00446002318
:103E600001930293039304934FF48063059301A994
:103E7000FFF71AFE2046FFF74FFD06B010BD10B544
:103E800086B004464FF4D573019308230293402370
:103E90000393002304934FF48063059301A9FFF774
:103EA00003FE2046FFF7AAFD06B010BD30B587B06F
:103EB0000546019137240294402303930023049381
:103EC0004FF48063059301A9FFF7EEFD41F28832BC
:103ED00021462846FFF708FE07B030BD10B586B072
:103EE000044641F0004141F48011019129230293DD
:103EF00040230393002304934FF48063059301A9A7
:103F0000FFF7D2FD2046FFF753FD06B010BD10B5F8
:103F100086B004460023019302220292C02203923B
:103F200004934FF48063059301A9FFF7BDFD20467C
:103F3000FFF710FD06B010BD10B586B00446019124
:103F400009230293C0230393002304934FF4806357
:103F5000059301A9FFF7A8FD2046FFF7FBFC06B07B
:103F600010BD70B586B005460E46002301930324AC
:103F700002944022039204934FF48063059301A9B5
:103F8000FFF792FD324621462846FFF759FE06B05C
:103F900070BD30B587B0054601910D2402944023D1
:103FA0000393002304934FF48063059301A9FFF763
:103FB0007BFD41F2883221462846FFF795FD07B088
:103FC00030BD000012230B800048704744010020E0
:103FD00004230B80004870475801002008B50A46AA
:103FE00028B105490548FEF7B3FD034808BD02495D
:103FF0000248FEF7ADFDF8E7AC450020DC6700089D
:1040000010B5044C0A4621460348FEF7A1FD2046A0
:1040100010BD00BFAC450020C867000808B50A46BF
:1040200028B105490548FEF793FD034808BD02493C
:104030000248FEF78DFDF8E7AC450020F467000864
:1040400008B50A4628B105490548FEF781FD034831
:1040500008BD02490248FEF77BFDF8E7AC450020A9
:10406000AC67000808B50A4628B105490548FEF7BF
:104070006FFD034808BD02490248FEF769FDF8E7F5
:10408000AC450020B867000830B583B0044603682B
:1040900013F0010F3BD0A94B9B6803F00C03042BDA
:1040A0002CD0A64B9B6803F00C03082B21D063682F
:1040B000B3F5803F4FD0B3F5A02F52D09F4B1A6875
:1040C00022F480321A601A6822F480221A6063682F
:1040D000002B50D0FCF76EFB0546984B1B6813F481
:1040E000003F14D1FCF766FB401B6428F5D9032080
:1040F00099E1924B5B6813F4800FD8D08F4B1B680B
:1041000013F4003F03D06368002B00F0898123681B
:1041100013F0020F5BD0894B9B6813F00C0F3ED05D
:10412000864B9B6803F00C03082B33D0E368002B0D
:1041300074D00122824B1A60FCF73CFB05467F4B92
:104140001B6813F0020F5AD1FCF734FB401B022806
:10415000F5D9032067E1794A136843F4803313608B
:10416000B5E7764B1A6842F480221A601A6842F466
:1041700080321A60ABE7FCF71DFB05466F4B1B68EE
:1041800013F4003FC3D0FCF715FB401B6428F5D99E
:10419000032048E1694B5B6813F4800FC6D1674B7D
:1041A0001B6813F0020F04D0E368012B01D001203B
:1041B00039E16248036823F0F8032169F82292FA92
:1041C000A2F2B2FA82F201FA02F213430360236808
:1041D00013F0080F46D0636993B30122594B1A605C
:1041E000FCF7E8FA0546554B5B6F13F0020F39D127
:1041F000FCF7E0FA401B0228F5D9032013E14F48F1
:10420000036823F0F8032169F82292FAA2F2B2FAC5
:1042100082F201FA02F213430360D8E70022484B0E
:104220001A60FCF7C7FA0546444B1B6813F0020FEF
:10423000CDD0FCF7BFFA401B0228F5D90320F2E0ED
:104240000022404B1A60FCF7B5FA05463B4B5B6F0A
:1042500013F0020F06D0FCF7ADFA401B0228F5D987
:104260000320E0E0236813F0040F20D1A369002BA2
:1042700000F0D880314A926802F00C02082A00F05F
:10428000D480022B00F0808000222F4B1A60FCF7B4
:1042900091FA0446294B1B6813F0007F00F0BE80A2
:1042A000FCF788FA001B0228F4D90320BBE00023A6
:1042B0000193224B1A6C42F080521A641B6C03F07B
:1042C00080530193019B214A136843F48073136068
:1042D000FCF770FA05461D4B1B6813F4807F06D16E
:1042E000FCF768FA401B0228F5D903209BE0A3687D
:1042F000012B1DD0052B2BD0104B1A6F22F0010281
:104300001A671A6F22F004021A67A36853B3FCF706
:1043100051FA0546094B1B6F13F0020FA6D1FCF7AB
:1043200049FA401B41F288339842F3D903207AE0DE
:10433000024A136F43F001031367E6E700380240B7
:1043400000004742800E4742600047420070004034
:10435000374B1A6F42F004021A671A6F42F00102DB
:104360001A67D2E7FCF726FA0546314B1B6F13F0AC
:10437000020F3FF47BAFFCF71DFA401B41F288337C
:104380009842F2D903204EE000222A4B1A60FCF733
:1043900011FA0546264B1B6813F0007F06D0FCF788
:1043A00009FA401B0228F5D903203CE0E369226AA0
:1043B0001343616A47F6C07292FAA2F2B2FA82F22D
:1043C00001FA02F21343A26A5208013A4FF4403153
:1043D00091FAA1F1B1FA81F18A401343E16A4FF0F9
:1043E000706292FAA2F2B2FA82F201FA02F2134376
:1043F0000F4A536001220F4B1A60FCF7DBF90446A9
:104400000B4B1B6813F0007F06D1FCF7D3F9001BA0
:104410000228F5D9032006E0002004E0002002E095
:10442000012000E0002003B030BD0120FBE700BF09
:104430000038024060004742214B9B6803F00C03A8
:10444000042B3AD0082B01D01E4870471C4B5868EB
:1044500000F03F005B6813F4800F1ED01A4AB2FBD5
:10446000F0F2174B586847F6C073184093FAA3F35D
:10447000B3FA83F3D84000FB02F0114B5B6803F4FE
:1044800040334FF4403292FAA2F2B2FA82F2D340B1
:1044900001335B00B0FBF3F070470A4AB2FBF0F265
:1044A000074B586847F6C073184093FAA3F3B3FA62
:1044B00083F3D84000FB02F0DFE70348704700BFFA
:1044C000003802400024F40040787D01624B1B68F4
:1044D00003F00F038B4209D2CBB25F4A137013680B
:1044E00003F00F03994201D00120704770B50368B3
:1044F00013F0020F06D0594A936823F0F003846842
:10450000234393600D460446036813F0010F64D003
:104510004368012B26D09A1E012A2AD94F4A1268D5
:1045200012F0020F00F096804C498A6822F00302D4
:1045300013438B60FCF73EF906466368012B1FD0DE
:10454000022B2CD0032B39D0444B9B6813F00C0F5B
:1045500043D0FCF72FF9801B41F288339842F3D9FE
:10456000032070BD3D4A126812F4003FDCD10120E7
:1045700070BD3A4A126812F0007FD5D1012070BD9B
:10458000364B9B6803F00C03042B26D0FCF712F982
:10459000801B41F288339842F2D9032070BD2F4B23
:1045A0009B6803F00C03082B17D0FCF703F9801B62
:1045B00041F288339842F2D9032070BD274B9B68A3
:1045C00003F00C030C2B08D0FCF7F4F8801B41F22D
:1045D00088339842F2D9032070BD1F4B1B6803F04B
:1045E0000F039D4209D2EAB21B4B1A701B6803F0FD
:1045F0000F039D4201D0012070BD236813F0040F0A
:1046000006D0164A936823F4E053E1680B439360A5
:10461000236813F0080F07D0104A936823F460430F
:10462000216943EAC1039360FFF706FF0B4B9B68C8
:1046300003F0F003F02292FAA2F2B2FA82F2D3402F
:10464000074AD35CD840074B18600020FCF7CAF833
:10465000002070BD012070BD003C024000380240C7
:104660008467000824010020014B1868704700BFD0
:104670002401002008B5FFF7F7FF074B9B6803F400
:10468000E0534FF4E05292FAA2F2B2FA82F2D3402F
:10469000024AD35CD84008BD003802409467000845
:1046A00008B5FFF7E1FF074B9B6803F460434FF445
:1046B000604292FAA2F2B2FA82F2D340024AD35C8A
:1046C000D84008BD00380240946700080F230360FB
:1046D0000B4B9A6802F0030242609A6802F0F00203
:1046E00082609A6802F4E052C2609B68DB0803F4BF
:1046F000E0530361034B1B6803F00F030B6070472B
:1047000000380240003C02402DE9F04383B00746E8
:104710000D46D0F80080CA00521A93000344DE6CA4
:104720001A6DB61A1B6C9E4200D91E4606F103098B
:104730004FEA990915E006F103094FEA9909EB00E0
:104740005B1B9C003C44616C3B7C0093B3B2EAB2BF
:104750004046FCF79FFE636C33446364236D33442F
:104760002365414608EB451303F510639B699BB233
:10477000994512D2EA00521B93003B441A6DDB6C40
:104780009A420AD24BB19E1AC5EBC50293003B4434
:104790001B6C9E42CFD91E46CDE73EB90123AB40EC
:1047A000D1F8345825EA0305C1F83458002003B085
:1047B000BDE8F08300286BD0F0B58BB0044603232E
:1047C00080F8B933FEF73CFF2068FCF7AFFA2546C6
:1047D00055F8107B6E460FCD0FC60FCD0FC695E86E
:1047E000030086E80300231D0ECB3846FCF75AFA77
:1047F00000212068FCF7A0FA002210E0D100891AFD
:104800008B002344012183F8391083F83820DA879C
:10481000002183F83B1019645964D96401320E2ACF
:10482000ECD9002218E0D100891A8B002344002122
:1048300083F8F91183F8F821DA8783F8FB11C3F8BC
:104840000012C3F80412C3F80C12236802F14000EE
:1048500003EB8003596001320E2AE4D9254655F84E
:10486000107B6E460FCD0FC60FCD0FC695E8030027
:1048700086E80300231D0ECB3846FCF773FA0123AC
:1048800084F8B9332068FCF7B0FE00200BB0F0BD0F
:104890000120704790F8B833012B01D102207047F6
:1048A00010B50446012380F8B8330068FCF791FE88
:1048B0002068FCF735FA002084F8B80310BD00002A
:1048C0002DE9F047044607683846FCF7C5FE08B1F5
:1048D000BDE8F08706462068FCF793FE0028F7D075
:1048E0002068FCF78EFE10F0020F04D02268536996
:1048F00003F0020353612068FCF783FE10F4002FDD
:1049000075D135462068FCF77CFE10F4802F40F00E
:10491000D2802068FCF775FE0028C0F23E81206836
:10492000FCF76FFE10F4006F0AD0D7F8083813F0C8
:10493000010F40F041812268536903F40063536121
:104940002068FCF75EFE10F4805F40F0398120683B
:10495000FCF757FE10F4005F40F082812068FCF7FE
:1049600050FE10F0100F14D02268936923F010034A
:1049700093613E6A06F00F08C6F34343022B00F032
:104980000382062B00F021822268936943F0100312
:1049900093612068FCF735FE10F0080F40F0298283
:1049A0002068FCF72EFE10F4801F40F02B82206858
:1049B000FCF727FE10F4001F40F02E822068FCF761
:1049C00020FE10F0804F40F031822068FCF719FE85
:1049D00010F0040F3FF47CAF23685D6815F0040FFE
:1049E00040F02D8223685A6815435D6070E72068A7
:1049F000FCF70BFE8046354621E0E900491B8A00A2
:104A00002244D2F800121B69C3F31203C91AC2F878
:104A10001012D2F80012D2F804320B44C2F8043259
:104A200028E019F0080F3DD119F0100F04D007EB62
:104A300045131022C3F8082B01354FEA5808B8F186
:104A4000000F3FF45FAF18F0010FF5D05FFA85FA61
:104A500051462068FCF7E9FD814610F0010FE0D0D7
:104A600007EB45130122C3F8082B03F530632269D5
:104A7000012AC2D051462046FEF71CFE2369012BB5
:104A8000CFD1002DCDD1C5EBC50293002344D3F87F
:104A90000C32002BC5D104F56F7201212068FCF7A0
:104AA000FBFDBEE72046FEF7FDFD07EB45130822A0
:104AB000C3F8082BB8E72068FCF7AFFD8046354601
:104AC0002EE0EA00521B93002344196C5A6C0A44EE
:104AD0005A6446E019F0080F04D007EB451308228A
:104AE000C3F8082919F0100F04D007EB4513102262
:104AF000C3F8082919F0400F04D007EB45134022F2
:104B0000C3F8082919F0020F04D007EB451302225D
:104B1000C3F8082919F0800F3AD101354FEA580837
:104B2000B8F1000F3FF4F5AE18F0010FF5D05FFAC1
:104B300085FA51462068FCF781FD814610F0010F8F
:104B4000C8D0012202FA05F0D7F8343823EA00036E
:104B5000C7F8343807EB4513C3F808292369934293
:104B6000AFD051462046FEF7B1FD2369012BB1D1EC
:104B7000002DAFD1C5EBC50293002344DB6C002BA5
:104B8000A8D104F56F7201212068FCF785FDA1E72B
:104B900029462046FFF7B8FDBFE7D7F8043823F0D1
:104BA0000103C7F804382046FEF7CAFD226853699E
:104BB00003F000435361B2E62046FEF7A9FDBAE6D2
:104BC000B84607F50069D9F8043023F00103C9F8A5
:104BD000043010212068FCF76DF907E008EB46135C
:104BE000FF22C3F80829C3F8082B013663689E42E8
:104BF000F4D34FF0FF33C9F81830D9F81C3043F024
:104C00000113C9F81C30236BEBB1D9F8843043F0A1
:104C10000B03C9F88430D9F8443043F00B03C9F8CA
:104C20004430D7F8003823F4FE63C7F8003804F5A1
:104C30006F72217C2068FCF72FFD2268536903F412
:104C40008053536183E6D9F8143043F00B03C9F85D
:104C50001430D9F8103043F00B03C9F81030E0E7F6
:104C60002068FCF7FDFC2268D36823F47053D360FE
:104C70002068FCF74CF990B90023E3604FF400730F
:104C800063612268D36843F41053D3602046FEF773
:104C90002EFD2268536903F4005353615EE603233B
:104CA000E36040236361FFF7DFFC674B0344674A1F
:104CB000934205D82268D36843F47053D360E5E784
:104CC000634B0344634A934205D82268D36843F494
:104CD0006053D360DAE7A0F57403A3F510535E4A7E
:104CE000934205D82268D36843F45053D360CDE78C
:104CF000A0F18373A3F5E743584A934205D822688D
:104D0000D36843F44053D360C0E7554B0344554A3E
:104D1000934205D82268D36843F43053D360B5E793
:104D2000514B0344514A934205D82268D36843F457
:104D30002053D360AAE74E4B03444E4A934205D812
:104D40002268D36843F41053D3609FE7A0F1B77390
:104D5000A3F55853484A934205D82268D36843F4D0
:104D60000053D36092E7454B0344454A934205D82C
:104D70002268D36843F4E053D36087E72268D3689E
:104D800043F4C053D36081E747F6F0731E423FF40B
:104D9000FBAD36094FEAC80AAAEB08034FEA8309BC
:104DA000A144C6F30A02D9F804123846FCF786FB80
:104DB000C6F30A06D9F804323344C9F80432D9F8E4
:104DC00010321E44C9F81062DEE5082204F56F7146
:104DD0003846FCF773FBC6F30A164FEAC803A3EB89
:104DE00008018A002244D2F810321E44C2F8106230
:104DF000CAE52046FEF775FC2268536903F00803F4
:104E00005361CDE5E9B22046FEF7A6FC226853695E
:104E100003F480135361CAE5E9B22046FEF796FC1D
:104E20002268536903F400135361C7E52046FEF777
:104E300099FC2268536903F080435361C5E520461D
:104E4000FEF796FCCEE500BF405327FFFF340C0071
:104E5000401E1BFF3F420F007F4F12001FD6130062
:104E600060B6E5FE5FE3160000D3CEFE3F771B0081
:104E7000C05BB3FEBF9121001F753800E05459FE9E
:104E8000DF9C410090F8B833012B01D1022070471C
:104E900010B50446012380F8B8330068FCF789FB9D
:104EA000002084F8B80310BD70B54DB2002D18DB9A
:104EB00001F07F06C6EBC606B40004F5FC7404449A
:104EC00001F07F012170ED0F6570A260E37005B104
:104ED000E180022B0DD090F8B833012B0CD10220C9
:104EE00070BD01F07F06C6EBC606B400383404443A
:104EF000E6E700232371EEE70546012380F8B83387
:104F000021460068FCF723F8002085F8B80370BD3F
:104F100010B54AB2002A12DB01F07F04C4EBC404CE
:104F2000A30003F5FC73034401F07F011970D20F55
:104F30005A7090F8B823012A09D1022010BD01F05F
:104F40007F04C4EBC404A30038330344ECE70446F5
:104F5000012280F8B82319460068FCF741F80020C8
:104F600084F8B80310BD70B501F07F06F500A91BE9
:104F70008C0004F5FC740119AD1BAC000444C4F8AA
:104F80000422C4F80C320023C4F8103284F8F9313A
:104F900084F8F8610369012B06D066B1DAB20068C3
:104FA000FCF796F8002070BDC6EBC605AC000444C3
:104FB000C4F80822F1E7DAB20068FCF7BBF9F1E7C0
:104FC00001F00F01C1EBC1018B001844B0F81002D1
:104FD000704770B501F07F06F500A91B8C003834CE
:104FE0000119AD1BAC0004446264E3640023236533
:104FF000012384F8393084F838600369012B06D026
:105000005EB1DAB20068FCF763F8002070BDC6EB51
:10501000C605AC000444A264F2E7DAB20068FCF70B
:1050200089F9F2E738B54AB2002A12DBC1EBC104B4
:10503000A30003F5FC73034401249C7001F07F047A
:105040001C70D20F5A7090F8B823012A09D102209F
:1050500038BD01F07F04C4EBC404A300383303441B
:10506000EAE70546012280F8B82319460068FCF7F4
:1050700039FA1CB1002085F8B80338BD05F56F7208
:10508000297C2868FCF708FBF4E710B54AB2002A2F
:1050900012DBC1EBC104A30003F5FC73034400243D
:1050A0009C7001F07F011970D20F5A7090F8B823EC
:1050B000012A09D1022010BD01F07F04C4EBC40411
:1050C000A30038330344EAE70446012280F8B823FA
:1050D00019460068FCF738FA002084F8B80310BDC0
:1050E000054B064A1A6000225A609A60DA601A611B
:1050F0005A619A61704700BF2C490020002C014082
:1051000086B0002201921A4B196B41F0800119639D
:10511000196B01F08001019101990292196B41F024
:1051200004011963196B01F00401029102990392C1
:10513000196B41F001011963196B01F00101039131
:1051400003990492196B41F002011963196B01F084
:1051500002010491049905921A6B42F008021A6345
:105160001B6B03F008030593059B06B0704700BF57
:1051700000380240FEE7000008B5084C4FF48051AB
:105180002046FDF7ABF94FF400512046FDF7A6F994
:105190004FF47A70FBF714FBEFE700BF000C0240FE
:1051A00008B5FDF79FF9FBF76FFD012000F0EBFD5F
:1051B000FBE7000008B50268034B9A4200D008BD27
:1051C000FBF7F0FAFBE700BF00000140FEE700003C
:1051D00000B58BB02A482B4B0360002343608360EB
:1051E000C3600361FDF71FFF58BB002308930993B9
:1051F00008A92348FBF79EF840BB602301930022D7
:1052000002920392059201A91D48FDF75DFF10BBB4
:1052100004220DEB02011A48FDF756FF00BB0822DD
:1052200001A91748FDF750FFF8B90C2201A914484D
:10523000FDF74AFFF0B91248FBF702FA0BB05DF830
:1052400004FB4FF4F3711048FFF7C0FF40F2ED117B
:105250000D48FFF7BBFF4FF4FB710B48FFF7B6FF9C
:1052600040F2FB110848FFF7B1FF4FF40071064808
:10527000FFF7ACFF40F205210348FFF7A7FF00BF8F
:1052800010480020000C00400468000800B58BB0F6
:105290001F48204B0360002343608360C3600361A9
:1052A000FDF7C1FEF8B900230893099308A918482F
:1052B000FBF740F8E0B960230193002302930393C6
:1052C0000593082201A91248FDF7FEFEA8B90C2299
:1052D00001A90F48FDF7F8FEA0B90D48FBF7B0F99A
:1052E0000BB05DF804FB4FF4DE710B48FFF76EFF67
:1052F00040F2C3110848FFF769FF4FF4E671064812
:10530000FFF764FF40F2D1110348FFF75FFF00BFD2
:105310004C480020000400400468000800B58BB031
:105320001F484FF080430360002343608360C360E5
:105330000361FDF778FEF8B900230893099308A9E3
:105340001748FAF7F7FFE0B96023019300230293AF
:1053500003930593082201A91148FDF7B5FEA8B9EA
:105360000C2201A90E48FDF7AFFEA0B90C48FBF7CF
:1053700067F90BB05DF804FB4FF4C9710948FFF7FA
:1053800025FF40F299110748FFF720FF4FF4D17134
:105390000448FFF71BFF40F2A7110248FFF716FF72
:1053A000B04900200468000800B589B01748184BC0
:1053B0000360002343608360C3600361FDF71AFE4E
:1053C000A0B91248FDF72FFEA8B96023019300226F
:1053D00002920392059201A90C48FDF775FE78B977
:1053E0000A48FBF72DF909B05DF804FB40F21921DA
:1053F0000848FFF7EBFE40F21E210648FFF7E6FEE5
:1054000040F227210348FFF7E1FE00BFD04800200B
:10541000001C00400468000800B589B01748184B0C
:105420000360002343608360C3600361FDF7E2FD16
:10543000A0B91248FDF7F7FDA8B960230193002237
:1054400002920392059201A90C48FDF73DFE78B93E
:105450000A48FBF7F5F809B05DF804FB40F23B2180
:105460000848FFF7B3FE4FF410710648FFF7AEFE91
:1054700040F249210348FFF7A9FE00BF304A00204F
:10548000002000400468000808B50C480C4B03607D
:105490001023436000238360C36003614361836121
:1054A000C361036243628362C362FEF708F800B916
:1054B00008BD40F243110348FFF788FEEC49002085
:1054C000006400400468000808B50C480C4B0360F9
:1054D0000C4B436000238360C3604FF48042026141
:1054E00043618361C3610362FDF744F800B908BDFD
:1054F00040F257110448FFF769FE00BFB047002093
:1055000000540040A08601000468000808B509485E
:10551000094B03600023436040228260C260036144
:1055200000F022F900B908BD40F25B210348FFF703
:105530004DFE00BF0C490020002C0040046800080C
:1055400008B50848084B03600023436040F6FF732A
:105550008360FDF74DFE00B908BD40F265110348B8
:10556000FFF734FE044800200030004004680008C3
:1055700008B50648064B036000F016FC00B908BDEC
:1055800040F271110348FFF721FE00BF20490020BF
:10559000000806500468000800B585B01548164B91
:1055A0000360002343608360036183610362C3621D
:1055B000124A8262C3600122C26103634261FBF747
:1055C000EDF968B90A2300930123019300230293A4
:1055D00069460848FBF70CFA38B905B05DF804FBDA
:1055E0004FF491710648FFF7F1FD4FF496710448AE
:1055F000FFF7ECFD88480020002201400100000F69
:105600000468000800B595B0002101912C4B1A6C7C
:1056100042F080521A641B6C03F080530193019B8B
:105620000291284B1A6842F480421A601B6803F406
:1056300080430293029B092308934FF4803309931C
:1056400001230D9302230E934FF480020F920F2239
:1056500010929022119212930523139308A8FEF73B
:1056600013FD20BB0F230393022304930023059310
:105670004FF4A05306934FF480530793032103A8DC
:10568000FEF724FFB8B9FEF7EFFF0F4BA3FB003086
:105690008009FAF703FE0420FAF716FE00220F2114
:1056A0004FF0FF30FAF7BCFD15B05DF804FBEF21B9
:1056B0000648FFF78BFDFD210448FFF787FD00BF7B
:1056C0000038024000700040D34D621004680008AA
:1056D00000B589B0FBF74CF8FFF794FFFFF710FD1A
:1056E000FFF776FDFFF7D2FDFFF718FEFFF75CFE30
:1056F000FFF792FEFFF7C8FEFFF7F2FCFFF7E4FEAC
:10570000FFF704FFFFF71CFFFFF732FFFFF744FF2F
:10571000002401940094234680220D490D4800F096
:1057200099FC01940094234680220B490B4800F019
:1057300091FC03AD0A4E0FCE0FC533682B60214696
:1057400003A800F006FB074B186000F0FDFAFEE727
:1057500010680008795100081C680008755100089D
:105760005C670008AC47002088B110B50446FAF722
:10577000CDFF2268E36843F0800313602268236949
:1057800061680B43A1680B435360002010BD0120EA
:10579000704700F1080343604FF0FF328260C3603E
:1057A000036100230360704700230361704743686F
:1057B0004B609A688A609A685160996008610368D2
:1057C00001330360704730B40D68B5F1FF3F02D07C
:1057D00000F1080202E0026904E01A4653681C68FE
:1057E000A542FAD253684B6099608A6051600861A3
:1057F00003680133036030BC704703694268816805
:1058000091608268416851605A68904205D00022D8
:105810000261186801381860704782685A60F6E7BC
:105820000B4B1B68B3F1FF3F08D04FF0500383F3DD
:105830001188BFF36F8FBFF34F8FFEE74FF0500318
:1058400083F31188BFF36F8FBFF34F8FFEE700BF65
:105850005C01002006480068006880F3088862B692
:1058600061B6BFF34F8FBFF36F8F00DF00BF000043
:1058700008ED00E0DFF80C00016841F47001016000
:105880007047000088ED00E04FF0807340F8043C62
:1058900021F0010140F8081C054B40F80C3C40F891
:1058A000202C6FF0020340F8243C4438704700BFBE
:1058B0002158000800000000000000000000000067
:1058C000074B19680868B0E8F04F80F30988BFF308
:1058D0006F8F4FF0000080F311887047AFF30080A6
:1058E000103E00204FF0500383F31188BFF36F8FF9
:1058F000BFF34F8F0A4A136801331360012B0DD198
:10590000084B1B6813F0FF0F08D04FF0500383F3D0
:105910001188BFF36F8FBFF34F8FFEE7704700BF53
:105920005C01002004ED00E0094B1B6843B94FF017
:10593000500383F31188BFF36F8FBFF34F8FFEE7E0
:10594000013B034A13600BB983F31188704700BF12
:105950005C010020000000000000000000000000CA
:10596000EFF30980BFF36F8F154B1A681EF0100F0D
:1059700008BF20ED108A20E9F04F10604DF8043D7B
:105980004FF0500080F31188BFF34F8FBFF36F8F3C
:1059900000F050FD4FF0000080F3118808BC19683A
:1059A0000868B0E8F04F1EF0100F08BFB0EC108A86
:1059B00080F30988BFF36F8F704700BFAFF300809B
:1059C000103E002008B54FF0500383F31188BFF359
:1059D0006F8FBFF34F8F00F0B5FB18B14FF08052BF
:1059E000024B1A60002383F3118808BD04ED00E028
:1059F000064B1B68064AA2FB03239B09013B054A91
:105A000013600722044B1A60704700BF2401002076
:105A1000D34D621014E000E010E000E0314B1A6852
:105A2000314B9A421AD02F4B1A68304B9A421ED0F3
:105A300000B583B02E4B1A78D2B20192FF221A70B1
:105A40001B78DBB28DF803309DF8033003F0500370
:105A5000284A13700722284B1A601BE04FF05003AE
:105A600083F31188BFF36F8FBFF34F8FFEE74FF0C3
:105A7000500383F31188BFF36F8FBFF34F8FFEE79F
:105A80001D4A1368013B13609DF803305B00DBB2D5
:105A90008DF803309DF8033013F0800FF0D1164AD3
:105AA00013681B0203F4E0631360019BDBB2104A2E
:105AB0001370124B1A6842F470021A601A6842F0AE
:105AC00070421A60FFF794FF00220D4B1A60FFF737
:105AD000D1FE0C4A136843F040431360FFF7BAFE4F
