:020000040800F2
:10000000000002208D26000831180008331800086F
:1000100035180008371800083918000800000000DB
:10002000000000000000000000000000211B00088C
:100030003B18000800000000C11B00083D18000824
:10004000DD260008DD260008DD260008DD26000884
:10005000DD260008DD260008DD260008DD26000874
:10006000DD260008DD260008DD260008DD26000864
:10007000DD260008DD260008DD260008DD26000854
:10008000DD260008DD260008DD260008DD26000844
:10009000DD260008DD260008DD260008DD26000834
:1000A000DD26000845180008DD260008DD260008CA
:1000B000DD260008DD260008DD260008DD26000814
:1000C000DD260008DD260008DD260008DD26000804
:1000D000DD260008DD260008DD260008DD260008F4
:1000E000DD260008DD260008DD260008DD260008E4
:1000F000DD260008DD260008DD260008DD260008D4
:10010000DD260008DD260008DD260008DD260008C3
:10011000DD260008DD260008DD260008DD260008B3
:10012000DD260008DD260008DD260008DD260008A3
:10013000DD2600080000000000000000DD260008A9
:10014000DD260008DD260008DD260008DD26000883
:10015000DD260008DD260008DD260008DD26000873
:10016000DD260008DD260008DD260008DD26000863
:10017000DD260008DD260008000000000000000069
:08018000DD260008DD26000861
:1001900010B5054C237833B9044B13B10448AFF3C1
:1001A00000800123237010BD080000200000000023
:1001B000282700080C4B43B10C480D4910B5AFF38C
:1001C00000800C48036823B910BD0A48036833B99E
:1001D0007047094B002BF7D0BDE810401847064B7D
:1001E000002BF5D0184700BF0000000028270008AA
:1001F0000C000020080000200000000090F83830BB
:10020000012B22D030B4012280F83820022380F85C
:1002100039300468636823F07003636004686368BE
:100220000D682B4363600468A36823F08003A36018
:100230000468A36849680B43A36080F83920002351
:1002400080F83830184630BC70470220704770473D
:1002500070470000074AD36823F4E0631B041B0CBB
:10026000000200F4E060184340F0BF6040F400304A
:10027000D060704700ED00E030B4164BDB68C3F38C
:100280000223C3F10704042C28BF04241D1D062DDE
:1002900017D9033B012505FA04F4013C214099409C
:1002A00005FA03F3013B1340194300280BDB090156
:1002B000C9B200F1604000F5614080F8001330BC25
:1002C00070470023E6E700F00F000901C9B2024BB6
:1002D0001954F4E700ED00E014ED00E0420900F0ED
:1002E0001F00012303FA00F0014B43F8220070477E
:1002F00000E100E00138B0F1807F0AD2064B58607F
:10030000F021064A82F823100020986007221A6024
:1003100070470120704700BF10E000E000ED00E0F2
:10032000042805D0054A136823F0040313607047BE
:10033000024A136843F004031360704710E000E0C2
:1003400008B50320FFF786FF002211466FF00B006F
:10035000FFF792FF002211466FF00A00FFF78CFFB3
:10036000002211466FF00900FFF786FF00221146B8
:100370006FF00400FFF780FF002211466FF00300CA
:10038000FFF77AFF00220F216FF00100FFF774FFE3
:1003900000220F214FF0FF30FFF76EFF08BD000075
:1003A0000268124B9A4200D0704700B587B0C02354
:1003B0000193122302930123039303230493042341
:1003C00005930DEB03010A4801F042F90023009365
:1003D000084B1A6C42F400121A641B6C03F40013ED
:1003E0000093009B07B05DF804FB00BF0054004081
:1003F00000040240003802400368B3F1804F00D08F
:10040000704782B000230193054B1A6C42F0010241
:100410001A641B6C03F001030193019B02B0EFE728
:10042000003802400368B3F1804F00D0704700B538
:1004300087B00123019302220292002203920492C8
:10044000059301A9024801F003F907B05DF804FB28
:100450000000024030B583B00446036813F0010F7A
:100460003BD0A94B9B6803F00C03042B2CD0A64B6C
:100470009B6803F00C03082B21D06368B3F5803F21
:100480004FD0B3F5A02F52D09F4B1A6822F4803280
:100490001A601A6822F480221A606368002B50D018
:1004A00000F0C6FC0546984B1B6813F4003F14D1BE
:1004B00000F0BEFC401B6428F5D9032099E1924B63
:1004C0005B6813F4800FD8D08F4B1B6813F4003F88
:1004D00003D06368002B00F08981236813F0020FBA
:1004E0005BD0894B9B6813F00C0F3ED0864B9B680A
:1004F00003F00C03082B33D0E368002B74D00122E7
:10050000824B1A6000F094FC05467F4B1B6813F089
:10051000020F5AD100F08CFC401B0228F5D90320B1
:1005200067E1794A136843F480331360B5E7764B8B
:100530001A6842F480221A601A6842F480321A6003
:10054000ABE700F075FC05466F4B1B6813F4003FEA
:10055000C3D000F06DFC401B6428F5D9032048E1AE
:10056000694B5B6813F4800FC6D1674B1B6813F0AF
:10057000020F04D0E368012B01D0012039E1624869
:10058000036823F0F8032169F82292FAA2F2B2FA82
:1005900082F201FA02F213430360236813F0080F9A
:1005A00046D0636993B30122594B1A6000F040FCB6
:1005B0000546554B5B6F13F0020F39D100F038FC44
:1005C000401B0228F5D9032013E14F48036823F0AC
:1005D000F8032169F82292FAA2F2B2FA82F201FA41
:1005E00002F213430360D8E70022484B1A6000F080
:1005F0001FFC0546444B1B6813F0020FCDD000F0E2
:1006000017FC401B0228F5D90320F2E00022404BE2
:100610001A6000F00DFC05463B4B5B6F13F0020FB8
:1006200006D000F005FC401B0228F5D90320E0E0CD
:10063000236813F0040F20D1A369002B00F0D880A9
:10064000314A926802F00C02082A00F0D480022B92
:1006500000F0808000222F4B1A6000F0E9FB044676
:10066000294B1B6813F0007F00F0BE8000F0E0FB18
:10067000001B0228F4D90320BBE000230193224B86
:100680001A6C42F080521A641B6C03F08053019381
:10069000019B214A136843F48073136000F0C8FB88
:1006A00005461D4B1B6813F4807F06D100F0C0FB8C
:1006B000401B0228F5D903209BE0A368012B1DD025
:1006C000052B2BD0104B1A6F22F001021A671A6FFC
:1006D00022F004021A67A36853B300F0A9FB054691
:1006E000094B1B6F13F0020FA6D100F0A1FB401BBA
:1006F00041F288339842F3D903207AE0024A136F1B
:1007000043F001031367E6E7003802400000474268
:10071000800E47426000474200700040374B1A6F1E
:1007200042F004021A671A6F42F001021A67D2E718
:1007300000F07EFB0546314B1B6F13F0020F3FF4B8
:100740007BAF00F075FB401B41F288339842F2D931
:1007500003204EE000222A4B1A6000F069FB054698
:10076000264B1B6813F0007F06D000F061FB401B96
:100770000228F5D903203CE0E369226A1343616A49
:1007800047F6C07292FAA2F2B2FA82F201FA02F2CB
:100790001343A26A5208013A4FF4403191FAA1F191
:1007A000B1FA81F18A401343E16A4FF0706292FA24
:1007B000A2F2B2FA82F201FA02F213430F4A536034
:1007C00001220F4B1A6000F033FB04460B4B1B68F1
:1007D00013F0007F06D100F02BFB001B0228F5D997
:1007E000032006E0002004E0002002E0012000E0F9
:1007F000002003B030BD0120FBE700BF00380240FD
:1008000060004742214B9B6803F00C03042B3AD055
:10081000082B01D01E4870471C4B586800F03F0061
:100820005B6813F4800F1ED01A4AB2FBF0F2174B2C
:10083000586847F6C073184093FAA3F3B3FA83F3EA
:10084000D84000FB02F0114B5B6803F440334FF4D7
:10085000403292FAA2F2B2FA82F2D34001335B0044
:10086000B0FBF3F070470A4AB2FBF0F2074B58684E
:1008700047F6C073184093FAA3F3B3FA83F3D84052
:1008800000FB02F0DFE70348704700BF003802407A
:100890000024F40040787D01624B1B6803F00F03D5
:1008A0008B4209D2CBB25F4A1370136803F00F0377
:1008B000994201D00120704770B5036813F0020F10
:1008C00006D0594A936823F0F00384682343936069
:1008D0000D460446036813F0010F64D04368012BF2
:1008E00026D09A1E012A2AD94F4A126812F0020F06
:1008F00000F096804C498A6822F0030213438B6013
:1009000000F096FA06466368012B1FD0022B2CD00C
:10091000032B39D0444B9B6813F00C0F43D000F0ED
:1009200087FA801B41F288339842F3D9032070BDC7
:100930003D4A126812F4003FDCD1012070BD3A4AF2
:10094000126812F0007FD5D1012070BD364B9B6834
:1009500003F00C03042B26D000F06AFA801B41F24E
:1009600088339842F2D9032070BD2F4B9B6803F067
:100970000C03082B17D000F05BFA801B41F2883380
:100980009842F2D9032070BD274B9B6803F00C03FB
:100990000C2B08D000F04CFA801B41F288339842AF
:1009A000F2D9032070BD1F4B1B6803F00F039D425B
:1009B00009D2EAB21B4B1A701B6803F00F039D4269
:1009C00001D0012070BD236813F0040F06D0164A31
:1009D000936823F4E053E1680B439360236813F0BA
:1009E000080F07D0104A936823F46043216943EA53
:1009F000C1039360FFF706FF0B4B9B6803F0F00306
:100A0000F02292FAA2F2B2FA82F2D340074AD35C01
:100A1000D840074B1860002000F0DEFD002070BDBC
:100A2000012070BD003C02400038024054270008FD
:100A300000000020014B1868704700BF0000002034
:100A400008B5FFF7F7FF074B9B6803F4E0534FF43B
:100A5000E05292FAA2F2B2FA82F2D340024AD35C96
:100A6000D84008BD003802406427000808B5FFF7E9
:100A7000E1FF074B9B6803F460434FF4604292FA36
:100A8000A2F2B2FA82F2D340024AD35CD84008BD47
:100A900000380240642700080F2303600B4B9A685C
:100AA00002F0030242609A6802F0F00282609A68E3
:100AB00002F4E052C2609B68DB0803F4E053036178
:100AC000034B1B6803F00F030B60704700380240B4
:100AD000003C02400F49D1F8883043F47003C1F85C
:100AE00088300D4B1A6842F001021A6000209860AD
:100AF0001A6822F0847222F480321A60074A5A601F
:100B00001A6822F480221A60D8604FF000638B606C
:100B1000704700BF00ED00E00038024010300024B4
:100B200030B589B000240094174B1A6B42F00102D3
:100B30001A631A6B02F001020092009A01941A6B78
:100B400042F004021A631A6B02F004020192019A45
:100B500002941A6B42F002021A631B6B03F0020349
:100B60000293029B094D2246C021284600F056FE02
:100B7000C0230393012304930594069403A92846F4
:100B800000F066FD09B030BD0038024000080240A8
:100B900008B5012001F00DF9FBE7000008B5026877
:100BA000034B9A4200D008BD00F03AF9FBE700BFC2
:100BB00000000140FEE7000008B50B480B4B036046
:100BC0000B4B436000238360C3604FF4804202619B
:100BD00043618361C361036201F0CAFC00B908BDCF
:100BE000E7210448FFF7E6FF743D00200054004071
:100BF000A08601006C27000800B58FB026484FF092
:100C0000804303604FF4C863436000238360642221
:100C1000C260036100F0D6FB30BB0EA94FF48053D5
:100C200041F8103D1C4800F0F9F908BB1A4800F0E3
:100C3000E2FB10BB00230893099308A91648FFF7AD
:100C4000DDFAF8B9602301930A230293002203928C
:100C5000059201A9104800F01FFCC0B90E48FFF72B
:100C6000E1FB0FB05DF804FBFB210C48FFF7A2FF8E
:100C700040F201110948FFF79DFF4FF483710748C7
:100C8000FFF798FF40F20D110448FFF793FF4FF470
:100C90008B710248FFF78EFFC83D00206C270008CB
:100CA00000B595B000230193234A116C41F08051A7
:100CB0001164126C02F080520192019A02931F4A51
:100CC000116841F480411160126802F4804202927E
:100CD000029A0222089201220B9210220C920E9389
:100CE00008A8FFF7B7FBF0B90F2303930021049185
:100CF00005910691079103A8FFF7CEFDB8B9FFF75C
:100D000099FE0F4BA3FB00308009FFF7F3FA042094
:100D1000FFF706FB00220F214FF0FF30FFF7ACFA80
:100D200015B05DF804FBBB210648FFF743FFC9215E
:100D30000448FFF73FFF00BF00380240007000404A
:100D4000D34D62106C27000800B589B000F04EF852
:100D5000FFF7A6FFFFF7E4FEFFF72EFFFFF74CFFBC
:100D600000210E4800F016FC02AC0D4D0FCD0FC453
:100D70002B682360002102A801F001F8094B1860DC
:100D800007AB019301230093002380220649074803
:100D900001F0A0F900F0EEFFFEE700BFC83D002023
:100DA00040270008703D002078270008B10D00089A
:100DB00000B587B09FED090A01A800F013F8084CB0
:100DC0004021204600F030FD8021204600F02CFD1F
:100DD0004FF4FA7000F032F8F1E700BF00407944B8
:100DE0000008024080ED000A7047000008B50B4B78
:100DF0001A6842F400721A601A6842F480621A603B
:100E00001A6842F480721A600320FFF723FA002068
:100E100000F0E2FBFFF794FA002008BD003C02401E
:100E2000024A136801331360704700BF043E00207C
:100E3000014B1868704700BF043E002030B583B0F6
:100E40000190FFF7F5FF0546019CB4F1FF3F00D08C
:100E50000134FFF7EDFF401BA042FAD303B030BDD1
:100E600030B4036A23F001030362036A44688269B1
:100E700022F073020D682A4323F002038D682B438E
:100E80000F4DA8421AD005F58065A84214D0002560
:100E90005DB123F00803CD682B4323F0040324F451
:100EA00040744D692C438D692C43446082614A68CB
:100EB0004263036230BC70470125E9E70125E7E79B
:100EC0000000014030B4036A23F480730362036AB4
:100ED0004468C26922F073020D682A4323F4007348
:100EE0008D6843EA0523114DA8421DD005F58065A4
:100EF000A84217D0002575B123F40063CD6843EAFA
:100F0000052323F4806324F440544D6944EA051416
:100F10008D6944EA05144460C2614A68C263036291
:100F200030BC70470125E6E70125E4E700000140F9
:100F300030B4036A23F480530362036A4468C269CD
:100F400022F4E6420D6842EA052223F400538D683C
:100F500043EA05330C4DA84213D005F58065A8423D
:100F60000DD0002525B124F480444D6944EA851450
:100F70004460C2614A680264036230BC7047012564
:100F8000F0E70125EEE700BF0000014010B4036A5E
:100F9000046A24F001040462846924F0F00444EA41
:100FA000021223F00A030B43826103625DF8044BD3
:100FB000704710B4036A23F0100303628469036A64
:100FC00024F4704444EA023223F0A00343EA0113FC
:100FD000826103625DF8044B7047836823F07003FD
:100FE00041F007010B438360704710B4846824F418
:100FF0007F4442EA032319430C4384605DF8044BA9
:1010000070470268D36843F00103D3600268136835
:1010100043F00103136000207047704790F83830A8
:10102000012B7DD010B50446012380F8383002230F
:1010300080F839300268936823F47F4323F0770304
:1010400093600B68402B57D010D9702B3ED01FD81F
:10105000502B47D0602B32D1CA6849680068FFF72F
:10106000A8FF60212068FFF7B8FF28E0102B4DD0C3
:1010700008D9202B4FD0302B21D130210068FFF729
:10108000ACFF1CE0DBB900210068FFF7A6FF16E00B
:10109000B3F5805F0ED0B3F5005F10D1CB684A681E
:1010A00089680068FFF7A1FF2268936843F48043D2
:1010B000936004E00268936823F0070393600123C0
:1010C00084F83930002084F8380010BDCB684A68B5
:1010D00089680068FFF789FF2268936843F0770307
:1010E0009360ECE7CA6849680068FFF74FFF50213A
:1010F0002068FFF772FFE2E7CA6849680068FFF7F7
:1011000045FF40212068FFF768FFD8E710210068FD
:10111000FFF763FFD3E720210068FFF75EFFCEE70C
:1011200002207047704770477047704710B50446FB
:1011300003681A6912F0020F11D0DA6812F0020F78
:101140000DD06FF002021A610123037603689B69D8
:1011500013F0030F70D0FFF7E6FF00232376236818
:101160001A6912F0040F12D0DA6812F0040F0ED0D0
:101170006FF004021A610223237623689B6913F43B
:10118000407F5FD02046FFF7CEFF00232376236801
:101190001A6912F0080F12D0DA6812F0080F0ED098
:1011A0006FF008021A61042323762368DB6913F0C9
:1011B000030F4ED02046FFF7B6FF002323762368A7
:1011C0001A6912F0100F12D0DA6812F0100F0ED058
:1011D0006FF010021A61082323762368DB6913F489
:1011E000407F3DD02046FFF79EFF002323762368F3
:1011F0001A6912F0010F03D0DA6812F0010F36D12C
:1012000023681A6912F0800F03D0DA6812F0800F99
:1012100034D123681A6912F0400F03D0DA6812F053
:10122000400F32D123681A6912F0200F03D0DA6818
:1012300012F0200F30D110BDFFF774FF2046FFF7EA
:1012400073FF8AE72046FFF76DFF2046FFF76CFF2C
:101250009BE72046FFF766FF2046FFF765FFACE7F8
:101260002046FFF75FFF2046FFF75EFFBDE76FF008
:1012700001021A612046FFF791FCC1E76FF080027E
:101280001A612046FEF7E4FFC3E76FF040021A61DF
:101290002046FFF74AFFC5E76FF020021A6120469B
:1012A000FEF7D5FFC7E700000368454A90424AD0E1
:1012B000B0F1804F49D0A2F57C42904247D002F570
:1012C0008062904245D002F58062904243D002F5A0
:1012D0007842904235D000221AB123F070034A6858
:1012E0001343374A90423AD0B0F1804F50D0A2F524
:1012F0007C4290424ED002F5806290424CD002F582
:10130000806290424AD002F57842904248D002F57D
:101310007052904246D002F58062904244D002F56D
:101320008062904242D0A2F59832904240D002F5BD
:10133000806290423ED002F5806290420DD0002241
:101340000EE00122C8E70122C6E70122C4E701221C
:10135000C2E70122C0E70122BEE7012200E001222C
:101360001AB123F44073CA68134303608B68C362E5
:101370000B688362124B984220D003F58063984239
:101380001AD000230BB10B6903630123436170473B
:101390000122E5E70122E3E70122E1E70122DFE79D
:1013A0000122DDE70122DBE70122D9E70122D7E7AD
:1013B0000122D5E70122D3E70123E3E70123E1E797
:1013C00000000140A8B110B5044690F839305BB177
:1013D000022384F83930211D2068FFF765FF0123BF
:1013E00084F83930002010BD80F83830FFF704F859
:1013F000EEE701207047A8B110B5044690F83930E7
:101400005BB1022384F83930211D2068FFF74CFFBF
:10141000012384F83930002010BD80F83830FFF700
:10142000FCFDEEE70120704730B4036A23F010039F
:101430000362036A4468826922F4E6420D6842EA64
:10144000052223F020038D6843EA0513114DA842BD
:101450001DD005F58065A84217D0002575B123F091
:101460008003CD6843EA051323F0400324F440646D
:101470004D6944EA85048D6944EA850444608261CB
:101480004A688263036230BC70470125E6E70125A4
:10149000E4E700BF0000014038B590F83830012B78
:1014A00066D00D460446012380F83830022380F8C8
:1014B00039300C2A1AD8DFE802F007191919201957
:1014C00019193419191947000068FFF7C9FC226877
:1014D000936943F0080393612268936923F004033E
:1014E00093612268936929690B439361012384F80E
:1014F0003930002084F8380038BD0068FFF794FFC9
:101500002268936943F4006393612268936923F42A
:101510008063936122689369296943EA0123936197
:10152000E4E70068FFF7CEFC2268D36943F00803C4
:10153000D3612268D36923F00403D3612268D3699D
:1015400029690B43D361D1E70068FFF7F1FC2268FA
:10155000D36943F40063D3612268D36923F48063C1
:10156000D3612268D369296943EA0123D361BDE7C6
:10157000022038BD10B4012303FA01F4036A23EA00
:1015800004030362036A8A40134303625DF8044B59
:101590007047000010B5044601220068FFF7EAFF1B
:1015A00023680C4A934212D002F5806293420CD019
:1015B00000221AB15A6C42F400425A64226813683D
:1015C00043F001031360002010BD0122F1E7012266
:1015D000EFE700BF0000014010B588B000220146CF
:1015E0001920FEF749FE1920FEF778FE0024019429
:1015F000134B5A6C42F001025A645B6C03F0010316
:101600000193019B02A903A8FFF746FAFFF72EFA00
:101610000C4BA3FB00239B0C013B0B480B4A0260C5
:1016200040F2E732C260436004618460FFF7CAFEA3
:1016300010B1012008B010BD0348FFF7E2FCF9E744
:101640000038024083DE1B43083E002000000140BA
:10165000F0B583B000244BE04FEAD40E0EF1080E33
:1016600050F82E2004F00706B6000F27B74022EAF4
:1016700007020F6907FA06F6324340F82E2046E0CB
:10168000072600E0002606FA0EF6324302335E4ECD
:1016900046F823205D4B1A68EB4302EA03064F68C5
:1016A00017F4803F01D045EA0206584A1660526896
:1016B00003EA02064F6817F4003F01D045EA02062C
:1016C000524A5660926803EA02064F6817F4801F78
:1016D00001D045EA02064D4A9660D26813404E6832
:1016E00016F4001F01D045EA0203484AD3600134D2
:1016F0000F2C00F286800123A3400A6803EA02054A
:10170000AB42F4D14A68022AA6D0122AA4D00668B5
:101710004FEA440E032202FA0EF2D24316404F68FB
:1017200007F0030707FA0EF73E4306604E68771E80
:10173000012F03D9112E01D0122E0FD18668164029
:10174000CF6807FA0EF73E438660466826EA030331
:101750004E68C6F30016A64033434360C3681A4080
:101760008B6803FA0EF31A43C2604B6813F0805F74
:10177000BDD000230193264B5A6C42F480425A6438
:101780005B6C03F480430193019BA3089E1C1E4ADB
:1017900052F8262004F003064FEA860E0F2606FABA
:1017A0000EF622EA06021B4FB8423FF46BAF1A4E08
:1017B000B0421AD006F58066B04218D006F58066B1
:1017C000B04216D006F58066B04214D006F58066A9
:1017D000B04212D006F58066B04210D006F58066A1
:1017E000B0423FF44DAF08264DE701264BE70226F5
:1017F00049E7032647E7042645E7052643E706268B
:1018000041E703B0F0BD00BF00380140003C01409B
:1018100000380240000002400004024012B90904EE
:1018200081617047816170474369594041617047E8
:101830007047FEE7FEE7FEE7FEE7704708B500F0F9
:10184000C1FA08BD08B50248FFF770FC08BD00BF2B
:10185000083E0020124A12F0070F1ED0D11D21F0C1
:101860000701C1F5705313440A460E480260002177
:1018700041601344083B23F007030B4803605960A1
:101880001960991A51601360084B1960084B196070
:101890004FF00042074B1A6070474FF47053E4E773
:1018A00028000020343C002024000020303C002090
:1018B0002C3C0020283C002010B4134B1A688242B4
:1018C0001BD359685C18A04203D140680144596099
:1018D000184641684418A24213D10C4C2468A24215
:1018E0000DD05268114441601A6812680260984233
:1018F00000D018605DF8044B70471346DEE70460C3
:10190000F5E70260F3E700BF343C0020240000202C
:1019100070B5044600F04EFC3A4B1B68BBB13A4B25
:101920001B681C4263D1ACB1083414F0070F11D00E
:1019300024F00704083404F007035BB14FF05003B0
:1019400083F31188BFF36F8FBFF34F8FFEE7FFF76D
:1019500081FFE4E7002C4CD02C4B1B689C424AD8FA
:101960002B4B1D6801E02B4615466A68944202D94C
:101970002A68002AF7D1234A126895423DD01E6892
:1019800008362A681A606B681B1B102B10D928199F
:1019900010F0070F08D04FF0500383F31188BFF306
:1019A0006F8FBFF34F8FFEE743606C60FFF784FFDC
:1019B0006A6816490B689B1A0B60164909688B42C6
:1019C00001D214490B60104B1B6813436B6000235A
:1019D0002B6000F087FC16F0070F10D04FF050037B
:1019E00083F31188BFF36F8FBFF34F8FFEE700269D
:1019F000EFE70026EDE70026EBE70026E9E73046B3
:101A000070BD00BF24000020283C00202C3C00209A
:101A1000343C0020303C002080B338B50446A0F1AF
:101A2000080550F8042C164909680A4208D14FF0FD
:101A3000500383F31188BFF36F8FBFF34F8FFEE71F
:101A400050F8080C40B14FF0500383F31188BFF3F6
:101A50006F8FBFF34F8FFEE722EA010244F8042C98
:101A600000F0A8FB54F8041C064A13680B441360EA
:101A70002846FFF721FF00F035FC38BD704700BF56
:101A8000283C00202C3C00200B4B1B68B3F1FF3F8F
:101A900008D04FF0500383F31188BFF36F8FBFF36B
:101AA0004F8FFEE74FF0500383F31188BFF36F8F22
:101AB000BFF34F8FFEE700BF040000200648006818
:101AC000006880F3088862B661B6BFF34F8FBFF33A
:101AD0006F8F00DF00BF000008ED00E0DFF80C00B2
:101AE000016841F4700101607047000088ED00E07A
:101AF0004FF0807340F8043C21F0010140F8081CCD
:101B0000054B40F80C3C40F8202C6FF0020340F8E5
:101B1000243C4438704700BF891A000800000000C8
:101B2000074B19680868B0E8F04F80F30988BFF3E5
:101B30006F8F4FF0000080F311887047AFF3008083
:101B4000443C00204FF0500383F31188BFF36F8FA4
:101B5000BFF34F8F0A4A136801331360012B0DD175
:101B6000084B1B6813F0FF0F08D04FF0500383F3AE
:101B70001188BFF36F8FBFF34F8FFEE7704700BF31
:101B80000400002004ED00E0094B1B6843B94FF04E
:101B9000500383F31188BFF36F8FBFF34F8FFEE7BE
:101BA000013B034A13600BB983F31188704700BFF0
:101BB0000400002000000000000000000000000001
:101BC000EFF30980BFF36F8F154B1A681EF0100FEB
:101BD00008BF20ED108A20E9F04F10604DF8043D59
:101BE0004FF0500080F31188BFF34F8FBFF36F8F1A
:101BF00000F060FC4FF0000080F3118808BC196809
:101C00000868B0E8F04F1EF0100F08BFB0EC108A63
:101C100080F30988BFF36F8F704700BFAFF3008078
:101C2000443C002008B54FF0500383F31188BFF304
:101C30006F8FBFF34F8F00F0C5FA18B14FF080528D
:101C4000024B1A60002383F3118808BD04ED00E005
:101C5000064B1B68064AA2FB03239B09013B054A6E
:101C600013600722044B1A60704700BF0000002079
:101C7000D34D621014E000E010E000E0314B1A6830
:101C8000314B9A421AD02F4B1A68304B9A421ED0D1
:101C900000B583B02E4B1A78D2B20192FF221A708F
:101CA0001B78DBB28DF803309DF8033003F050034E
:101CB000284A13700722284B1A601BE04FF050038C
:101CC00083F31188BFF36F8FBFF34F8FFEE74FF0A1
:101CD000500383F31188BFF36F8FBFF34F8FFEE77D
:101CE0001D4A1368013B13609DF803305B00DBB2B3
:101CF0008DF803309DF8033013F0800FF0D1164AB1
:101D000013681B0203F4E0631360019BDBB2104A0B
:101D10001370124B1A6842F470021A601A6842F08B
:101D200070421A60FFF794FF00220D4B1A60FFF714
:101D3000D5FE0C4A136843F040431360FFF7BEFE24
:101D4000FFF7A2FE00ED00E071C20F4170C20F412B
:101D500000E400E03C3C0020403C002020ED00E09E
:101D60000400002034EF00E0842801D003307047E5
:101D70000020704708B500F0DFF9002008BDF0B57D
:101D800085B00F46446805680669B0F90800FFF79A
:101D9000EBFF03AB019300903B46B2B229462046CD
:101DA00000F098F9012802D1039805B0F0BD002099
:101DB000FBE708B5034600B90123184600F010FB05
:101DC000002008BD08B500F0C3FB012801D0FFF7D3
:101DD00029FF08BD00F1080343604FF0FF32826025
:101DE000C3600361002303607047002303617047F1
:101DF00043684B609A688A609A685160996008618C
:101E0000036801330360704730B40D68B5F1FF3FDC
:101E100002D000F1080202E0026904E01A465368A9
:101E20001C68A542FAD253684B6099608A60516081
:101E3000086103680133036030BC7047036942687E
:101E4000816891608268416851605A68904205D00B
:101E500000220261186801381860704782685A6071
:101E6000F6E700000A4B1B681B684BB901234BB90E
:101E7000074B1B68DB68DB685A68064B1A607047C3
:101E80000023F4E74FF0FF32024B1A60704700BFA7
:101E9000483C0020203D002010B50446006BFFF7B1
:101EA000BBFD2046FFF7B8FD10BD2DE9F047804689
:101EB0009946089D099F0A9C266B02F18042013ACF
:101EC00006EB820626F0070600230F2B07D8C85C16
:101ED000E21882F83400CA5C0AB10133F5E7002346
:101EE00084F84330062D00D90625E56265644FF07D
:101EF000000AC4F848A0201DFFF777FF04F118007E
:101F0000FFF773FF2461C5F10705A5616462C4F89A
:101F10004CA084F850A04A4641463046FFF7E8FD01
:101F2000206007B13C60BDE8F087000038B50024B0
:101F300007E004EB840293000E481844FFF74AFFC1
:101F40000134062CF5D90C4D2846FFF743FF0B4C06
:101F50002046FFF73FFF0A48FFF73CFF0948FFF71D
:101F600039FF0948FFF736FF084B1D60084B1C601E
:101F700038BD00BF503C0020F43C0020083D00204C
:101F8000283D0020543D0020403D0020483C0020DA
:101F90004C3C002010B50446FFF7D4FD204A1368DE
:101FA000013313601F4B1B68002B31D01E4B1B6885
:101FB0003BB91C4B1B68DA6AE36A9A4201D8194B99
:101FC0001C601A4A136801331360E36A01229A40C5
:101FD0001749086802430A6003EB83039A00211D36
:101FE00014481044FFF704FFFFF7CEFD0E4B1B68AB
:101FF0006BB10C4B1B68DA6AE36A9A4207D24FF066
:1020000080520D4B1A60BFF34F8FBFF36F8F10BD1F
:10201000044B1C601368012BD3D1FFF787FFD0E777
:10202000DC3C0020443C00203C3D0020EC3C0020F7
:10203000F03C0020503C002004ED00E070B5044668
:102040000E461D4B1D681D4B18680430FFF7F6FE49
:1020500050B91A4B1B68DA6A012303FA02F21849D5
:102060000B6823EA02030B60B4F1FF3F13D02C444A
:10207000124B1B685C60A54216D8124B18680F4BB8
:1020800019680431FFF7C0FE0F4B1B689C4201D258
:102090000D4B1C6070BD002EE9D0084B196804314F
:1020A0000A48FFF7A5FE70BD094B1868034B196875
:1020B0000431FFF7A9FE70BD683D0020443C0020BC
:1020C000F03C0020483C0020203D0020403D002006
:1020D0004C3C00202DE9F04385B006460F461546DE
:1020E00098469000FFF714FC00B381465420FFF798
:1020F0000FFC0446B0B1C0F83090CCB1002303937C
:1021000002940D9B01930C9B009343462A4639464B
:102110003046FFF7CAFE2046FFF73CFF012005B01E
:10212000BDE8F0834846FFF777FCE6E70024E4E7E4
:102130004FF0FF30F3E7000000B583B0174B019379
:1021400000230093802216491648FFF7C3FF012899
:1021500005D0B0F1FF3F17D003B05DF804FB4FF09E
:10216000500383F31188BFF36F8FBFF34F8F4FF08E
:10217000FF320D4B1A6001220C4B1A6000220C4BEF
:102180001A60FFF77BFDE7E74FF0500383F31188F8
:10219000BFF36F8FBFF34F8FFEE700BF1C3D0020E2
:1021A000902700088D240008203D00203C3D0020A1
:1021B000683D0020024A136801331360704700BF76
:1021C000E83C0020F8B53C4B1B68002B68D13B4B2A
:1021D0001D6801351D60C5B9394B1B681B6843B1CB
:1021E0004FF0500383F31188BFF36F8FBFF34F8F0E
:1021F000FEE7334A1168334B186810601960324AA1
:10220000136801331360FFF72DFE304B1B689D42AE
:102210003AD200242E4B1B68DB6A03EB83039A003F
:102220002C4B9B58012B40D901243EE00124244B28
:102230001B681B6853B3002353BB214B1B68DB682F
:10224000DE6873689D4228D3371D3846FFF7F6FDD8
:10225000B36A1BB106F11800FFF7F0FDF36A012223
:102260009A401D49086802430A6003EB83039A0001
:10227000394618481044FFF7BBFDF26A144B1B683F
:10228000DB6A9A42D2D2D2E70024D0E70123D3E717
:102290004FF0FF320D4B1A60BCE70C4A1360B9E7F0
:1022A0000E4A13680133136000240D4B1B6803B101
:1022B00001242046F8BD00BFE83C0020683D002016
:1022C000483C00204C3C0020243D0020203D0020C4
:1022D000443C0020503C0020F03C0020E43C002026
:1022E0006C3D002038B5354B1B6843B94FF05003A7
:1022F00083F31188BFF36F8FBFF34F8FFEE7FFF7B4
:1023000021FC2E4B1A68013A1A601B68002B50D131
:102310002B4B1B6823B90024FFF736FC204638BD41
:102320000024284B1B681BB3264BDB68DC6804F1D8
:102330001800FFF783FD251D2846FFF77FFDE36AA0
:1023400001229A402049086802430A6003EB830394
:102350009A0029461D481044FFF74AFDE26A1C4BCB
:102360001B68DB6A9A42DCD301221A4B1A60D8E759
:102370000CB1FFF777FD184B1C6874B9154B1B683F
:10238000CBB14FF08052154B1A60BFF34F8FBFF3A4
:102390006F8F0124C0E7013C07D0FFF713FF00282F
:1023A000F9D001220B4B1A60F5E700220A4B1A60A4
:1023B000E4E70024B0E70024AEE700BFE83C0020DB
:1023C000DC3C0020283D0020F03C0020503C002058
:1023D000443C00206C3D0020E43C002004ED00E083
:1023E00010B5A8B10446104B1B6843B14FF0500321
:1023F00083F31188BFF36F8FBFF34F8FFEE7FFF7B3
:10240000D9FE00212046FFF719FEFFF76BFF00E021
:10241000002038B94FF08052044B1A60BFF34F8F41
:10242000BFF36F8F10BD00BFE83C002004ED00E05B
:10243000134B1B6813B310B5FFF7BCFE114B1C68A0
:10244000FFF750FF24B90E4B1B68002BF4D110BDD1
:10245000FFF778FB0B4BDB68DC68201DFFF7EEFC19
:10246000094A1368013B1360054A1368013B136076
:10247000FFF78AFB2046FFF70FFDE4E7704700BF38
:10248000E03C0020543D0020DC3C002008B5FFF774
:10249000CFFF064B1B68012BF9D94FF08052044B3C
:1024A0001A60BFF34F8FBFF36F8FF0E7503C0020EF
:1024B00004ED00E0214B1B68C3B90022204B1A60D9
:1024C000204B1B68B3FA83F3DBB2C3F11F0303EBAA
:1024D00083018A001C498A5862B94FF0500383F384
:1024E0001188BFF36F8FBFF34F8FFEE70122144BAC
:1024F0001A60704710B414489A00D418A10001441F
:102500004C6864684C601A44910008310844844265
:102510000BD003EB83039A000B4B13445B68DA6820
:102520000A4B1A605DF8044B7047606803EB830246
:102530009100054A0A445060EBE700BFE83C0020E8
:102540006C3D0020F03C0020503C0020443C00202A
:10255000054B1B6823B1054B1B681BB90220704754
:1025600001207047002070473C3D0020E83C0020DF
:10257000002800F0828038B5044690F83D30002BEA
:1025800041D0242384F83D302268136823F00103EE
:102590001360FEF755FA3A4BA3FB00239B0C22680D
:1025A000536021686568374A954231D801330B6220
:1025B00021686368334A934234D85B00B0FBF3F080
:1025C000C0F30B03032B00D80420C8612268E36921
:1025D000216A0B43136022682369E1680B4393600F
:1025E00022686369A1690B43D3602268136843F0D2
:1025F0000103136000202064202384F83D30206311
:1026000084F83E0038BD80F83C30FDF7C9FEB8E7DD
:102610004FF4967202FB03F31B4AA2FB03239B09B0
:102620000133C4E7A5688DB903EB4302B0FBF2F2B6
:10263000C2F30B02B2FA82F25209E2B995B903EB86
:102640004303B0FBF3F040F40040BEE703EB83022A
:1026500002EB8202B0FBF2F2C2F30B02B2FA82F298
:102660005209EAE703EB830303EB8303B0FBF3F0C8
:1026700040F44040A9E70120A7E70120704700BFD0
:1026800083DE1B43A0860100D34D6210DFF834D0F7
:10269000002103E00C4B5B58435004310B480C4BBA
:1026A00042189A42F6D30B4A02E0002342F8043B58
:1026B000094B9A42F9D3FEF70DFA00F011F8FEF734
:1026C00043FB704700000220A02700080000002004
:1026D0000800002008000020443E0020FEE7000023
:1026E00070B50D4E0D4CA41BA4100025A54209D1B8
:1026F0000B4E0C4C00F018F8A41BA4100025A542AA
:1027000005D170BD56F8253098470135EEE756F8EB
:10271000253098470135F2E79827000898270008E8
:10272000982700089C270008F8B500BFF8BC08BC33
:102730009E467047F8B500BFF8BC08BC9E4670477F
:1027400084270008910B0008000000000000000032
:1027500080000000000000000000000001020304EF
:102760000607080900000000010203045372632FEA
:102770006D61696E2E630000486561727462656107
:102780007400000064656661756C745461736B005D
:0827900049444C450000000023
:04279800B50100087F
:04279C00910100089F
:0827A0000024F400AAAAAAAA71
:040000050800268D3C
:00000001FF
