:020000040800F2
:100000000000022009390008E5380008E738000838
:10001000E9380008EB380008ED380008000000005F
:100020000000000000000000000000009102000835
:10003000EF3800080000000031030008F138000824
:100040005939000859390008593900085939000848
:100050005939000859390008593900085939000838
:100060005939000859390008593900085939000828
:100070005939000859390008593900085939000818
:100080005939000859390008593900085939000808
:1000900059390008593900085939000859390008F8
:1000A00059390008F9380008593900085939000849
:1000B00059390008593900085939000859390008D8
:1000C00059390008593900085939000859390008C8
:1000D00059390008593900085939000859390008B8
:1000E00059390008593900085939000859390008A8
:1000F0005939000859390008593900085939000898
:100100005939000859390008593900085939000887
:100110005939000859390008593900085939000877
:100120005939000859390008593900085939000867
:10013000593900080000000000000000593900088B
:100140005939000859390008593900085939000847
:100150005939000859390008593900085939000837
:100160005939000859390008593900085939000827
:10017000593900085939000800000000000000004B
:08018000593900085939000843
:1001900010B5054C237833B9044B13B10448AFF3C1
:1001A00000800123237010BD080000200000000023
:1001B000A43900080C4B43B10C480D4910B5AFF3FE
:1001C00000800C48036823B910BD0A48036833B99E
:1001D0007047094B002BF7D0BDE810401847064B7D
:1001E000002BF5D0184700BF00000000A43900081C
:1001F0000C00002008000020000000000B4B1B68D2
:10020000B3F1FF3F08D04FF0500383F31188BFF3E1
:100210006F8FBFF34F8FFEE74FF0500383F31188CA
:10022000BFF36F8FBFF34F8FFEE700BF00000020CA
:1002300006480068006880F3088862B661B6BFF3BC
:100240004F8FBFF36F8F00DF00BF000008ED00E0AD
:10025000DFF80C00016841F4700101607047000094
:1002600088ED00E04FF0807340F8043C21F001017C
:1002700040F8081C054B40F80C3C40F8202C6FF06F
:10028000020340F8243C4438704700BFFD010008D9
:10029000074B19680868B0E8F04F80F30988BFF38E
:1002A0006F8F4FF0000080F311887047AFF300802C
:1002B0002C0000204FF0500383F31188BFF36F8FA1
:1002C000BFF34F8F0A4A136801331360012B0DD11E
:1002D000084B1B6813F0FF0F08D04FF0500383F357
:1002E0001188BFF36F8FBFF34F8FFEE7704700BFDA
:1002F0000000002004ED00E0094B1B6843B94FF0FB
:10030000500383F31188BFF36F8FBFF34F8FFEE766
:10031000013B034A13600BB983F31188704700BF98
:1003200000000020000000000000000000000000AD
:10033000EFF30980BFF36F8F154B1A681EF0100F93
:1003400008BF20ED108A20E9F04F10604DF8043D01
:100350004FF0500080F31188BFF34F8FBFF36F8FC2
:1003600001F0DAFD4FF0000080F3118808BC196835
:100370000868B0E8F04F1EF0100F08BFB0EC108A0C
:1003800080F30988BFF36F8F704700BFAFF3008021
:100390002C00002008B54FF0500383F31188BFF301
:1003A0006F8FBFF34F8F01F03FFC18B14FF08052B9
:1003B000024B1A60002383F3118808BD04ED00E0AE
:1003C000064B1B68064AA2FB03239B09013B054A17
:1003D00013600722044B1A60704700BF040000201E
:1003E000D34D621014E000E010E000E0314B1A68D9
:1003F000314B9A421AD02F4B1A68304B9A421ED07A
:1004000000B583B02E4B1A78D2B20192FF221A7037
:100410001B78DBB28DF803309DF8033003F05003F6
:10042000284A13700722284B1A601BE04FF0500334
:1004300083F31188BFF36F8FBFF34F8FFEE74FF049
:10044000500383F31188BFF36F8FBFF34F8FFEE725
:100450001D4A1368013B13609DF803305B00DBB25B
:100460008DF803309DF8033013F0800FF0D1164A59
:1004700013681B0203F4E0631360019BDBB2104AB4
:100480001370124B1A6842F470021A601A6842F034
:1004900070421A60FFF794FF00220D4B1A60FFF7BD
:1004A000D7FE0C4A136843F040431360FFF7C0FEC9
:1004B000FFF7A4FE00ED00E071C20F4170C20F41D2
:1004C00000E400E0240000202800002020ED00E0EF
:1004D0000000002034EF00E030B58BB00024009421
:1004E000264B1A6B42F004021A631A6B02F00402E4
:1004F0000092009A01941A6B42F080021A631A6B00
:1005000002F080020192019A02941A6B42F00102F9
:100510001A631A6B02F001020292029A03941A6B98
:1005200042F002021A631A6B02F002020392039A6B
:1005300004941A6B42F008021A631B6B03F0080361
:100540000493049B0E4D2246C021284603F0C4F9B3
:1005500048F20F0305930694079405A9284603F073
:10056000D5F8C0230593012306930794089405A9A1
:10057000284603F0CBF80BB030BD00BF0038024076
:100580000008024008B5012002F0DAFBFBE700009A
:1005900008B50268034B9A4200D008BD02F0DAFEAB
:1005A000FBE700BF00000140FEE7000008B50C4873
:1005B0000C4B03601023436000238360C36003611E
:1005C00043618361C361036243628362C36201F07A
:1005D00001FD00B908BD4FF486710348FFF7E4FF41
:1005E0008043002000640040D039000808B50C4862
:1005F0000C4B03600C4B436000238360C3604FF4DB
:100600008042026143618361C361036202F058FC6E
:1006100000B908BD4FF490710448FFF7C5FF00BF53
:10062000B841002000540040A0860100D0390008E5
:1006300008B50948094B0360002343608360C36029
:1006400003614361836101F0FFF800B908BD4FF415
:10065000A3710348FFF7A8FFC0420020002C01400F
:10066000D039000800B58BB01F484FF080430360BD
:10067000002343608360C360036100F032FCF8B97B
:1006800000230893099308A9174802F083FEE0B9F4
:10069000602301930023029303930593082201A989
:1006A000114800F06FFCA8B90C2201A90E4800F017
:1006B00069FCA0B90C4800F021FE0BB05DF804FB0A
:1006C00040F259110948FFF76FFF4FF4B071074826
:1006D000FFF76AFF40F269110448FFF765FF4FF426
:1006E000B7710248FFF760FF44430020D03900088B
:1006F00000B58BB01F48204B03600023436083602C
:10070000C360036100F0EDFBF8B90023089309937F
:1007100008A9184802F03EFEE0B9602301930023C7
:10072000029303930593082201A9124800F02AFCC2
:10073000A8B90C2201A90F4800F024FCA0B90D486B
:1007400000F0DCFD0BB05DF804FB40F283110B48B8
:10075000FFF72AFF4FF4C5710848FFF725FF40F265
:1007600093110648FFF720FF4FF4CC710348FFF7C1
:100770001BFF00BF4842002000040040D0390008A1
:1007800000B58BB02A482B4B036000234360836085
:10079000C360036100F0A5FB58BB002308930993D5
:1007A00008A9234802F0F6FD40BB60230193002214
:1007B00002920392059201A91D4800F0E3FB10BBD1
:1007C00004220DEB02011A4800F0DCFB00BB0822FA
:1007D00001A9174800F0D6FBF8B90C2201A914486A
:1007E00000F0D0FBF0B9124800F088FD0BB05DF8C6
:1007F00004FB40F2AD111048FFF7D6FE4FF4DA715A
:100800000D48FFF7D1FE40F2BD110B48FFF7CCFEBB
:100810004FF4E1710848FFF7C7FE40F2C7110648E0
:10082000FFF7C2FE4FF4E6710348FFF7BDFE00BFBD
:100830000C420020000C0040D039000800B589B0FF
:100840001748184B0360002343608360C360036153
:1008500000F02EFBA0B9124800F043FBA8B96023BA
:100860000193002202920392059201A90C4800F024
:1008700089FB78B90A4800F041FD09B05DF804FB36
:100880004FF4F0710848FFF78FFE40F2E51106487B
:10089000FFF78AFE4FF4F7710348FFF785FE00BFAC
:1008A00084420020001C0040D039000800B589B007
:1008B0001748184B0360002343608360C3600361E3
:1008C00000F0F6FAA0B9124800F00BFBA8B96023BB
:1008D0000193002202920392059201A90C4800F0B4
:1008E00051FB78B90A4800F009FD09B05DF804FB36
:1008F00040F202210848FFF757FE40F20721064860
:10090000FFF752FE4FF404710348FFF74DFE00BF9E
:10091000C443002000200040D039000808B50D482D
:100920000D4B0360062343600222C2600023036173
:1009300043618261C36103624362C36203634363D1
:1009400002F00FFA00B908BD40F229210348FFF771
:100950002BFE00BFC83D002000000440D039000835
:1009600008B50C480C4B03600C4B436000238360BC
:10097000C3604FF48042026143618361C3610362DB
:1009800002F09EFA00B908BD4FF49A710448FFF7CF
:100990000BFE00BF743D0020005C0040A0860100FB
:1009A000D039000800B595B0002101912B4B1A6C8D
:1009B00042F080521A641B6C03F080530193019B38
:1009C0000291274B1A6842F480421A601B6803F4B4
:1009D00080430293029B012308934FF480330993D1
:1009E00002230E934FF480020F92192210924FF4BB
:1009F000A872119212930723139308A801F0AAFB7F
:100A000020BB0F23039302230493002305934FF489
:100A1000A05306934FF480530793052103A801F0D8
:100A2000BBFDB8B901F086FE0E4BA3FB0030800978
:100A300002F02CFD042002F03FFD00220F214FF0B8
:100A4000FF3002F0E5FC15B05DF804FBDD2106483F
:100A5000FFF7AAFDEB210448FFF7A6FD003802408E
:100A600000700040D34D6210D039000800B587B047
:100A700002F056FCFFF796FFFFF72EFDFFF796FDFD
:100A8000FFF7B4FDFFF7D4FDFFF7ECFDFFF730FEF5
:100A9000FFF776FEFFF7D2FEFFF708FFFFF73EFFF6
:100AA000FFF75EFF01AC074D0FCD0FC42B6823602D
:100AB000002101A802F02AF9034B186002F021F985
:100AC000FEE700BFBC390008703D002030B4036A67
:100AD00023F001030362036A4468826922F073020F
:100AE0000D682A4323F002038D682B430F4DA84263
:100AF0001AD005F58065A84214D000255DB123F019
:100B00000803CD682B4323F0040324F440744D699B
:100B10002C438D692C43446082614A6842630362BE
:100B200030BC70470125E9E70125E7E700000140F7
:100B300030B4036A23F480730362036A4468C269B1
:100B400022F073020D682A4323F400738D6843EA90
:100B50000523114DA8421DD005F58065A84217D088
:100B6000002575B123F40063CD6843EA052323F41F
:100B7000806324F440544D6944EA05148D6944EAC5
:100B800005144460C2614A68C263036230BC7047A6
:100B90000125E6E70125E4E70000014030B4036ADF
:100BA00023F480530362036A4468C26922F4E64274
:100BB0000D6842EA052223F400538D6843EA0533A9
:100BC0000C4DA84213D005F58065A8420DD0002534
:100BD00025B124F480444D6944EA85144460C2611F
:100BE0004A680264036230BC70470125F0E70125C2
:100BF000EEE700BF000001400268D36843F0010344
:100C0000D3600268136843F001031360002070474B
:100C1000704770477047704710B5044603681A69FB
:100C200012F0020F11D0DA6812F0020F0DD06FF03F
:100C300002021A610123037603689B6913F0030F14
:100C400070D0FFF7E6FF0023237623681A6912F0BD
:100C5000040F12D0DA6812F0040F0ED06FF0040205
:100C60001A610223237623689B6913F4407F5FD0C7
:100C70002046FFF7CEFF0023237623681A6912F07F
:100C8000080F12D0DA6812F0080F0ED06FF00802C9
:100C90001A61042323762368DB6913F0030F4ED017
:100CA0002046FFF7B6FF0023237623681A6912F067
:100CB000100F12D0DA6812F0100F0ED06FF0100281
:100CC0001A61082323762368DB6913F4407F3DD043
:100CD0002046FFF79EFF0023237623681A6912F04F
:100CE000010F03D0DA6812F0010F36D123681A69B8
:100CF00012F0800F03D0DA6812F0800F34D123682D
:100D00001A6912F0400F03D0DA6812F0400F32D1A6
:100D100023681A6912F0200F03D0DA6812F0200F4E
:100D200030D110BDFFF774FF2046FFF773FF8AE74D
:100D30002046FFF76DFF2046FFF76CFF9BE720463C
:100D4000FFF766FF2046FFF765FFACE72046FFF799
:100D50005FFF2046FFF75EFFBDE76FF001021A61FB
:100D60002046FFF715FCC1E76FF080021A612046AC
:100D700002F03AFBC3E76FF040021A612046FFF72A
:100D80004AFFC5E76FF020021A61204602F02BFBF4
:100D9000C7E700000368454A90424AD0B0F1804F4F
:100DA00049D0A2F57C42904247D002F58062904241
:100DB00045D002F58062904243D002F578429042DD
:100DC00035D000221AB123F070034A681343374A22
:100DD00090423AD0B0F1804F50D0A2F57C42904280
:100DE0004ED002F5806290424CD002F58062904273
:100DF0004AD002F57842904248D002F570529042B3
:100E000046D002F58062904244D002F58062904262
:100E100042D0A2F59832904240D002F580629042D2
:100E20003ED002F5806290420DD000220EE00122F9
:100E3000C8E70122C6E70122C4E70122C2E7012276
:100E4000C0E70122BEE7012200E001221AB123F42B
:100E50004073CA68134303608B68C3620B68836284
:100E6000124B984220D003F5806398421AD0002399
:100E70000BB10B6903630123436170470122E5E76E
:100E80000122E3E70122E1E70122DFE70122DDE7BA
:100E90000122DBE70122D9E70122D7E70122D5E7CA
:100EA0000122D3E70123E3E70123E1E7000001404A
:100EB000A8B110B5044690F839305BB1022384F82C
:100EC0003930211D2068FFF765FF012384F8393090
:100ED000002010BD80F8383000F0E6F9EEE7012080
:100EE0007047A8B110B5044690F839305BB10223C1
:100EF00084F83930211D2068FFF74CFF012384F866
:100F00003930002010BD80F8383000F093F9EEE75A
:100F10000120704730B4036A23F010030362036AB0
:100F20004468826922F4E6420D6842EA052223F011
:100F300020038D6843EA0513114DA8421DD005F525
:100F40008065A84217D0002575B123F08003CD68D5
:100F500043EA051323F0400324F440644D6944EA56
:100F600085048D6944EA8504446082614A6882632D
:100F7000036230BC70470125E6E70125E4E700BFC6
:100F80000000014038B590F83830012B66D00D468E
:100F90000446012380F83830022380F839300C2AC7
:100FA0001AD8DFE802F0071919192019191934198C
:100FB000191947000068FFF789FD2268936943F01B
:100FC000080393612268936923F004039361226804
:100FD000936929690B439361012384F83930002018
:100FE00084F8380038BD0068FFF794FF22689369E1
:100FF00043F4006393612268936923F480639361EF
:1010000022689369296943EA01239361E4E7006850
:10101000FFF78EFD2268D36943F00803D36122688D
:10102000D36923F00403D3612268D36929690B4390
:10103000D361D1E70068FFF7B1FD2268D36943F4BB
:101040000063D3612268D36923F48063D36122688B
:10105000D369296943EA0123D361BDE7022038BD82
:1010600008B5032002F0C2F9002211466FF00B0010
:1010700002F0CEF9002211466FF00A0002F0C8F922
:10108000002211466FF0090002F0C2F90022114659
:101090006FF0040002F0BCF9002211466FF003006B
:1010A00002F0B6F900220F216FF0010002F0B0F952
:1010B00000220F214FF0FF3002F0AAF908BD000016
:1010C0000268124B9A4200D0704700B587B00021E9
:1010D000009103F5EA331A6C42F000721A641B6C3B
:1010E00003F000730093009B4FF4C053019302235D
:1010F00002930391032304930923059301A9044850
:1011000002F004FB07B05DF804FB00BF0064004080
:1011100000000240F0B589B00368254A934204D02C
:10112000244A93421CD009B0F0BDC023039312237C
:10113000049301230593032306930423079303A930
:101140001D4802F0E3FA002301931C4B1A6C42F491
:1011500000121A641B6C03F400130193019BE2E775
:101160004FF4007303931227049701260596032575
:1011700006950424079403A9114802F0C7FA4FF416
:1011800080730393049705960695079403A90D4869
:1011900002F0BCFA00230293084B1A6C42F40002DE
:1011A0001A641B6C03F400030293029BBBE700BFAD
:1011B00000540040005C004000040240003802403F
:1011C00000080240000002400268174B9A4200D01B
:1011D0007047F0B587B00024009403F586335A6C4D
:1011E00042F400625A645B6C03F400630093009B5A
:1011F0004FF4885301930227029703940326049621
:101200000C25059501A9094802F080FA04230193F1
:1012100002970394049605950DEB0301044802F030
:1012200075FA07B0F0BD00BF002C01400008024075
:10123000000C024084B00368B3F1804F07D0174A16
:10124000934211D0164A93421BD004B0704700233A
:101250000193144B1A6C42F001021A641B6C03F0E8
:1012600001030193019BF0E7002302930D4B1A6CDD
:1012700042F002021A641B6C03F002030293029B09
:10128000E3E700230393074B1A6C42F008021A6449
:101290001B6C03F008030393039BD6E70004004094
:1012A000000C00400038024082B00368104A9342AC
:1012B00004D0104A93420ED002B07047002300932E
:1012C0000D4B1A6C42F080021A641B6C03F0800311
:1012D0000093009BF0E700230193074B1A6C42F444
:1012E00080721A641B6C03F480730193019BE3E723
:1012F000001C0040002000400038024000B587B0CC
:101300000368B3F1804F0ED0294A93421AD0294A7C
:10131000934224D0284A93422ED0284A934239D06F
:1013200007B05DF804FB4FF440630193022302937E
:101330000023039304930123059301A9204802F09D
:10134000E5F9EDE7032301930223029300220392C0
:101350000492059301A91A4802F0D8F9E0E70F2397
:10136000019302230293002203920492059301A9A0
:10137000144802F0CBF9D3E74023019302230293F0
:101380000023039304930923059301A90D4802F058
:10139000BDF9C5E780230193022302930023039341
:1013A00004930923059301A9064802F0AFF9B7E7B2
:1013B00000040040000C0040001C004000200040E1
:1013C00000040240000002400268114B9A4200D023
:1013D000704710B586B04FF4404301930223029347
:1013E00000240394032304930C23059301A90948C3
:1013F00002F08CF90094084B1A6B42F000521A6309
:101400001B6B03F000530093009B06B010BD00BFA0
:1014100000000440000402400038024070B582B071
:10142000044600230193006801F0C8FB054610B193
:10143000284602B070BD206801F0D3FB064610B309
:101440000023A3642E46DEB9019B5A1C01924FF67D
:10145000FF72934244D00021206801F0D9FB00289C
:1014600041D10021206801F0EBFB064600283DD168
:101470000021206801F083FAC00FE4D00646E2E7BD
:1014800000236364D4E70123A3640546EDB9019BFF
:101490005A1C01924FF6FF7293422AD00021206815
:1014A00001F0B6FB05460028C2D14FF0804120680C
:1014B00001F0C6FB05460028BAD10021206801F0E2
:1014C0005EFAC30FE2D01D46E0E710F0804F03D173
:1014D000002363643546ABE7012363643546A7E721
:1014E0004FF08075A4E74FF08055A1E74FF080558D
:1014F0009EE74FF080759BE730B4436E9A0F0A70F9
:10150000C3F383624A70C3F301638B7090F8663053
:10151000CB7090F865300B7190F864304B7190F897
:101520006B301B01CB80B0F86A20CB889BB2C2F332
:1015300003142343CB8002F00F020A7290F8693043
:10154000DA094A72C3F380128A72C3F34012CA7274
:10155000C3F300120A7300224A73426C002A40F05F
:1015600092809B0203F440630B61836E0A699B00C7
:1015700003F47F7313430B61C36E0A6942EA9372EB
:101580000A61C3F3C2620A75C3F302634B75C26E8C
:10159000C2F30743C2F342548C75C2F38242CA7548
:1015A0005B0003F006030B76C26EC2F307230C7ECA
:1015B000C2F3C03222430A760A69013242650C7EC8
:1015C000023402FA04F444650A7AD5B20122AA4030
:1015D0008265520A02FB04F2C2654FF40072026691
:1015E000C3F380124A765B0003F07E038B76C36EF2
:1015F0008A7EC3F3C01422438A7603F07F03CB763E
:10160000036F1A0EDC0F0C77C3F341744C77C3F3EE
:1016100082638B77930003F00C03CB77036FCA7F51
:10162000C3F381542243CA77C3F3405281F8202088
:10163000002281F82120C3F3004381F82230036F98
:10164000C3F3C03481F82340C3F3803481F82440CD
:10165000C3F3403481F82540C3F3003481F82640B9
:10166000C3F3812481F82740C3F3012381F8283094
:10167000036FC3F3460381F82930012381F82A3030
:10168000104630BC7047012A0CD0036840F2FF526C
:101690009A63836B43F080538363012280F8342084
:1016A0001046EEE7836E1B0403F47C130B6190F885
:1016B0006F200B6943EA02230B610A6990F86E30D0
:1016C00013430B6190F86D300C690134A40244653A
:1016D000C4654FF400728265026681E770B590B010
:1016E00004460123ADF81230006801F02FF920B94B
:1016F0004FF08065284610B070BD636C032B1AD084
:10170000206801F0B6FA05460028F3D100212068D0
:1017100001F035F960670421206801F030F9A06715
:101720000821206801F02BF9E0670C21206801F006
:1017300026F9C4F88000636C032B07D00DF1120169
:10174000206801F0C0FA05460028D3D1636C032B52
:101750001DD0BDF8121021650904206801F09EFA21
:1017600005460028C6D10021206801F008F960660E
:101770000421206801F003F9A0660821206801F027
:10178000FEF8E0660C21206801F0F9F820670421DA
:10179000206801F0F4F8000DE06405A92046FFF789
:1017A000ABFE226D12040023206801F0EFF905461C
:1017B00000289FD1234653F8106B93E807008DE86B
:1017C0000700043494E80E00304601F09FF891E7DA
:1017D00070B58AB0054600240494059406940794D5
:1017E0000894762309930AAB13E907008DE80700F4
:1017F00004AB0ECB286801F089F8124E34602868DB
:1018000001F0A0F801233360022001F0B1FD284669
:10181000FFF704FE40B10346012085F83400AA6BAF
:101820001343AB630AB070BD2846FFF757FF03466A
:1018300030B1012085F83400AA6B1343AB63F1E7A4
:101840000020EFE7A0802542A8B110B5044690F82B
:10185000343063B1032384F834302046FFF7B8FFF7
:101860000020A0632063012384F8343010BD037787
:10187000FFF7AAFCEEE70120704700000F49D1F8FE
:10188000883043F47003C1F888300D4B1A6842F079
:1018900001021A60002098601A6822F0847222F413
:1018A00080321A60074A5A601A6822F480221A604D
:1018B000D8604FF000638B60704700BF00ED00E020
:1018C00000380240103000240A4B1B681B684BB9DB
:1018D00001234BB9074B1B68DB68DB685A68064B72
:1018E0001A6070470023F4E74FF0FF32024B1A6092
:1018F000704700BF300000200801002010B50446EA
:10190000006B01F0CBFE204601F0C8FE10BD2DE9B2
:10191000F04780469946089D099F0A9C266B02F174
:101920008042013A06EB820626F0070600230F2BC1
:1019300007D8C85CE21882F83400CA5C0AB10133E7
:10194000F5E7002384F84330062D00D90625E5622B
:1019500065644FF0000AC4F848A0201D01F049FB5F
:1019600004F1180001F045FB2461C5F10705A561EC
:101970006462C4F84CA084F850A04A464146304600
:10198000FEF770FC206007B13C60BDE8F087000006
:1019900038B5002407E004EB840293000E48184495
:1019A00001F01CFB0134062CF5D90C4D284601F042
:1019B00015FB0B4C204601F011FB0A4801F00EFB11
:1019C000094801F00BFB094801F008FB084B1D60BA
:1019D000084B1C6038BD00BF38000020DC00002030
:1019E000F0000020100100203C0100202801002010
:1019F000300000203400002010B50446FEF75AFCE9
:101A0000204A1368013313601F4B1B68002B31D031
:101A10001E4B1B683BB91C4B1B68DA6AE36A9A428F
:101A200001D8194B1C601A4A136801331360E36A2A
:101A300001229A401749086802430A6003EB8303B6
:101A40009A00211D1448104401F0D6FAFEF754FC08
:101A50000E4B1B686BB10C4B1B68DA6AE36A9A4247
:101A600007D24FF080520D4B1A60BFF34F8FBFF378
:101A70006F8F10BD044B1C601368012BD3D1FFF78F
:101A800087FFD0E7C40000202C00002024010020A4
:101A9000D4000020D80000203800002004ED00E031
:101AA00070B504460E461D4B1D681D4B186804306A
:101AB00001F0C8FA50B91A4B1B68DA6A012303FA1D
:101AC00002F218490B6823EA02030B60B4F1FF3FEE
:101AD00013D02C44124B1B685C60A54216D8124BE5
:101AE00018680F4B1968043101F092FA0F4B1B680C
:101AF0009C4201D20D4B1C6070BD002EE9D0084BFA
:101B0000196804310A4801F077FA70BD094B18686A
:101B1000034B1968043101F07BFA70BD50010020BD
:101B20002C000020D80000203000002008010020F8
:101B300028010020340000202DE9F04385B006463E
:101B40000F4615469846900001F024FD00B38146EB
:101B5000542001F01FFD0446B0B1C0F83090CCB164
:101B60000023039302940D9B01930C9B0093434627
:101B70002A4639463046FFF7CAFE2046FFF73CFFAB
:101B8000012005B0BDE8F083484601F087FDE6E797
:101B90000024E4E74FF0FF30F3E7000000B583B026
:101BA000174B019300230093802216491648FFF734
:101BB000C3FF012805D0B0F1FF3F17D003B05DF897
:101BC00004FB4FF0500383F31188BFF36F8FBFF313
:101BD0004F8F4FF0FF320D4B1A6001220C4B1A60F1
:101BE00000220C4B1A60FEF701FCE7E74FF05003B0
:101BF00083F31188BFF36F8FBFF34F8FFEE700BFF2
:101C000004010020003A0008F11E0008080100202D
:101C10002401002050010020024A136801331360A0
:101C2000704700BFD0000020F8B53C4B1B68002B6C
:101C300068D13B4B1D6801351D60C5B9394B1B6828
:101C40001B6843B14FF0500383F31188BFF36F8FCC
:101C5000BFF34F8FFEE7334A1168334B18681060AB
:101C60001960324A136801331360FFF72DFE304BC1
:101C70001B689D423AD200242E4B1B68DB6A03EBA3
:101C800083039A002C4B9B58012B40D901243EE042
:101C90000124244B1B681B6853B3002353BB214B07
:101CA0001B68DB68DE6873689D4228D3371D3846A1
:101CB00001F0C8F9B36A1BB106F1180001F0C2F9CE
:101CC000F36A01229A401D49086802430A6003EB47
:101CD00083039A0039461848104401F08DF9F26ADE
:101CE000144B1B68DB6A9A42D2D2D2E70024D0E7B9
:101CF0000123D3E74FF0FF320D4B1A60BCE70C4ACB
:101D00001360B9E70E4A13680133136000240D4BCA
:101D10001B6803B101242046F8BD00BFD00000209D
:101D20005001002030000020340000200C01002071
:101D3000080100202C00002038000020D8000020DE
:101D4000CC0000205401002038B5354B1B6843B946
:101D50004FF0500383F31188BFF36F8FBFF34F8FA2
:101D6000FEE7FEF7A7FA2E4B1A68013A1A601B68C5
:101D7000002B50D12B4B1B6823B90024FEF7BCFA73
:101D8000204638BD0024284B1B681BB3264BDB685C
:101D9000DC6804F1180001F055F9251D284601F012
:101DA00051F9E36A01229A402049086802430A6017
:101DB00003EB83039A0029461D48104401F01CF9E7
:101DC000E26A1C4B1B68DB6A9A42DCD301221A4B85
:101DD0001A60D8E70CB1FFF777FD184B1C6874B98F
:101DE000154B1B68CBB14FF08052154B1A60BFF3F7
:101DF0004F8FBFF36F8F0124C0E7013C07D0FFF77F
:101E000013FF0028F9D001220B4B1A60F5E70022DE
:101E10000A4B1A60E4E70024B0E70024AEE700BFF5
:101E2000D0000020C400002010010020D8000020B5
:101E3000380000202C00002054010020CC0000209D
:101E400004ED00E010B5A8B10446104B1B6843B187
:101E50004FF0500383F31188BFF36F8FBFF34F8FA1
:101E6000FEE7FFF7D9FE00212046FFF719FEFFF736
:101E70006BFF00E0002038B94FF08052044B1A602D
:101E8000BFF34F8FBFF36F8F10BD00BFD000002096
:101E900004ED00E0134B1B6813B310B5FFF7BCFE55
:101EA000114B1C68FFF750FF24B90E4B1B68002B29
:101EB000F4D110BDFEF7FEF90B4BDB68DC68201D8A
:101EC00001F0C0F8094A1368013B1360054A136822
:101ED000013B1360FEF710FA2046FFF70FFDE4E721
:101EE000704700BFC80000203C010020C400002053
:101EF00008B5FFF7CFFF064B1B68012BF9D94FF050
:101F00008052044B1A60BFF34F8FBFF36F8FF0E71F
:101F10003800002004ED00E0214B1B68C3B900220B
:101F2000204B1A60204B1B68B3FA83F3DBB2C3F17A
:101F30001F0303EB83018A001C498A5862B94FF0E2
:101F4000500383F31188BFF36F8FBFF34F8FFEE70A
:101F50000122144B1A60704710B414489A00D41828
:101F6000A10001444C6864684C601A449100083137
:101F7000084484420BD003EB83039A000B4B1344B9
:101F80005B68DA680A4B1A605DF8044B704760685A
:101F900003EB83029100054A0A445060EBE700BF5F
:101FA000D000002054010020D8000020380000207C
:101FB0002C000020054B1B6823B1054B1B681BB987
:101FC0000220704701207047002070472401002044
:101FD000D0000020002800F0BB8038B5044690F8FF
:101FE0003C3003B3022384F83C302268136823F0AA
:101FF000020313602268136843F00103136001F0C9
:10200000B1F9054623685A6812F0010F10D101F0AA
:10201000A9F9401B0A28F5D9032084F83C000023C5
:1020200084F83D3038BD80F83D30FFF749F8D9E7F6
:102030005A6812F0010F7CD0A269012A50D01A68A8
:1020400022F080021A60E369012B4ED022681368E7
:1020500023F040031360236A012B4CD022681368DD
:1020600023F020031360636A012B4AD022681368AF
:1020700023F010031360A36A012B48D02268136871
:1020800023F008031360E36A012B46D0226813682B
:1020900023F0040313602168A368E26813432269F4
:1020A0001343626913436268013A1343CB612268A8
:1020B000136823F00103136001F054F90546236807
:1020C0005A6812F0010F2ED001F04CF9401B0A287B
:1020D000F5D9032084F83C00002384F83D3038BD56
:1020E0001A6842F080021A60ADE72268136843F074
:1020F00040031360AFE72268136843F020031360C6
:10210000B1E72268136843F010031360B3E7226855
:10211000136843F008031360B5E72268136843F0BF
:1021200004031360B7E75B6813F0010F08D00023C6
:1021300000E0002333B9042384F83C30012038BD8B
:102140000123F7E700202064012384F83C3038BDE8
:102150000120704730B583B00446036813F0010FC7
:102160003BD0A94B9B6803F00C03042B2CD0A64B4F
:102170009B6803F00C03082B21D06368B3F5803F04
:102180004FD0B3F5A02F52D09F4B1A6822F4803263
:102190001A601A6822F480221A606368002B50D0FB
:1021A00001F0E0F80546984B1B6813F4003F14D18A
:1021B00001F0D8F8401B6428F5D9032099E1924B2F
:1021C0005B6813F4800FD8D08F4B1B6813F4003F6B
:1021D00003D06368002B00F08981236813F0020F9D
:1021E0005BD0894B9B6813F00C0F3ED0864B9B68ED
:1021F00003F00C03082B33D0E368002B74D00122CA
:10220000824B1A6001F0AEF805467F4B1B6813F055
:10221000020F5AD101F0A6F8401B0228F5D903207D
:1022200067E1794A136843F480331360B5E7764B6E
:102230001A6842F480221A601A6842F480321A60E6
:10224000ABE701F08FF805466F4B1B6813F4003FB6
:10225000C3D001F087F8401B6428F5D9032048E17A
:10226000694B5B6813F4800FC6D1674B1B6813F092
:10227000020F04D0E368012B01D0012039E162484C
:10228000036823F0F8032169F82292FAA2F2B2FA65
:1022900082F201FA02F213430360236813F0080F7D
:1022A00046D0636993B30122594B1A6001F05AF882
:1022B0000546554B5B6F13F0020F39D101F052F810
:1022C000401B0228F5D9032013E14F48036823F08F
:1022D000F8032169F82292FAA2F2B2FA82F201FA24
:1022E00002F213430360D8E70022484B1A6001F062
:1022F00039F80546444B1B6813F0020FCDD001F0AE
:1023000031F8401B0228F5D90320F2E00022404BAF
:102310001A6001F027F805463B4B5B6F13F0020F84
:1023200006D001F01FF8401B0228F5D90320E0E099
:10233000236813F0040F20D1A369002B00F0D8808C
:10234000314A926802F00C02082A00F0D480022B75
:1023500000F0808000222F4B1A6001F003F8044641
:10236000294B1B6813F0007F00F0BE8000F0FAFFDD
:10237000001B0228F4D90320BBE000230193224B69
:102380001A6C42F080521A641B6C03F08053019364
:10239000019B214A136843F48073136000F0E2FF4D
:1023A00005461D4B1B6813F4807F06D100F0DAFF51
:1023B000401B0228F5D903209BE0A368012B1DD008
:1023C000052B2BD0104B1A6F22F001021A671A6FDF
:1023D00022F004021A67A36853B300F0C3FF054656
:1023E000094B1B6F13F0020FA6D100F0BBFF401B7F
:1023F00041F288339842F3D903207AE0024A136FFE
:1024000043F001031367E6E700380240000047424B
:10241000800E47426000474200700040374B1A6F01
:1024200042F004021A671A6F42F001021A67D2E7FB
:1024300000F098FF0546314B1B6F13F0020F3FF47D
:102440007BAF00F08FFF401B41F288339842F2D9F6
:1024500003204EE000222A4B1A6000F083FF05465D
:10246000264B1B6813F0007F06D000F07BFF401B5B
:102470000228F5D903203CE0E369226A1343616A2C
:1024800047F6C07292FAA2F2B2FA82F201FA02F2AE
:102490001343A26A5208013A4FF4403191FAA1F174
:1024A000B1FA81F18A401343E16A4FF0706292FA07
:1024B000A2F2B2FA82F201FA02F213430F4A536017
:1024C00001220F4B1A6000F04DFF04460B4B1B68B6
:1024D00013F0007F06D100F045FF001B0228F5D95C
:1024E000032006E0002004E0002002E0012000E0DC
:1024F000002003B030BD0120FBE700BF00380240E0
:1025000060004742214B9B6803F00C03042B3AD038
:10251000082B01D01E4870471C4B586800F03F0044
:102520005B6813F4800F1ED01A4AB2FBF0F2174B0F
:10253000586847F6C073184093FAA3F3B3FA83F3CD
:10254000D84000FB02F0114B5B6803F440334FF4BA
:10255000403292FAA2F2B2FA82F2D34001335B0027
:10256000B0FBF3F070470A4AB2FBF0F2074B586831
:1025700047F6C073184093FAA3F3B3FA83F3D84035
:1025800000FB02F0DFE70348704700BF003802405D
:102590000024F40040787D01624B1B6803F00F03B8
:1025A0008B4209D2CBB25F4A1370136803F00F035A
:1025B000994201D00120704770B5036813F0020FF3
:1025C00006D0594A936823F0F0038468234393604C
:1025D0000D460446036813F0010F64D04368012BD5
:1025E00026D09A1E012A2AD94F4A126812F0020FE9
:1025F00000F096804C498A6822F0030213438B60F6
:1026000000F0B0FE06466368012B1FD0022B2CD0D1
:10261000032B39D0444B9B6813F00C0F43D000F0D0
:10262000A1FE801B41F288339842F3D9032070BD8C
:102630003D4A126812F4003FDCD1012070BD3A4AD5
:10264000126812F0007FD5D1012070BD364B9B6817
:1026500003F00C03042B26D000F084FE801B41F213
:1026600088339842F2D9032070BD2F4B9B6803F04A
:102670000C03082B17D000F075FE801B41F2883345
:102680009842F2D9032070BD274B9B6803F00C03DE
:102690000C2B08D000F066FE801B41F28833984274
:1026A000F2D9032070BD1F4B1B6803F00F039D423E
:1026B00009D2EAB21B4B1A701B6803F00F039D424C
:1026C00001D0012070BD236813F0040F06D0164A14
:1026D000936823F4E053E1680B439360236813F09D
:1026E000080F07D0104A936823F46043216943EA36
:1026F000C1039360FFF706FF0B4B9B6803F0F003E9
:10270000F02292FAA2F2B2FA82F2D340074AD35CE4
:10271000D840074B1860002000F094FB002070BDEB
:10272000012070BD003C024000380240E83900083A
:1027300004000020014B1868704700BF040000200F
:1027400008B5FFF7F7FF074B9B6803F4E0534FF41E
:10275000E05292FAA2F2B2FA82F2D340024AD35C79
:10276000D84008BD00380240F839000808B5FFF726
:10277000E1FF074B9B6803F460434FF4604292FA19
:10278000A2F2B2FA82F2D340024AD35CD84008BD2A
:1027900000380240F83900080F2303600B4B9A6899
:1027A00002F0030242609A6802F0F00282609A68C6
:1027B00002F4E052C2609B68DB0803F4E05303615B
:1027C000034B1B6803F00F030B6070470038024097
:1027D000003C02400C4B1B680C4AA2FB03235A0A24
:1027E00041F2883303FB02F35A1E4BB1416B13468F
:1027F00011F0800FF8D040F2FF5383630020704740
:102800004FF00040704700BF04000020D34D62101D
:10281000144B1B68144AA2FB03235A0A41F2883363
:1028200003FB02F35A1ECBB1416B134611F0450F67
:10283000F8D0436B13F0040F03D0042383631846CE
:102840007047436B13F0010F04D140F2FF538363D1
:102850000020704701238363184670474FF0004003
:10286000704700BF04000020D34D6210104B1B685E
:10287000104AA2FB03235A0A41F2883303FB02F3F6
:102880005A1E8BB1416B134611F0450FF8D0436BC4
:1028900013F0040F03D0042383631846704740F2FB
:1028A000FF538363002070474FF00040704700BF24
:1028B00004000020D34D6210124B1B68124AA2FB89
:1028C00003235A0A41F2883303FB02F35A1EA3B1D1
:1028D000416B134611F0450FF8D0436B13F0040F12
:1028E00003D04023836304207047436B13F0400FF1
:1028F00006D040238363002070474FF000407047AC
:102900000020704704000020D34D621084B010B442
:1029100002AC84E80E00039A0B461343049A134357
:10292000059A1343069A1343079A1343426822F405
:10293000FD4222F07F021343436000205DF8044B08
:1029400004B070470323036000207047006800F064
:10295000030070470B6883604B688A681343CA683A
:1029600013430A691343C26822F47F6222F00F0204
:102970001343C360002070470069C0B2704782B043
:1029800000230193143001440191019B186802B0A7
:102990007047000038B5524B1B68524CA4FB0343F0
:1029A0005B0A02FB03F2531E002A63D0446B1A46F3
:1029B00014F0450FF7D0436B13F0040F03D004233A
:1029C0008363184638BD436B13F0010F03D0012316
:1029D0008363184638BD0D460446FFF7CDFFA84275
:1029E00001D0012038BD40F2FF53A36300212046EF
:1029F000FFF7C5FF3C4B0340002B3ED000283EDBD9
:102A000010F0804F01D0402038BD10F0005F01D0A1
:102A1000802038BD10F0805F34D110F0006F34D1C9
:102A200010F0806F34D110F0807F34D110F4000F9B
:102A300034D110F4800F34D110F4001F34D110F4CD
:102A4000801F34D110F4802F34D110F4003F34D1E2
:102A500010F4803F34D110F4004F34D110F4804F83
:102A600034D110F4005F34D110F0080F34D04FF49B
:102A7000000038BD4FF0004038BD002038BD4FF099
:102A8000007038BD4FF4807038BD4FF4007038BD11
:102A90004FF4806038BD4FF4006038BD4FF4805073
:102AA00038BD4FF4005038BD4FF4804038BD4FF46E
:102AB000004038BD4FF4003038BD4FF4802038BDA1
:102AC0004FF4002038BD4FF4801038BD4FF4001093
:102AD00038BD4FF4800038BD4FF4803038BD00BFA2
:102AE00004000020D34D621008E0FFFD70B5254BB7
:102AF0001B68254CA4FB03435C0A41F2883303FBAB
:102B000004F35C1E002B37D0456B234615F0450FB0
:102B1000F7D0436B13F0040F03D0042383631846EC
:102B200070BD436B13F0010F03D00123836318467C
:102B300070BD16460D460446FFF71EFFA84201D0A1
:102B4000012070BD40F2FF53A36300212046FFF730
:102B500016FF10F4604F05D010F4804F06D04FF4EC
:102B6000005070BD000C3080002070BD10F4004F8C
:102B700005D04FF4805070BD4FF0004070BD4FF451
:102B8000803070BD04000020D34D621030B587B096
:102B900005460192072402944023039300230493E3
:102BA0004FF48063059301A9FFF7D4FE41F2883208
:102BB00021462846FFF7EEFE07B030BD10B586B0BF
:102BC0000446002301930293039304934FF480631C
:102BD000059301A9FFF7BEFE2046FFF7FBFD06B0F7
:102BE00010BD10B586B004464FF4D5730193082389
:102BF000029340230393002304934FF480630593CF
:102C000001A9FFF7A7FE2046FFF756FE06B010BD4C
:102C100030B587B0054601913724029440230393D1
:102C2000002304934FF48063059301A9FFF792FEFC
:102C300041F2883221462846FFF7ACFE07B030BD8E
:102C400010B586B0044641F0004141F48011019175
:102C50002923029340230393002304934FF48063BA
:102C6000059301A9FFF776FE2046FFF7FFFD06B0AA
:102C700010BD10B586B004460023019302220292D3
:102C8000C022039204934FF48063059301A9FFF7D8
:102C900061FE2046FFF7BCFD06B010BD10B586B042
:102CA0000446019109230293C02303930023049354
:102CB0004FF48063059301A9FFF74CFE2046FFF710
:102CC000A7FD06B010BD70B586B005460E460023C0
:102CD0000193032402944022039204934FF48063EF
:102CE000059301A9FFF736FE324621462846FFF735
:102CF000FDFE06B070BD842801D00330704700206F
:102D0000704708B5FEF74AFF002008BDF0B585B052
:102D10000F46446805680669B0F90800FFF7EBFF45
:102D200003AB019300903B46B2B229462046FEF722
:102D300003FF012802D1039805B0F0BD0020FBE796
:102D400008B5034600B901231846FFF77BF80020B9
:102D500008BD08B5FFF72EF9012801D0FDF71AFBD1
:102D600008BD00286BD0F0B58BB00446032380F873
:102D7000B933FEF729FB206800F0B5F9254655F870
:102D8000107B6E460FCD0FC60FCD0FC695E8030022
:102D900086E80300231D0ECB384600F066F90021BB
:102DA000206800F0A6F9002210E0D100891A8B00FB
:102DB0002344012183F8391083F83820DA87002171
:102DC00083F83B1019645964D96401320E2AECD996
:102DD000002218E0D100891A8B002344002183F8D7
:102DE000F91183F8F821DA8783F8FB11C3F8001290
:102DF000C3F80412C3F80C12236802F1400003EB7D
:102E00008003596001320E2AE4D9254655F8107B1B
:102E10006E460FCD0FC60FCD0FC695E8030086E8AE
:102E20000300231D0ECB384600F07AF9012384F805
:102E3000B933206800F049FA00200BB0F0BD012042
:102E40007047000010B588B000220146192000F03C
:102E5000DFFA192000F00EFB00240194144B5A6C89
:102E600042F001025A645B6C03F001030193019B81
:102E700002A903A8FFF790FCFFF778FC43000D4878
:102E8000A0FB03239B0C013B0B480C4A026040F261
:102E9000E732C260436004618460FEF709F810B154
:102EA000012008B010BD0448FDF7A6FEF9E700BFF9
:102EB0000038024083DE1B43004400200000014034
:102EC000002800F0828038B5044690F83D30002B91
:102ED00041D0242384F83D302268136823F0010395
:102EE0001360FFF72DFC3A4BA3FB00239B0C2268D9
:102EF000536021686568374A954231D801330B62C7
:102F000021686368334A934234D85B00B0FBF3F026
:102F1000C0F30B03032B00D80420C8612268E369C7
:102F2000216A0B43136022682369E1680B439360B5
:102F300022686369A1690B43D3602268136843F078
:102F40000103136000202064202384F83D302063B7
:102F500084F83E0038BD80F83C30FEF7DBF8B8E777
:102F60004FF4967202FB03F31B4AA2FB03239B0957
:102F70000133C4E7A5688DB903EB4302B0FBF2F25D
:102F8000C2F30B02B2FA82F25209E2B995B903EB2D
:102F90004303B0FBF3F040F40040BEE703EB8302D1
:102FA00002EB8202B0FBF2F2C2F30B02B2FA82F23F
:102FB0005209EAE703EB830303EB8303B0FBF3F06F
:102FC00040F44040A9E70120A7E70120704700BF77
:102FD00083DE1B43A0860100D34D621000F108037D
:102FE00043604FF0FF328260C360036100230360DF
:102FF000704700230361704743684B609A688A609A
:103000009A685160996008610368013303607047F2
:1030100030B40D68B5F1FF3F02D000F1080202E0C4
:10302000026904E01A4653681C68A542FAD2536844
:103030004B6099608A6051600861036801330360E6
:1030400030BC70470369426881689160826841685A
:1030500051605A68904205D0002202611868013818
:103060001860704782685A60F6E784B010B504466D
:1030700003A880E80E00089B012B11D0E36843F001
:103080004003E360204600F02DF94FF48033A36342
:10309000069B012B1ED00020BDE8104004B07047F5
:1030A000A36B23F48033A363E36823F4840323F046
:1030B0004003E360E36823F44013E3600F9B012BBC
:1030C00003D0204600F00EF9E2E7E36843F48013F2
:1030D000E360F6E7A36843F00603A360A36843F048
:1030E0002003A360D7E7836823F0010383600020F7
:1030F000704708B5C36823F0C043C360012909D0F5
:1031000019B9C36843F08043C360322000F030F93E
:10311000002008BDC36843F00053C360F5E700001A
:1031200084B0F8B5054607A880E80E00119F1FBBC4
:10313000AB6B43F40013AB632C460023C5F8003E91
:1031400005F50066D5F80038C5F800380C9B012B52
:1031500017D00321284600F0B1F81021284600F0CE
:1031600087F8284600F098F80023336173614FF028
:10317000FF32B261F36119E0AB6B43F40023AB6340
:10318000DAE7099B23B90021284600F097F8E4E725
:103190000121284600F092F8DFE74FF09040C2F896
:1031A000000900220A61FF228A60013307998B42DD
:1031B0000BD204EB431202F51061D2F8000900288B
:1031C000EBDB0020C2F80009EBE7002308E04FF03A
:1031D000904EC2F800EB00220261FF2282600133B0
:1031E0008B420DD204EB431202F53060D2F800EBB3
:1031F000BEF1000FEBDB4FF0000EC2F800EBEAE788
:10320000336923F4807333610A9B012B1AD00022A7
:10321000AA616FF080426A611BB9AB6943F0100389
:10322000AB61AA69104B1343AB610D9B1BB1AB693A
:1032300043F00803AB61012F0ED00020BDE8F84039
:1032400004B07047094A3263326B42F4803242F074
:1032500003023263326BDAE7AB6943F0804343F039
:103260000403AB61E9E700BF00383C800001800047
:10327000890141F02001016100230133054A934295
:1032800005D8026912F0200FF7D100207047032003
:10329000704700BF400D030010230361002301337A
:1032A000054A934205D8026912F0100FF7D10020A9
:1032B00070470320704700BF400D0300D0F800386E
:1032C0001943C0F800180020704708B5D0F804383A
:1032D00043F00203C0F80438032000F049F800204E
:1032E00008BD0000002301330C4A934211D8026943
:1032F000002AF8DA036943F0010303610023013374
:10330000064A934207D8026912F0010FF7D1002054
:103310007047032070470320704700BF400D030033
:1033200008B50B4B1A6842F400721A601A6842F42E
:1033300080621A601A6842F480721A60032000F0FA
:1033400055F80020FFF77EFDFDF78AFE002008BD3E
:10335000003C0240024A136801331360704700BF0B
:103360003C440020014B1868704700BF3C440020DB
:1033700030B583B00190FFF7F5FF0546019CB4F12D
:10338000FF3F00D00134FFF7EDFF401BA042FAD30E
:1033900003B030BD90F83830012B22D030B4012278
:1033A00080F83820022380F839300468636823F0FD
:1033B00070036360046863680D682B43636004688E
:1033C000A36823F08003A3600468A36849680B43E3
:1033D000A36080F83920002380F83830184630BCCC
:1033E000704702207047704770470000074AD36853
:1033F00023F4E0631B041B0C000200F4E06018439C
:1034000040F0BF6040F40030D060704700ED00E055
:1034100030B4164BDB68C3F30223C3F10704042C5A
:1034200028BF04241D1D062D17D9033B012505FACD
:1034300004F4013C2140994005FA03F3013B134099
:10344000194300280BDB0901C9B200F1604000F507
:10345000614080F8001330BC70470023E6E700F0BD
:103460000F000901C9B2024B1954F4E700ED00E066
:1034700014ED00E0420900F01F00012303FA00F000
:10348000014B43F82200704700E100E00138B0F141
:10349000807F0AD2064B5860F021064A82F823103A
:1034A0000020986007221A6070470120704700BF13
:1034B00010E000E000ED00E0042805D0054A1368A4
:1034C00023F0040313607047024A136843F00403B7
:1034D0001360704710E000E0124A12F0070F1ED090
:1034E000D11D21F00701C1F5705313440A460E485F
:1034F0000260002141601344083B23F007030B489E
:10350000036059601960991A51601360084B196083
:10351000084B19604FF00042074B1A6070474FF498
:103520007053E4E75C010020683D00205801002052
:10353000643D0020603D00205C3D002010B4134B32
:103540001A6882421BD359685C18A04203D14068B4
:1035500001445960184641684418A24213D10C4CEA
:103560002468A2420DD05268114441601A68126862
:103570000260984200D018605DF8044B7047134613
:10358000DEE70460F5E70260F3E700BF683D002076
:103590005801002070B50446FEF73EFB3A4B1B680D
:1035A000BBB13A4B1B681C4263D1ACB1083414F078
:1035B000070F11D024F00704083404F007035BB1AF
:1035C0004FF0500383F31188BFF36F8FBFF34F8F1A
:1035D000FEE7FFF781FFE4E7002C4CD02C4B1B6883
:1035E0009C424AD82B4B1D6801E02B4615466A6861
:1035F000944202D92A68002AF7D1234A12689542D8
:103600003DD01E6808362A681A606B681B1B102B99
:1036100010D9281910F0070F08D04FF0500383F38A
:103620001188BFF36F8FBFF34F8FFEE743606C606D
:10363000FFF784FF6A6816490B689B1A0B601649EE
:1036400009688B4201D214490B60104B1B6813436D
:103650006B6000232B60FEF777FB16F0070F10D08E
:103660004FF0500383F31188BFF36F8FBFF34F8F79
:10367000FEE70026EFE70026EDE70026EBE7002651
:10368000E9E7304670BD00BF580100205C3D0020D6
:10369000603D0020683D0020643D002080B338B5C7
:1036A0000446A0F1080550F8042C164909680A429E
:1036B00008D14FF0500383F31188BFF36F8FBFF32E
:1036C0004F8FFEE750F8080C40B14FF0500383F3E2
:1036D0001188BFF36F8FBFF34F8FFEE722EA01021D
:1036E00044F8042CFEF798FA54F8041C064A1368B0
:1036F0000B4413602846FFF721FFFEF725FB38BD7A
:10370000704700BF5C3D0020603D0020F0B583B0F5
:1037100000244BE04FEAD40E0EF1080E50F82E2094
:1037200004F00706B6000F27B74022EA07020F6928
:1037300007FA06F6324340F82E2046E0072600E05E
:10374000002606FA0EF6324302335E4E46F8232078
:103750005D4B1A68EB4302EA03064F6817F4803F9B
:1037600001D045EA0206584A1660526803EA02068A
:103770004F6817F4003F01D045EA0206524A5660EE
:10378000926803EA02064F6817F4801F01D045EAE9
:1037900002064D4A9660D26813404E6816F4001F28
:1037A00001D045EA0203484AD36001340F2C00F2ED
:1037B00086800123A3400A6803EA0205AB42F4D1E4
:1037C0004A68022AA6D0122AA4D006684FEA440EFC
:1037D000032202FA0EF2D24316404F6807F00307A5
:1037E00007FA0EF73E4306604E68771E012F03D995
:1037F000112E01D0122E0FD186681640CF6807FA1D
:103800000EF73E438660466826EA03034E68C6F319
:103810000016A64033434360C3681A408B6803FA1E
:103820000EF31A43C2604B6813F0805FBDD00023D3
:103830000193264B5A6C42F480425A645B6C03F449
:1038400080430193019BA3089E1C1E4A52F8262028
:1038500004F003064FEA860E0F2606FA0EF622EA59
:1038600006021B4FB8423FF46BAF1A4EB0421AD05B
:1038700006F58066B04218D006F58066B04216D0D4
:1038800006F58066B04214D006F58066B04212D0CC
:1038900006F58066B04210D006F58066B0423FF46F
:1038A0004DAF08264DE701264BE7022649E70326E0
:1038B00047E7042645E7052643E7062641E703B028
:1038C000F0BD00BF00380140003C0140003802401C
:1038D000000002400004024012B9090481617047EF
:1038E000816170477047FEE7FEE7FEE7FEE770473D
:1038F00008B5FFF72EFA08BD08B50248FDF78CF9A8
:1039000008BD00BF00440020DFF834D0002103E0F0
:103910000C4B5B58435004310B480C4B42189A42F5
:10392000F6D30B4A02E0002342F8043B094B9A42CB
:10393000F9D3FDF7A3FF00F011F8FDF797F87047F2
:1039400000000220103A00080000002008000020BB
:103950000800002040440020FEE7000070B50D4E36
:103960000D4CA41BA4100025A54209D10B4E0C4CF4
:1039700000F018F8A41BA4100025A54205D170BDC5
:1039800056F8253098470135EEE756F82530984728
:103990000135F2E7083A0008083A0008083A00083A
:1039A0000C3A0008F8B500BFF8BC08BC9E4670474A
:0C39B000F8B500BFF8BC08BC9E4670478C
:1039BC00DC3900088505000800000000000000004C
:1039CC00800000005372632F6D61696E2E630000DE
:1039DC0064656661756C745461736B000000000063
:1039EC0000000000010203040607080900000000A3
:0C39FC000102030449444C450000000097
:043A0800B5010008FC
:043A0C00910100081C
:083A1000AAAAAAAA0024F400EE
:0400000508003909AD
:00000001FF
