:020000040800F2
:100000000000022091590008494900084B490008A6
:100010004D4900084F490008514900080000000000
:100020000000000000000000000000009102000835
:10003000534900080000000031030008554900083A
:10004000E1590008E1590008E1590008E1590008A8
:10005000E1590008E1590008E1590008E159000898
:10006000E1590008E1590008E1590008E159000888
:10007000E1590008E1590008E1590008E159000878
:10008000E1590008E1590008E1590008E159000868
:10009000E1590008E1590008E1590008E159000858
:1000A000E15900085D490008E1590008E1590008DC
:1000B000E1590008E1590008E1590008E159000838
:1000C000E1590008E1590008E1590008E159000828
:1000D000E1590008E1590008E1590008E159000818
:1000E000E1590008E1590008E1590008E159000808
:1000F000E1590008E1590008E1590008E1590008F8
:10010000E1590008E1590008E1590008E1590008E7
:10011000E1590008E1590008E1590008E1590008D7
:10012000E1590008E1590008E1590008E1590008C7
:10013000E15900080000000000000000E15900083B
:10014000E1590008E1590008E1590008E1590008A7
:10015000E1590008E1590008E1590008E159000897
:10016000E1590008E1590008E1590008E159000887
:10017000E15900086D49000800000000000000007F
:08018000E1590008E1590008F3
:1001900010B5054C237833B9044B13B10448AFF3C1
:1001A00000800123237010BDC0010020000000006A
:1001B000E45B00080C4B43B10C480D4910B5AFF39C
:1001C00000800C48036823B910BD0A48036833B99E
:1001D0007047094B002BF7D0BDE810401847064B7D
:1001E000002BF5D0184700BF00000000E45B0008BA
:1001F000C4010020C0010020000000000B4B1B6860
:10020000B3F1FF3F08D04FF0500383F31188BFF3E1
:100210006F8FBFF34F8FFEE74FF0500383F31188CA
:10022000BFF36F8FBFF34F8FFEE700BF00000020CA
:1002300006480068006880F3088862B661B6BFF3BC
:100240004F8FBFF36F8F00DF00BF000008ED00E0AD
:10025000DFF80C00016841F4700101607047000094
:1002600088ED00E04FF0807340F8043C21F001017C
:1002700040F8081C054B40F80C3C40F8202C6FF06F
:10028000020340F8243C4438704700BFFD010008D9
:10029000074B19680868B0E8F04F80F30988BFF38E
:1002A0006F8F4FF0000080F311887047AFF300802C
:1002B000E40100204FF0500383F31188BFF36F8FE8
:1002C000BFF34F8F0A4A136801331360012B0DD11E
:1002D000084B1B6813F0FF0F08D04FF0500383F357
:1002E0001188BFF36F8FBFF34F8FFEE7704700BFDA
:1002F0000000002004ED00E0094B1B6843B94FF0FB
:10030000500383F31188BFF36F8FBFF34F8FFEE766
:10031000013B034A13600BB983F31188704700BF98
:1003200000000020000000000000000000000000AD
:10033000EFF30980BFF36F8F154B1A681EF0100F93
:1003400008BF20ED108A20E9F04F10604DF8043D01
:100350004FF0500080F31188BFF34F8FBFF36F8FC2
:1003600001F08CFD4FF0000080F3118808BC196883
:100370000868B0E8F04F1EF0100F08BFB0EC108A0C
:1003800080F30988BFF36F8F704700BFAFF3008021
:10039000E401002008B54FF0500383F31188BFF348
:1003A0006F8FBFF34F8F01F0F1FB18B14FF0805208
:1003B000024B1A60002383F3118808BD04ED00E0AE
:1003C000064B1B68064AA2FB03239B09013B054A17
:1003D00013600722044B1A60704700BF040000201E
:1003E000D34D621014E000E010E000E0314B1A68D9
:1003F000314B9A421AD02F4B1A68304B9A421ED07A
:1004000000B583B02E4B1A78D2B20192FF221A7037
:100410001B78DBB28DF803309DF8033003F05003F6
:10042000284A13700722284B1A601BE04FF0500334
:1004300083F31188BFF36F8FBFF34F8FFEE74FF049
:10044000500383F31188BFF36F8FBFF34F8FFEE725
:100450001D4A1368013B13609DF803305B00DBB25B
:100460008DF803309DF8033013F0800FF0D1164A59
:1004700013681B0203F4E0631360019BDBB2104AB4
:100480001370124B1A6842F470021A601A6842F034
:1004900070421A60FFF794FF00220D4B1A60FFF7BD
:1004A000D7FE0C4A136843F040431360FFF7C0FEC9
:1004B000FFF7A4FE00ED00E071C20F4170C20F41D2
:1004C00000E400E0DC010020E001002020ED00E07D
:1004D0000000002034EF00E030B58BB00024009421
:1004E000264B1A6B42F004021A631A6B02F00402E4
:1004F0000092009A01941A6B42F080021A631A6B00
:1005000002F080020192019A02941A6B42F00102F9
:100510001A631A6B02F001020292029A03941A6B98
:1005200042F002021A631A6B02F002020392039A6B
:1005300004941A6B42F008021A631B6B03F0080361
:100540000493049B0E4D2246C021284604F0F2F984
:1005500048F20F0305930694079405A9284604F072
:1005600003F9C0230593012306930794089405A972
:10057000284604F0F9F80BB030BD00BF0038024047
:100580000008024008B504F081FE012002F084FB5F
:10059000FBE7000008B50268034B9A4200D008BD93
:1005A00003F0DEFEFBE700BF00000140FEE70000B5
:1005B00008B50C480C4B0360102343600023836094
:1005C000C360036143618361C36103624362836209
:1005D000C36201F0B1FC00B908BD40F20911034843
:1005E000FFF7E4FF5841002000640040205C000851
:1005F00008B50C480C4B03600C4B43600023836030
:10060000C3604FF48042026143618361C36103624E
:1006100003F07AF800B908BD40F21D110448FFF755
:10062000C5FF00BF903F002000540040A08601009D
:10063000205C000808B50948094B036000234360AB
:100640008360C36003614361836101F0AFF800B967
:1006500008BD40F243110348FFF7A8FF984000206F
:10066000002C0140205C000800B58BB01F484FF003
:1006700080430360002343608360C360036100F034
:100680000CFCF8B900230893099308A9174803F054
:1006900087FEE0B96023019300230293039305933F
:1006A000082201A9114800F049FCA8B90C2201A9AF
:1006B0000E4800F043FCA0B90C4800F0FBFD0BB065
:1006C0005DF804FB4FF4AB710948FFF76FFF40F290
:1006D0005D110748FFF76AFF4FF4B3710448FFF755
:1006E00065FF40F26B110248FFF760FF1C410020DC
:1006F000205C000800B58BB01F48204B036000232E
:1007000043608360C360036100F0C7FBF8B9002356
:100710000893099308A9184803F042FEE0B9602342
:1007200001930023029303930593082201A9124821
:1007300000F004FCA8B90C2201A90F4800F0FEFB50
:10074000A0B90D4800F0B6FD0BB05DF804FB4FF406
:10075000C0710B48FFF72AFF40F287110848FFF7E6
:1007600025FF4FF4C8710648FFF720FF40F29511AE
:100770000348FFF71BFF00BF20400020000400409B
:10078000205C000800B58BB02A482B4B0360002387
:1007900043608360C360036100F07FFB58BB0023AC
:1007A0000893099308A9234803F0FAFD40BB60238E
:1007B0000193002202920392059201A91D4800F0C4
:1007C000BDFB10BB04220DEB02011A4800F0B6FB82
:1007D00000BB082201A9174800F0B0FBF8B90C22B1
:1007E00001A9144800F0AAFBF0B9124800F062FD1C
:1007F0000BB05DF804FB4FF4D5711048FFF7D6FE3F
:1008000040F2B1110D48FFF7D1FE4FF4DD710B48F6
:10081000FFF7CCFE40F2BF110848FFF7C7FE4FF4C8
:10082000E2710648FFF7C2FE40F2C9110348FFF724
:10083000BDFE00BFE43F0020000C0040205C00082B
:1008400000B589B01748184B0360002343608360EC
:10085000C360036100F008FBA0B9124800F01DFB63
:10086000A8B960230193002202920392059201A984
:100870000C4800F063FB78B90A4800F01BFD09B092
:100880005DF804FB40F2DD110848FFF78FFE4FF4DE
:10089000F1710648FFF78AFE40F2EB110348FFF7BB
:1008A00085FE00BF5C400020001C0040205C00086A
:1008B00000B589B01748184B03600023436083607C
:1008C000C360036100F0D0FAA0B9124800F0E5FA65
:1008D000A8B960230193002202920392059201A914
:1008E0000C4800F02BFB78B90A4800F0E3FC09B093
:1008F0005DF804FB40F2FF110848FFF757FE4FF484
:1009000001710648FFF752FE40F20D210348FFF740
:100910004DFE00BF9C41002000200040205C0008EC
:1009200008B50C480C4B03600C4B436000238360FC
:10093000C3604FF48042026143618361C36103621B
:1009400002F0E2FE00B908BD40F231110448FFF7A1
:100950002DFE00BF3C3F0020005C0040A08601004F
:10096000205C000800B595B000210191294B1A6C5C
:1009700042F080521A641B6C03F080530193019B78
:100980000291254B1A6842F480421A601B6803F4F6
:1009900080430293029B012308934FF48033099311
:1009A00002230E934FF480020F92082210924822E5
:1009B000119212930323139308A801F07DFB08BB47
:1009C0000F23039302210491002305934FF48052D7
:1009D0000692079303A801F08BFDB8B901F056FE0B
:1009E0000E4BA3FB0030800903F07EFD042003F0D2
:1009F00091FD00220F214FF0FF3003F037FD15B0BD
:100A00005DF804FBDA210648FFF7D0FDE821044831
:100A1000FFF7CCFD0038024000700040D34D62105B
:100A2000205C000800B587B003F080FCFFF79AFF58
:100A3000FFF752FDFFF7BCFDFFF7DAFDFFF7FAFD08
:100A4000FFF712FEFFF756FEFFF79CFEFFF7F8FEDA
:100A5000FFF72EFFFFF764FF04F046FF01AC074DE0
:100A60000FCD0FC42B682360002101A802F0FAF813
:100A7000034B186002F0F1F8FEE700BFFC5B0008D2
:100A8000383F002030B4036A23F001030362036A95
:100A90004468826922F073020D682A4323F002033E
:100AA0008D682B430F4DA8421AD005F58065A842EA
:100AB00014D000255DB123F00803CD682B4323F04B
:100AC000040324F440744D692C438D692C43446025
:100AD00082614A684263036230BC70470125E9E7DE
:100AE0000125E7E70000014030B4036A23F4807376
:100AF0000362036A4468C26922F073020D682A43E4
:100B000023F400738D6843EA0523114DA8421DD0DC
:100B100005F58065A84217D0002575B123F4006360
:100B2000CD6843EA052323F4806324F440544D69DF
:100B300044EA05148D6944EA05144460C2614A68B8
:100B4000C263036230BC70470125E6E70125E4E794
:100B50000000014030B4036A23F480530362036A47
:100B60004468C26922F4E6420D6842EA052223F491
:100B700000538D6843EA05330C4DA84213D005F5A8
:100B80008065A8420DD0002525B124F480444D692C
:100B900044EA85144460C2614A680264036230BC5E
:100BA00070470125F0E70125EEE700BF0000014096
:100BB0000268D36843F00103D3600268136843F00E
:100BC00001031360002070477047704770477047FB
:100BD00010B5044603681A6912F0020F11D0DA68E2
:100BE00012F0020F0DD06FF002021A61012303769A
:100BF00003689B6913F0030F70D0FFF7E6FF002333
:100C0000237623681A6912F0040F12D0DA6812F002
:100C1000040F0ED06FF004021A61022323762368BA
:100C20009B6913F4407F5FD02046FFF7CEFF00237F
:100C3000237623681A6912F0080F12D0DA6812F0CE
:100C4000080F0ED06FF008021A6104232376236880
:100C5000DB6913F0030F4ED02046FFF7B6FF0023E9
:100C6000237623681A6912F0100F12D0DA6812F096
:100C7000100F0ED06FF010021A610823237623683C
:100C8000DB6913F4407F3DD02046FFF79EFF002331
:100C9000237623681A6912F0010F03D0DA6812F084
:100CA000010F36D123681A6912F0800F03D0DA6879
:100CB00012F0800F34D123681A6912F0400F03D06C
:100CC000DA6812F0400F32D123681A6912F0200F4F
:100CD00003D0DA6812F0200F30D110BDFFF774FF97
:100CE0002046FFF773FF8AE72046FFF76DFF204697
:100CF000FFF76CFF9BE72046FFF766FF2046FFF7F4
:100D000065FFACE72046FFF75FFF2046FFF75EFF79
:100D1000BDE76FF001021A612046FFF73BFCC1E717
:100D20006FF080021A61204603F064FBC3E76FF0A6
:100D300040021A612046FFF74AFFC5E76FF0200224
:100D40001A61204603F055FBC7E700000368454AD7
:100D500090424AD0B0F1804F49D0A2F57C429042F7
:100D600047D002F58062904245D002F58062904201
:100D700043D002F57842904235D000221AB123F0D8
:100D800070034A681343374A90423AD0B0F1804F1B
:100D900050D0A2F57C4290424ED002F58062904243
:100DA0004CD002F5806290424AD002F578429042DF
:100DB00048D002F57052904246D002F580629042CF
:100DC00044D002F58062904242D0A2F5983290421F
:100DD00040D002F5806290423ED002F5806290429F
:100DE0000DD000220EE00122C8E70122C6E7012251
:100DF000C4E70122C2E70122C0E70122BEE70122C7
:100E000000E001221AB123F44073CA68134303605F
:100E10008B68C3620B688362124B984220D003F543
:100E2000806398421AD000230BB10B69036301233E
:100E3000436170470122E5E70122E3E70122E1E790
:100E40000122DFE70122DDE70122DBE70122D9E70A
:100E50000122D7E70122D5E70122D3E70123E3E707
:100E60000123E1E700000140A8B110B5044690F865
:100E700039305BB1022384F83930211D2068FFF737
:100E800065FF012384F83930002010BD80F8383028
:100E900000F0E6F9EEE701207047A8B110B504466E
:100EA00090F839305BB1022384F83930211D206875
:100EB000FFF74CFF012384F83930002010BD80F883
:100EC000383000F093F9EEE70120704730B4036A40
:100ED00023F010030362036A4468826922F4E64245
:100EE0000D6842EA052223F020038D6843EA0513CA
:100EF000114DA8421DD005F58065A84217D00025E8
:100F000075B123F08003CD6843EA051323F0400355
:100F100024F440644D6944EA85048D6944EA8504FB
:100F2000446082614A688263036230BC7047012575
:100F3000E6E70125E4E700BF0000014038B590F87E
:100F40003830012B66D00D460446012380F8383036
:100F5000022380F839300C2A1AD8DFE802F007198A
:100F60001919201919193419191947000068FFF7C0
:100F700089FD2268936943F00803936122689369AD
:100F800023F0040393612268936929690B439361F9
:100F9000012384F83930002084F8380038BD006817
:100FA000FFF794FF2268936943F40063936122681A
:100FB000936923F48063936122689369296943EA02
:100FC00001239361E4E70068FFF78EFD2268D3698F
:100FD00043F00803D3612268D36923F00403D3618B
:100FE0002268D36929690B43D361D1E70068FFF711
:100FF000B1FD2268D36943F40063D3612268D369E9
:1010000023F48063D3612268D369296943EA012309
:10101000D361BDE7022038BD08B5032003F014FA00
:10102000002211466FF00B0003F020FA0022114657
:101030006FF00A0003F01AFA002211466FF009005F
:1010400003F014FA002211466FF0040003F00EFAC8
:10105000002211466FF0030003F008FA00220F216E
:101060006FF0010003F002FA00220F214FF0FF3071
:1010700003F0FCF908BD00000268124B9A4200D050
:10108000704700B587B00021009103F5EA331A6C70
:1010900042F000721A641B6C03F000730093009B13
:1010A0004FF4C0530193022302930391032304934B
:1010B0000923059301A9044803F056FB07B05DF826
:1010C00004FB00BF0064004000000240F0B589B09E
:1010D0000368254A934204D0244A93421CD009B0A5
:1010E000F0BDC0230393122304930123059303232C
:1010F00006930423079303A91D4803F035FB00233F
:1011000001931C4B1A6C42F400121A641B6C03F41A
:1011100000130193019BE2E74FF40073039312273E
:10112000049701260596032506950424079403A930
:10113000114803F019FB4FF480730393049705964D
:101140000695079403A90D4803F00EFB00230293B4
:10115000084B1A6C42F400021A641B6C03F400037F
:101160000293029BBBE700BF00540040005C0040BC
:101170000004024000380240000802400000024023
:101180000268174B9A4200D07047F0B587B0002430
:10119000009403F586335A6C42F400625A645B6C27
:1011A00003F400630093009B4FF4885301930227DC
:1011B00002970394032604960C25059501A9094876
:1011C00003F0D2FA04230193029703940496059541
:1011D0000DEB0301044803F0C7FA07B0F0BD00BFF0
:1011E000002C014000080240000C024084B003685B
:1011F000B3F1804F07D0174A934211D0164A934259
:101200001BD004B0704700230193144B1A6C42F0BA
:1012100001021A641B6C03F001030193019BF0E7C8
:10122000002302930D4B1A6C42F002021A641B6CED
:1012300003F002030293029BE3E700230393074BAF
:101240001A6C42F008021A641B6C03F00803039343
:10125000039BD6E700040040000C00400038024029
:1012600082B00368104A934204D0104A93420ED0D1
:1012700002B07047002300930D4B1A6C42F08002BD
:101280001A641B6C03F080030093009BF0E70023BB
:101290000193074B1A6C42F480721A641B6C03F4BE
:1012A00080730193019BE3E7001C00400020004095
:1012B0000038024000B587B00368B3F1804F0ED00C
:1012C000294A93421AD0294A934224D0284A934269
:1012D0002ED0284A934239D007B05DF804FB4FF472
:1012E0004063019302230293002303930493012399
:1012F000059301A9204803F037FAEDE70323019392
:1013000002230293002203920492059301A91A4832
:1013100003F02AFAE0E70F2301930223029300224D
:1013200003920492059301A9144803F01DFAD3E730
:101330004023019302230293002303930493092380
:10134000059301A90D4803F00FFAC5E78023019327
:10135000022302930023039304930923059301A915
:10136000064803F001FAB7E700040040000C004013
:10137000001C004000200040000402400000024029
:1013800070B582B0044600230193006801F0C2FBEF
:10139000054610B1284602B070BD206801F0CDFBB3
:1013A000064610B30023A3642E46DEB9019B5A1CE7
:1013B00001924FF6FF72934244D00021206801F061
:1013C000D3FB002841D10021206801F0E5FB06464F
:1013D00000283DD10021206801F07DFAC00FE4D043
:1013E0000646E2E700236364D4E70123A3640546CD
:1013F000EDB9019B5A1C01924FF6FF7293422AD01D
:101400000021206801F0B0FB05460028C2D14FF052
:101410008041206801F0C0FB05460028BAD10021B8
:10142000206801F058FAC30FE2D01D46E0E710F043
:10143000804F03D1002363643546ABE70123636427
:101440003546A7E74FF08075A4E74FF08055A1E738
:101450004FF080559EE74FF080759BE730B4436EA8
:101460009A0F0A70C3F383624A70C3F301638B70EF
:1014700090F86630CB7090F865300B7190F864305E
:101480004B7190F86B301B01CB80B0F86A20CB8891
:101490009BB2C2F303142343CB8002F00F020A7203
:1014A00090F86930DA094A72C3F380128A72C3F382
:1014B0004012CA72C3F300120A7300224A73426CCC
:1014C000002A40F092809B0203F440630B61836E1C
:1014D0000A699B0003F47F7313430B61C36E0A69AF
:1014E00042EA93720A61C3F3C2620A75C3F30263EC
:1014F0004B75C26EC2F30743C2F342548C75C2F3FC
:101500008242CA755B0003F006030B76C26EC2F31B
:1015100007230C7EC2F3C03222430A760A690132E5
:1015200042650C7E023402FA04F444650A7AD5B2AC
:101530000122AA408265520A02FB04F2C2654FF4FE
:1015400000720266C3F380124A765B0003F07E03EA
:101550008B76C36E8A7EC3F3C01422438A7603F06F
:101560007F03CB76036F1A0EDC0F0C77C3F3417445
:101570004C77C3F382638B77930003F00C03CB7734
:10158000036FCA7FC3F381542243CA77C3F3405227
:1015900081F82020002281F82120C3F3004381F844
:1015A0002230036FC3F3C03481F82340C3F3803487
:1015B00081F82440C3F3403481F82540C3F300345C
:1015C00081F82640C3F3812481F82740C3F3012327
:1015D00081F82830036FC3F3460381F829300123D3
:1015E00081F82A30104630BC7047012A0CD00368BD
:1015F00040F2FF529A63836B43F08053836301226E
:1016000080F834201046EEE7836E1B0403F47C134D
:101610000B6190F86F200B6943EA02230B610A69A2
:1016200090F86E3013430B6190F86D300C69013403
:10163000A4024465C4654FF400728265026681E7C6
:1016400070B590B004460123ADF81230006801F087
:1016500029F920B94FF08065284610B070BD636C41
:10166000032B1AD0206801F0B0FA05460028F3D108
:101670000021206801F02FF960670421206801F043
:101680002AF9A0670821206801F025F9E0670C21FC
:10169000206801F020F9C4F88000636C032B07D0A8
:1016A0000DF11201206801F0BAFA05460028D3D1E5
:1016B000636C032B1DD0BDF812102165090420684E
:1016C00001F098FA05460028C6D10021206801F0F3
:1016D00002F960660421206801F0FDF8A066082187
:1016E000206801F0F8F8E0660C21206801F0F3F8BA
:1016F00020670421206801F0EEF8000DE06405A9E0
:101700002046FFF7ABFE226D12040023206801F093
:10171000E9F9054600289FD1234653F8106B93E85A
:1017200007008DE80700043494E80E00304601F00D
:1017300099F891E770B58AB00546002404940594A1
:10174000069407940894762309930AAB13E90700DB
:101750008DE8070004AB0ECB286801F083F8124E29
:101760003460286801F09AF801233360022002F007
:1017700005FE2846FFF704FE40B10346012085F828
:101780003400AA6B1343AB630AB070BD2846FFF761
:1017900057FF034630B1012085F83400AA6B13438C
:1017A000AB63F1E70020EFE7A0802542A8B110B5B8
:1017B000044690F8343063B1032384F83430204673
:1017C000FFF7B8FF0020A0632063012384F83430C2
:1017D00010BD0377FFF7D4FCEEE70120704700004F
:1017E0000F49D1F8883043F47003C1F888300D4BAD
:1017F0001A6842F001021A60002098601A6822F00C
:10180000847222F480321A60074A5A601A6822F4FD
:1018100080221A60D8604FF000638B60704700BF71
:1018200000ED00E000380240103000240A4B1B6835
:101830001B684BB901234BB9074B1B68DB68DB689E
:101840005A68064B1A6070470023F4E74FF0FF32E6
:10185000024B1A60704700BFE8010020C002002060
:1018600010B50446006B02F047FF204602F044FF2B
:1018700010BD2DE9F04780469946089D099F0A9CB6
:10188000266B02F18042013A06EB820626F007063B
:1018900000230F2B07D8C85CE21882F83400CA5C1A
:1018A0000AB10133F5E7002384F84330062D00D94F
:1018B0000625E56265644FF0000AC4F848A0201DC3
:1018C00001F0BBFF04F1180001F0B7FF2461C5F17E
:1018D0000705A5616462C4F84CA084F850A04A468C
:1018E00041463046FEF7BEFC206007B13C60BDE8D3
:1018F000F087000038B5002407E004EB8402930071
:101900000E48184401F08EFF0134062CF5D90C4D19
:10191000284601F087FF0B4C204601F083FF0A4860
:1019200001F080FF094801F07DFF094801F07AFFCE
:10193000084B1D60084B1C6038BD00BFF001002043
:1019400094020020A8020020C8020020F402002017
:10195000E0020020E8010020EC01002010B5044660
:10196000FEF7A8FC204A1368013313601F4B1B6865
:10197000002B31D01E4B1B683BB91C4B1B68DA6A2D
:10198000E36A9A4201D8194B1C601A4A1368013362
:101990001360E36A01229A401749086802430A600B
:1019A00003EB83039A00211D1448104401F048FF03
:1019B000FEF7A2FC0E4B1B686BB10C4B1B68DA6A7E
:1019C000E36A9A4207D24FF080520D4B1A60BFF380
:1019D0004F8FBFF36F8F10BD044B1C601368012B3A
:1019E000D3D1FFF787FFD0E77C020020E40100207D
:1019F000DC0200208C02002090020020F001002078
:101A000004ED00E070B504460E461D4B1D681D4BED
:101A10001868043001F03AFF50B91A4B1B68DA6AB3
:101A2000012303FA02F218490B6823EA02030B6050
:101A3000B4F1FF3F13D02C44124B1B685C60A542ED
:101A400016D8124B18680F4B1968043101F004FFC7
:101A50000F4B1B689C4201D20D4B1C6070BD002EC9
:101A6000E9D0084B196804310A4801F0E9FE70BD5D
:101A7000094B1868034B1968043101F0EDFE70BD85
:101A800008030020E401002090020020E80100206B
:101A9000C0020020E0020020EC0100202DE9F0430C
:101AA00085B006460F4615469846900002F0A0FD08
:101AB00000B38146542002F09BFD0446B0B1C0F84B
:101AC0003090CCB10023039302940D9B01930C9BA7
:101AD000009343462A4639463046FFF7CAFE204661
:101AE000FFF73CFF012005B0BDE8F083484602F057
:101AF00003FEE6E70024E4E74FF0FF30F3E70000E1
:101B000000B583B0174B0193002300938022164940
:101B10001648FFF7C3FF012805D0B0F1FF3F17D0EB
:101B200003B05DF804FB4FF0500383F31188BFF35B
:101B30006F8FBFF34F8F4FF0FF320D4B1A600122B2
:101B40000C4B1A6000220C4B1A60FEF74FFCE7E7C3
:101B50004FF0500383F31188BFF36F8FBFF34F8FA4
:101B6000FEE700BFBC020020505C0008551E0008C4
:101B7000C0020020DC02002008030020024A136893
:101B800001331360704700BF88020020F8B53C4B5A
:101B90001B68002B68D13B4B1D6801351D60C5B922
:101BA000394B1B681B6843B14FF0500383F3118816
:101BB000BFF36F8FBFF34F8FFEE7334A1168334B8C
:101BC000186810601960324A136801331360FFF718
:101BD0002DFE304B1B689D423AD200242E4B1B68D1
:101BE000DB6A03EB83039A002C4B9B58012B40D9F3
:101BF00001243EE00124244B1B681B6853B30023DF
:101C000053BB214B1B68DB68DE6873689D4228D399
:101C1000371D384601F03AFEB36A1BB106F11800D1
:101C200001F034FEF36A01229A401D49086802431C
:101C30000A6003EB83039A0039461848104401F008
:101C4000FFFDF26A144B1B68DB6A9A42D2D2D2E7DC
:101C50000024D0E70123D3E74FF0FF320D4B1A6089
:101C6000BCE70C4A1360B9E70E4A136801331360EE
:101C700000240D4B1B6803B101242046F8BD00BFB2
:101C80008802002008030020E8010020EC01002069
:101C9000C4020020C0020020E4010020F001002066
:101CA00090020020840200200C03002038B5354B40
:101CB0001B6843B94FF0500383F31188BFF36F8F54
:101CC000BFF34F8FFEE7FEF7F5FA2E4B1A68013A85
:101CD0001A601B68002B50D12B4B1B6823B90024C2
:101CE000FEF70AFB204638BD0024284B1B681BB3B7
:101CF000264BDB68DC6804F1180001F0C7FD251DE8
:101D0000284601F0C3FDE36A01229A402049086891
:101D100002430A6003EB83039A0029461D481044DE
:101D200001F08EFDE26A1C4B1B68DB6A9A42DCD331
:101D300001221A4B1A60D8E70CB1FFF777FD184B58
:101D40001C6874B9154B1B68CBB14FF08052154B12
:101D50001A60BFF34F8FBFF36F8F0124C0E7013CC0
:101D600007D0FFF713FF0028F9D001220B4B1A60B0
:101D7000F5E700220A4B1A60E4E70024B0E70024EC
:101D8000AEE700BF880200207C020020C8020020CD
:101D900090020020F0010020E40100200C0300204C
:101DA0008402002004ED00E010B5A8B10446104BF9
:101DB0001B6843B14FF0500383F31188BFF36F8F5B
:101DC000BFF34F8FFEE7FFF7D9FE00212046FFF754
:101DD00019FEFFF76BFF00E0002038B94FF080528A
:101DE000044B1A60BFF34F8FBFF36F8F10BD00BF5E
:101DF0008802002004ED00E0134B1B6813B310B5FC
:101E0000FFF7BCFE114B1C68FFF750FF24B90E4BC7
:101E10001B68002BF4D110BDFEF74CFA0B4BDB68AE
:101E2000DC68201D01F032FD094A1368013B136094
:101E3000054A1368013B1360FEF75EFA2046FFF780
:101E40000FFDE4E7704700BF80020020F40200208D
:101E50007C02002008B5FFF7CFFF064B1B68012B63
:101E6000F9D94FF08052044B1A60BFF34F8FBFF384
:101E70006F8FF0E7F001002004ED00E0214B1B68BC
:101E8000C3B90022204B1A60204B1B68B3FA83F3BE
:101E9000DBB2C3F11F0303EB83018A001C498A589C
:101EA00062B94FF0500383F31188BFF36F8FBFF314
:101EB0004F8FFEE70122144B1A60704710B414488C
:101EC0009A00D418A10001444C6864684C601A441C
:101ED00091000831084484420BD003EB83039A003D
:101EE0000B4B13445B68DA680A4B1A605DF8044BCD
:101EF0007047606803EB83029100054A0A44506012
:101F0000EBE700BF880200200C03002090020020B5
:101F1000F0010020E4010020054B1B6823B1054BB4
:101F20001B681BB9022070470120704700207047D2
:101F3000DC02002088020020002800F0BB8038B5B9
:101F4000044690F83C3003B3022384F83C30226806
:101F5000136823F0020313602268136843F001033F
:101F6000136002F005FA054623685A6812F0010F63
:101F700010D102F0FDF9401B0A28F5D9032084F89E
:101F80003C00002384F83D3038BD80F83D30FFF739
:101F900073F8D9E75A6812F0010F7CD0A269012AC0
:101FA00050D01A6822F080021A60E369012B4ED0EB
:101FB0002268136823F040031360236A012B4CD07E
:101FC0002268136823F020031360636A012B4AD050
:101FD0002268136823F010031360A36A012B48D012
:101FE0002268136823F008031360E36A012B46D0CC
:101FF0002268136823F0040313602168A368E26871
:10200000134322691343626913436268013A13431D
:10201000CB612268136823F00103136002F0A8F972
:10202000054623685A6812F0010F2ED002F0A0F97D
:10203000401B0A28F5D9032084F83C00002384F8CB
:102040003D3038BD1A6842F080021A60ADE7226860
:10205000136843F040031360AFE72268136843F04E
:1020600020031360B1E72268136843F01003136084
:10207000B3E72268136843F008031360B5E72268EA
:10208000136843F004031360B7E75B6813F0010FB4
:1020900008D0002300E0002333B9042384F83C3047
:1020A000012038BD0123F7E700202064012384F8D4
:1020B0003C3038BD0120704730B583B0044603681A
:1020C00013F0010F3BD0A94B9B6803F00C03042BCA
:1020D0002CD0A64B9B6803F00C03082B21D063681F
:1020E000B3F5803F4FD0B3F5A02F52D09F4B1A6865
:1020F00022F480321A601A6822F480221A6063681F
:10210000002B50D002F034F90546984B1B6813F4AD
:10211000003F14D102F02CF9401B6428F5D90320AC
:1021200099E1924B5B6813F4800FD8D08F4B1B68FA
:1021300013F4003F03D06368002B00F0898123680B
:1021400013F0020F5BD0894B9B6813F00C0F3ED04D
:10215000864B9B6803F00C03082B33D0E368002BFD
:1021600074D00122824B1A6002F002F905467F4BBF
:102170001B6813F0020F5AD102F0FAF8401B022834
:10218000F5D9032067E1794A136843F4803313607B
:10219000B5E7764B1A6842F480221A601A6842F456
:1021A00080321A60ABE702F0E3F805466F4B1B681C
:1021B00013F4003FC3D002F0DBF8401B6428F5D9CC
:1021C000032048E1694B5B6813F4800FC6D1674B6D
:1021D0001B6813F0020F04D0E368012B01D001202B
:1021E00039E16248036823F0F8032169F82292FA82
:1021F000A2F2B2FA82F201FA02F2134303602368F8
:1022000013F0080F46D0636993B30122594B1A604B
:1022100002F0AEF80546554B5B6F13F0020F39D153
:1022200002F0A6F8401B0228F5D9032013E14F481D
:10223000036823F0F8032169F82292FAA2F2B2FAB5
:1022400082F201FA02F213430360D8E70022484BFE
:102250001A6002F08DF80546444B1B6813F0020F1C
:10226000CDD002F085F8401B0228F5D90320F2E01A
:102270000022404B1A6002F07BF805463B4B5B6F37
:1022800013F0020F06D002F073F8401B0228F5D9B4
:102290000320E0E0236813F0040F20D1A369002B92
:1022A00000F0D880314A926802F00C02082A00F04F
:1022B000D480022B00F0808000222F4B1A6002F0A5
:1022C00057F80446294B1B6813F0007F00F0BE80CE
:1022D00002F04EF8001B0228F4D90320BBE00023D3
:1022E0000193224B1A6C42F080521A641B6C03F06B
:1022F00080530193019B214A136843F48073136058
:1023000002F036F805461D4B1B6813F4807F06D19A
:1023100002F02EF8401B0228F5D903209BE0A368A9
:10232000012B1DD0052B2BD0104B1A6F22F0010270
:102330001A671A6F22F004021A67A36853B302F0F7
:1023400017F80546094B1B6F13F0020FA6D102F0D8
:102350000FF8401B41F288339842F3D903207AE00A
:10236000024A136F43F001031367E6E700380240A7
:1023700000004742800E4742600047420070004024
:10238000374B1A6F42F004021A671A6F42F00102CB
:102390001A67D2E701F0ECFF0546314B1B6F13F0D3
:1023A000020F3FF47BAF01F0E3FF401B41F28833A3
:1023B0009842F2D903204EE000222A4B1A6001F025
:1023C000D7FF0546264B1B6813F0007F06D001F0AF
:1023D000CFFF401B0228F5D903203CE0E369226AC5
:1023E0001343616A47F6C07292FAA2F2B2FA82F21D
:1023F00001FA02F21343A26A5208013A4FF4403143
:1024000091FAA1F1B1FA81F18A401343E16A4FF0E8
:10241000706292FAA2F2B2FA82F201FA02F2134365
:102420000F4A536001220F4B1A6001F0A1FF0446CE
:102430000B4B1B6813F0007F06D101F099FF001BC6
:102440000228F5D9032006E0002004E0002002E085
:10245000012000E0002003B030BD0120FBE700BFF9
:1024600000380240600047421F4B9B6803F00C039A
:10247000082B36D11C4A536803F03F03526812F40C
:10248000800F1ED01948B0FBF3F3174A506847F687
:10249000C072104092FAA2F2B2FA82F2D04000FB6F
:1024A00003F0114B5B6803F440334FF4403292FA6F
:1024B000A2F2B2FA82F2D34001335B00B0FBF3F038
:1024C00070470A48B0FBF3F3074A506847F6C072FA
:1024D000104092FAA2F2B2FA82F2D04000FB03F06E
:1024E000DFE70248704700BF003802400024F400D4
:1024F000624B1B6803F00F038B4209D2CBB25F4AD9
:102500001370136803F00F03994201D00120704744
:1025100070B5036813F0020F06D0594A936823F090
:10252000F0038468234393600D460446036813F068
:10253000010F64D04368012B26D09A1E012A2AD9A4
:102540004F4A126812F0020F00F096804C498A68D8
:1025500022F0030213438B6001F00AFF0646636812
:10256000012B1FD0022B2CD0032B39D0444B9B685E
:1025700013F00C0F43D001F0FBFE801B41F28833B7
:102580009842F3D9032070BD3D4A126812F4003F0F
:10259000DCD1012070BD3A4A126812F0007FD5D11B
:1025A000012070BD364B9B6803F00C03042B26D032
:1025B00001F0DEFE801B41F288339842F2D90320FD
:1025C00070BD2F4B9B6803F00C03082B17D001F054
:1025D000CFFE801B41F288339842F2D9032070BDB0
:1025E000274B9B6803F00C030C2B08D001F0C0FEB6
:1025F000801B41F288339842F2D9032070BD1F4BF3
:102600001B6803F00F039D4209D2EAB21B4B1A70FC
:102610001B6803F00F039D4201D0012070BD2368A9
:1026200013F0040F06D0164A936823F4E053E168D0
:102630000B439360236813F0080F07D0104A936888
:1026400023F46043216943EAC1039360FFF70CFF61
:102650000B4B9B6803F0F003F02292FAA2F2B2FA5D
:1026600082F2D340074AD35CD840074B1860002061
:1026700001F00EF8002070BD012070BD003C02404A
:1026800000380240385C000804000020014B186844
:10269000704700BF0400002008B5FFF7F7FF074BA5
:1026A0009B6803F4E0534FF4E05292FAA2F2B2FABC
:1026B00082F2D340024AD35CD84008BD00380240C1
:1026C000485C000808B5FFF7E1FF074B9B6803F47F
:1026D00060434FF4604292FAA2F2B2FA82F2D3401F
:1026E000024AD35CD84008BD00380240485C00086C
:1026F0000F2303600B4B9A6802F0030242609A6852
:1027000002F0F00282609A6802F4E052C2609B68B4
:10271000DB0803F4E0530361034B1B6803F00F0372
:102720000B60704700380240003C02400C4B1B68B5
:102730000C4AA2FB03235A0A41F2883303FB02F33B
:102740005A1E4BB1416B134611F0800FF8D040F286
:10275000FF538363002070474FF00040704700BF75
:1027600004000020D34D6210144B1B68144AA2FBD6
:1027700003235A0A41F2883303FB02F35A1ECBB1FA
:10278000416B134611F0450FF8D0436B13F0040F63
:1027900003D00423836318467047436B13F0010F83
:1027A00004D140F2FF538363002070470123836309
:1027B000184670474FF00040704700BF04000020EB
:1027C000D34D6210104B1B68104AA2FB03235A0A18
:1027D00041F2883303FB02F35A1E8BB1416B13465F
:1027E00011F0450FF8D0436B13F0040F03D004230E
:1027F00083631846704740F2FF538363002070479D
:102800004FF00040704700BF04000020D34D62101D
:10281000124B1B68124AA2FB03235A0A41F2883367
:1028200003FB02F35A1EA3B1416B134611F0450F8F
:10283000F8D0436B13F0040F03D0402383630420CC
:102840007047436B13F0400F06D040238363002092
:1028500070474FF000407047002070470400002090
:10286000D34D621084B010B402AC84E80E00039A19
:102870000B461343049A1343059A1343069A1343D2
:10288000079A1343426822F4FD4222F07F02134369
:10289000436000205DF8044B04B0704703230360DD
:1028A00000207047006800F0030070470B688360E9
:1028B0004B688A681343CA6813430A691343C268A2
:1028C00022F47F6222F00F021343C360002070479E
:1028D0000069C0B2704782B00023019314300144F4
:1028E0000191019B186802B07047000038B5524B47
:1028F0001B68524CA4FB03435B0A02FB03F2531E0A
:10290000002A63D0446B1A4614F0450FF7D0436B8E
:1029100013F0040F03D004238363184638BD436BC0
:1029200013F0010F03D001238363184638BD0D4611
:102930000446FFF7CDFFA84201D0012038BD40F288
:10294000FF53A36300212046FFF7C5FF3C4B034024
:10295000002B3ED000283EDB10F0804F01D04020FD
:1029600038BD10F0005F01D0802038BD10F0805FCE
:1029700034D110F0006F34D110F0806F34D110F0EA
:10298000807F34D110F4000F34D110F4800F34D193
:1029900010F4001F34D110F4801F34D110F4802FB4
:1029A00034D110F4003F34D110F4803F34D110F40E
:1029B000004F34D110F4804F34D110F4005F34D183
:1029C00010F0080F34D04FF4000038BD4FF0004035
:1029D00038BD002038BD4FF0007038BD4FF4807016
:1029E00038BD4FF4007038BD4FF4806038BD4FF4EF
:1029F000006038BD4FF4805038BD4FF4005038BDF2
:102A00004FF4804038BD4FF4004038BD4FF40030E3
:102A100038BD4FF4802038BD4FF4002038BD4FF44E
:102A2000801038BD4FF4001038BD4FF4800038BD21
:102A30004FF4803038BD00BF04000020D34D621039
:102A400008E0FFFD70B5254B1B68254CA4FB034334
:102A50005C0A41F2883303FB04F35C1E002B37D081
:102A6000456B234615F0450FF7D0436B13F0040F69
:102A700003D004238363184670BD436B13F0010F2A
:102A800003D001238363184670BD16460D460446E5
:102A9000FFF71EFFA84201D0012070BD40F2FF5396
:102AA000A36300212046FFF716FF10F4604F05D006
:102AB00010F4804F06D04FF4005070BD000C3080F1
:102AC000002070BD10F4004F05D04FF4805070BD51
:102AD0004FF0004070BD4FF4803070BD0400002006
:102AE000D34D621030B587B0054601920724029499
:102AF00040230393002304934FF48063059301A9BB
:102B0000FFF7D4FE41F2883221462846FFF7EEFE59
:102B100007B030BD10B586B0044600230193029380
:102B2000039304934FF48063059301A9FFF7BEFE5E
:102B30002046FFF7FBFD06B010BD10B586B0044679
:102B40004FF4D5730193082302934023039300238A
:102B500004934FF48063059301A9FFF7A7FE204675
:102B6000FFF756FE06B010BD30B587B0054601919F
:102B70003724029440230393002304934FF480638B
:102B8000059301A9FFF792FE41F2883221462846BB
:102B9000FFF7ACFE07B030BD10B586B0044641F07B
:102BA000004141F4801101912923029340230393B2
:102BB000002304934FF48063059301A9FFF776FE89
:102BC0002046FFF7FFFD06B010BD10B586B00446E5
:102BD0000023019302220292C022039204934FF435
:102BE0008063059301A9FFF761FE2046FFF7BCFD56
:102BF00006B010BD10B586B00446019109230293BA
:102C0000C0230393002304934FF48063059301A929
:102C1000FFF74CFE2046FFF7A7FD06B010BD70B5CC
:102C200086B005460E4600230193032402944022F9
:102C3000039204934FF48063059301A9FFF736FED6
:102C4000324621462846FFF7FDFE06B070BD8428B7
:102C500001D0033070470020704708B5FEF750FFE1
:102C6000002008BDF0B585B00F46446805680669C8
:102C7000B0F90800FFF7EBFF03AB019300903B4670
:102C8000B2B229462046FEF709FF012802D1039877
:102C900005B0F0BD0020FBE708B5034600B90123ED
:102CA0001846FFF781F8002008BD08B5FFF734F992
:102CB000012801D0FDF76EFB08BD2DE9F04383B07C
:102CC00007460D46D0F80080CA00521A930003440C
:102CD000DE6C1A6DB61A1B6C9E4200D91E4606F1B8
:102CE00003094FEA990915E006F103094FEA99092A
:102CF000EB005B1B9C003C44616C3B7C0093B3B2DB
:102D0000EAB2404601F0CEF9636C33446364236D4C
:102D100033442365414608EB451303F510639B6973
:102D20009BB2994512D2EA00521B93003B441A6DA4
:102D3000DB6C9A420AD24BB19E1AC5EBC5029300D6
:102D40003B441B6C9E42CFD91E46CDE73EB90123C2
:102D5000AB40D1F8345825EA0305C1F834580020B7
:102D600003B0BDE8F08300286BD0F0B58BB004460B
:102D7000032380F8B93301F099FF206800F0DDFDEE
:102D8000254655F8107B6E460FCD0FC60FCD0FC6EA
:102D900095E8030086E80300231D0ECB384600F0BB
:102DA00088FD0021206800F0CEFD002210E0D10057
:102DB000891A8B002344012183F8391083F83820C5
:102DC000DA87002183F83B1019645964D964013211
:102DD0000E2AECD9002218E0D100891A8B00234476
:102DE000002183F8F91183F8F821DA8783F8FB11C1
:102DF000C3F80012C3F80412C3F80C12236802F1DE
:102E0000400003EB8003596001320E2AE4D92546C5
:102E100055F8107B6E460FCD0FC60FCD0FC695E847
:102E2000030086E80300231D0ECB384600F0A2FD08
:102E3000012384F8B933206801F0DFF900200BB0DA
:102E4000F0BD0120704790F8B833012B01D102206A
:102E5000704710B50446012380F8B833006801F0CC
:102E6000C0F9206800F063FD002084F8B80310BDAD
:102E70002DE9F04704460768384601F0F5F908B136
:102E8000BDE8F0870646206801F0C3F90028F7D0B6
:102E9000206801F0BEF910F0020F04D022685369D7
:102EA00003F002035361206801F0B3F910F4002F1E
:102EB00075D13546206801F0ACF910F4802F40F050
:102EC000D280206801F0A5F90028C0F23E81206878
:102ED00001F09FF910F4006F0AD0D7F8083813F00A
:102EE000010F40F041812268536903F4006353618C
:102EF000206801F08EF910F4805F40F0398120687D
:102F000001F087F910F4005F40F08281206801F041
:102F100080F910F0100F14D02268936923F0100389
:102F200093613E6A06F00F08C6F34343022B00F09C
:102F30000382062B00F021822268936943F010037C
:102F40009361206801F065F910F0080F40F02982C4
:102F5000206801F05EF910F4801F40F02B82206899
:102F600001F057F910F4001F40F02E82206801F0A4
:102F700050F910F0804F40F03182206801F049F99B
:102F800010F0040F3FF47CAF23685D6815F0040F68
:102F900040F02D8223685A6815435D6070E7206811
:102FA00001F03BF98046354621E0E900491B8A00E3
:102FB0002244D2F800121B69C3F31203C91AC2F8E3
:102FC0001012D2F80012D2F804320B44C2F80432C4
:102FD00028E019F0080F3DD119F0100F04D007EBCD
:102FE00045131022C3F8082B01354FEA5808B8F1F1
:102FF000000F3FF45FAF18F0010FF5D05FFA85FACC
:103000005146206801F019F9814610F0010FE0D017
:1030100007EB45130122C3F8082B03F5306322693F
:10302000012AC2D05146204601F07AFE2369012BC5
:10303000CFD1002DCDD1C5EBC50293002344D3F8E9
:103040000C32002BC5D104F56F720121206801F00C
:103050002BF9BEE7204601F05BFE07EB4513082283
:10306000C3F8082BB8E7206801F0DFF88046354642
:103070002EE0EA00521B93002344196C5A6C0A4458
:103080005A6446E019F0080F04D007EB45130822F4
:10309000C3F8082919F0100F04D007EB45131022CC
:1030A000C3F8082919F0400F04D007EB451340225C
:1030B000C3F8082919F0020F04D007EB45130222C8
:1030C000C3F8082919F0800F3AD101354FEA5808A2
:1030D000B8F1000F3FF4F5AE18F0010FF5D05FFA2C
:1030E00085FA5146206801F0B1F8814610F0010FD1
:1030F000C8D0012202FA05F0D7F8343823EA0003D9
:10310000C7F8343807EB4513C3F8082923699342FD
:10311000AFD05146204601F00FFE2369012BB1D1FB
:10312000002DAFD1C5EBC50293002344DB6C002B0F
:10313000A8D104F56F720121206801F0B5F8A1E76C
:1031400029462046FFF7B9FDBFE7D7F8043823F03A
:103150000103C7F80438204601F028FE22685369AD
:1031600003F000435361B2E6204601F007FEBAE6E1
:10317000B84607F50069D9F8043023F00103C9F80F
:1031800004301021206800F09DFC07E008EB461396
:10319000FF22C3F80829C3F8082B013663689E4252
:1031A000F4D34FF0FF33C9F81830D9F81C3043F08E
:1031B0000113C9F81C30236BEBB1D9F8843043F00C
:1031C0000B03C9F88430D9F8443043F00B03C9F835
:1031D0004430D7F8003823F4FE63C7F8003804F50C
:1031E0006F72217C206801F05FF82268536903F454
:1031F0008053536183E6D9F8143043F00B03C9F8C8
:103200001430D9F8103043F00B03C9F81030E0E760
:10321000206801F02DF82268D36823F47053D3603E
:10322000206800F07CFC90B90023E3604FF4007349
:1032300063612268D36843F41053D360204601F0E1
:103240008CFD2268536903F4005353615EE6032347
:10325000E36040236361FFF719FA674B0344674A51
:10326000934205D82268D36843F47053D360E5E7EE
:10327000634B0344634A934205D82268D36843F4FE
:103280006053D360DAE7A0F57403A3F510535E4AE8
:10329000934205D82268D36843F45053D360CDE7F6
:1032A000A0F18373A3F5E743584A934205D82268F7
:1032B000D36843F44053D360C0E7554B0344554AA9
:1032C000934205D82268D36843F43053D360B5E7FE
:1032D000514B0344514A934205D82268D36843F4C2
:1032E0002053D360AAE74E4B03444E4A934205D87D
:1032F0002268D36843F41053D3609FE7A0F1B773FB
:10330000A3F55853484A934205D82268D36843F43A
:103310000053D36092E7454B0344454A934205D896
:103320002268D36843F4E053D36087E72268D36808
:1033300043F4C053D36081E747F6F0731E423FF475
:10334000FBAD36094FEAC80AAAEB08034FEA830926
:10335000A144C6F30A02D9F80412384600F0B6FEBA
:10336000C6F30A06D9F804323344C9F80432D9F84E
:1033700010321E44C9F81062DEE5082204F56F71B0
:10338000384600F0A3FEC6F30A164FEAC803A3EBC3
:1033900008018A002244D2F810321E44C2F810629A
:1033A000CAE5204601F0D3FC2268536903F0080304
:1033B0005361CDE5E9B2204601F004FD226853696E
:1033C00003F480135361CAE5E9B2204601F0F4FC2E
:1033D0002268536903F400135361C7E5204601F0E6
:1033E000F7FC2268536903F080435361C5E520462A
:1033F00001F0F4FCCEE500BF405327FFFF340C0082
:10340000401E1BFF3F420F007F4F12001FD61300CC
:1034100060B6E5FE5FE3160000D3CEFE3F771B00EB
:10342000C05BB3FEBF9121001F753800E05459FE08
:10343000DF9C410090F8B833012B01D10220704786
:1034400010B50446012380F8B833006800F0B9FED7
:10345000002084F8B80310BD70B54DB2002D18DB04
:1034600001F07F06C6EBC606B40004F5FC74044404
:1034700001F07F012170ED0F6570A260E37005B16E
:10348000E180022B0DD090F8B833012B0CD1022033
:1034900070BD01F07F06C6EBC606B40038340444A4
:1034A000E6E700232371EEE70546012380F8B833F1
:1034B0002146006800F053FB002085F8B80370BD7A
:1034C00010B54AB2002A12DB01F07F04C4EBC40439
:1034D000A30003F5FC73034401F07F011970D20FC0
:1034E0005A7090F8B823012A09D1022010BD01F0CA
:1034F0007F04C4EBC404A30038330344ECE7044660
:10350000012280F8B8231946006800F071FB002002
:1035100084F8B80310BD70B501F07F06F500A91B53
:103520008C0004F5FC740119AD1BAC000444C4F814
:103530000422C4F80C320023C4F8103284F8F931A4
:1035400084F8F8610369012B06D066B1DAB200682D
:1035500000F0C6FB002070BDC6EBC605AC000444FD
:10356000C4F80822F1E7DAB2006800F0EBFCF1E7FA
:1035700001F00F01C1EBC1018B001844B0F810023B
:10358000704770B501F07F06F500A91B8C00383438
:103590000119AD1BAC0004446264E364002323659D
:1035A000012384F8393084F838600369012B06D090
:1035B0005EB1DAB2006800F093FB002070BDC6EB8C
:1035C000C605AC000444A264F2E7DAB2006800F079
:1035D000B9FCF2E738B54AB2002A12DBC1EBC104EC
:1035E000A30003F5FC73034401249C7001F07F04E5
:1035F0001C70D20F5A7090F8B823012A09D102200A
:1036000038BD01F07F04C4EBC404A3003833034485
:10361000EAE70546012280F8B8231946006800F061
:1036200069FD1CB1002085F8B80338BD05F56F723F
:10363000297C286800F038FEF4E710B54AB2002A69
:1036400012DBC1EBC104A30003F5FC7303440024A7
:103650009C7001F07F011970D20F5A7090F8B82356
:10366000012A09D1022010BD01F07F04C4EBC4047B
:10367000A30038330344EAE70446012280F8B82364
:103680001946006800F068FD002084F8B80310BDFA
:1036900010B588B000220146192000F0E7FE19207D
:1036A00000F016FF00240194134B5A6C42F0010203
:1036B0005A645B6C03F001030193019B02A903A808
:1036C000FFF716F8FEF7FEFF0C4BA3FB00239B0C45
:1036D000013B0B480B4A026040F2E732C260436094
:1036E00004618460FDF7C0FB10B1012008B010BD7B
:1036F0000348FDF75DFAF9E70038024083DE1B431B
:10370000D841002000000140002800F0828038B538
:10371000044690F83D30002B41D0242384F83D30FE
:103720002268136823F001031360FEF7B5FF3A4BDC
:10373000A3FB00239B0C2268536021686568374A0D
:10374000954231D801330B6221686368334A934252
:1037500034D85B00B0FBF3F0C0F30B03032B00D8AD
:103760000420C8612268E369216A0B431360226860
:103770002369E1680B43936022686369A1690B4385
:10378000D3602268136843F00103136000202064B3
:10379000202384F83D30206384F83E0038BD80F853
:1037A0003C30FDF793FCB8E74FF4967202FB03F34D
:1037B0001B4AA2FB03239B090133C4E7A5688DB90B
:1037C00003EB4302B0FBF2F2C2F30B02B2FA82F255
:1037D0005209E2B995B903EB4303B0FBF3F040F4AF
:1037E0000040BEE703EB830202EB8202B0FBF2F281
:1037F000C2F30B02B2FA82F25209EAE703EB830347
:1038000003EB8303B0FBF3F040F44040A9E7012051
:10381000A7E70120704700BF83DE1B43A08601009D
:10382000D34D621000F1080343604FF0FF32826015
:10383000C360036100230360704700230361704786
:1038400043684B609A688A609A6851609960086121
:10385000036801330360704730B40D68B5F1FF3F72
:1038600002D000F1080202E0026904E01A4653683F
:103870001C68A542FAD253684B6099608A60516017
:10388000086103680133036030BC70470369426814
:10389000816891608268416851605A68904205D0A1
:1038A00000220261186801381860704782685A6007
:1038B000F6E784B010B5044603A880E80E00089B24
:1038C000012B11D0E36843F04003E360204600F091
:1038D0000FFD4FF48033A363069B012B1ED0002005
:1038E000BDE8104004B07047A36B23F48033A3639A
:1038F000E36823F4840323F04003E360E36823F4E4
:103900004013E3600F9B012B03D0204600F0F0FC36
:10391000E2E7E36843F48013E360F6E7A36843F06B
:103920000603A360A36843F02003A360D7E783687E
:1039300043F00103836000207047836823F0010394
:1039400083600020704708B5C36823F0C043C3609C
:10395000012909D019B9C36843F08043C3603220FC
:1039600000F00CFD002008BDC36843F00053C360A5
:10397000F5E7000084B0F8B5054607A880E80E001A
:10398000119F1FBBAB6B43F40013AB632C460023AA
:10399000C5F8003E05F50066D5F80038C5F80038D2
:1039A0000C9B012B17D00321284600F0B1F8102101
:1039B000284600F087F8284600F098F80023336185
:1039C00073614FF0FF32B261F36119E0AB6B43F406
:1039D0000023AB63DAE7099B23B90021284600F0F6
:1039E00097F8E4E70121284600F092F8DFE74FF06E
:1039F0009040C2F8000900220A61FF228A60013368
:103A000007998B420BD204EB431202F51061D2F8F6
:103A100000090028EBDB0020C2F80009EBE70023D7
:103A200008E04FF0904EC2F800EB00220261FF2246
:103A3000826001338B420DD204EB431202F53060F9
:103A4000D2F800EBBEF1000FEBDB4FF0000EC2F836
:103A500000EBEAE7336923F4807333610A9B012B9F
:103A60001AD00022AA616FF080426A611BB9AB696B
:103A700043F01003AB61AA69104B1343AB610D9B7C
:103A80001BB1AB6943F00803AB61012F0ED00020DE
:103A9000BDE8F84004B07047094A3263326B42F423
:103AA000803242F003023263326BDAE7AB6943F0F3
:103AB000804343F00403AB61E9E700BF00383C807A
:103AC00000018000890141F02001016100230133E0
:103AD000054A934205D8026912F0200FF7D1002061
:103AE00070470320704700BF400D0300102303619F
:103AF00000230133054A934205D8026912F0100FE2
:103B0000F7D1002070470320704700BF400D03002D
:103B1000D0F800381943C0F8001800207047D0F8DA
:103B2000083800F5006013F0060F10D0836803F02A
:103B30000603022B0DD0836803F00603062B0AD080
:103B4000836803F00603042B07D000207047002091
:103B5000704703207047032070470220704730B43D
:103B60004B78012B22D0D0F81C380D780122AA40C6
:103B700043EA0243C0F81C380B7800EB4310D0F83E
:103B8000003B13F4004F0ED1D0F8003B8A68C2F31B
:103B90000A02C97842EA8142134343F0805343F456
:103BA0000043C0F8003B002030BC7047D0F81C2810
:103BB0000D78AB409BB21343C0F81C380C7800EB77
:103BC0004410D0F8003913F4004FECD1D0F800398C
:103BD0008A68C2F30A02C97842EA814242EA845200
:103BE000134343F0805343F40043C0F80039DAE74D
:103BF00038B54B78012B36D00B78044600EB4313D5
:103C0000D3F8002B22F40042C3F8002B0B7800EB12
:103C100043134FF00062C3F8002B0B7800EB431303
:103C20004FF08042C3F8002B002201322B4B9A4206
:103C300052D80B7804EB431303F530639B6813F001
:103C4000100FF2D1D0F8043843F48063C0F8043880
:103C5000D0F81C38097801228A4023EA0243C0F8D0
:103C60001C38002038BD0B78044600EB4313D3F812
:103C7000002922F40042C3F800290B7800EB43131B
:103C80004FF00062C3F800290B7800EB43134FF0AC
:103C90008042C3F8002900220132104B9A4219D801
:103CA0000B7804EB431303F510639B6813F0804F0C
:103CB000F2D10D4604461021FFF704FFD4F81C286A
:103CC000297801238B409BB222EA0303C4F81C38F5
:103CD000002038BD032038BD032038BD400D03004F
:103CE00070B582B04B78012B3ED00B7800EB4313BC
:103CF000D3F8104BE40CE404C3F8104B0B7800EB42
:103D00004313D3F8104B24F0FF5424F4C014C3F829
:103D1000104B4B69002B40F0D4800B7800EB431321
:103D2000D3F8104B8D68C5F312052C43C3F8104B24
:103D30000B7800EB4313D3F8104B44F40024C3F882
:103D4000104B012A00F0DC80CB78012B00F0DF80E3
:103D50000B7800EB4310D0F8003B43F00443C0F86D
:103D6000003B002002B070BD4B696BBB0B7800EBD1
:103D70004313D3F8104924F0FF5424F4C014C3F8BB
:103D800010490B7800EB4313D3F8104944F4002496
:103D9000C3F810490B7800EB4313D3F81049E40C37
:103DA000E404C3F81049012A54D0CB78012B57D032
:103DB0004B69002B54D0D0F834380E780124B4402D
:103DC0002343C0F834384BE00B7800EB4313D3F8AF
:103DD0001049E40CE404C3F810490B7800EB4313DA
:103DE000D3F8104924F0FF5424F4C014C3F8104948
:103DF0000C7800EB4414D4F810594B698E683344A6
:103E0000013BB3FBF6F34E4E06EAC3432B43C4F823
:103E100010390B7800EB4313D3F810494D69C5F303
:103E200012052C43C3F81049CB78012BBBD10B787A
:103E300000EB4313D3F8104924F0C044C3F81049F1
:103E40000B7800EB4313D3F8104944F00054C3F847
:103E50001049A8E70B7800EB43130C69C3F8144929
:103E6000CB78012B14D00B7800EB4313D3F8004927
:103E700044F00444C3F80049CB78012B7FF471AFC0
:103E800014468B8A0A78C968009400F00BF968E739
:103E9000D0F8083813F4807F09D10B7800EB431376
:103EA000D3F8004944F00054C3F80049DBE70B782D
:103EB00000EB4313D3F8004944F08054C3F80049A1
:103EC000D1E78C682344013BB3FBF4F30C7800EB9F
:103ED0004414D4F8105B1A4E06EAC3463543C4F8BE
:103EE000105B0C7800EB4414D4F8106B8D689BB217
:103EF00005FB03F5C5F312053543C4F8105B20E755
:103F00000B7800EB4313CA68C3F8142B1CE7D0F8F6
:103F1000083813F4807F09D10B7800EB4313D3F8F2
:103F2000002B42F00052C3F8002B11E70B7800EB96
:103F30004313D3F8002B42F08052C3F8002B07E75D
:103F40000000F81F30B44B78012B39D00B7800EB10
:103F50004313D3F8104BE40CE404C3F8104B0B7874
:103F600000EB4313D3F8104B24F0FF5424F4C01497
:103F7000C3F8104B4B690BB18B684B610B7800EBAE
:103F80004313D3F8104B44F40024C3F8104B0B78C0
:103F900000EB4313D3F8104B8D68C5F312052C4387
:103FA000C3F8104B012A76D00B7800EB4310D0F801
:103FB000003B43F00443C0F8003B002030BC704796
:103FC0004B699BBB0B7800EB4313D3F8104924F0EB
:103FD000FF5424F4C014C3F810490B7800EB4313CA
:103FE000D3F8104944F40024C3F810490B7800EBCF
:103FF0004313D3F81049E40CE404C3F810490B78D8
:1040000000EB4313D3F8004944F00444C3F80049DB
:10401000012A39D04B69002BCFD0D0F83438097839
:1040200001228A401343C0F83438C6E70B7800EB0E
:104030004313D3F81049E40CE404C3F810490B7897
:1040400000EB4313D3F8104924F0FF5424F4C014B8
:10405000C3F810494C698B689C4200D94B610B78BE
:1040600000EB4313D3F8104944F40024C3F810497B
:104070000B7800EB4313D3F810494D69C5F31205D3
:104080002C43C3F81049BAE70B7800EB43100B69D7
:10409000C0F8143991E70B7800EB4313CA68C3F8F2
:1040A000142B81E770B49DF80C4064B903339E086B
:1040B00007E000EB023303F5805351F8045B1D6009
:1040C0000134B442F5D3002070BC7047033292082B
:1040D000002393420CD210B400F58054246841F8B8
:1040E000044B01339342F7D308465DF8044B704705
:1040F000084670474B78012B17D00B7800EB431321
:10410000D3F8002B002A05DBD3F8002B22F08042E5
:10411000C3F8002B0B7800EB4310D0F8003B43F4BE
:104120000013C0F8003B002070470B7800EB4313EE
:10413000D3F80029002A05DBD3F8002922F08042B9
:10414000C3F800290B7800EB4310D0F8003943F492
:104150000013C0F80039E6E74B78012B0FD00B783D
:1041600000EB4313D3F8002B22F40012C3F8002B0A
:10417000CB78023BDBB2012B19D9002070470B78BA
:1041800000EB4313D3F8002922F40012C3F80029EE
:10419000CB78023BDBB2012BEFD80B7800EB43105E
:1041A000D0F8003943F08053C0F80039E5E70B78C8
:1041B00000EB4310D0F8003B43F08053C0F8003BC5
:1041C000DBE7D0F8003823F4FE63C0F80038D0F8FD
:1041D0000038090101F4FE610B43C0F800380020EB
:1041E000704708B5D0F8043823F00203C0F804384B
:1041F000032000F0C3F8002008BD08B5D0F804384B
:1042000043F00203C0F80438032000F0B7F80020A0
:1042100008BD4269806910407047D0F8183800F531
:104220000060C0691840000C7047D0F8183800F5DD
:104230000060C069184080B2704700EB4111D1F8AE
:10424000082B00F50060406910407047D0F8102836
:10425000D0F83438CB40DB01DBB2134300EB411123
:10426000D1F8080918407047406900F00100704714
:10427000D0F8003923F4FF6323F00703C0F80039B6
:1042800000F500639A6802F00602042A05D05A6815
:1042900042F480725A6000207047D0F8002942F042
:1042A0000302C0F80029F2E710B40024C0F8104B54
:1042B000D0F8104B44F40024C0F8104BD0F8104B49
:1042C00044F01804C0F8104BD0F8104B44F0C04430
:1042D000C0F8104B012903D000205DF8044B704753
:1042E000C0F8142B4FF08023C0F8003BF4E7000027
:1042F000002301330C4A934211D80269002AF8DAEC
:10430000036943F00103036100230133064A93422A
:1043100007D8026912F0010FF7D10020704703207F
:1043200070470320704700BF400D030008B50B4BDA
:104330001A6842F400721A601A6842F480621A60C5
:104340001A6842F480721A60032000F07DF80020A1
:10435000FFF79EF9FCF760FE002008BD003C02401C
:10436000024A136801331360704700BF14420020F3
:10437000014B1868704700BF1442002030B583B06D
:104380000190FFF7F5FF0546019CB4F1FF3F00D017
:104390000134FFF7EDFF401BA042FAD303B030BD5C
:1043A00090F83830012B22D030B4012280F8382028
:1043B000022380F839300468636823F07003636077
:1043C000046863680D682B4363600468A36823F086
:1043D0008003A3600468A36849680B43A36080F866
:1043E0003920002380F83830184630BC704702204E
:1043F00070477047704730B40468606A29B10D4651
:10440000A36A00EB134000230CE040EA0240A062E4
:1044100012E003F1400104EB8101496800EB114017
:104420000133DBB2691E8B42F3DB40EA024005F147
:104430003F0104EB81014860002030BC70470368F5
:104440005962002070470000074AD36823F4E063F4
:104450001B041B0C000200F4E060184340F0BF6036
:1044600040F40030D060704700ED00E030B4164BEF
:10447000DB68C3F30223C3F10704042C28BF042420
:104480001D1D062D17D9033B012505FA04F4013C37
:104490002140994005FA03F3013B134019430028DA
:1044A0000BDB0901C9B200F1604000F5614080F802
:1044B000001330BC70470023E6E700F00F0009014D
:1044C000C9B2024B1954F4E700ED00E014ED00E02E
:1044D000420900F01F00012303FA00F0014B43F8EA
:1044E0002200704700E100E00138B0F1807F0AD27D
:1044F000064B5860F021064A82F82310002098608D
:1045000007221A6070470120704700BF10E000E0EA
:1045100000ED00E0042805D0054A136823F00403E9
:1045200013607047024A136843F004031360704736
:1045300010E000E0124A12F0070F1ED0D11D21F04A
:104540000701C1F5705313440A460E48026000216A
:1045500041601344083B23F007030B480360596094
:104560001960991A51601360084B1960084B196063
:104570004FF00042074B1A6070474FF47053E4E766
:1045800014030020203F0020100300201C3F0020C7
:10459000183F0020143F002010B4134B1A688242C9
:1045A0001BD359685C18A04203D14068014459608C
:1045B000184641684418A24213D10C4C2468A24208
:1045C0000DD05268114441601A6812680260984226
:1045D00000D018605DF8044B70471346DEE70460B6
:1045E000F5E70260F3E700BF203F00201003002042
:1045F00070B50446FDF7C2FA3A4B1B68BBB13A4BA3
:104600001B681C4263D1ACB1083414F0070F11D001
:1046100024F00704083404F007035BB14FF05003A3
:1046200083F31188BFF36F8FBFF34F8FFEE7FFF760
:1046300081FFE4E7002C4CD02C4B1B689C424AD8ED
:104640002B4B1D6801E02B4615466A68944202D93F
:104650002A68002AF7D1234A126895423DD01E6885
:1046600008362A681A606B681B1B102B10D9281992
:1046700010F0070F08D04FF0500383F31188BFF3F9
:104680006F8FBFF34F8FFEE743606C60FFF784FFCF
:104690006A6816490B689B1A0B60164909688B42B9
:1046A00001D214490B60104B1B6813436B6000234D
:1046B0002B60FDF7FBFA16F0070F10D04FF05003F8
:1046C00083F31188BFF36F8FBFF34F8FFEE7002690
:1046D000EFE70026EDE70026EBE70026E9E73046A6
:1046E00070BD00BF10030020143F0020183F0020C1
:1046F000203F00201C3F002080B338B50446A0F1C5
:10470000080550F8042C164909680A4208D14FF0F0
:10471000500383F31188BFF36F8FBFF34F8FFEE712
:1047200050F8080C40B14FF0500383F31188BFF3E9
:104730006F8FBFF34F8FFEE722EA010244F8042C8B
:10474000FDF71CFA54F8041C064A13680B44136066
:104750002846FFF721FFFDF7A9FA38BD704700BFD3
:10476000143F0020183F0020F0B583B000244BE038
:104770004FEAD40E0EF1080E50F82E2004F0070672
:10478000B6000F27B74022EA07020F6907FA06F6BC
:10479000324340F82E2046E0072600E0002606FAC5
:1047A0000EF6324302335E4E46F823205D4B1A6804
:1047B000EB4302EA03064F6817F4803F01D045EA55
:1047C0000206584A1660526803EA02064F6817F458
:1047D000003F01D045EA0206524A5660926803EA59
:1047E00002064F6817F4801F01D045EA02064D4AC1
:1047F0009660D26813404E6816F4001F01D045EA57
:104800000203484AD36001340F2C00F28680012352
:10481000A3400A6803EA0205AB42F4D14A68022ABF
:10482000A6D0122AA4D006684FEA440E032202FA48
:104830000EF2D24316404F6807F0030707FA0EF74F
:104840003E4306604E68771E012F03D9112E01D01A
:10485000122E0FD186681640CF6807FA0EF73E4336
:104860008660466826EA03034E68C6F30016A64033
:1048700033434360C3681A408B6803FA0EF31A434C
:10488000C2604B6813F0805FBDD000230193264BBC
:104890005A6C42F480425A645B6C03F48043019387
:1048A000019BA3089E1C1E4A52F8262004F0030612
:1048B0004FEA860E0F2606FA0EF622EA06021B4F74
:1048C000B8423FF46BAF1A4EB0421AD006F580667C
:1048D000B04218D006F58066B04216D006F5806664
:1048E000B04214D006F58066B04212D006F580665C
:1048F000B04210D006F58066B0423FF44DAF0826B6
:104900004DE701264BE7022649E7032647E7042641
:1049100045E7052643E7062641E703B0F0BD00BFA3
:1049200000380140003C01400038024000000240D5
:104930000004024012B90904816170478161704727
:1049400043695940416170477047FEE7FEE7FEE763
:10495000FEE7704708B5FEF7A8F908BD08B502489C
:10496000FCF736F908BD00BFD841002008B5024861
:10497000FEF77EFA08BD00BF1844002012230B800A
:10498000004870472400002004230B800048704733
:104990003800002008B50A4628B10549054800F04E
:1049A000F1FE034808BD0249024800F0EBFEF8E7BB
:1049B00018420020885C000810B5044C0A462146C5
:1049C000034800F0DFFE204610BD00BF1842002063
:1049D000745C000808B50A4628B10549054800F08E
:1049E000D1FE034808BD0249024800F0CBFEF8E7BB
:1049F00018420020A05C000808B50A4628B1054905
:104A0000054800F0BFFE034808BD0249024800F017
:104A1000B9FEF8E718420020585C000808B50A46BD
:104A200028B10549054800F0ADFE034808BD02491C
:104A3000024800F0A7FEF8E718420020645C000876
:104A4000D0F818321BB10020C3F8140270470220BE
:104A5000704710B5D0F81842D0F81C325BB194F80A
:104A60000002FF2807D09B6894F80122214698474E
:104A7000FF2384F80032002010BD00004323038090
:104A800000487047740000204323038000487047AB
:104A9000B80000204323038000487047080100202D
:104AA0000A23038000487047FC00002038B5044604
:104AB000D0F8185200F060FAC5F80C02D4F8183299
:104AC0004BB1D4F81C32DB6805F50371D5F804024C
:104AD0009847002038BD022038BD000070B505465B
:104AE0000C46D0F818620B7813F0600224D0202A0C
:104AF00025D1CA88CAB113F0800F0AD14B7886F845
:104B00000032CB8886F80132CA88314600F04FFA6D
:104B100015E0D0F81C329B68314660789847E288EF
:104B20003146284600F02EFA09E0D0F81C329B6886
:104B300000224878984702E04B780A2B01D00020E9
:104B400070BD0122014900F01DFAF8E7283F00205E
:104B500010B50446812100F0A4F90121204600F09F
:104B6000A0F98221204600F09CF9D4F8183253B104
:104B7000D4F81C325B689847D4F8180200F05EFF46
:104B80000023C4F81832002010BD38B50446037C59
:104B900073BB4FF400730222812100F071F94FF4CE
:104BA000007302220121204600F06AF90823032243
:104BB0008221204600F064F94FF4077000F036FFC0
:104BC0000546C4F8180248B3D4F81C321B6898474D
:104BD0000023C5F81432C5F81832237CA3B1402352
:104BE000D5F804220121204600F0B8F9002038BD94
:104BF00040230222812100F043F9402302220121B7
:104C0000204600F03DF9D1E74FF40073D5F80422B7
:104C10000121204600F0A2F9002038BD012038BD56
:104C200019B1C0F81C120020704702207047D0F85C
:104C30001832C3F80812C3F8102200207047D0F8C9
:104C40001832C3F8041200207047D0F818228AB135
:104C500008B5D2F814320BB1012008BD0123C2F807
:104C60001432B2F81032D2F80822812100F068F92B
:104C7000002008BD02207047D0F818229AB108B56C
:104C8000037C3BB14023D2F80422012100F066F9F5
:104C9000002008BD4FF40073D2F80422012100F077
:104CA0005DF9002008BD0220704700000268154B26
:104CB0009A4200D0704710B586B04FF4404301933C
:104CC0000223029300240394032304930C230593EB
:104CD00001A90D48FFF748FD00940C4B1A6B42F0F8
:104CE00000521A631B6B03F000530093009B224693
:104CF00005214D20FFF7BAFB4D20FFF7E9FB06B079
:104D000010BD00BF00000440000402400038024013
:104D100008B500F56F71D0F8EC0300F0ACF908BDF0
:104D200008B5C1EBC10293000344D3F80422D0F8C4
:104D3000EC0300F0CDF908BD08B5C1EBC10293004A
:104D400003445A6CD0F8EC0300F0F7F908BD08B53D
:104D5000D0F8EC0300F07BFA08BD10B50446C36838
:104D60004BB10121D4F8EC0300F05FFAD4F8EC0366
:104D700000F03CFA10BD0021F4E7000010B5044635
:104D8000D0F8EC0300F054FA2268D2F8003E43F069
:104D90000103C2F8003E236A23B1034A136943F0BA
:104DA0000603136110BD00BF00ED00E008B5D0F8A8
:104DB000EC0300F046FA08BD08B5D0F8EC0300F0AB
:104DC00056FA08BD08B5D0F8EC0300F04EFA08BD5D
:104DD00008B5D0F8EC0300F04CFA08BD08B5D0F8DF
:104DE000EC0300F048FA08BD0378012B01D0002045
:104DF000704710B503461848C0F8EC33C3F82002DA
:104E0000164B0360062343600222C2600023036145
:104E100043618261C36103624362C36203634363AC
:104E2000FDF7A1FF90B90C4C4FF400712046FFF73D
:104E300006FB802200212046FFF7DDFA4FF4BA720C
:104E400001212046FFF7D7FA002010BD40F23511AE
:104E50000348FBF7ABFBE6E71844002000000440E2
:104E6000B05C000808B5D0F82002FDF7ECFF18B1DF
:104E7000022803D0022008BD002008BD012008BD83
:104E800010B51C4613462246D0F82002FEF7E4FA7D
:104E900018B1022803D0022010BD002010BD01204F
:104EA00010BD08B5D0F82002FEF70AFB18B10228A1
:104EB00003D0022008BD002008BD012008BD08B5B0
:104EC000D0F82002FEF786FB18B1022803D002209A
:104ED00008BD002008BD012008BD08B5D0F820029B
:104EE000FEF7ABFB18B1022803D0022008BD00205A
:104EF00008BD012008BDD0F8203211F0800F08D184
:104F000001F07F01C1EBC1018A00134493F8FA015B
:104F1000704701F07F01C1EBC1018A00134493F88F
:104F20003A00704708B5D0F82002FEF783FA18B1AE
:104F3000022803D0022008BD002008BD012008BDC2
:104F400008B5D0F82002FEF71CFB18B1022803D0E8
:104F5000022008BD002008BD012008BD08B5D0F81A
:104F60002002FEF7D8FA18B1022803D0022008BDAB
:104F7000002008BD012008BD08B5D0F82002FEF7CA
:104F8000F7FA08BD10B513460222C0F8F421836178
:104F9000C3610A460021FFF7D3FF002010BD08B50A
:104FA00013460A460021FFF7CBFF002008BD10B5CD
:104FB00013460322C0F8F421C0F80831C0F80C31C0
:104FC0000A460021FFF7CAFF002010BD08B51346AE
:104FD0000A460021FFF7C2FF002008BD08B50423E0
:104FE000C0F8F43100231A461946FFF7A9FF002044
:104FF00008BD08B50523C0F8F43100231A46194648
:10500000FFF7ACFF002008BD98B108B50346D0F803
:10501000140210B10020C3F8140209B1C3F8101231
:105020001846012380F8FC310270FFF7DDFE0020F6
:1050300008BD0220704719B1C0F814120020704753
:105040000220704708B5FFF70DFF002008BD08B526
:10505000D0F8143223B11B68984718B1022008BD5C
:10506000022008BD002008BD08B5D0F814325B68E6
:105070009847002008BD38B5044600F5027528465B
:1050800000F03AF90123C4F8F431B4F80E32C4F850
:10509000F83194F8081201F01F03012B0ED03BB138
:1050A000022B10D001F080012046FFF708FF03E03B
:1050B0002946204600F09AFA002038BD29462046AD
:1050C00000F0B8FAF8E72946204600F0CFFAF3E7F7
:1050D00010B5044619BB1346D0F8F421032A27D192
:1050E000D0F80C11D0F8102191420BD8D0F814321E
:1050F0001B691BB190F8FC21032A0ED02046FFF754
:105100006DFF15E0891AC0F80C118A4228BF0A46C3
:1051100092B21946FFF75AFF0AE09847EEE70A46AF
:10512000D0F814329B691BB190F8FC11032901D00F
:10513000002010BD11469847FAE710B50446002933
:1051400047D11346D0F8F421022A05D094F8003252
:10515000012B3AD0002010BDC169026A914217D8D4
:105160008169B1FBF2F302FB13132BB98A4203D816
:10517000D0F8F831994218D3D4F81432DB681BB157
:1051800094F8FC21032A1DD02046FFF732FFDDE70B
:105190008A1AC26192B21946FFF701FF00231A462C
:1051A00019462046FFF7DAFED0E700221146FFF746
:1051B000F6FE0021C4F8F8110B460A462046FFF718
:1051C000CDFEC3E720469847DEE7002384F800328F
:1051D000C0E70A46D0F814325B69002BBAD090F8C9
:1051E000FC110329B6D111469847B3E738B50446F8
:1051F000402300221146FFF743FE4025C4F810511A
:105200002B46002280212046FFF73AFE256201232B
:1052100084F8FC31D4F818322BB1D4F814325B681E
:10522000217920469847002038BD0174002070473E
:1052300090F8FC3180F8FD31042380F8FC31002027
:10524000704790F8FD3180F8FC310020704708B5B8
:1052500090F8FC31032B01D0002008BDD0F81432A7
:10526000DB69002BF8D09847F6E700207047002054
:1052700070470020704708B5012280F8FC21D0F863
:105280001422526801799047002008BD10B5094CDE
:10529000012209492046FFF7B7FE08492046FFF7DB
:1052A000CAFE07492046FFF7BBFC2046FFF7CAFEAF
:1052B00010BD00BF08480020080000203C0000206E
:1052C0004C010020002302E00133DBB20130027800
:1052D000002AF9D1184670474B88012B00D070473F
:1052E00010B50446C0F80432D0F814329B689847D1
:1052F0002046FFF773FE10BD0B7803704B784370A8
:105300008B78CA7803EB022343800B794A7903EB4D
:10531000022383808B79CA7903EB0223C380704711
:1053200010B504468021FFF7CAFD00212046FFF793
:10533000C6FD10BD30B583B004460D464A88130A39
:10534000013B062B00F28180DFE803F00413277F86
:105350007F637000D0F810321B680DF10601007CED
:105360009847BDF8062012B1EB88002B71D103B02D
:1053700030BD037C43B9D0F814329B6A0DF10600AE
:10538000984702234370ECE7D0F81432DB6A0DF142
:105390000600984702234370E3E7D2B2052A34D8C7
:1053A000DFE802F0030B131B232BD0F810325B68ED
:1053B0000DF10601007C9847D3E7D0F810329B68C6
:1053C0000DF10601007C9847CBE7D0F81032DB687E
:1053D0000DF10601007C9847C3E7D0F810321B6935
:1053E0000DF10601007C9847BBE7D0F810325B69ED
:1053F0000DF10601007C9847B3E7D0F810329B69A5
:105400000DF10601007C9847ABE72946FFF788FFBE
:10541000ADE7037C33B9D0F814325B6B0DF10600B5
:1054200098479EE72946FFF77BFFA0E7037C43B937
:10543000D0F814321B6B0DF1060098470723437018
:105440008FE72946FFF76CFF91E72946FFF768FFD2
:105450008DE79A4228BF1A46ADF80620014620463D
:10546000FFF790FD83E738B504468B88E3B9CB8816
:10547000D3B98D7805F07F0590F8FC31032B0CD063
:1054800080F8FE512946FFF74DFD2046FFF7A6FDA7
:1054900035B1022384F8FC3138BDFFF741FF38BD38
:1054A000012384F8FC3138BD2046FFF739FF38BDB1
:1054B00038B504460D468978254B1970012909D85D
:1054C00090F8FC31022B09D0032B1CD02946FFF7A2
:1054D00027FF38BD2946FFF723FF38BD81B1416062
:1054E000032380F8FC31FFF7B2FD022803D02046E9
:1054F000FFF774FD38BD29462046FFF711FF38BD80
:10550000FFF76CFD38BD89B1436899421DD0D9B20F
:10551000FFF7AAFD0E4B197861602046FFF797FD53
:1055200002280DD02046FFF759FD38BD022380F830
:10553000FC314160FFF798FD2046FFF74FFD38BD75
:1055400029462046FFF7ECFE38BDFFF747FD38BD82
:10555000293F002008B5CB88012B08D190F8FC31F9
:10556000022B07D0032B0DD0FFF7DAFE08BDFFF7A3
:10557000D7FE08BD0146002341F8083F0122FFF78E
:1055800001FD08BD0122011DFFF7FCFC08BD08B5A7
:1055900090F8FC31023B012B0CD80123C360D0F8FA
:1055A00004320BB10323C360022200F10C01FFF7A8
:1055B000E9FC08BDFFF7B4FE08BD10B5044690F83D
:1055C000FC31023B012B0ED84B88012B00D010BDC3
:1055D0000023C0F80432D0F814329B689847204664
:1055E000FFF7FCFC10BDFFF79BFEF0E708B54B781A
:1055F000092B1CD8DFE803F012181B151B09051B2B
:105600000F0CFFF797FE002008BDFFF72CFFFAE70D
:10561000FFF74EFFF7E7FFF79DFFF4E7FFF7B7FF50
:10562000F1E7FFF759FEEEE7FFF7C7FFEBE7FFF7FC
:1056300077FEE8E738B504460D4690F8FC31032BB9
:1056400011D10B79012B03D9FFF76AFE002038BD79
:10565000D0F814329B689847EB88002BF6D120468F
:10566000FFF7BCFCF2E7FFF75BFEEFE738B5054656
:105670000C468A880B7803F06003202B11D0D1B23E
:105680006378012B2BD0002B4DD0032B0DD190F83C
:10569000FC31022B0BD0032B10D02146FFF740FE2C
:1056A00003E0D0F814329B689847002038BD0029E9
:1056B000FBD08029F9D0FFF702FCF6E7638823B915
:1056C00019B1802901D0FFF7FAFBD5F814329B6895
:1056D0002146284698472846FFF780FCE5E790F8E2
:1056E000FC31022B05D0032B0AD02146FFF718FE10
:1056F000DBE70029D9D08029D7D0FFF7E0FBD4E73A
:105700006388002BD1D111F07F0F03D12846FFF71A
:1057100065FCCAE7FFF7E1FBD5F814329B68214628
:1057200028469847F2E790F8FC31022B05D0032B6E
:1057300009D02146FFF7F4FDB7E711F07F0FB4D091
:10574000FFF7BDFBB1E712F0800F11D101F07F042C
:10575000103400EB041404342846FFF7CCFB70B17E
:1057600001232360022221462846FFF70BFC9CE719
:1057700001F07F04013400EB04140434ECE700234F
:105780002360EFE7D0B170B50D4616460446FFF72B
:1057900099FD0130400080B23080287003236B7087
:1057A000022307E05A1CD2B20134E9540233DBB2BF
:1057B0000021A95421780029F4D170BD7047002040
:1057C000704700207047000070B504460E46074D34
:1057D00001462846FFF733FA2846FFF74DFA3146CF
:1057E000204600F049F8002070BD00BF08480020A6
:1057F00010B5064C002206492046FFF718FA054965
:105800002046FFF71CFA002010BD00BF084800200A
:10581000304A00202C4A0020094BD3F81832D3F824
:1058200014320BB10120704710B50A460146044CF2
:105830002046FFF7FCF92046FFF707FA10BD00BF2E
:1058400008480020F0B4049F002595420CDA5E5D04
:105850000478A6420BD13C68641B013C1E5D0C78A9
:10586000A64206D10135F0E70120F0BC70470020C8
:10587000FBE70020F9E70000F0B58FB006460F46C1
:1058800009AC144D0FCD0FC42B68236003AC124D2F
:105890000FCD0FC495E8030044F8040B2180009756
:1058A000334604220D490E48FFF7CCFF044618B9D1
:1058B0005CB100200FB0F0BD80210A48FFF740F82E
:1058C000142109A8FFF7A8FFF2E7162103A8FFF7A4
:1058D000A3FFEEE7C85C0008DC5C0008C05C0008C1
:1058E000C45C00080008024010B584B003AB01930B
:1058F000012400940023802207490848FCF7CEF8D1
:1059000002AB019300940023802205490548FCF76F
:10591000C5F804B010BD00BFF45C000829590008A8
:10592000005D00085D59000800B585B0094B93E89B
:10593000070004AB03E9070040210748FFF700F820
:105940000C2101A8FFF768FF4FF47A70FCF72CFADE
:10595000F2E700BF105D00080008024000B585B006
:105960000A4B93E8030000908DF804100023CDF853
:105970000530CDF809308DF80D300E216846FFF75F
:105980004BFF6420FCF710FAF7E700BF105C00083B
:10599000DFF834D0002103E00C4B5B584350043156
:1059A0000B480C4B42189A42F6D30B4A02E00023F4
:1059B00042F8043B094B9A42F9D3FBF711FF00F080
:1059C00011F8FBF72FF8704700000220245D000853
:1059D00000000020C0010020C0010020384A002043
:1059E000FEE7000070B50D4E0D4CA41BA410002561
:1059F000A54209D10B4E0C4C00F0F4F8A41BA410E6
:105A00000025A54205D170BD56F8253098470135CF
:105A1000EEE756F8253098470135F2E71C5D00089F
:105A20001C5D00081C5D0008205D0008024B01465B
:105A3000186800F059B800BF5C010020024B014615
:105A4000186800F003B800BF5C01002038B50546B7
:105A5000002945D051F8043C0C1F002BB8BFE418B6
:105A600000F0B0F81F4A1368104633B96360146041
:105A70002846BDE8384000F0A6B8A3420CD92168FA
:105A80006218934204BF1A685B68636004BF5218CF
:105A900022600460ECE713465A680AB1A242FAD9C0
:105AA00019685818A0420BD1206801445818824246
:105AB0001960DDD1106852685A6001441960D7E757
:105AC00002D90C232B60D3E7206821188A4204BF37
:105AD00011685268626004BF091821605C60C7E702
