:020000040800F2
:1000000000000220111E0008ED1D0008EF1D000871
:10001000F11D0008F31D0008F51D00080000000098
:10002000000000000000000000000000811900082E
:10003000F71D000800000000211A0008F91D000843
:10004000611E0008611E0008611E0008611E000894
:10005000611E0008611E0008611E0008611E000884
:10006000611E0008611E0008611E0008611E000874
:10007000611E0008611E0008611E0008611E000864
:10008000611E0008611E0008611E0008611E000854
:10009000611E0008611E0008611E0008611E000844
:1000A000611E0008011E0008611E0008611E000894
:1000B000611E0008611E0008611E0008611E000824
:1000C000611E0008611E0008611E0008611E000814
:1000D000611E0008611E0008611E0008611E000804
:1000E000611E0008611E0008611E0008611E0008F4
:1000F000611E0008611E0008611E0008611E0008E4
:10010000611E0008611E0008611E0008611E0008D3
:10011000611E0008611E0008611E0008611E0008C3
:10012000611E0008611E0008611E0008611E0008B3
:10013000611E00080000000000000000611E0008B1
:10014000611E0008611E0008611E0008611E000893
:10015000611E0008611E0008611E0008611E000883
:10016000611E0008611E0008611E0008611E000873
:10017000611E0008611E0008000000000000000071
:08018000611E0008611E000869
:1001900010B5054C237833B9044B13B10448AFF3C1
:1001A00000800123237010BD6C00002000000000BF
:1001B000282D00080C4B43B10C480D4910B5AFF386
:1001C00000800C48036823B910BD0A48036833B99E
:1001D0007047094B002BF7D0BDE810401847064B7D
:1001E000002BF5D0184700BF00000000282D0008A4
:1001F000700000206C0000200000000000000000E3
:1002000001F0FF01102A2BDB10F0070F08D010F8C7
:10021000013B013A8B422DD010F0070F42B3F6D1CB
:10022000F0B441EA012141EA014122F007047FF0E4
:1002300000070023F0E80256083C85EA010586EA3B
:10024000010685FA47F5A3FA87F586FA47F6A5FA77
:1002500087F68EB9EED1F0BC01F0FF0102F0070283
:1002600032B110F8013B013A83EA010313B1F8D12E
:100270000020704701387047002D06BF354603380F
:10028000073815F0010F07D1013015F4807F02BF48
:10029000013015F4C03F0130F0BC0138704700BF99
:1002A0000A4B1B681B684BB901234BB9074B1B68F2
:1002B000DB68DB685A68064B1A6070470023F4E776
:1002C0004FF0FF32024B1A60704700BF8C000020D5
:1002D0006401002010B50446006B01F0A1FA20462D
:1002E00001F09EFA10BD2DE9F04780469946089D21
:1002F000099F0A9C266B02F18042013A06EB8206B6
:1003000026F0070600230F2B07D8C85CE21882F8F6
:100310003400CA5C0AB10133F5E7002384F84330A6
:10032000062D00D90625E56265644FF0000AC4F881
:1003300048A0201D01F0B7FA04F1180001F0B3FA4B
:100340002461C5F10705A5616462C4F84CA084F876
:1003500050A04A464146304601F0FCFA206007B101
:100360003C60BDE8F087000038B5002407E004EBEE
:10037000840293000E48184401F08AFA0134062CD6
:10038000F5D90C4D284601F083FA0B4C204601F0BC
:100390007FFA0A4801F07CFA094801F079FA094825
:1003A00001F076FA084B1D60084B1C6038BD00BF99
:1003B00094000020380100204C0100206C01002036
:1003C00098010020840100208C0000209000002073
:1003D00010B5044601F0E6FA204A136801331360B1
:1003E0001F4B1B68002B31D01E4B1B683BB91C4BAD
:1003F0001B68DA6AE36A9A4201D8194B1C601A4AF0
:10040000136801331360E36A01229A4017490868B0
:1004100002430A6003EB83039A00211D1448104431
:1004200001F044FA01F0E0FA0E4B1B686BB10C4B83
:100430001B68DA6AE36A9A4207D24FF080520D4B8A
:100440001A60BFF34F8FBFF36F8F10BD044B1C605A
:100450001368012BD3D1FFF787FFD0E720010020DD
:10046000880000208001002030010020340100209D
:100470009400002004ED00E02DE9F04385B006462D
:100480000F4615469846900001F046F900B38146A4
:10049000542001F041F90446B0B1C0F83090CCB11D
:1004A0000023039302940D9B01930C9B00934346FE
:1004B0002A4639463046FFF716FF2046FFF788FFE9
:1004C000012005B0BDE8F083484601F0A9F9E6E750
:1004D0000024E4E74FF0FF30F3E7000000B583B0FD
:1004E000174B019300230093802216491648FFF70B
:1004F000C3FF012805D0B0F1FF3F17D003B05DF86E
:1005000004FB4FF0500383F31188BFF36F8FBFF3E9
:100510004F8F4FF0FF320D4B1A6001220C4B1A60C7
:1005200000220C4B1A6001F0D9FAE7E74FF05003B4
:1005300083F31188BFF36F8FBFF34F8FFEE700BFC8
:1005400060010020542D0008E1070008640100202C
:1005500080010020AC010020024A136801331360BF
:10056000704700BF2C010020F8B53C4B1B68002BE6
:1005700068D13B4B1D6801351D60C5B9394B1B68FF
:100580001B6843B14FF0500383F31188BFF36F8FA3
:10059000BFF34F8FFEE7334A1168334B1868106082
:1005A0001960324A136801331360FFF779FE304B4C
:1005B0001B689D423AD200242E4B1B68DB6A03EB7A
:1005C00083039A002C4B9B58012B40D901243EE019
:1005D0000124244B1B681B6853B3002353BB214BDE
:1005E0001B68DB68DE6873689D4228D3371D384678
:1005F00001F068F9B36A1BB106F1180001F062F965
:10060000F36A01229A401D49086802430A6003EB1D
:1006100083039A0039461848104401F047F9F26AFA
:10062000144B1B68DB6A9A42D2D2D2E70024D0E78F
:100630000123D3E74FF0FF320D4B1A60BCE70C4AA1
:100640001360B9E70E4A13680133136000240D4BA1
:100650001B6803B101242046F8BD00BF2C01002017
:10066000AC0100208C0000209000002068010020D8
:100670006401002088000020940000203401002044
:1006800028010020B001002038B5354B1B6843B964
:100690004FF0500383F31188BFF36F8FBFF34F8F79
:1006A000FEE701F07FF92E4B1A68013A1A601B68C9
:1006B000002B50D12B4B1B6823B9002401F094F977
:1006C000204638BD0024284B1B681BB3264BDB6833
:1006D000DC6804F1180001F0F5F8251D284601F04A
:1006E000F1F8E36A01229A402049086802430A604F
:1006F00003EB83039A0029461D48104401F0D6F805
:10070000E26A1C4B1B68DB6A9A42DCD301221A4B5B
:100710001A60D8E70CB1FFF7C3FD184B1C6874B919
:10072000154B1B68CBB14FF08052154B1A60BFF3CD
:100730004F8FBFF36F8F0124C0E7013C07D0FFF755
:1007400013FF0028F9D001220B4B1A60F5E70022B5
:100750000A4B1A60E4E70024B0E70024AEE700BFCC
:100760002C010020200100206C0100203401002019
:100770009400002088000020B00100202801002003
:1007800004ED00E0134B1B6813B310B5FFF7E4FE54
:10079000114B1C68FFF778FF24B90E4B1B68002B28
:1007A000F4D110BD01F0FEF80B4BDB68DC68201DB6
:1007B00001F088F8094A1368013B1360054A136881
:1007C000013B136001F010F92046FFF783FDE4E7D9
:1007D000704700BF24010020980100202001002064
:1007E00008B5FFF7CFFF064B1B68012BF9D94FF077
:1007F0008052044B1A60BFF34F8FBFF36F8FF0E747
:100800009400002004ED00E0214B1B68C3B90022D6
:10081000204B1A60204B1B68B3FA83F3DBB2C3F1A1
:100820001F0303EB83018A001C498A5862B94FF009
:10083000500383F31188BFF36F8FBFF34F8FFEE731
:100840000122144B1A60704710B414489A00D4184F
:10085000A10001444C6864684C601A44910008315E
:10086000084484420BD003EB83039A000B4B1344E0
:100870005B68DA680A4B1A605DF8044B7047606881
:1008800003EB83029100054A0A445060EBE700BF86
:100890002C010020B0010020340100209400002031
:1008A00088000020054B1B6823B1054B1B681BB952
:1008B000022070470120704700207047800100200F
:1008C0002C01002070470268D36843F00103D36015
:1008D0000268136843F001031360002070477047FB
:1008E00070477047704710B5044603681A6912F0E4
:1008F000020F11D0DA6812F0020F0DD06FF0020271
:100900001A610123037603689B6913F0030F70D00B
:10091000FFF7E6FF0023237623681A6912F0040F1D
:1009200012D0DA6812F0040F0ED06FF004021A61D0
:100930000223237623689B6913F4407F5FD020460F
:10094000FFF7CEFF0023237623681A6912F0080F01
:1009500012D0DA6812F0080F0ED06FF008021A6198
:10096000042323762368DB6913F0030F4ED020465F
:10097000FFF7B6FF0023237623681A6912F0100FE1
:1009800012D0DA6812F0100F0ED06FF010021A6158
:10099000082323762368DB6913F4407F3DD020468B
:1009A000FFF79EFF0023237623681A6912F0010FD8
:1009B00003D0DA6812F0010F36D123681A6912F0F9
:1009C000800F03D0DA6812F0800F34D123681A69DF
:1009D00012F0400F03D0DA6812F0400F32D12368D2
:1009E0001A6912F0200F03D0DA6812F0200F30D10C
:1009F00010BDFFF774FF2046FFF773FF8AE720461C
:100A0000FFF76DFF2046FFF76CFF9BE72046FFF7DF
:100A100066FF2046FFF765FFACE72046FFF75FFF64
:100A20002046FFF75EFFBDE76FF001021A61204626
:100A300000F068FDC1E76FF080021A61204600F007
:100A400011FCC3E76FF040021A612046FFF74AFF2E
:100A5000C5E76FF020021A61204600F002FCC7E7EC
:100A60000368454A90424AD0B0F1804F49D0A2F580
:100A70007C42904247D002F58062904245D002F518
:100A80008062904243D002F57842904235D00022F5
:100A90001AB123F070034A681343374A90423AD0A0
:100AA000B0F1804F50D0A2F57C4290424ED002F57A
:100AB000806290424CD002F5806290424AD002F5AA
:100AC0007842904248D002F57052904246D002F5EA
:100AD0008062904244D002F58062904242D0A2F5FA
:100AE0009832904240D002F5806290423ED002F5AA
:100AF000806290420DD000220EE00122C8E7012260
:100B0000C6E70122C4E70122C2E70122C0E70122B1
:100B1000BEE7012200E001221AB123F44073CA6843
:100B2000134303608B68C3620B688362124B984265
:100B300020D003F5806398421AD000230BB10B69D3
:100B400003630123436170470122E5E70122E3E7E4
:100B50000122E1E70122DFE70122DDE70122DBE7F5
:100B60000122D9E70122D7E70122D5E70122D3E705
:100B70000123E3E70123E1E700000140A8B110B53C
:100B8000044690F839305BB1022384F83930211DD6
:100B90002068FFF765FF012384F83930002010BD7D
:100BA00080F83830FFF78EFEEEE701207047000036
:100BB00030B583B00446036813F0010F3BD0A94B56
:100BC0009B6803F00C03042B2CD0A64B9B6803F00E
:100BD0000C03082B21D06368B3F5803F4FD0B3F5E9
:100BE000A02F52D09F4B1A6822F480321A601A68E4
:100BF00022F480221A606368002B50D001F042F882
:100C00000546984B1B6813F4003F14D101F03AF8E5
:100C1000401B6428F5D9032099E1924B5B6813F4DB
:100C2000800FD8D08F4B1B6813F4003F03D063684C
:100C3000002B00F08981236813F0020F5BD0894BF1
:100C40009B6813F00C0F3ED0864B9B6803F00C039F
:100C5000082B33D0E368002B74D00122824B1A603A
:100C600001F010F805467F4B1B6813F0020F5AD1B4
:100C700001F008F8401B0228F5D9032067E1794A02
:100C8000136843F480331360B5E7764B1A6842F477
:100C900080221A601A6842F480321A60ABE700F0D2
:100CA000F1FF05466F4B1B6813F4003FC3D000F003
:100CB000E9FF401B6428F5D9032048E1694B5B68D4
:100CC00013F4800FC6D1674B1B6813F0020F04D0DA
:100CD000E368012B01D0012039E16248036823F069
:100CE000F8032169F82292FAA2F2B2FA82F201FA2A
:100CF00002F213430360236813F0080F46D06369C0
:100D000093B30122594B1A6000F0BCFF0546554BC6
:100D10005B6F13F0020F39D100F0B4FF401B0228C3
:100D2000F5D9032013E14F48036823F0F803216944
:100D3000F82292FAA2F2B2FA82F201FA02F2134314
:100D40000360D8E70022484B1A6000F09BFF05467D
:100D5000444B1B6813F0020FCDD000F093FF401BF3
:100D60000228F5D90320F2E00022404B1A6000F07F
:100D700089FF05463B4B5B6F13F0020F06D000F076
:100D800081FF401B0228F5D90320E0E0236813F01F
:100D9000040F20D1A369002B00F0D880314A92685B
:100DA00002F00C02082A00F0D480022B00F08080B0
:100DB00000222F4B1A6000F065FF0446294B1B6888
:100DC00013F0007F00F0BE8000F05CFF001B0228E3
:100DD000F4D90320BBE000230193224B1A6C42F0AC
:100DE00080521A641B6C03F080530193019B214ACB
:100DF000136843F48073136000F044FF05461D4BF5
:100E00001B6813F4807F06D100F03CFF401B0228D2
:100E1000F5D903209BE0A368012B1DD0052B2BD017
:100E2000104B1A6F22F001021A671A6F22F00402A7
:100E30001A67A36853B300F025FF0546094B1B6FE3
:100E400013F0020FA6D100F01DFF401B41F28833C2
:100E50009842F3D903207AE0024A136F43F001036A
:100E60001367E6E70038024000004742800E474221
:100E70006000474200700040374B1A6F42F0040296
:100E80001A671A6F42F001021A67D2E700F0FAFE01
:100E90000546314B1B6F13F0020F3FF47BAF00F0A0
:100EA000F1FE401B41F288339842F2D903204EE014
:100EB00000222A4B1A6000F0E5FE0546264B1B680F
:100EC00013F0007F06D000F0DDFE401B0228F5D9AC
:100ED00003203CE0E369226A1343616A47F6C0726B
:100EE00092FAA2F2B2FA82F201FA02F21343A26A71
:100EF0005208013A4FF4403191FAA1F1B1FA81F16F
:100F00008A401343E16A4FF0706292FAA2F2B2FA99
:100F100082F201FA02F213430F4A536001220F4B8F
:100F20001A6000F0AFFE04460B4B1B6813F0007F05
:100F300006D100F0A7FE001B0228F5D9032006E029
:100F4000002004E0002002E0012000E0002003B0C7
:100F500030BD0120FBE700BF00380240600047427F
:100F6000214B9B6803F00C03042B3AD0082B01D0D3
:100F70001E4870471C4B586800F03F005B6813F434
:100F8000800F1ED01A4AB2FBF0F2174B586847F692
:100F9000C073184093FAA3F3B3FA83F3D84000FB6D
:100FA00002F0114B5B6803F440334FF4403292FA85
:100FB000A2F2B2FA82F2D34001335B00B0FBF3F04D
:100FC00070470A4AB2FBF0F2074B586847F6C07305
:100FD000184093FAA3F3B3FA83F3D84000FB02F06E
:100FE000DFE70348704700BF003802400024F400E8
:100FF00040787D01624B1B6803F00F038B4209D2DE
:10100000CBB25F4A1370136803F00F03994201D00B
:101010000120704770B5036813F0020F06D0594ADB
:10102000936823F0F0038468234393600D460446DD
:10103000036813F0010F64D04368012B26D09A1E79
:10104000012A2AD94F4A126812F0020F00F0968046
:101050004C498A6822F0030213438B6000F012FEB1
:1010600006466368012B1FD0022B2CD0032B39D0EE
:10107000444B9B6813F00C0F43D000F003FE801B21
:1010800041F288339842F3D9032070BD3D4A12687B
:1010900012F4003FDCD1012070BD3A4A126812F010
:1010A000007FD5D1012070BD364B9B6803F00C0347
:1010B000042B26D000F0E6FD801B41F288339842D5
:1010C000F2D9032070BD2F4B9B6803F00C03082B53
:1010D00017D000F0D7FD801B41F288339842F2D937
:1010E000032070BD274B9B6803F00C030C2B08D02A
:1010F00000F0C8FD801B41F288339842F2D90320EA
:1011000070BD1F4B1B6803F00F039D4209D2EAB26A
:101110001B4B1A701B6803F00F039D4201D0012086
:1011200070BD236813F0040F06D0164A936823F4A9
:10113000E053E1680B439360236813F0080F07D076
:10114000104A936823F46043216943EAC103936022
:10115000FFF706FF0B4B9B6803F0F003F02292FAB7
:10116000A2F2B2FA82F2D340074AD35CD840074BCE
:101170001860002000F028FD002070BD012070BD27
:10118000003C024000380240902D0008040000207E
:10119000014B1868704700BF0400002008B5FFF736
:1011A000F7FF074B9B6803F460434FF4604292FAE9
:1011B000A2F2B2FA82F2D340024AD35CD84008BD10
:1011C00000380240A02D00080F2303600B4B9A68E3
:1011D00002F0030242609A6802F0F00282609A68AC
:1011E00002F4E052C2609B68DB0803F4E053036141
:1011F000034B1B6803F00F030B607047003802407D
:10120000003C024008B5032000F054FD00221146C6
:101210006FF00B0000F060FD002211466FF00A0035
:1012200000F05AFD002211466FF0090000F054FD55
:10123000002211466FF0040000F04EFD002211461E
:101240006FF0030000F048FD00220F216FF0010055
:1012500000F042FD00220F214FF0FF3000F03CFD76
:1012600008BD704770470000F0B583B000244BE024
:101270004FEAD40E0EF1080E50F82E2004F00706A7
:10128000B6000F27B74022EA07020F6907FA06F6F1
:10129000324340F82E2046E0072600E0002606FAFA
:1012A0000EF6324302335E4E46F823205D4B1A6839
:1012B000EB4302EA03064F6817F4803F01D045EA8A
:1012C0000206584A1660526803EA02064F6817F48D
:1012D000003F01D045EA0206524A5660926803EA8E
:1012E00002064F6817F4801F01D045EA02064D4AF6
:1012F0009660D26813404E6816F4001F01D045EA8C
:101300000203484AD36001340F2C00F28680012387
:10131000A3400A6803EA0205AB42F4D14A68022AF4
:10132000A6D0122AA4D006684FEA440E032202FA7D
:101330000EF2D24316404F6807F0030707FA0EF784
:101340003E4306604E68771E012F03D9112E01D04F
:10135000122E0FD186681640CF6807FA0EF73E436B
:101360008660466826EA03034E68C6F30016A64068
:1013700033434360C3681A408B6803FA0EF31A4381
:10138000C2604B6813F0805FBDD000230193264BF1
:101390005A6C42F480425A645B6C03F480430193BC
:1013A000019BA3089E1C1E4A52F8262004F0030647
:1013B0004FEA860E0F2606FA0EF622EA06021B4FA9
:1013C000B8423FF46BAF1A4EB0421AD006F58066B1
:1013D000B04218D006F58066B04216D006F5806699
:1013E000B04214D006F58066B04212D006F5806691
:1013F000B04210D006F58066B0423FF44DAF0826EB
:101400004DE701264BE7022649E7032647E7042676
:1014100045E7052643E7062641E703B0F0BD00BFD8
:1014200000380140003C014000380240000002400A
:101430000004024012B9090481617047816170475C
:10144000436959404161704730B58BB00024019425
:101450001C4B1A6B42F080021A631A6B02F0800276
:101460000192019A02941A6B42F004021A631A6BF9
:1014700002F004020292029A03941A6B42F00102F3
:101480001A631A6B02F001020392039A04941A6B16
:1014900042F002021A631B6B03F002030493049BE5
:1014A000094D2246C0212846FFF7C4FFC0230593FB
:1014B000012306930794089405A92846FFF7D4FE54
:1014C0000BB030BD003802400008024008B50A48A1
:1014D00000F0F4FC094800F0F1FC094C80212046A2
:1014E000FFF7AEFF40212046FFF7AAFF4FF47A70C6
:1014F00000F0CEFBEEE700BF5C2D00086C2D00086D
:101500000008024008B50268034B9A4200D008BDAB
:1015100000F0B0FBFBE700BF00000140FEE7000069
:1015200000B595B000230193234A116C41F080511E
:101530001164126C02F080520192019A02931F4AC8
:10154000116841F480411160126802F480420292F5
:10155000029A0222089201220B9210220C920E9300
:1015600008A8FFF725FBF0B90F230393002104918E
:1015700005910691079103A8FFF73CFDB8B9FFF765
:1015800007FE0F4BA3FB0030800900F0E3FB0420B3
:1015900000F0F6FB00220F214FF0FF3000F09CFB23
:1015A00015B05DF804FBAF210648FFF7B7FFBD217A
:1015B0000448FFF7B3FF00BF00380240007000404E
:1015C000D34D6210782D000800B587B000F038FBCD
:1015D000FFF7A6FFFFF738FF01AC074D0FCD0FC493
:1015E0002B682360002101A800F015F8034B186058
:1015F00000F00CF8FEE700BF402D0008E03D0020A1
:10160000842801D0033070470020704708B5FEF7EA
:1016100065FF002008BDF0B585B00F464468056839
:101620000669B0F90800FFF7EBFF03AB01930090E8
:101630003B46B2B229462046FEF71EFF012802D1E2
:10164000039805B0F0BD0020FBE708B5FFF72AF9C5
:10165000012801D000F016FA08BD0000124A12F06D
:10166000070F1ED0D11D21F00701C1F5705313449F
:101670000A460E480260002141601344083B23F0F3
:1016800007030B48036059601960991A5160136091
:10169000084B1960084B19604FF00042074B1A6065
:1016A00070474FF47053E4E7B8010020C43D0020B8
:1016B000B4010020C03D0020BC3D0020B83D00200A
:1016C00010B4134B1A6882421BD359685C18A042AD
:1016D00003D1406801445960184641684418A24249
:1016E00013D10C4C2468A2420DD0526811444160C1
:1016F0001A6812680260984200D018605DF8044BC6
:1017000070471346DEE70460F5E70260F3E700BFC9
:10171000C43D0020B401002070B50446FEF71CFF54
:101720003A4B1B68BBB13A4B1B681C4263D1ACB14E
:10173000083414F0070F11D024F00704083404F023
:1017400007035BB14FF0500383F31188BFF36F8F32
:10175000BFF34F8FFEE7FFF781FFE4E7002C4CD08B
:101760002C4B1B689C424AD82B4B1D6801E02B4632
:1017700015466A68944202D92A68002AF7D1234A9A
:10178000126895423DD01E6808362A681A606B6858
:101790001B1B102B10D9281910F0070F08D04FF081
:1017A000500383F31188BFF36F8FBFF34F8FFEE7B2
:1017B00043606C60FFF784FF6A6816490B689B1AE8
:1017C0000B60164909688B4201D214490B60104B1B
:1017D0001B6813436B6000232B60FEF755FF16F068
:1017E000070F10D04FF0500383F31188BFF36F8FB2
:1017F000BFF34F8FFEE70026EFE70026EDE7002658
:10180000EBE70026E9E7304670BD00BFB4010020D9
:10181000B83D0020BC3D0020C43D0020C03D00205C
:1018200080B338B50446A0F1080550F8042C1649D9
:1018300009680A4208D14FF0500383F31188BFF3BF
:101840006F8FBFF34F8FFEE750F8080C40B14FF099
:10185000500383F31188BFF36F8FBFF34F8FFEE701
:1018600022EA010244F8042CFEF776FE54F8041C28
:10187000064A13680B4413602846FFF721FFFEF762
:1018800003FF38BD704700BFB83D0020BC3D0020BD
:1018900000F1080343604FF0FF328260C3600361D0
:1018A00000230360704700230361704743684B6067
:1018B0009A688A609A685160996008610368013388
:1018C000036070470369426881689160826841687B
:1018D00051605A68904205D00022026118680138B0
:1018E0001860704782685A60F6E700000B4B1B686F
:1018F000B3F1FF3F08D04FF0500383F31188BFF3DB
:101900006F8FBFF34F8FFEE74FF0500383F31188C3
:10191000BFF36F8FBFF34F8FFEE700BF00000020C3
:1019200006480068006880F3088862B661B6BFF3B5
:101930004F8FBFF36F8F00DF00BF000008ED00E0A6
:10194000DFF80C00016841F470010160704700008D
:1019500088ED00E04FF0807340F8043C21F0010175
:1019600040F8081C054B40F80C3C40F8202C6FF068
:10197000020340F8243C4438704700BFED180008CB
:10198000074B19680868B0E8F04F80F30988BFF387
:101990006F8F4FF0000080F311887047AFF3008025
:1019A000880000204FF0500383F31188BFF36F8F3E
:1019B000BFF34F8F0A4A136801331360012B0DD117
:1019C000084B1B6813F0FF0F08D04FF0500383F350
:1019D0001188BFF36F8FBFF34F8FFEE7704700BFD3
:1019E0000000002004ED00E0094B1B6843B94FF0F4
:1019F000500383F31188BFF36F8FBFF34F8FFEE760
:101A0000013B034A13600BB983F31188704700BF91
:101A100000000020000000000000000000000000A6
:101A2000EFF30980BFF36F8F154B1A681EF0100F8C
:101A300008BF20ED108A20E9F04F10604DF8043DFA
:101A40004FF0500080F31188BFF34F8FBFF36F8FBB
:101A5000FEF7DAFE4FF0000080F3118808BC196829
:101A60000868B0E8F04F1EF0100F08BFB0EC108A05
:101A700080F30988BFF36F8F704700BFAFF300801A
:101A80008800002008B54FF0500383F31188BFF39E
:101A90006F8FBFF34F8FFEF767FD18B14FF0805285
:101AA000024B1A60002383F3118808BD04ED00E0A7
:101AB000064B1B68064AA2FB03239B09013B054A10
:101AC00013600722044B1A60704700BF0400002017
:101AD000D34D621014E000E010E000E0314B1A68D2
:101AE000314B9A421AD02F4B1A68304B9A421ED073
:101AF00000B583B02E4B1A78D2B20192FF221A7031
:101B00001B78DBB28DF803309DF8033003F05003EF
:101B1000284A13700722284B1A601BE04FF050032D
:101B200083F31188BFF36F8FBFF34F8FFEE74FF042
:101B3000500383F31188BFF36F8FBFF34F8FFEE71E
:101B40001D4A1368013B13609DF803305B00DBB254
:101B50008DF803309DF8033013F0800FF0D1164A52
:101B600013681B0203F4E0631360019BDBB2104AAD
:101B70001370124B1A6842F470021A601A6842F02D
:101B800070421A60FFF794FF00220D4B1A60FFF7B6
:101B9000D7FE0C4A136843F040431360FFF7C0FEC2
:101BA000FFF7A4FE00ED00E071C20F4170C20F41CB
:101BB00000E400E0CC3D0020D03D002020ED00E01E
:101BC0000000002034EF00E010B588B0002201468C
:101BD000192000F081F8192000F0B0F800240194D9
:101BE000134B5A6C42F001025A645B6C03F0010320
:101BF0000193019B02A903A8FFF7E6FAFFF7CEFACB
:101C00000C4BA3FB00239B0C013B0B480B4A0260CF
:101C100040F2E732C260436004618460FEF7AEFFC9
:101C200010B1012008B010BD0348FEF74CFEF9E7E3
:101C30000038024083DE1B43E43D002000000140E9
:101C400008B50B4B1A6842F400721A601A6842F425
:101C500080621A601A6842F480721A60032000F0F1
:101C600029F80020FFF7B0FFFFF7CCFA002008BDED
:101C7000003C0240024A136801331360704700BF02
:101C8000203E0020014B1868704700BF203E002016
:101C900030B583B00190FFF7F5FF0546019CB4F124
:101CA000FF3F00D00134FFF7EDFF401BA042FAD305
:101CB00003B030BD074AD36823F4E0631B041B0C58
:101CC000000200F4E060184340F0BF6040F40030D0
:101CD000D060704700ED00E030B4164BDB68C3F312
:101CE0000223C3F10704042C28BF04241D1D062D64
:101CF00017D9033B012505FA04F4013C2140994022
:101D000005FA03F3013B1340194300280BDB0901DB
:101D1000C9B200F1604000F5614080F8001330BCAA
:101D200070470023E6E700F00F000901C9B2024B3B
:101D30001954F4E700ED00E014ED00E0420900F072
:101D40001F00012303FA00F0014B43F82200704703
:101D500000E100E00138B0F1807F0AD2064B586004
:101D6000F021064A82F823100020986007221A60AA
:101D700070470120704700BF10E000E000ED00E078
:101D8000042805D0054A136823F004031360704744
:101D9000024A136843F004031360704710E000E048
:101DA0000F49D1F8883043F47003C1F888300D4BE7
:101DB0001A6842F001021A60002098601A6822F046
:101DC000847222F480321A60074A5A601A6822F438
:101DD00080221A60D8604FF000638B60704700BFAC
:101DE00000ED00E000380240103000247047FEE7AC
:101DF000FEE7FEE7FEE7704708B5FFF726FC08BDE3
:101E000008B50248FEF76FFD08BD00BFE43D0020A5
:101E1000DFF834D0002103E00C4B5B584350043111
:101E20000B480C4B42189A42F6D30B4A02E00023AF
:101E300042F8043B094B9A42F9D3FFF7B1FF00F097
:101E400011F8FFF7C1FB704700000220482E000880
:101E5000000000206C0000206C000020283E0020C4
:101E6000FEE7000070B50D4E0D4CA41BA41000251C
:101E7000A54209D10B4E0C4C00F056FFA41BA41038
:101E80000025A54205D170BD56F82530984701358B
:101E9000EEE756F8253098470135F2E7402E000866
:101EA000402E0008402E0008442E0008024403463D
:101EB000934200D1704703F8011BF9E70FB40A4BB6
:101EC00013B51C6824B1A36913B9204600F04EF87D
:101ED00005AB049AA1680193204600F059F902B0BD
:101EE000BDE8104004B0704708000020014900F030
:101EF000A9B800BF652A0008002310B50446036096
:101F00004360836081814366C28103614361836171
:101F1000194608225C30FFF7C9FF054B6362054B89
:101F2000A362054BE362054B2462236310BD00BF2F
:101F3000092700082B2700086327000887270008C7
:101F400070B54A1E682555430E4605F1740100F030
:101F500097F8044640B1002180E842000C30A060B0
:101F600005F16802FFF7A2FF204670BD836910B536
:101F7000044633BB8364C3640365124B124A1B6877
:101F80008262984204BF0123836100F01FF8606001
:101F9000204600F01BF8A060204600F017F8002251
:101FA000E06004216068FFF7A7FF01220921A06813
:101FB000FFF7A2FF02221221E068FFF79DFF012335
:101FC000A36110BDA82D0008ED1E0008F8B51C4B3C
:101FD0001E68B369074613B93046FFF7C7FF483696
:101FE000B4687368013B03D5336833B13668F7E7EB
:101FF000B4F90C506DB16834F4E704213846FFF7AA
:102000009FFF30600028F1D10C233B60044620463E
:10201000F8BD4FF6FF73E3810123A3816566256058
:10202000A560656025616561A5610822294604F106
:102030005C00FFF73BFF6563A563A564E564E6E725
:10204000A82D00082DE9F8438046894600F1480490
:10205000002614B93046BDE8F883A5686768013FDB
:1020600001D52468F5E7AB89012B07D9B5F90E3006
:10207000013303D029464046C84706436835EEE79A
:1020800070B5CD1C25F0030508350C2D38BF0C2587
:10209000002D064601DBA94203D90C233360002042
:1020A00070BD00F07FFD234A1468214691B9224C8F
:1020B00023681BB9304600F017FB206029463046E4
:1020C00000F012FB431C26D10C233360304600F095
:1020D0006AFDE4E70B685B1B1AD40B2B0FD90B606E
:1020E000CD50CC18304600F05EFD04F10B00231DEE
:1020F00020F00700C31A1BD05A42E25070BD8C4238
:102100000DBF63684B686360136018BF0C46E9E756
:102110000C464968CAE7C41C24F00304A04205D059
:10212000211A304600F0E0FA0130CDD02560D9E721
:1021300070BD00BFD43D0020D83D00209368013B16
:10214000002B10B4936009DA9469A34202DBCBB28E
:102150000A2B03D15DF8044B00F01ABB1368581C1E
:1021600010601970C8B25DF8044B7047F8B50646A8
:102170000F461446D518AC4201D1002007E03A467C
:1021800014F8011B3046FFF7D9FF431CF3D1F8BD0B
:102190002DE9F04F9DB00C4617460393064618B143
:1021A00083690BB9FFF7E2FE7C4B9C4257D1746800
:1021B000A38918075DD52369002B5AD00023099302
:1021C00020238DF8293030238DF82A304FF0010B71
:1021D000B846454615F8013B002B55D1B8EB070A28
:1021E0000BD053463A4621463046FFF7BFFF013039
:1021F00000F0C480099B5344099398F80030002BE9
:1022000000F0BC8000234FF0FF3204930793059247
:1022100006938DF853301A93052229786048FDF70C
:10222000EFFF05F10108049B002831D1D90644BF16
:1022300020228DF853201A0744BF2B228DF85320FB
:102240002A782A2A2CD0079A00210A20A84601358C
:1022500098F80030303B092B6DD971B326E0514B13
:102260009C4201D1B468A3E74F4B9C4208BFF4687D
:102270009EE72146304600F0EFFA00289ED04FF04E
:10228000FF301DB0BDE8F08F252BA7D0A846A0E7F2
:10229000434A801A0BFA00F0184304904546BBE706
:1022A000039A111D12680391002A01DB079204E0D2
:1022B000524243F002030792049398F800302E2B09
:1022C00010D198F801302A2B08F1010137D1039B76
:1022D0001A1D1B680392002BB8BF4FF0FF3308F1A3
:1022E00002080593314D98F8001003222846FDF7A7
:1022F00087FF40B14023401B03FA00F0049B0343D7
:10230000049308F1010898F8001029488DF8281066
:10231000062208F10107FDF773FF002834D0254B92
:1023200003BB039B073323F0070308330393099B85
:102330004B4409934CE700FB0232012186E700235E
:10234000059318460A258846013198F80020303A4E
:10235000092A03D9002BC5D00590C3E705FB00204F
:102360000123F0E703AB00932246134B04A9304648
:10237000AFF30080B0F1FF3F8146D8D1A3895B065F
:102380003FF57DAF09987CE703AB009322460A4BEB
:1023900004A9304600F088F8ECE700BFCC2D000817
:1023A0000C2E0008EC2D0008AC2D0008122E0008A1
:1023B000162E0008000000006D2100082DE9F047EE
:1023C00091461F468A680B69DDF820809342B8BFAA
:1023D0001346C9F8003091F8432006460C4612B166
:1023E0000133C9F800302368990642BFD9F800309C
:1023F0000233C9F80030256815F0060507D104F14D
:10240000190AE368D9F800209B1A9D4229DB94F849
:1024100043302268003318BF012392062ED404F102
:10242000430239463046C047013021D02368E56871
:10243000D9F8002003F00603042B08BFAD1AA368E7
:1024400022690CBF25EAE57500259342C4BF9B1A9B
:10245000ED184FF000091A344D451BD10020BDE89E
:10246000F0870123524639463046C047013003D138
:102470004FF0FF30BDE8F0870135C2E7E1185A1C84
:10248000302081F84300224494F8451082F843102C
:102490000233C4E70123224639463046C0470130A3
:1024A000E6D009F10109D7E72DE9F04317460A7E86
:1024B00085B06E2A984606460C460C9B01F1430EE9
:1024C00000F0BC801AD8632A2ED00AD8002A00F067
:1024D000C880582A00F08A8004F1420584F842201E
:1024E0002AE0642A01D0692AF6D121681A6811F01D
:1024F000800F23D0111D1960136827E0732A00F0A4
:10250000B48008D86F2A2AD0702AE5D10A6842F030
:1025100020020A6003E0752A21D0782ADCD17822D3
:1025200084F845206E4964E01A6801F14205111DE6
:102530001960136884F842300123A3E011F0400FC2
:1025400002F104011960D7D0B2F90030002B03DA90
:102550002D225B4284F8432062490A2217E020685A
:10256000196810F0800F03D0081D18600B6806E092
:1025700010F0400F01F104001860F7D00B885949A2
:102580006F2A14BF0A220822002084F843006568DD
:10259000A560002DC0F29C80206820F0040020601F
:1025A000002B3FD1002D40F095807546082A0BD1B5
:1025B0002368DA0708D5236962689A42DEBF3023B0
:1025C00005F8013C05F1FF35AEEB05032361CDF8BD
:1025D00000803B4603AA21463046FFF7EFFE01305C
:1025E00055D14FF0FF3005B0BDE8F08381F84520AC
:1025F0003C492268186812F0800F00F104051D6044
:1026000001D0036802E05506FBD50388D00744BF1C
:1026100042F0200222601BB9226822F020022260D0
:102620001022B1E77546B3FBF2F002FB1033CB5C2E
:1026300005F8013D03460028F5D1B7E708681A6898
:10264000496910F0800F04D0101D186013681960DC
:1026500007E010F0400F02F1040018601368F6D094
:102660001980002323617546B1E71A68111D1960AE
:102670001568626800212846FDF7C2FD08B1401BBD
:10268000606063682361002384F843309FE7236917
:102690002A4639463046C0470130A2D023689B07FE
:1026A00007D5002504F11909E368039A9B1A9D4296
:1026B00005DBE068039B9842B8BF184693E7012307
:1026C0004A4639463046C04701308AD00135EBE7EB
:1026D000002BA7D10B7884F8423004F1420565E75E
:1026E0002E2E00081D2E000838B5064C0023054686
:1026F0000846236000F002FB431C02D1236803B1AB
:102700002B6038BD243E002010B50C46B1F90E10E8
:1027100000F098FA0028ABBF636DA3891B1823F45F
:102720008053ACBF6365A38110BD2DE9F0411F4606
:102730008B89DB0505460C46164605D5022300228B
:10274000B1F90E1000F0B8F9A389B4F90E1023F412
:102750008053A38132463B462846BDE8F04100F055
:1027600069B810B50C46B1F90E1000F0A5F9431C7C
:10277000A38915BF606523F4805343F48053A3817C
:1027800018BFA38110BDB1F90E1000F0D3B800003E
:10279000F8B50E461446054618B183690BB9FFF724
:1027A000E5FB214B9C422AD16C68A369A360A389F5
:1027B0001A072ED5236963B323692068C01A636999
:1027C000F6B29842374604DB2146284600F04AF923
:1027D00028BBA368013BA36023685A1C22601E70BB
:1027E00063690130984204D0A389DB0719D50A2E0A
:1027F00017D12146284600F035F990B10FE00B4B78
:102800009C4201D1AC68D0E7094B9C4208BFEC6800
:10281000CBE72146284600F01FF80028CCD04FF027
:10282000FF373846F8BD00BFCC2D0008EC2D00085E
:10283000AC2D000838B5074C054608461146002265
:1028400022601A4600F068FA431C02D1236803B1E3
:102850002B6038BD243E0020324B70B51D68064603
:102860000C4625B1AB6913B92846FFF77FFB2E4B09
:102870009C420FD16C68B4F90C309AB215072CD475
:10288000D00611D40922326043F04003A3814FF0F7
:10289000FF3070BD254B9C4201D1AC68EBE7244B67
:1028A0009C4208BFEC68E6E7510712D5616B41B165
:1028B00004F14403994202D0304600F075F9002338
:1028C0006363A38923F02403A38100236360236946
:1028D0002360A38943F00803A38123694BB9A3892B
:1028E00003F42073B3F5007F03D02146304600F097
:1028F00019F9A28912F001030CD00023A3606369C7
:102900005B42A361236953B9B4F90C3013F0800022
:10291000BAD170BD920758BF6369A360F2E7002087
:10292000F7E700BF08000020CC2D0008EC2D0008C0
:10293000AC2D000838B5064C002305460846236038
:1029400000F0B4F9431C02D1236803B12B6038BDF9
:10295000243E00208A892DE9F041054610070C46E7
:102960005AD44B68002B05DC0B6C002B02DC0020DA
:10297000BDE8F081E66A002EF9D0002312F48052FF
:102980002F682B6033D0606DA3895A0705D5636823
:10299000C01A636B0BB1236CC01A00230246E66AAF
:1029A000216A2846B047431CA38906D129681D29FE
:1029B0004BD82B4ACA40D60747D500226260D904BB
:1029C0002269226004D5421C01D12B6803B96065DD
:1029D000616B2F600029CAD004F14403994202D0F0
:1029E000284600F0E1F800206063BDE8F081216A2C
:1029F00001232846B047411CC6D12B68002BC3D009
:102A00001D2B01D0162B01D12F60B0E7A38943F015
:102A10004003A381BDE8F0810F69002FA7D0930781
:102A20000E6808BF4B690F6018BF0023A6EB0708AC
:102A30008B60B8F1000F9ADD43463A46216AA66AD8
:102A40002846B047002807DCA38943F04003A38150
:102A50004FF0FF30BDE8F0810744A8EB0008E8E73D
:102A60000100402038B50B6905460C46DBB118B1B2
:102A700083690BB9FFF77AFA0C4B9C4209D16C6859
:102A8000B4F90C307BB121462846BDE83840FFF749
:102A900061BF074B9C4201D1AC68F1E7054B9C42FA
:102AA00008BFEC68ECE7002038BD00BFCC2D000863
:102AB000EC2D0008AC2D000838B5074C054608463B
:102AC0001146002222601A4600F008F9431C02D188
:102AD000236803B12B6038BD243E002070B50E463C
:102AE000B1F90E10002990B014461D4607DA0023F4
:102AF0002B60B3891A0610D44FF480630EE001AA4C
:102B000000F0B2F80028F2DB029A02F47042A2F55B
:102B100000535A425A412A60EEE7402300202360C6
:102B200010B070BD8B8973B59D0706460C4607D55E
:102B300004F14703236023610123636102B070BD88
:102B400001AB6A46FFF7CAFF009905463046FFF71A
:102B500097FA48B9B4F90C309A05EFD423F003037F
:102B600043F00203A381E3E70D4BB362A389206026
:102B700043F08003A381009B6361019B20615BB1F3
:102B8000B4F90E10304600F081F828B1A38923F083
:102B9000030343F00103A381A3891D43A581CDE76E
:102BA000ED1E00087047704738B50546002945D02E
:102BB00051F8043C0C1F002BB8BFE418FFF7F2FFDC
:102BC0001F4A1368104633B9636014602846BDE895
:102BD0003840FFF7E8BFA3420CD92168621893423E
:102BE00004BF1A685B68636004BF52182260046007
:102BF000ECE713465A680AB1A242FAD91968581884
:102C0000A0420BD120680144581882421960DDD1DE
:102C1000106852685A6001441960D7E702D90C2342
:102C20002B60D3E7206821188A4204BF11685268DC
:102C3000626004BF091821605C60C7E738BD00BF4F
:102C4000D43D002038B5074C054608461146002201
:102C500022601A4600F04AF8431C02D1236803B1EF
:102C60002B6038BD243E002038B5074C00230546B4
:102C700008461146236000F021F8431C02D1236866
:102C800003B12B6038BD00BF243E002038B5064C90
:102C9000002305460846236000F018F8431C02D1C3
:102CA000236803B12B6038BD243E0020024B58221C
:102CB0001A604FF0FF307047243E0020024B58222C
:102CC0001A604FF0FF307047243E0020024B58221C
:102CD0001A600020704700BF243E0020024B58229B
:102CE0001A604FF0FF307047243E0020024B5822FC
:102CF0001A604FF0FF307047243E0020044A054917
:102D00001368002B08BF0B46184410601846704724
:102D1000DC3D0020283E0020024B58221A604FF074
:102D2000FF307047243E0020F8B500BFF8BC08BC57
:102D30009E467047F8B500BFF8BC08BC9E46704779
:102D4000842D0008CD1400080000000000000000E1
:102D50008000000049444C4500000000686974741C
:102D6000696E67206D61696E00000000696E7369AD
:102D70006465206C6F6F70005372632F6D61696EB4
:102D80002E63000064656661756C745461736B003A
:102D9000000000000000000001020304060708090B
:102DA00000000000010203040C00002000000000ED
:102DB0000000000000000000000000000000000013
:102DC0000000000000000000000000000000000003
:102DD00000000000000000000000000000000000F3
:102DE00000000000000000000000000000000000E3
:102DF00000000000000000000000000000000000D3
:102E0000000000000000000000000000232D302B17
:102E10002000686C4C0065666745464700303132DB
:102E20003334353637383941424344454600303132
:102E30003233343536373839616263646566000091
:042E4000B5010008D0
:042E440091010008F0
:102E4800AAAAAAAA0024F4000C000020000000008E
:102E5800CC2D0008EC2D0008AC2D00080000000067
:102E6800000000000000000000000000000000005A
:102E7800000000000000000000000000000000004A
:102E8800000000000000000000000000000000003A
:102E9800000000000000000000000000000000002A
:0C2EA8000000000000000000000000001E
:0400000508001E11C0
:00000001FF
